{
  "address": "0x3D1FE4DA8812f506f65FfD5e61E2c3f6A01cCD39",
  "abi": [
    {
      "inputs": [],
      "name": "TEST_CHAIN_SELECTOR",
      "outputs": [
        {
          "internalType": "uint64",
          "name": "",
          "type": "uint64"
        }
      ],
      "stateMutability": "view",
      "type": "function"
    },
    {
      "inputs": [],
      "name": "TEST_MESSAGE_ID",
      "outputs": [
        {
          "internalType": "bytes32",
          "name": "",
          "type": "bytes32"
        }
      ],
      "stateMutability": "view",
      "type": "function"
    },
    {
      "inputs": [
        {
          "internalType": "address",
          "name": "_user",
          "type": "address"
        },
        {
          "internalType": "address",
          "name": "_veChildChain",
          "type": "address"
        },
        {
          "internalType": "uint256",
          "name": "_amount",
          "type": "uint256"
        },
        {
          "internalType": "uint256",
          "name": "_endTime",
          "type": "uint256"
        },
        {
          "internalType": "uint256",
          "name": "_totalSupply",
          "type": "uint256"
        },
        {
          "internalType": "uint256",
          "name": "_totalSupplyEndTime",
          "type": "uint256"
        }
      ],
      "name": "ccipReceiveVotingPower",
      "outputs": [],
      "stateMutability": "nonpayable",
      "type": "function"
    },
    {
      "inputs": [
        {
          "internalType": "bytes",
          "name": "_data",
          "type": "bytes"
        },
        {
          "internalType": "address",
          "name": "_sender",
          "type": "address"
        }
      ],
      "name": "getCCIPMessage",
      "outputs": [
        {
          "components": [
            {
              "internalType": "bytes32",
              "name": "messageId",
              "type": "bytes32"
            },
            {
              "internalType": "uint64",
              "name": "sourceChainSelector",
              "type": "uint64"
            },
            {
              "internalType": "bytes",
              "name": "sender",
              "type": "bytes"
            },
            {
              "internalType": "bytes",
              "name": "data",
              "type": "bytes"
            },
            {
              "components": [
                {
                  "internalType": "address",
                  "name": "token",
                  "type": "address"
                },
                {
                  "internalType": "uint256",
                  "name": "amount",
                  "type": "uint256"
                }
              ],
              "internalType": "struct Client.EVMTokenAmount[]",
              "name": "destTokenAmounts",
              "type": "tuple[]"
            }
          ],
          "internalType": "struct Client.Any2EVMMessage",
          "name": "ccipMessage",
          "type": "tuple"
        }
      ],
      "stateMutability": "pure",
      "type": "function"
    }
  ],
  "bytecode": "0x608060405234801561000f575f80fd5b506107058061001d5f395ff3fe608060405234801561000f575f80fd5b506004361061004a575f3560e01c80635d561c1d1461004e5780638dd5d63714610074578063caa2b5541461008a578063d2f9f162146100aa575b5f80fd5b610056600181565b60405167ffffffffffffffff90911681526020015b60405180910390f35b61007c6100bf565b60405190815260200161006b565b61009d610098366004610387565b610110565b60405161006b9190610490565b6100bd6100b836600461054a565b610208565b005b6040518060400160405280600f81526020016e1d195cdd081b595cdcd859d9481a59608a1b8152506040516020016100f7919061059b565b6040516020818303038152906040528051906020012081565b6040805160a0810182525f8082526020820152606091810182905281810182905260808101919091526040805160e081018252600f60a082019081526e1d195cdd081b595cdcd859d9481a59608a1b60c0830152915190918291610177919060200161059b565b60408051808303601f190181529181528151602092830120835260018383015280516001600160a01b038716818401528151808203840181529082018252838201526060830187905280515f808252928101909152608090920191906101fe565b604080518082019091525f80825260208201528152602001906001900390816101d85790505b5090529392505050565b5f61021342856105ca565b61021d90866105e3565b90505f61022a42866105ca565b6102349083610602565b60408051608081018252600f83810b825285900b6020820152429181018290524360608201529192505f9061026990866105ca565b61027390876105e3565b90505f61028042876105ca565b61028a9083610602565b90505f604051806080016040528084600f0b815260200183600f0b81526020014281526020014381525090505f808d8b87856040516020016102d0959493929190610628565b60405160208183030381529060405290505f6102ec828f610110565b6040516385572ffb60e01b81529091506001600160a01b038e16906385572ffb9061031b908490600401610490565b5f604051808303815f87803b158015610332575f80fd5b505af1158015610344573d5f803e3d5ffd5b505050505050505050505050505050505050565b634e487b7160e01b5f52604160045260245ffd5b80356001600160a01b0381168114610382575f80fd5b919050565b5f8060408385031215610398575f80fd5b823567ffffffffffffffff808211156103af575f80fd5b818501915085601f8301126103c2575f80fd5b8135818111156103d4576103d4610358565b604051601f8201601f19908116603f011681019083821181831017156103fc576103fc610358565b81604052828152886020848701011115610414575f80fd5b826020860160208301375f60208483010152809650505050505061043a6020840161036c565b90509250929050565b5f5b8381101561045d578181015183820152602001610445565b50505f910152565b5f815180845261047c816020860160208601610443565b601f01601f19169290920160200192915050565b5f602080835283518184015280840151604067ffffffffffffffff821660408601526040860151915060a060608601526104cd60c0860183610465565b91506060860151601f19808785030160808801526104eb8483610465565b608089015188820390920160a0890152815180825291860194505f92508501905b8083101561053e57845180516001600160a01b031683528601518683015293850193600192909201919083019061050c565b50979650505050505050565b5f805f805f8060c0878903121561055f575f80fd5b6105688761036c565b95506105766020880161036c565b95989597505050506040840135936060810135936080820135935060a0909101359150565b5f82516105ac818460208701610443565b9190910192915050565b634e487b7160e01b5f52601160045260245ffd5b818103818111156105dd576105dd6105b6565b92915050565b5f826105fd57634e487b7160e01b5f52601260045260245ffd5b500490565b5f82600f0b82600f0b0280600f0b9150808214610621576106216105b6565b5092915050565b61016081016002871061064957634e487b7160e01b5f52602160045260245ffd5b8682526001600160a01b03861660208301526040820185905261069660608301858051600f0b82526020810151600f0b602083015260408101516040830152606081015160608301525050565b8251600f90810b60e08401526020840151900b61010083015260408301516101208301526060830151610140830152969550505050505056fea2646970667358221220a3b39ec945bb82231241639ec31a223c98b2d0067735a8d0d99b0ea8562ab22e64736f6c63430008180033",
  "language": "Solidity",
  "compiler": "0.8.24+commit.e11b9ed9"
}