{
  "address": "0x4576fa3e2E061376431619B5631C25c99fFa27bd",
  "abi": [
    {
      "inputs": [
        {
          "internalType": "contract IChildChainGauge",
          "name": "gaugeImplementation",
          "type": "address"
        },
        {
          "internalType": "string",
          "name": "factoryVersion",
          "type": "string"
        },
        {
          "internalType": "string",
          "name": "productVersion",
          "type": "string"
        }
      ],
      "stateMutability": "nonpayable",
      "type": "constructor"
    },
    {
      "inputs": [],
      "name": "BPS_MAX",
      "outputs": [
        {
          "internalType": "uint256",
          "name": "",
          "type": "uint256"
        }
      ],
      "stateMutability": "view",
      "type": "function"
    },
    {
      "inputs": [],
      "name": "acceptOwnership",
      "outputs": [],
      "stateMutability": "nonpayable",
      "type": "function"
    },
    {
      "inputs": [
        {
          "internalType": "address",
          "name": "shareToken",
          "type": "address"
        }
      ],
      "name": "create",
      "outputs": [
        {
          "internalType": "address",
          "name": "",
          "type": "address"
        }
      ],
      "stateMutability": "nonpayable",
      "type": "function"
    },
    {
      "inputs": [],
      "name": "daoFee",
      "outputs": [
        {
          "internalType": "uint128",
          "name": "",
          "type": "uint128"
        }
      ],
      "stateMutability": "view",
      "type": "function"
    },
    {
      "inputs": [],
      "name": "deployerFee",
      "outputs": [
        {
          "internalType": "uint128",
          "name": "",
          "type": "uint128"
        }
      ],
      "stateMutability": "view",
      "type": "function"
    },
    {
      "inputs": [],
      "name": "getFees",
      "outputs": [
        {
          "internalType": "uint256",
          "name": "",
          "type": "uint256"
        },
        {
          "internalType": "uint256",
          "name": "",
          "type": "uint256"
        }
      ],
      "stateMutability": "view",
      "type": "function"
    },
    {
      "inputs": [],
      "name": "getGaugeImplementation",
      "outputs": [
        {
          "internalType": "address",
          "name": "",
          "type": "address"
        }
      ],
      "stateMutability": "view",
      "type": "function"
    },
    {
      "inputs": [],
      "name": "getProductVersion",
      "outputs": [
        {
          "internalType": "string",
          "name": "",
          "type": "string"
        }
      ],
      "stateMutability": "view",
      "type": "function"
    },
    {
      "inputs": [
        {
          "internalType": "address",
          "name": "gauge",
          "type": "address"
        }
      ],
      "name": "isGaugeFromFactory",
      "outputs": [
        {
          "internalType": "bool",
          "name": "",
          "type": "bool"
        }
      ],
      "stateMutability": "view",
      "type": "function"
    },
    {
      "inputs": [],
      "name": "owner",
      "outputs": [
        {
          "internalType": "address",
          "name": "",
          "type": "address"
        }
      ],
      "stateMutability": "view",
      "type": "function"
    },
    {
      "inputs": [],
      "name": "pendingOwner",
      "outputs": [
        {
          "internalType": "address",
          "name": "",
          "type": "address"
        }
      ],
      "stateMutability": "view",
      "type": "function"
    },
    {
      "inputs": [],
      "name": "renounceOwnership",
      "outputs": [],
      "stateMutability": "nonpayable",
      "type": "function"
    },
    {
      "inputs": [
        {
          "internalType": "uint256",
          "name": "_daoFee",
          "type": "uint256"
        },
        {
          "internalType": "uint256",
          "name": "_deployerFee",
          "type": "uint256"
        }
      ],
      "name": "setFees",
      "outputs": [],
      "stateMutability": "nonpayable",
      "type": "function"
    },
    {
      "inputs": [
        {
          "internalType": "address",
          "name": "newOwner",
          "type": "address"
        }
      ],
      "name": "transferOwnership",
      "outputs": [],
      "stateMutability": "nonpayable",
      "type": "function"
    },
    {
      "inputs": [],
      "name": "version",
      "outputs": [
        {
          "internalType": "string",
          "name": "",
          "type": "string"
        }
      ],
      "stateMutability": "view",
      "type": "function"
    },
    {
      "anonymous": false,
      "inputs": [
        {
          "indexed": false,
          "internalType": "uint256",
          "name": "daoFee",
          "type": "uint256"
        },
        {
          "indexed": false,
          "internalType": "uint256",
          "name": "deployerFee",
          "type": "uint256"
        }
      ],
      "name": "FeesUpdate",
      "type": "event"
    },
    {
      "anonymous": false,
      "inputs": [
        {
          "indexed": true,
          "internalType": "address",
          "name": "gauge",
          "type": "address"
        }
      ],
      "name": "GaugeCreated",
      "type": "event"
    },
    {
      "anonymous": false,
      "inputs": [
        {
          "indexed": true,
          "internalType": "address",
          "name": "previousOwner",
          "type": "address"
        },
        {
          "indexed": true,
          "internalType": "address",
          "name": "newOwner",
          "type": "address"
        }
      ],
      "name": "OwnershipTransferStarted",
      "type": "event"
    },
    {
      "anonymous": false,
      "inputs": [
        {
          "indexed": true,
          "internalType": "address",
          "name": "previousOwner",
          "type": "address"
        },
        {
          "indexed": true,
          "internalType": "address",
          "name": "newOwner",
          "type": "address"
        }
      ],
      "name": "OwnershipTransferred",
      "type": "event"
    },
    {
      "inputs": [],
      "name": "OverallFee",
      "type": "error"
    }
  ],
  "bytecode": "0x608060405234801562000010575f80fd5b5060405162000d5c38038062000d5c8339810160408190526200003391620002cc565b8282620000408162000186565b50600180546001600160a01b0319166001600160a01b0392909216919091179055620000736200006d3390565b62000197565b8060405160200162000086919062000350565b60405160208183030381529060405280519060200120836001600160a01b03166354fd4d506040518163ffffffff1660e01b81526004015f60405180830381865afa158015620000d8573d5f803e3d5ffd5b505050506040513d5f823e601f3d908101601f191682016040526200010191908101906200036d565b60405160200162000113919062000350565b60405160208183030381529060405280519060200120146200016e5760405162461bcd60e51b815260206004820152601060248201526f0ac8aa4a6929e9cbe9a92a69a82a886960831b604482015260640160405180910390fd5b60066200017c828262000434565b5050505062000500565b5f62000193828262000434565b5050565b600480546001600160a01b0319169055620001b281620001b5565b50565b600380546001600160a01b038381166001600160a01b0319831681179093556040519116919082907f8be0079c531659141344cd1fd0a4f28419497f9722a3daafe3b4186f6b6457e0905f90a35050565b634e487b7160e01b5f52604160045260245ffd5b5f5b83811015620002365781810151838201526020016200021c565b50505f910152565b5f82601f8301126200024e575f80fd5b81516001600160401b03808211156200026b576200026b62000206565b604051601f8301601f19908116603f0116810190828211818310171562000296576200029662000206565b81604052838152866020858801011115620002af575f80fd5b620002c28460208301602089016200021a565b9695505050505050565b5f805f60608486031215620002df575f80fd5b83516001600160a01b0381168114620002f6575f80fd5b60208501519093506001600160401b038082111562000313575f80fd5b62000321878388016200023e565b9350604086015191508082111562000337575f80fd5b5062000346868287016200023e565b9150509250925092565b5f8251620003638184602087016200021a565b9190910192915050565b5f602082840312156200037e575f80fd5b81516001600160401b0381111562000394575f80fd5b620003a2848285016200023e565b949350505050565b600181811c90821680620003bf57607f821691505b602082108103620003de57634e487b7160e01b5f52602260045260245ffd5b50919050565b601f8211156200042f57805f5260205f20601f840160051c810160208510156200040b5750805b601f840160051c820191505b818110156200042c575f815560010162000417565b50505b505050565b81516001600160401b0381111562000450576200045062000206565b6200046881620004618454620003aa565b84620003e4565b602080601f8311600181146200049e575f8415620004865750858301515b5f19600386901b1c1916600185901b178555620004f8565b5f85815260208120601f198616915b82811015620004ce57888601518255948401946001909101908401620004ad565b5085821015620004ec57878501515f19600388901b60f8161c191681555b505060018460011b0185555b505050505050565b61084e806200050e5f395ff3fe608060405234801561000f575f80fd5b50600436106100f0575f3560e01c8063715018a611610093578063ce3cc8bd11610063578063ce3cc8bd146101e4578063db8d55f11461021f578063e30c397814610249578063f2fde38b1461025a575f80fd5b8063715018a6146101b057806379ba5097146101b85780638da5cb5b146101c05780639ed93318146101d1575f80fd5b806339312dee116100ce57806339312dee146101525780633eb6e84614610177578063457755cb1461018e57806354fd4d50146101a8575f80fd5b80630b78f9c0146100f457806318d6186f146101095780632957b83914610127575b5f80fd5b6101076101023660046106ee565b61026d565b005b610111610305565b60405161011e9190610751565b60405180910390f35b60055461013a906001600160801b031681565b6040516001600160801b03909116815260200161011e565b6001546001600160a01b03165b6040516001600160a01b03909116815260200161011e565b610180610bb881565b60405190815260200161011e565b60055461013a90600160801b90046001600160801b031681565b610111610395565b6101076103a3565b6101076103b6565b6003546001600160a01b031661015f565b61015f6101df36600461076a565b610435565b61020f6101f236600461076a565b6001600160a01b03165f9081526002602052604090205460ff1690565b604051901515815260200161011e565b600554604080516001600160801b038084168252600160801b90930490921660208301520161011e565b6004546001600160a01b031661015f565b61010761026836600461076a565b6104aa565b61027561051b565b610bb86102828284610790565b11156102a157604051630658df5360e31b815260040160405180910390fd5b6001600160801b03828116600160801b838316810282811760058190556040805192861690941782529190910490921660208301527f55589a71b7512692e2b494ce9cccfd8df2c98f5321191acb273c05c37e7b53bd910160405180910390a15050565b606060068054610314906107b5565b80601f0160208091040260200160405190810160405280929190818152602001828054610340906107b5565b801561038b5780601f106103625761010080835404028352916020019161038b565b820191905f5260205f20905b81548152906001019060200180831161036e57829003601f168201915b5050505050905090565b60605f8054610314906107b5565b6103ab61051b565b6103b45f610575565b565b60045433906001600160a01b031681146104295760405162461bcd60e51b815260206004820152602960248201527f4f776e61626c6532537465703a2063616c6c6572206973206e6f7420746865206044820152683732bb9037bbb732b960b91b60648201526084015b60405180910390fd5b61043281610575565b50565b5f8061043f61058e565b9050806001600160a01b031663f399e22e84610459610305565b6040518363ffffffff1660e01b81526004016104769291906107ed565b5f604051808303815f87803b15801561048d575f80fd5b505af115801561049f573d5f803e3d5ffd5b509295945050505050565b6104b261051b565b600480546001600160a01b0383166001600160a01b031990911681179091556104e36003546001600160a01b031690565b6001600160a01b03167f38d16b8cac22d99fc7c124b9cd0de2d3fa1faef420bfe791d8c362d765e2270060405160405180910390a350565b6003546001600160a01b031633146103b45760405162461bcd60e51b815260206004820181905260248201527f4f776e61626c653a2063616c6c6572206973206e6f7420746865206f776e65726044820152606401610420565b600480546001600160a01b0319169055610432816105ea565b5f8061059861063b565b6001600160a01b0381165f81815260026020526040808220805460ff191660011790555192935090917faa98436d09d130af48de49867af8b723bbbebb0d737638b5fe8f1bf31bbb71c09190a2919050565b600380546001600160a01b038381166001600160a01b0319831681179093556040519116919082907f8be0079c531659141344cd1fd0a4f28419497f9722a3daafe3b4186f6b6457e0905f90a35050565b6001545f90610652906001600160a01b0316610657565b905090565b5f763d602d80600a3d3981f3363d3d373d3d3d363d730000008260601b60e81c175f526e5af43d82803e903d91602b57fd5bf38260781b17602052603760095ff090506001600160a01b0381166106e95760405162461bcd60e51b8152602060048201526016602482015275115490cc4c4d8dce8818dc99585d194819985a5b195960521b6044820152606401610420565b919050565b5f80604083850312156106ff575f80fd5b50508035926020909101359150565b5f81518084525f5b8181101561073257602081850181015186830182015201610716565b505f602082860101526020601f19601f83011685010191505092915050565b602081525f610763602083018461070e565b9392505050565b5f6020828403121561077a575f80fd5b81356001600160a01b0381168114610763575f80fd5b808201808211156107af57634e487b7160e01b5f52601160045260245ffd5b92915050565b600181811c908216806107c957607f821691505b6020821081036107e757634e487b7160e01b5f52602260045260245ffd5b50919050565b6001600160a01b03831681526040602082018190525f906108109083018461070e565b94935050505056fea2646970667358221220b17c691d0838023a31a35b94fbe6fe3d1d6a634df955d3762d551b2ce7e7e6ee64736f6c63430008180033",
  "language": "Solidity",
  "compiler": "0.8.24+commit.e11b9ed9"
}