{
  "address": "0x3b74665466eD7118F0608470FD10818E40C7D727",
  "abi": [
    {
      "inputs": [
        {
          "internalType": "contract IERC20",
          "name": "balancerToken",
          "type": "address"
        }
      ],
      "stateMutability": "nonpayable",
      "type": "constructor"
    },
    {
      "inputs": [],
      "name": "BPS_MAX",
      "outputs": [
        {
          "internalType": "uint256",
          "name": "",
          "type": "uint256"
        }
      ],
      "stateMutability": "view",
      "type": "function"
    },
    {
      "inputs": [],
      "name": "acceptOwnership",
      "outputs": [],
      "stateMutability": "nonpayable",
      "type": "function"
    },
    {
      "inputs": [
        {
          "internalType": "contract ILiquidityGaugeFactory",
          "name": "factory",
          "type": "address"
        }
      ],
      "name": "addGaugeFactory",
      "outputs": [],
      "stateMutability": "nonpayable",
      "type": "function"
    },
    {
      "inputs": [
        {
          "internalType": "address",
          "name": "minter",
          "type": "address"
        },
        {
          "internalType": "address",
          "name": "user",
          "type": "address"
        }
      ],
      "name": "allowed_to_mint_for",
      "outputs": [
        {
          "internalType": "bool",
          "name": "",
          "type": "bool"
        }
      ],
      "stateMutability": "view",
      "type": "function"
    },
    {
      "inputs": [],
      "name": "daoFee",
      "outputs": [
        {
          "internalType": "uint128",
          "name": "",
          "type": "uint128"
        }
      ],
      "stateMutability": "view",
      "type": "function"
    },
    {
      "inputs": [],
      "name": "deployerFee",
      "outputs": [
        {
          "internalType": "uint128",
          "name": "",
          "type": "uint128"
        }
      ],
      "stateMutability": "view",
      "type": "function"
    },
    {
      "inputs": [],
      "name": "eip712Domain",
      "outputs": [
        {
          "internalType": "bytes1",
          "name": "fields",
          "type": "bytes1"
        },
        {
          "internalType": "string",
          "name": "name",
          "type": "string"
        },
        {
          "internalType": "string",
          "name": "version",
          "type": "string"
        },
        {
          "internalType": "uint256",
          "name": "chainId",
          "type": "uint256"
        },
        {
          "internalType": "address",
          "name": "verifyingContract",
          "type": "address"
        },
        {
          "internalType": "bytes32",
          "name": "salt",
          "type": "bytes32"
        },
        {
          "internalType": "uint256[]",
          "name": "extensions",
          "type": "uint256[]"
        }
      ],
      "stateMutability": "view",
      "type": "function"
    },
    {
      "inputs": [],
      "name": "getBalancerToken",
      "outputs": [
        {
          "internalType": "contract IERC20",
          "name": "",
          "type": "address"
        }
      ],
      "stateMutability": "view",
      "type": "function"
    },
    {
      "inputs": [],
      "name": "getDomainSeparator",
      "outputs": [
        {
          "internalType": "bytes32",
          "name": "",
          "type": "bytes32"
        }
      ],
      "stateMutability": "view",
      "type": "function"
    },
    {
      "inputs": [],
      "name": "getFees",
      "outputs": [
        {
          "internalType": "uint256",
          "name": "",
          "type": "uint256"
        },
        {
          "internalType": "uint256",
          "name": "",
          "type": "uint256"
        }
      ],
      "stateMutability": "view",
      "type": "function"
    },
    {
      "inputs": [
        {
          "internalType": "address",
          "name": "minter",
          "type": "address"
        },
        {
          "internalType": "address",
          "name": "user",
          "type": "address"
        }
      ],
      "name": "getMinterApproval",
      "outputs": [
        {
          "internalType": "bool",
          "name": "",
          "type": "bool"
        }
      ],
      "stateMutability": "view",
      "type": "function"
    },
    {
      "inputs": [
        {
          "internalType": "address",
          "name": "account",
          "type": "address"
        }
      ],
      "name": "getNextNonce",
      "outputs": [
        {
          "internalType": "uint256",
          "name": "",
          "type": "uint256"
        }
      ],
      "stateMutability": "view",
      "type": "function"
    },
    {
      "inputs": [
        {
          "internalType": "contract ILiquidityGaugeFactory",
          "name": "factory",
          "type": "address"
        }
      ],
      "name": "isValidGaugeFactory",
      "outputs": [
        {
          "internalType": "bool",
          "name": "",
          "type": "bool"
        }
      ],
      "stateMutability": "view",
      "type": "function"
    },
    {
      "inputs": [
        {
          "internalType": "address",
          "name": "gauge",
          "type": "address"
        }
      ],
      "name": "mint",
      "outputs": [
        {
          "internalType": "uint256",
          "name": "",
          "type": "uint256"
        }
      ],
      "stateMutability": "nonpayable",
      "type": "function"
    },
    {
      "inputs": [
        {
          "internalType": "address",
          "name": "gauge",
          "type": "address"
        },
        {
          "internalType": "address",
          "name": "user",
          "type": "address"
        }
      ],
      "name": "mintFor",
      "outputs": [
        {
          "internalType": "uint256",
          "name": "",
          "type": "uint256"
        }
      ],
      "stateMutability": "nonpayable",
      "type": "function"
    },
    {
      "inputs": [
        {
          "internalType": "address[]",
          "name": "gauges",
          "type": "address[]"
        }
      ],
      "name": "mintMany",
      "outputs": [
        {
          "internalType": "uint256",
          "name": "",
          "type": "uint256"
        }
      ],
      "stateMutability": "nonpayable",
      "type": "function"
    },
    {
      "inputs": [
        {
          "internalType": "address[]",
          "name": "gauges",
          "type": "address[]"
        },
        {
          "internalType": "address",
          "name": "user",
          "type": "address"
        }
      ],
      "name": "mintManyFor",
      "outputs": [
        {
          "internalType": "uint256",
          "name": "",
          "type": "uint256"
        }
      ],
      "stateMutability": "nonpayable",
      "type": "function"
    },
    {
      "inputs": [
        {
          "internalType": "address",
          "name": "gauge",
          "type": "address"
        },
        {
          "internalType": "address",
          "name": "user",
          "type": "address"
        }
      ],
      "name": "mint_for",
      "outputs": [],
      "stateMutability": "nonpayable",
      "type": "function"
    },
    {
      "inputs": [
        {
          "internalType": "address[8]",
          "name": "gauges",
          "type": "address[8]"
        }
      ],
      "name": "mint_many",
      "outputs": [],
      "stateMutability": "nonpayable",
      "type": "function"
    },
    {
      "inputs": [
        {
          "internalType": "address",
          "name": "user",
          "type": "address"
        },
        {
          "internalType": "address",
          "name": "gauge",
          "type": "address"
        }
      ],
      "name": "minted",
      "outputs": [
        {
          "internalType": "uint256",
          "name": "",
          "type": "uint256"
        }
      ],
      "stateMutability": "view",
      "type": "function"
    },
    {
      "inputs": [
        {
          "internalType": "address",
          "name": "user",
          "type": "address"
        },
        {
          "internalType": "address",
          "name": "gauge",
          "type": "address"
        }
      ],
      "name": "mintedToUser",
      "outputs": [
        {
          "internalType": "uint256",
          "name": "",
          "type": "uint256"
        }
      ],
      "stateMutability": "view",
      "type": "function"
    },
    {
      "inputs": [],
      "name": "owner",
      "outputs": [
        {
          "internalType": "address",
          "name": "",
          "type": "address"
        }
      ],
      "stateMutability": "view",
      "type": "function"
    },
    {
      "inputs": [],
      "name": "pendingOwner",
      "outputs": [
        {
          "internalType": "address",
          "name": "",
          "type": "address"
        }
      ],
      "stateMutability": "view",
      "type": "function"
    },
    {
      "inputs": [
        {
          "internalType": "contract ILiquidityGaugeFactory",
          "name": "factory",
          "type": "address"
        }
      ],
      "name": "removeGaugeFactory",
      "outputs": [],
      "stateMutability": "nonpayable",
      "type": "function"
    },
    {
      "inputs": [],
      "name": "renounceOwnership",
      "outputs": [],
      "stateMutability": "nonpayable",
      "type": "function"
    },
    {
      "inputs": [
        {
          "internalType": "uint256",
          "name": "_daoFee",
          "type": "uint256"
        },
        {
          "internalType": "uint256",
          "name": "_deployerFee",
          "type": "uint256"
        }
      ],
      "name": "setFees",
      "outputs": [],
      "stateMutability": "nonpayable",
      "type": "function"
    },
    {
      "inputs": [
        {
          "internalType": "address",
          "name": "minter",
          "type": "address"
        },
        {
          "internalType": "bool",
          "name": "approval",
          "type": "bool"
        }
      ],
      "name": "setMinterApproval",
      "outputs": [],
      "stateMutability": "nonpayable",
      "type": "function"
    },
    {
      "inputs": [
        {
          "internalType": "address",
          "name": "minter",
          "type": "address"
        },
        {
          "internalType": "bool",
          "name": "approval",
          "type": "bool"
        },
        {
          "internalType": "address",
          "name": "user",
          "type": "address"
        },
        {
          "internalType": "uint256",
          "name": "deadline",
          "type": "uint256"
        },
        {
          "internalType": "uint8",
          "name": "v",
          "type": "uint8"
        },
        {
          "internalType": "bytes32",
          "name": "r",
          "type": "bytes32"
        },
        {
          "internalType": "bytes32",
          "name": "s",
          "type": "bytes32"
        }
      ],
      "name": "setMinterApprovalWithSignature",
      "outputs": [],
      "stateMutability": "nonpayable",
      "type": "function"
    },
    {
      "inputs": [
        {
          "internalType": "address",
          "name": "minter",
          "type": "address"
        }
      ],
      "name": "toggle_approve_mint",
      "outputs": [],
      "stateMutability": "nonpayable",
      "type": "function"
    },
    {
      "inputs": [
        {
          "internalType": "address",
          "name": "newOwner",
          "type": "address"
        }
      ],
      "name": "transferOwnership",
      "outputs": [],
      "stateMutability": "nonpayable",
      "type": "function"
    },
    {
      "anonymous": false,
      "inputs": [],
      "name": "EIP712DomainChanged",
      "type": "event"
    },
    {
      "anonymous": false,
      "inputs": [
        {
          "indexed": true,
          "internalType": "address",
          "name": "gauge",
          "type": "address"
        },
        {
          "indexed": true,
          "internalType": "address",
          "name": "daoReceiver",
          "type": "address"
        },
        {
          "indexed": true,
          "internalType": "address",
          "name": "deployerReceiver",
          "type": "address"
        },
        {
          "indexed": false,
          "internalType": "uint256",
          "name": "mintedToDao",
          "type": "uint256"
        },
        {
          "indexed": false,
          "internalType": "uint256",
          "name": "mintedToDeployer",
          "type": "uint256"
        }
      ],
      "name": "FeeCollected",
      "type": "event"
    },
    {
      "anonymous": false,
      "inputs": [
        {
          "indexed": false,
          "internalType": "uint256",
          "name": "daoFee",
          "type": "uint256"
        },
        {
          "indexed": false,
          "internalType": "uint256",
          "name": "deployerFee",
          "type": "uint256"
        }
      ],
      "name": "FeesUpdate",
      "type": "event"
    },
    {
      "anonymous": false,
      "inputs": [
        {
          "indexed": true,
          "internalType": "contract ILiquidityGaugeFactory",
          "name": "factory",
          "type": "address"
        }
      ],
      "name": "GaugeFactoryAdded",
      "type": "event"
    },
    {
      "anonymous": false,
      "inputs": [
        {
          "indexed": true,
          "internalType": "contract ILiquidityGaugeFactory",
          "name": "factory",
          "type": "address"
        }
      ],
      "name": "GaugeFactoryRemoved",
      "type": "event"
    },
    {
      "anonymous": false,
      "inputs": [
        {
          "indexed": true,
          "internalType": "address",
          "name": "recipient",
          "type": "address"
        },
        {
          "indexed": false,
          "internalType": "address",
          "name": "gauge",
          "type": "address"
        },
        {
          "indexed": false,
          "internalType": "uint256",
          "name": "minted",
          "type": "uint256"
        }
      ],
      "name": "Minted",
      "type": "event"
    },
    {
      "anonymous": false,
      "inputs": [
        {
          "indexed": true,
          "internalType": "address",
          "name": "recipient",
          "type": "address"
        },
        {
          "indexed": false,
          "internalType": "address",
          "name": "gauge",
          "type": "address"
        },
        {
          "indexed": false,
          "internalType": "uint256",
          "name": "minted",
          "type": "uint256"
        }
      ],
      "name": "MintedToUser",
      "type": "event"
    },
    {
      "anonymous": false,
      "inputs": [
        {
          "indexed": true,
          "internalType": "address",
          "name": "user",
          "type": "address"
        },
        {
          "indexed": true,
          "internalType": "address",
          "name": "minter",
          "type": "address"
        },
        {
          "indexed": false,
          "internalType": "bool",
          "name": "approval",
          "type": "bool"
        }
      ],
      "name": "MinterApprovalSet",
      "type": "event"
    },
    {
      "anonymous": false,
      "inputs": [
        {
          "indexed": true,
          "internalType": "address",
          "name": "previousOwner",
          "type": "address"
        },
        {
          "indexed": true,
          "internalType": "address",
          "name": "newOwner",
          "type": "address"
        }
      ],
      "name": "OwnershipTransferStarted",
      "type": "event"
    },
    {
      "anonymous": false,
      "inputs": [
        {
          "indexed": true,
          "internalType": "address",
          "name": "previousOwner",
          "type": "address"
        },
        {
          "indexed": true,
          "internalType": "address",
          "name": "newOwner",
          "type": "address"
        }
      ],
      "name": "OwnershipTransferred",
      "type": "event"
    },
    {
      "inputs": [],
      "name": "InvalidShortString",
      "type": "error"
    },
    {
      "inputs": [],
      "name": "OverallFee",
      "type": "error"
    },
    {
      "inputs": [
        {
          "internalType": "string",
          "name": "str",
          "type": "string"
        }
      ],
      "name": "StringTooLong",
      "type": "error"
    }
  ],
  "bytecode": "0x61018060405234801562000011575f80fd5b506040516200236e3803806200236e833981016040819052620000349162000253565b806040518060400160405280601281526020017129b4b637902839b2bab2379026b4b73a32b960711b815250604051806040016040528060018152602001603160f81b815250818160015f81905550620000996001836200016160201b90919060201c565b61012052620000aa81600262000161565b61014052815160208084019190912060e052815190820120610100524660a0526200013760e05161010051604080517f8b73c3c69bb8fe3d512ecc4cf759cc79239f7b179b0ffacaa9a75d522b39400f60208201529081019290925260608201524660808201523060a08201525f9060c00160405160208183030381529060405280519060200120905090565b60805250503060c0526200014b3362000199565b50506001600160a01b031661016052506200045e565b5f60208351101562000180576200017883620001b7565b905062000193565b816200018d848262000320565b5060ff90505b92915050565b600580546001600160a01b0319169055620001b48162000202565b50565b5f80829050601f81511115620001ed578260405163305a27a960e01b8152600401620001e49190620003ec565b60405180910390fd5b8051620001fa826200043a565b179392505050565b600480546001600160a01b038381166001600160a01b0319831681179093556040519116919082907f8be0079c531659141344cd1fd0a4f28419497f9722a3daafe3b4186f6b6457e0905f90a35050565b5f6020828403121562000264575f80fd5b81516001600160a01b03811681146200027b575f80fd5b9392505050565b634e487b7160e01b5f52604160045260245ffd5b600181811c90821680620002ab57607f821691505b602082108103620002ca57634e487b7160e01b5f52602260045260245ffd5b50919050565b601f8211156200031b57805f5260205f20601f840160051c81016020851015620002f75750805b601f840160051c820191505b8181101562000318575f815560010162000303565b50505b505050565b81516001600160401b038111156200033c576200033c62000282565b62000354816200034d845462000296565b84620002d0565b602080601f8311600181146200038a575f8415620003725750858301515b5f19600386901b1c1916600185901b178555620003e4565b5f85815260208120601f198616915b82811015620003ba5788860151825594840194600190910190840162000399565b5085821015620003d857878501515f19600388901b60f8161c191681555b505060018460011b0185555b505050505050565b5f602080835283518060208501525f5b818110156200041a57858101830151858201604001528201620003fc565b505f604082860101526040601f19601f8301168501019250505092915050565b80516020808301519190811015620002ca575f1960209190910360031b1b16919050565b60805160a05160c05160e05161010051610120516101405161016051611ead620004c15f395f818161041e015261123d01525f61091201525f6108e701525f610f2e01525f610f0601525f610e6101525f610e8b01525f610eb50152611ead5ff3fe608060405234801561000f575f80fd5b50600436106101d1575f3560e01c80637a60e63a116100fe578063c00396991161009e578063dd289d601161006e578063dd289d60146104b7578063e30c3978146104ca578063ed24911d146104db578063f2fde38b146104e3575f80fd5b8063c00396991461041c578063c654279414610442578063d4adab4014610455578063db8d55f11461048d575f80fd5b80638da5cb5b116100d95780638da5cb5b146103bc57806390193b7c146103e1578063a099003314610287578063a51e190414610409575f80fd5b80637a60e63a1461035657806384b0196e146103695780638b752bb014610384575f80fd5b80633c543bc6116101745780636c71e920116101445780636c71e92014610308578063715018a6146103335780637504a15d1461033b57806379ba50971461034e575f80fd5b80633c543bc6146102875780633eb6e846146102d2578063457755cb146102db5780636a627842146102f5575f80fd5b80632957b839116101af5780632957b8391461021057806338f1215214610240578063397ada21146102535780633b9f738414610274575f80fd5b80630b78f9c0146101d55780630de54ba0146101ea57806327f18ae3146101fd575b5f80fd5b6101e86101e33660046119d1565b6104f6565b005b6101e86101f8366004611a12565b61058e565b6101e861020b366004611a49565b61059d565b600654610223906001600160801b031681565b6040516001600160801b0390911681526020015b60405180910390f35b6101e861024e366004611a75565b6105e5565b610266610261366004611ad8565b61069d565b604051908152602001610237565b610266610282366004611b17565b6106c2565b6102c2610295366004611a49565b6001600160a01b039182165f90815260096020908152604080832093909416825291909152205460ff1690565b6040519015158152602001610237565b610266610bb881565b60065461022390600160801b90046001600160801b031681565b610266610303366004611a75565b61072a565b6102c2610316366004611a75565b6001600160a01b03165f908152600a602052604090205460ff1690565b6101e861074d565b610266610349366004611a49565b610760565b6101e86107b5565b6101e8610364366004611a75565b61082f565b6103716108da565b6040516102379796959493929190611bb7565b610266610392366004611a49565b6001600160a01b039182165f90815260076020908152604080832093909416825291909152205490565b6004546001600160a01b03165b6040516001600160a01b039091168152602001610237565b6102666103ef366004611a75565b6001600160a01b03165f9081526003602052604090205490565b6101e8610417366004611c4e565b610961565b7f00000000000000000000000000000000000000000000000000000000000000006103c9565b6101e8610450366004611c76565b6109e9565b610266610463366004611a49565b6001600160a01b039182165f90815260086020908152604080832093909416825291909152205490565b600654604080516001600160801b038084168252600160801b909304909216602083015201610237565b6101e86104c5366004611a75565b610aa5565b6005546001600160a01b03166103c9565b610266610ad7565b6101e86104f1366004611a75565b610ae5565b6104fe610b56565b610bb861050b8284611d04565b111561052a57604051630658df5360e31b815260040160405180910390fd5b6001600160801b03828116600160801b838316810282811760068190556040805192861690941782529190910490921660208301527f55589a71b7512692e2b494ce9cccfd8df2c98f5321191acb273c05c37e7b53bd910160405180910390a15050565b610599823383610bb0565b5050565b6105a5610c1f565b335f9081526009602090815260408083206001600160a01b038516845290915290205460ff16156105dc576105da8282610c76565b505b61059960015f55565b6105ed610b56565b6001600160a01b0381165f908152600a602052604090205460ff16156106525760405162461bcd60e51b8152602060048201526015602482015274119050d513d49657d053149150511657d051111151605a1b60448201526064015b60405180910390fd5b6001600160a01b0381165f818152600a6020526040808220805460ff19166001179055517f8e2924dc08a7879532dca0c2c0460bd67eb431ab342df45afd2c4f7288aab9b79190a250565b5f6106a6610c1f565b6106b1838333610c8d565b90506106bc60015f55565b92915050565b5f6106cb610c1f565b335f9081526009602090815260408083206001600160a01b038616845290915290205460ff1661070d5760405162461bcd60e51b815260040161064990611d17565b610718848484610c8d565b905061072360015f55565b9392505050565b5f610733610c1f565b61073d8233610c76565b905061074860015f55565b919050565b610755610b56565b61075e5f610cf0565b565b5f610769610c1f565b335f9081526009602090815260408083206001600160a01b038616845290915290205460ff166107ab5760405162461bcd60e51b815260040161064990611d17565b6106b18383610c76565b60055433906001600160a01b031681146108235760405162461bcd60e51b815260206004820152602960248201527f4f776e61626c6532537465703a2063616c6c6572206973206e6f7420746865206044820152683732bb9037bbb732b960b91b6064820152608401610649565b61082c81610cf0565b50565b610837610b56565b6001600160a01b0381165f908152600a602052604090205460ff166108925760405162461bcd60e51b8152602060048201526011602482015270119050d513d49657d393d517d051111151607a1b6044820152606401610649565b6001600160a01b0381165f818152600a6020526040808220805460ff19169055517fdc66290a40b716cd9557c1d6c84315e06de88697ee252b89e1a9a9b053dc307b9190a250565b5f6060808280808361090d7f00000000000000000000000000000000000000000000000000000000000000006001610d09565b6109387f00000000000000000000000000000000000000000000000000000000000000006002610d09565b604080515f80825260208201909252600f60f81b9b939a50919850469750309650945092509050565b610969610c1f565b5f5b60088110156109df575f82826008811061098757610987611d5a565b60200201602081019061099a9190611a75565b6001600160a01b0316146109df576109d68282600881106109bd576109bd611d5a565b6020020160208101906109d09190611a75565b33610c76565b5060010161096b565b5061082c60015f55565b5f7fc87351a089bbdc3b2b9299d2ce29f08fd982826b275b3642939a2f7fdd8153808888610a2b896001600160a01b03165f9081526003602052604090205490565b6040805160208101959095526001600160a01b039093169284019290925215156060830152608082015260a0810186905260c001604051602081830303815290604052805190602001209050610a908682610a87878787610db2565b886101f8610df1565b610a9b888789610bb0565b5050505050505050565b6001600160a01b0381165f90815260096020908152604080832033845290915290205461082c90829060ff161561058e565b5f610ae0610e55565b905090565b610aed610b56565b600580546001600160a01b0383166001600160a01b03199091168117909155610b1e6004546001600160a01b031690565b6001600160a01b03167f38d16b8cac22d99fc7c124b9cd0de2d3fa1faef420bfe791d8c362d765e2270060405160405180910390a350565b6004546001600160a01b0316331461075e5760405162461bcd60e51b815260206004820181905260248201527f4f776e61626c653a2063616c6c6572206973206e6f7420746865206f776e65726044820152606401610649565b6001600160a01b038381165f81815260096020908152604080832094871680845294825291829020805460ff191686151590811790915591519182529192917fa3ffb51320bbca4e61e7423e3c97dd7bd7e31b6ea7429eb26ef92780e84572a0910160405180910390a3505050565b60025f5403610c705760405162461bcd60e51b815260206004820152601f60248201527f5265656e7472616e637947756172643a207265656e7472616e742063616c6c006044820152606401610649565b60025f55565b5f610c818383610f7e565b90506106bc828261122a565b5f82815b81811015610cdd57610cd3610ccc878784818110610cb157610cb1611d5a565b9050602002016020810190610cc69190611a75565b86610f7e565b8490611264565b9250600101610c91565b50610ce8838361122a565b509392505050565b600580546001600160a01b031916905561082c8161126f565b606060ff8314610d2357610d1c836112c0565b90506106bc565b818054610d2f90611d6e565b80601f0160208091040260200160405190810160405280929190818152602001828054610d5b90611d6e565b8015610da65780601f10610d7d57610100808354040283529160200191610da6565b820191905f5260205f20905b815481529060010190602001808311610d8957829003601f168201915b505050505090506106bc565b604080516041808252608082019092526060915f9190602082018180368337019050509050836020820152826040820152846060820153949350505050565b5f610dfb856112fd565b9050610e11610e0b878387611329565b836113dd565b610e20428410156101b86113dd565b6001600160a01b0386165f908152600360205260408120805460019290610e48908490611d04565b9091555050505050505050565b5f306001600160a01b037f000000000000000000000000000000000000000000000000000000000000000016148015610ead57507f000000000000000000000000000000000000000000000000000000000000000046145b15610ed757507f000000000000000000000000000000000000000000000000000000000000000090565b610ae0604080517f8b73c3c69bb8fe3d512ecc4cf759cc79239f7b179b0ffacaa9a75d522b39400f60208201527f0000000000000000000000000000000000000000000000000000000000000000918101919091527f000000000000000000000000000000000000000000000000000000000000000060608201524660808201523060a08201525f9060c00160405160208183030381529060405280519060200120905090565b5f808390505f816001600160a01b031663c45a01556040518163ffffffff1660e01b8152600401602060405180830381865afa158015610fc0573d5f803e3d5ffd5b505050506040513d601f19601f82011682018060405250810190610fe49190611da6565b9050611007816001600160a01b03165f908152600a602052604090205460ff1690565b61104b5760405162461bcd60e51b8152602060048201526015602482015274494e56414c49445f47415547455f464143544f525960581b6044820152606401610649565b60405163ce3cc8bd60e01b81526001600160a01b03868116600483015282169063ce3cc8bd90602401602060405180830381865afa15801561108f573d5f803e3d5ffd5b505050506040513d601f19601f820116820180604052508101906110b39190611dc1565b6110ef5760405162461bcd60e51b815260206004820152600d60248201526c494e56414c49445f474155474560981b6044820152606401610649565b604051634b82009360e01b81526001600160a01b038581166004830152831690634b820093906024016020604051808303815f875af1158015611134573d5f803e3d5ffd5b505050506040513d601f19601f820116820180604052508101906111589190611dc1565b50604051630940070760e01b81526001600160a01b0385811660048301525f9190841690630940070790602401602060405180830381865afa1580156111a0573d5f803e3d5ffd5b505050506040513d601f19601f820116820180604052508101906111c49190611ddc565b6001600160a01b038087165f908152600760209081526040808320938b16835292905220549091506111f79082906113eb565b935083156112215761120986856113f6565b935061121685878361153b565b6112218587866115a2565b50505092915050565b8015610599576105996001600160a01b037f000000000000000000000000000000000000000000000000000000000000000016838361163e565b5f6107238284611d04565b600480546001600160a01b038381166001600160a01b0319831681179093556040519116919082907f8be0079c531659141344cd1fd0a4f28419497f9722a3daafe3b4186f6b6457e0905f90a35050565b60605f6112cc83611695565b6040805160208082528183019092529192505f91906020820181803683375050509182525060208101929092525090565b5f6106bc611309610e55565b8360405161190160f01b8152600281019290925260228201526042902090565b5f61133a82516041146101b96113dd565b60208281015160408085015160608087015183515f8082529681018086528a905290861a938101849052908101849052608081018290529293909260019060a0016020604051602081039080840390855afa15801561139b573d5f803e3d5ffd5b5050604051601f1901519150506001600160a01b038116158015906113d15750876001600160a01b0316816001600160a01b0316145b98975050505050505050565b8161059957610599816116bc565b5f6107238284611df3565b5f815f0361140557505f6106bc565b5f80846001600160a01b031663bccfafd16040518163ffffffff1660e01b81526004016040805180830381865afa158015611442573d5f803e3d5ffd5b505050506040513d601f19601f820116820180604052508101906114669190611e06565b60065491935091505f9061148690849087906001600160801b03166116cc565b90505f6114b28387600660109054906101000a90046001600160801b03166001600160801b03166116cc565b8695509050811515806114c457508015155b156115315780820185039450826001600160a01b0316846001600160a01b0316886001600160a01b03167ff51d4f85b9c67a6999073394e680d7eaba2ae56553370c00088941bf662f6b528585604051611528929190918252602082015260400190565b60405180910390a45b5050505092915050565b6001600160a01b038381165f818152600760209081526040808320948716808452948252918290208590558151938452830184905290917f9d228d69b5fdb8d273a2336f8fb8612d039631024ea9bf09c424a9503aa078f0910160405180910390a2505050565b6001600160a01b038084165f9081526008602090815260408083209386168352929052908120546115d4908390611d04565b6001600160a01b038581165f8181526008602090815260408083209489168084529482529182902085905581519384528301849052929350917f1d3c306136bd426714f135bc4ac6c18f7e52d80d7d07e4cab37de75e47474481910160405180910390a250505050565b604080516001600160a01b038416602482015260448082018490528251808303909101815260649091019091526020810180516001600160e01b031663a9059cbb60e01b179052611690908490611708565b505050565b5f60ff8216601f8111156106bc57604051632cd44ac360e21b815260040160405180910390fd5b61082c816210905360ea1b6117db565b5f8115806116e157506001600160a01b038416155b156116ed57505f610723565b6116f78284611e33565b61271090049050610723848261183d565b5f61175c826040518060400160405280602081526020017f5361666545524332303a206c6f772d6c6576656c2063616c6c206661696c6564815250856001600160a01b03166118479092919063ffffffff16565b905080515f148061177c57508080602001905181019061177c9190611dc1565b6116905760405162461bcd60e51b815260206004820152602a60248201527f5361666545524332303a204552433230206f7065726174696f6e20646964206e6044820152691bdd081cdd58d8d9595960b21b6064820152608401610649565b62461bcd60e51b5f90815260206004526007602452600a808404818106603090810160081b958390069590950190829004918206850160101b01602363ffffff0060e086901c160160181b0190930160c81b604481905260e883901c91606490fd5b610599828261122a565b606061185584845f8561185d565b949350505050565b6060824710156118be5760405162461bcd60e51b815260206004820152602660248201527f416464726573733a20696e73756666696369656e742062616c616e636520666f6044820152651c8818d85b1b60d21b6064820152608401610649565b5f80866001600160a01b031685876040516118d99190611e4a565b5f6040518083038185875af1925050503d805f8114611913576040519150601f19603f3d011682016040523d82523d5f602084013e611918565b606091505b509150915061192987838387611934565b979650505050505050565b606083156119a25782515f0361199b576001600160a01b0385163b61199b5760405162461bcd60e51b815260206004820152601d60248201527f416464726573733a2063616c6c20746f206e6f6e2d636f6e74726163740000006044820152606401610649565b5081611855565b61185583838151156119b75781518083602001fd5b8060405162461bcd60e51b81526004016106499190611e65565b5f80604083850312156119e2575f80fd5b50508035926020909101359150565b6001600160a01b038116811461082c575f80fd5b801515811461082c575f80fd5b5f8060408385031215611a23575f80fd5b8235611a2e816119f1565b91506020830135611a3e81611a05565b809150509250929050565b5f8060408385031215611a5a575f80fd5b8235611a65816119f1565b91506020830135611a3e816119f1565b5f60208284031215611a85575f80fd5b8135610723816119f1565b5f8083601f840112611aa0575f80fd5b50813567ffffffffffffffff811115611ab7575f80fd5b6020830191508360208260051b8501011115611ad1575f80fd5b9250929050565b5f8060208385031215611ae9575f80fd5b823567ffffffffffffffff811115611aff575f80fd5b611b0b85828601611a90565b90969095509350505050565b5f805f60408486031215611b29575f80fd5b833567ffffffffffffffff811115611b3f575f80fd5b611b4b86828701611a90565b9094509250506020840135611b5f816119f1565b809150509250925092565b5f5b83811015611b84578181015183820152602001611b6c565b50505f910152565b5f8151808452611ba3816020860160208601611b6a565b601f01601f19169290920160200192915050565b60ff60f81b881681525f602060e06020840152611bd760e084018a611b8c565b8381036040850152611be9818a611b8c565b606085018990526001600160a01b038816608086015260a0850187905284810360c0860152855180825260208088019350909101905f5b81811015611c3c57835183529284019291840191600101611c20565b50909c9b505050505050505050505050565b5f610100808385031215611c60575f80fd5b838184011115611c6e575f80fd5b509092915050565b5f805f805f805f60e0888a031215611c8c575f80fd5b8735611c97816119f1565b96506020880135611ca781611a05565b95506040880135611cb7816119f1565b945060608801359350608088013560ff81168114611cd3575f80fd5b9699959850939692959460a0840135945060c09093013592915050565b634e487b7160e01b5f52601160045260245ffd5b808201808211156106bc576106bc611cf0565b60208082526023908201527f43616c6c6572206e6f7420616c6c6f77656420746f206d696e7420666f72207560408201526239b2b960e91b606082015260800190565b634e487b7160e01b5f52603260045260245ffd5b600181811c90821680611d8257607f821691505b602082108103611da057634e487b7160e01b5f52602260045260245ffd5b50919050565b5f60208284031215611db6575f80fd5b8151610723816119f1565b5f60208284031215611dd1575f80fd5b815161072381611a05565b5f60208284031215611dec575f80fd5b5051919050565b818103818111156106bc576106bc611cf0565b5f8060408385031215611e17575f80fd5b8251611e22816119f1565b6020840151909250611a3e816119f1565b80820281158282048414176106bc576106bc611cf0565b5f8251611e5b818460208701611b6a565b9190910192915050565b602081525f6107236020830184611b8c56fea2646970667358221220090c4ce36b2e22bc9ff7a9ba4cac2287fd1002f66ae12e68a763287ad6efd1fc64736f6c63430008180033",
  "language": "Solidity",
  "compiler": "0.8.24+commit.e11b9ed9"
}