{
  "address": "0xe22fe63E20c3D817121022316B2430b5A516a6CE",
  "abi": [
    {
      "inputs": [],
      "stateMutability": "nonpayable",
      "type": "constructor"
    },
    {
      "inputs": [],
      "name": "BRIDGE_ROLE",
      "outputs": [
        {
          "internalType": "bytes32",
          "name": "",
          "type": "bytes32"
        }
      ],
      "stateMutability": "view",
      "type": "function"
    },
    {
      "inputs": [],
      "name": "DEFAULT_ADMIN_ROLE",
      "outputs": [
        {
          "internalType": "bytes32",
          "name": "",
          "type": "bytes32"
        }
      ],
      "stateMutability": "view",
      "type": "function"
    },
    {
      "inputs": [],
      "name": "DOMAIN_SEPARATOR",
      "outputs": [
        {
          "internalType": "bytes32",
          "name": "",
          "type": "bytes32"
        }
      ],
      "stateMutability": "view",
      "type": "function"
    },
    {
      "inputs": [
        {
          "internalType": "address",
          "name": "owner",
          "type": "address"
        },
        {
          "internalType": "address",
          "name": "spender",
          "type": "address"
        }
      ],
      "name": "allowance",
      "outputs": [
        {
          "internalType": "uint256",
          "name": "",
          "type": "uint256"
        }
      ],
      "stateMutability": "view",
      "type": "function"
    },
    {
      "inputs": [
        {
          "internalType": "address",
          "name": "spender",
          "type": "address"
        },
        {
          "internalType": "uint256",
          "name": "value",
          "type": "uint256"
        }
      ],
      "name": "approve",
      "outputs": [
        {
          "internalType": "bool",
          "name": "",
          "type": "bool"
        }
      ],
      "stateMutability": "nonpayable",
      "type": "function"
    },
    {
      "inputs": [
        {
          "internalType": "address",
          "name": "account",
          "type": "address"
        }
      ],
      "name": "balanceOf",
      "outputs": [
        {
          "internalType": "uint256",
          "name": "",
          "type": "uint256"
        }
      ],
      "stateMutability": "view",
      "type": "function"
    },
    {
      "inputs": [
        {
          "internalType": "uint256",
          "name": "_amount",
          "type": "uint256"
        }
      ],
      "name": "burn",
      "outputs": [],
      "stateMutability": "nonpayable",
      "type": "function"
    },
    {
      "inputs": [],
      "name": "decimals",
      "outputs": [
        {
          "internalType": "uint8",
          "name": "",
          "type": "uint8"
        }
      ],
      "stateMutability": "view",
      "type": "function"
    },
    {
      "inputs": [],
      "name": "eip712Domain",
      "outputs": [
        {
          "internalType": "bytes1",
          "name": "fields",
          "type": "bytes1"
        },
        {
          "internalType": "string",
          "name": "name",
          "type": "string"
        },
        {
          "internalType": "string",
          "name": "version",
          "type": "string"
        },
        {
          "internalType": "uint256",
          "name": "chainId",
          "type": "uint256"
        },
        {
          "internalType": "address",
          "name": "verifyingContract",
          "type": "address"
        },
        {
          "internalType": "bytes32",
          "name": "salt",
          "type": "bytes32"
        },
        {
          "internalType": "uint256[]",
          "name": "extensions",
          "type": "uint256[]"
        }
      ],
      "stateMutability": "view",
      "type": "function"
    },
    {
      "inputs": [
        {
          "internalType": "bytes32",
          "name": "role",
          "type": "bytes32"
        }
      ],
      "name": "getRoleAdmin",
      "outputs": [
        {
          "internalType": "bytes32",
          "name": "",
          "type": "bytes32"
        }
      ],
      "stateMutability": "view",
      "type": "function"
    },
    {
      "inputs": [
        {
          "internalType": "bytes32",
          "name": "role",
          "type": "bytes32"
        },
        {
          "internalType": "address",
          "name": "account",
          "type": "address"
        }
      ],
      "name": "grantRole",
      "outputs": [],
      "stateMutability": "nonpayable",
      "type": "function"
    },
    {
      "inputs": [
        {
          "internalType": "bytes32",
          "name": "role",
          "type": "bytes32"
        },
        {
          "internalType": "address",
          "name": "account",
          "type": "address"
        }
      ],
      "name": "hasRole",
      "outputs": [
        {
          "internalType": "bool",
          "name": "",
          "type": "bool"
        }
      ],
      "stateMutability": "view",
      "type": "function"
    },
    {
      "inputs": [
        {
          "internalType": "address",
          "name": "_to",
          "type": "address"
        },
        {
          "internalType": "uint256",
          "name": "_amount",
          "type": "uint256"
        }
      ],
      "name": "mint",
      "outputs": [],
      "stateMutability": "nonpayable",
      "type": "function"
    },
    {
      "inputs": [],
      "name": "name",
      "outputs": [
        {
          "internalType": "string",
          "name": "",
          "type": "string"
        }
      ],
      "stateMutability": "view",
      "type": "function"
    },
    {
      "inputs": [
        {
          "internalType": "address",
          "name": "owner",
          "type": "address"
        }
      ],
      "name": "nonces",
      "outputs": [
        {
          "internalType": "uint256",
          "name": "",
          "type": "uint256"
        }
      ],
      "stateMutability": "view",
      "type": "function"
    },
    {
      "inputs": [
        {
          "internalType": "address",
          "name": "owner",
          "type": "address"
        },
        {
          "internalType": "address",
          "name": "spender",
          "type": "address"
        },
        {
          "internalType": "uint256",
          "name": "value",
          "type": "uint256"
        },
        {
          "internalType": "uint256",
          "name": "deadline",
          "type": "uint256"
        },
        {
          "internalType": "uint8",
          "name": "v",
          "type": "uint8"
        },
        {
          "internalType": "bytes32",
          "name": "r",
          "type": "bytes32"
        },
        {
          "internalType": "bytes32",
          "name": "s",
          "type": "bytes32"
        }
      ],
      "name": "permit",
      "outputs": [],
      "stateMutability": "nonpayable",
      "type": "function"
    },
    {
      "inputs": [
        {
          "internalType": "bytes32",
          "name": "role",
          "type": "bytes32"
        },
        {
          "internalType": "address",
          "name": "callerConfirmation",
          "type": "address"
        }
      ],
      "name": "renounceRole",
      "outputs": [],
      "stateMutability": "nonpayable",
      "type": "function"
    },
    {
      "inputs": [
        {
          "internalType": "bytes32",
          "name": "role",
          "type": "bytes32"
        },
        {
          "internalType": "address",
          "name": "account",
          "type": "address"
        }
      ],
      "name": "revokeRole",
      "outputs": [],
      "stateMutability": "nonpayable",
      "type": "function"
    },
    {
      "inputs": [
        {
          "internalType": "bytes4",
          "name": "interfaceId",
          "type": "bytes4"
        }
      ],
      "name": "supportsInterface",
      "outputs": [
        {
          "internalType": "bool",
          "name": "",
          "type": "bool"
        }
      ],
      "stateMutability": "view",
      "type": "function"
    },
    {
      "inputs": [],
      "name": "symbol",
      "outputs": [
        {
          "internalType": "string",
          "name": "",
          "type": "string"
        }
      ],
      "stateMutability": "view",
      "type": "function"
    },
    {
      "inputs": [],
      "name": "totalSupply",
      "outputs": [
        {
          "internalType": "uint256",
          "name": "",
          "type": "uint256"
        }
      ],
      "stateMutability": "view",
      "type": "function"
    },
    {
      "inputs": [
        {
          "internalType": "address",
          "name": "to",
          "type": "address"
        },
        {
          "internalType": "uint256",
          "name": "value",
          "type": "uint256"
        }
      ],
      "name": "transfer",
      "outputs": [
        {
          "internalType": "bool",
          "name": "",
          "type": "bool"
        }
      ],
      "stateMutability": "nonpayable",
      "type": "function"
    },
    {
      "inputs": [
        {
          "internalType": "address",
          "name": "from",
          "type": "address"
        },
        {
          "internalType": "address",
          "name": "to",
          "type": "address"
        },
        {
          "internalType": "uint256",
          "name": "value",
          "type": "uint256"
        }
      ],
      "name": "transferFrom",
      "outputs": [
        {
          "internalType": "bool",
          "name": "",
          "type": "bool"
        }
      ],
      "stateMutability": "nonpayable",
      "type": "function"
    },
    {
      "anonymous": false,
      "inputs": [
        {
          "indexed": true,
          "internalType": "address",
          "name": "owner",
          "type": "address"
        },
        {
          "indexed": true,
          "internalType": "address",
          "name": "spender",
          "type": "address"
        },
        {
          "indexed": false,
          "internalType": "uint256",
          "name": "value",
          "type": "uint256"
        }
      ],
      "name": "Approval",
      "type": "event"
    },
    {
      "anonymous": false,
      "inputs": [],
      "name": "EIP712DomainChanged",
      "type": "event"
    },
    {
      "anonymous": false,
      "inputs": [
        {
          "indexed": true,
          "internalType": "bytes32",
          "name": "role",
          "type": "bytes32"
        },
        {
          "indexed": true,
          "internalType": "bytes32",
          "name": "previousAdminRole",
          "type": "bytes32"
        },
        {
          "indexed": true,
          "internalType": "bytes32",
          "name": "newAdminRole",
          "type": "bytes32"
        }
      ],
      "name": "RoleAdminChanged",
      "type": "event"
    },
    {
      "anonymous": false,
      "inputs": [
        {
          "indexed": true,
          "internalType": "bytes32",
          "name": "role",
          "type": "bytes32"
        },
        {
          "indexed": true,
          "internalType": "address",
          "name": "account",
          "type": "address"
        },
        {
          "indexed": true,
          "internalType": "address",
          "name": "sender",
          "type": "address"
        }
      ],
      "name": "RoleGranted",
      "type": "event"
    },
    {
      "anonymous": false,
      "inputs": [
        {
          "indexed": true,
          "internalType": "bytes32",
          "name": "role",
          "type": "bytes32"
        },
        {
          "indexed": true,
          "internalType": "address",
          "name": "account",
          "type": "address"
        },
        {
          "indexed": true,
          "internalType": "address",
          "name": "sender",
          "type": "address"
        }
      ],
      "name": "RoleRevoked",
      "type": "event"
    },
    {
      "anonymous": false,
      "inputs": [
        {
          "indexed": true,
          "internalType": "address",
          "name": "from",
          "type": "address"
        },
        {
          "indexed": true,
          "internalType": "address",
          "name": "to",
          "type": "address"
        },
        {
          "indexed": false,
          "internalType": "uint256",
          "name": "value",
          "type": "uint256"
        }
      ],
      "name": "Transfer",
      "type": "event"
    },
    {
      "inputs": [],
      "name": "AccessControlBadConfirmation",
      "type": "error"
    },
    {
      "inputs": [
        {
          "internalType": "address",
          "name": "account",
          "type": "address"
        },
        {
          "internalType": "bytes32",
          "name": "neededRole",
          "type": "bytes32"
        }
      ],
      "name": "AccessControlUnauthorizedAccount",
      "type": "error"
    },
    {
      "inputs": [],
      "name": "ECDSAInvalidSignature",
      "type": "error"
    },
    {
      "inputs": [
        {
          "internalType": "uint256",
          "name": "length",
          "type": "uint256"
        }
      ],
      "name": "ECDSAInvalidSignatureLength",
      "type": "error"
    },
    {
      "inputs": [
        {
          "internalType": "bytes32",
          "name": "s",
          "type": "bytes32"
        }
      ],
      "name": "ECDSAInvalidSignatureS",
      "type": "error"
    },
    {
      "inputs": [
        {
          "internalType": "address",
          "name": "spender",
          "type": "address"
        },
        {
          "internalType": "uint256",
          "name": "allowance",
          "type": "uint256"
        },
        {
          "internalType": "uint256",
          "name": "needed",
          "type": "uint256"
        }
      ],
      "name": "ERC20InsufficientAllowance",
      "type": "error"
    },
    {
      "inputs": [
        {
          "internalType": "address",
          "name": "sender",
          "type": "address"
        },
        {
          "internalType": "uint256",
          "name": "balance",
          "type": "uint256"
        },
        {
          "internalType": "uint256",
          "name": "needed",
          "type": "uint256"
        }
      ],
      "name": "ERC20InsufficientBalance",
      "type": "error"
    },
    {
      "inputs": [
        {
          "internalType": "address",
          "name": "approver",
          "type": "address"
        }
      ],
      "name": "ERC20InvalidApprover",
      "type": "error"
    },
    {
      "inputs": [
        {
          "internalType": "address",
          "name": "receiver",
          "type": "address"
        }
      ],
      "name": "ERC20InvalidReceiver",
      "type": "error"
    },
    {
      "inputs": [
        {
          "internalType": "address",
          "name": "sender",
          "type": "address"
        }
      ],
      "name": "ERC20InvalidSender",
      "type": "error"
    },
    {
      "inputs": [
        {
          "internalType": "address",
          "name": "spender",
          "type": "address"
        }
      ],
      "name": "ERC20InvalidSpender",
      "type": "error"
    },
    {
      "inputs": [
        {
          "internalType": "uint256",
          "name": "deadline",
          "type": "uint256"
        }
      ],
      "name": "ERC2612ExpiredSignature",
      "type": "error"
    },
    {
      "inputs": [
        {
          "internalType": "address",
          "name": "signer",
          "type": "address"
        },
        {
          "internalType": "address",
          "name": "owner",
          "type": "address"
        }
      ],
      "name": "ERC2612InvalidSigner",
      "type": "error"
    },
    {
      "inputs": [
        {
          "internalType": "address",
          "name": "account",
          "type": "address"
        },
        {
          "internalType": "uint256",
          "name": "currentNonce",
          "type": "uint256"
        }
      ],
      "name": "InvalidAccountNonce",
      "type": "error"
    },
    {
      "inputs": [],
      "name": "InvalidShortString",
      "type": "error"
    },
    {
      "inputs": [
        {
          "internalType": "string",
          "name": "str",
          "type": "string"
        }
      ],
      "name": "StringTooLong",
      "type": "error"
    }
  ],
  "bytecode": "0x61016060405234801562000011575f80fd5b50604051806040016040528060048152602001634d696c6f60e01b81525080604051806040016040528060018152602001603160f81b815250604051806040016040528060048152602001634d696c6f60e01b815250604051806040016040528060048152602001634d494c4f60e01b815250816003908162000095919062000341565b506004620000a4828262000341565b50620000b69150839050600562000171565b61012052620000c781600662000171565b61014052815160208084019190912060e052815190820120610100524660a0526200015460e05161010051604080517f8b73c3c69bb8fe3d512ecc4cf759cc79239f7b179b0ffacaa9a75d522b39400f60208201529081019290925260608201524660808201523060a08201525f9060c00160405160208183030381529060405280519060200120905090565b60805250503060c052506200016a5f33620001a9565b506200047f565b5f6020835110156200019057620001888362000258565b9050620001a3565b816200019d848262000341565b5060ff90505b92915050565b5f8281526008602090815260408083206001600160a01b038516845290915281205460ff1662000250575f8381526008602090815260408083206001600160a01b03861684529091529020805460ff19166001179055620002073390565b6001600160a01b0316826001600160a01b0316847f2f8788117e7eff1d82e926ec794901d17c78024a50270940304540a733656f0d60405160405180910390a4506001620001a3565b505f620001a3565b5f80829050601f815111156200028e578260405163305a27a960e01b81526004016200028591906200040d565b60405180910390fd5b80516200029b826200045b565b179392505050565b634e487b7160e01b5f52604160045260245ffd5b600181811c90821680620002cc57607f821691505b602082108103620002eb57634e487b7160e01b5f52602260045260245ffd5b50919050565b601f8211156200033c57805f5260205f20601f840160051c81016020851015620003185750805b601f840160051c820191505b8181101562000339575f815560010162000324565b50505b505050565b81516001600160401b038111156200035d576200035d620002a3565b62000375816200036e8454620002b7565b84620002f1565b602080601f831160018114620003ab575f8415620003935750858301515b5f19600386901b1c1916600185901b17855562000405565b5f85815260208120601f198616915b82811015620003db57888601518255948401946001909101908401620003ba565b5085821015620003f957878501515f19600388901b60f8161c191681555b505060018460011b0185555b505050505050565b5f602080835283518060208501525f5b818110156200043b578581018301518582016040015282016200041d565b505f604082860101526040601f19601f8301168501019250505092915050565b80516020808301519190811015620002eb575f1960209190910360031b1b16919050565b60805160a05160c05160e05161010051610120516101405161131d620004d15f395f610abb01525f610a8e01525f61096001525f61093801525f61089301525f6108bd01525f6108e7015261131d5ff3fe608060405234801561000f575f80fd5b5060043610610148575f3560e01c806342966c68116100bf578063a217fddf11610079578063a217fddf146102b9578063a9059cbb146102c0578063b5bfddea146102d3578063d505accf146102fa578063d547741f1461030d578063dd62ed3e14610320575f80fd5b806342966c681461023557806370a08231146102485780637ecebe001461027057806384b0196e1461028357806391d148541461029e57806395d89b41146102b1575f80fd5b8063248a9ca311610110578063248a9ca3146101c15780632f2ff15d146101e3578063313ce567146101f85780633644e5151461020757806336568abe1461020f57806340c10f1914610222575f80fd5b806301ffc9a71461014c57806306fdde0314610174578063095ea7b31461018957806318160ddd1461019c57806323b872dd146101ae575b5f80fd5b61015f61015a366004610ff7565b610358565b60405190151581526020015b60405180910390f35b61017c61038e565b60405161016b9190611068565b61015f610197366004611095565b61041e565b6002545b60405190815260200161016b565b61015f6101bc3660046110bd565b610435565b6101a06101cf3660046110f6565b5f9081526008602052604090206001015490565b6101f66101f136600461110d565b610458565b005b6040516012815260200161016b565b6101a0610482565b6101f661021d36600461110d565b610490565b6101f6610230366004611095565b6104c8565b6101f66102433660046110f6565b6104fc565b6101a0610256366004611137565b6001600160a01b03165f9081526020819052604090205490565b6101a061027e366004611137565b610509565b61028b610526565b60405161016b9796959493929190611150565b61015f6102ac36600461110d565b610568565b61017c610592565b6101a05f81565b61015f6102ce366004611095565b6105a1565b6101a07f52ba824bfabc2bcfcdf7f0edbb486ebb05e1836c90e78047efeb949990f72e5f81565b6101f66103083660046111e7565b6105ae565b6101f661031b36600461110d565b6106e9565b6101a061032e366004611254565b6001600160a01b039182165f90815260016020908152604080832093909416825291909152205490565b5f6001600160e01b03198216637965db0b60e01b148061038857506301ffc9a760e01b6001600160e01b03198316145b92915050565b60606003805461039d9061127c565b80601f01602080910402602001604051908101604052809291908181526020018280546103c99061127c565b80156104145780601f106103eb57610100808354040283529160200191610414565b820191905f5260205f20905b8154815290600101906020018083116103f757829003601f168201915b5050505050905090565b5f3361042b81858561070d565b5060019392505050565b5f3361044285828561071a565b61044d85858561078f565b506001949350505050565b5f82815260086020526040902060010154610472816107ec565b61047c83836107f6565b50505050565b5f61048b610887565b905090565b6001600160a01b03811633146104b95760405163334bd91960e11b815260040160405180910390fd5b6104c382826109b0565b505050565b7f52ba824bfabc2bcfcdf7f0edbb486ebb05e1836c90e78047efeb949990f72e5f6104f2816107ec565b6104c38383610a1b565b6105063382610a53565b50565b6001600160a01b0381165f90815260076020526040812054610388565b5f6060805f805f6060610537610a87565b61053f610ab4565b604080515f80825260208201909252600f60f81b9b939a50919850469750309650945092509050565b5f9182526008602090815260408084206001600160a01b0393909316845291905290205460ff1690565b60606004805461039d9061127c565b5f3361042b81858561078f565b834211156105d75760405163313c898160e11b8152600481018590526024015b60405180910390fd5b5f7f6e71edae12b1b97f4d1f60370fef10105fa2faae0126114a169c64845d6126c98888886106228c6001600160a01b03165f90815260076020526040902080546001810190915590565b6040805160208101969096526001600160a01b0394851690860152929091166060840152608083015260a082015260c0810186905260e0016040516020818303038152906040528051906020012090505f61067c82610ae1565b90505f61068b82878787610b0d565b9050896001600160a01b0316816001600160a01b0316146106d2576040516325c0072360e11b81526001600160a01b0380831660048301528b1660248201526044016105ce565b6106dd8a8a8a61070d565b50505050505050505050565b5f82815260086020526040902060010154610703816107ec565b61047c83836109b0565b6104c38383836001610b39565b6001600160a01b038381165f908152600160209081526040808320938616835292905220545f19811461047c578181101561078157604051637dc7a0d960e11b81526001600160a01b038416600482015260248101829052604481018390526064016105ce565b61047c84848484035f610b39565b6001600160a01b0383166107b857604051634b637e8f60e11b81525f60048201526024016105ce565b6001600160a01b0382166107e15760405163ec442f0560e01b81525f60048201526024016105ce565b6104c3838383610c0b565b6105068133610d31565b5f6108018383610568565b610880575f8381526008602090815260408083206001600160a01b03861684529091529020805460ff191660011790556108383390565b6001600160a01b0316826001600160a01b0316847f2f8788117e7eff1d82e926ec794901d17c78024a50270940304540a733656f0d60405160405180910390a4506001610388565b505f610388565b5f306001600160a01b037f0000000000000000000000000000000000000000000000000000000000000000161480156108df57507f000000000000000000000000000000000000000000000000000000000000000046145b1561090957507f000000000000000000000000000000000000000000000000000000000000000090565b61048b604080517f8b73c3c69bb8fe3d512ecc4cf759cc79239f7b179b0ffacaa9a75d522b39400f60208201527f0000000000000000000000000000000000000000000000000000000000000000918101919091527f000000000000000000000000000000000000000000000000000000000000000060608201524660808201523060a08201525f9060c00160405160208183030381529060405280519060200120905090565b5f6109bb8383610568565b15610880575f8381526008602090815260408083206001600160a01b0386168085529252808320805460ff1916905551339286917ff6391f5c32d9c69d2a47ea670b442974b53935d1edc7fd64eb21e047a839171b9190a4506001610388565b6001600160a01b038216610a445760405163ec442f0560e01b81525f60048201526024016105ce565b610a4f5f8383610c0b565b5050565b6001600160a01b038216610a7c57604051634b637e8f60e11b81525f60048201526024016105ce565b610a4f825f83610c0b565b606061048b7f00000000000000000000000000000000000000000000000000000000000000006005610d6a565b606061048b7f00000000000000000000000000000000000000000000000000000000000000006006610d6a565b5f610388610aed610887565b8360405161190160f01b8152600281019290925260228201526042902090565b5f805f80610b1d88888888610e13565b925092509250610b2d8282610edb565b50909695505050505050565b6001600160a01b038416610b625760405163e602df0560e01b81525f60048201526024016105ce565b6001600160a01b038316610b8b57604051634a1406b160e11b81525f60048201526024016105ce565b6001600160a01b038085165f908152600160209081526040808320938716835292905220829055801561047c57826001600160a01b0316846001600160a01b03167f8c5be1e5ebec7d5bd14f71427d1e84f3dd0314c0f7b2291e5b200ac8c7c3b92584604051610bfd91815260200190565b60405180910390a350505050565b6001600160a01b038316610c35578060025f828254610c2a91906112b4565b90915550610ca59050565b6001600160a01b0383165f9081526020819052604090205481811015610c875760405163391434e360e21b81526001600160a01b038516600482015260248101829052604481018390526064016105ce565b6001600160a01b0384165f9081526020819052604090209082900390555b6001600160a01b038216610cc157600280548290039055610cdf565b6001600160a01b0382165f9081526020819052604090208054820190555b816001600160a01b0316836001600160a01b03167fddf252ad1be2c89b69c2b068fc378daa952ba7f163c4a11628f55a4df523b3ef83604051610d2491815260200190565b60405180910390a3505050565b610d3b8282610568565b610a4f5760405163e2517d3f60e01b81526001600160a01b0382166004820152602481018390526044016105ce565b606060ff8314610d8457610d7d83610f93565b9050610388565b818054610d909061127c565b80601f0160208091040260200160405190810160405280929190818152602001828054610dbc9061127c565b8015610e075780601f10610dde57610100808354040283529160200191610e07565b820191905f5260205f20905b815481529060010190602001808311610dea57829003601f168201915b50505050509050610388565b5f80807f7fffffffffffffffffffffffffffffff5d576e7357a4501ddfe92f46681b20a0841115610e4c57505f91506003905082610ed1565b604080515f808252602082018084528a905260ff891692820192909252606081018790526080810186905260019060a0016020604051602081039080840390855afa158015610e9d573d5f803e3d5ffd5b5050604051601f1901519150506001600160a01b038116610ec857505f925060019150829050610ed1565b92505f91508190505b9450945094915050565b5f826003811115610eee57610eee6112d3565b03610ef7575050565b6001826003811115610f0b57610f0b6112d3565b03610f295760405163f645eedf60e01b815260040160405180910390fd5b6002826003811115610f3d57610f3d6112d3565b03610f5e5760405163fce698f760e01b8152600481018290526024016105ce565b6003826003811115610f7257610f726112d3565b03610a4f576040516335e2f38360e21b8152600481018290526024016105ce565b60605f610f9f83610fd0565b6040805160208082528183019092529192505f91906020820181803683375050509182525060208101929092525090565b5f60ff8216601f81111561038857604051632cd44ac360e21b815260040160405180910390fd5b5f60208284031215611007575f80fd5b81356001600160e01b03198116811461101e575f80fd5b9392505050565b5f81518084525f5b818110156110495760208185018101518683018201520161102d565b505f602082860101526020601f19601f83011685010191505092915050565b602081525f61101e6020830184611025565b80356001600160a01b0381168114611090575f80fd5b919050565b5f80604083850312156110a6575f80fd5b6110af8361107a565b946020939093013593505050565b5f805f606084860312156110cf575f80fd5b6110d88461107a565b92506110e66020850161107a565b9150604084013590509250925092565b5f60208284031215611106575f80fd5b5035919050565b5f806040838503121561111e575f80fd5b8235915061112e6020840161107a565b90509250929050565b5f60208284031215611147575f80fd5b61101e8261107a565b60ff60f81b881681525f602060e0602084015261117060e084018a611025565b8381036040850152611182818a611025565b606085018990526001600160a01b038816608086015260a0850187905284810360c0860152855180825260208088019350909101905f5b818110156111d5578351835292840192918401916001016111b9565b50909c9b505050505050505050505050565b5f805f805f805f60e0888a0312156111fd575f80fd5b6112068861107a565b96506112146020890161107a565b95506040880135945060608801359350608088013560ff81168114611237575f80fd5b9699959850939692959460a0840135945060c09093013592915050565b5f8060408385031215611265575f80fd5b61126e8361107a565b915061112e6020840161107a565b600181811c9082168061129057607f821691505b6020821081036112ae57634e487b7160e01b5f52602260045260245ffd5b50919050565b8082018082111561038857634e487b7160e01b5f52601160045260245ffd5b634e487b7160e01b5f52602160045260245ffdfea264697066735822122058043bec4cf9474d3b9fa2c69026154d1c8c6afcfa6d5e0ac0519b6f0b1cfef364736f6c63430008180033",
  "language": "Solidity",
  "compiler": "0.8.24+commit.e11b9ed9"
}