{
  "address": "0xD13921239e3832FDC4141FDE544D3D058B529A5D",
  "abi": [
    {
      "inputs": [
        {
          "internalType": "address",
          "name": "_router",
          "type": "address"
        },
        {
          "internalType": "uint64",
          "name": "_sourceChainSelector",
          "type": "uint64"
        }
      ],
      "stateMutability": "nonpayable",
      "type": "constructor"
    },
    {
      "inputs": [],
      "name": "SOURCE_CHAIN_SELECTOR",
      "outputs": [
        {
          "internalType": "uint64",
          "name": "",
          "type": "uint64"
        }
      ],
      "stateMutability": "view",
      "type": "function"
    },
    {
      "inputs": [],
      "name": "acceptOwnership",
      "outputs": [],
      "stateMutability": "nonpayable",
      "type": "function"
    },
    {
      "inputs": [
        {
          "internalType": "address",
          "name": "_user",
          "type": "address"
        }
      ],
      "name": "balanceOf",
      "outputs": [
        {
          "internalType": "uint256",
          "name": "balance",
          "type": "uint256"
        }
      ],
      "stateMutability": "view",
      "type": "function"
    },
    {
      "inputs": [
        {
          "components": [
            {
              "internalType": "bytes32",
              "name": "messageId",
              "type": "bytes32"
            },
            {
              "internalType": "uint64",
              "name": "sourceChainSelector",
              "type": "uint64"
            },
            {
              "internalType": "bytes",
              "name": "sender",
              "type": "bytes"
            },
            {
              "internalType": "bytes",
              "name": "data",
              "type": "bytes"
            },
            {
              "components": [
                {
                  "internalType": "address",
                  "name": "token",
                  "type": "address"
                },
                {
                  "internalType": "uint256",
                  "name": "amount",
                  "type": "uint256"
                }
              ],
              "internalType": "struct Client.EVMTokenAmount[]",
              "name": "destTokenAmounts",
              "type": "tuple[]"
            }
          ],
          "internalType": "struct Client.Any2EVMMessage",
          "name": "message",
          "type": "tuple"
        }
      ],
      "name": "ccipReceive",
      "outputs": [],
      "stateMutability": "nonpayable",
      "type": "function"
    },
    {
      "inputs": [
        {
          "components": [
            {
              "internalType": "int128",
              "name": "bias",
              "type": "int128"
            },
            {
              "internalType": "int128",
              "name": "slope",
              "type": "int128"
            },
            {
              "internalType": "uint256",
              "name": "ts",
              "type": "uint256"
            },
            {
              "internalType": "uint256",
              "name": "blk",
              "type": "uint256"
            }
          ],
          "internalType": "struct IVeSilo.Point",
          "name": "_p",
          "type": "tuple"
        }
      ],
      "name": "getPointValue",
      "outputs": [
        {
          "internalType": "uint256",
          "name": "value",
          "type": "uint256"
        }
      ],
      "stateMutability": "view",
      "type": "function"
    },
    {
      "inputs": [],
      "name": "getRouter",
      "outputs": [
        {
          "internalType": "address",
          "name": "",
          "type": "address"
        }
      ],
      "stateMutability": "view",
      "type": "function"
    },
    {
      "inputs": [
        {
          "internalType": "address",
          "name": "_timelock",
          "type": "address"
        }
      ],
      "name": "initialize",
      "outputs": [],
      "stateMutability": "nonpayable",
      "type": "function"
    },
    {
      "inputs": [
        {
          "internalType": "address",
          "name": "user",
          "type": "address"
        }
      ],
      "name": "locked__end",
      "outputs": [
        {
          "internalType": "uint256",
          "name": "endOfLockPeriod",
          "type": "uint256"
        }
      ],
      "stateMutability": "view",
      "type": "function"
    },
    {
      "inputs": [],
      "name": "owner",
      "outputs": [
        {
          "internalType": "address",
          "name": "",
          "type": "address"
        }
      ],
      "stateMutability": "view",
      "type": "function"
    },
    {
      "inputs": [],
      "name": "pendingOwner",
      "outputs": [
        {
          "internalType": "address",
          "name": "",
          "type": "address"
        }
      ],
      "stateMutability": "view",
      "type": "function"
    },
    {
      "inputs": [],
      "name": "renounceOwnership",
      "outputs": [],
      "stateMutability": "nonpayable",
      "type": "function"
    },
    {
      "inputs": [
        {
          "internalType": "address",
          "name": "_sourceChainSender",
          "type": "address"
        }
      ],
      "name": "setSourceChainSender",
      "outputs": [],
      "stateMutability": "nonpayable",
      "type": "function"
    },
    {
      "inputs": [],
      "name": "sourceChainSender",
      "outputs": [
        {
          "internalType": "address",
          "name": "",
          "type": "address"
        }
      ],
      "stateMutability": "view",
      "type": "function"
    },
    {
      "inputs": [
        {
          "internalType": "bytes4",
          "name": "interfaceId",
          "type": "bytes4"
        }
      ],
      "name": "supportsInterface",
      "outputs": [
        {
          "internalType": "bool",
          "name": "",
          "type": "bool"
        }
      ],
      "stateMutability": "pure",
      "type": "function"
    },
    {
      "inputs": [],
      "name": "totalSupply",
      "outputs": [
        {
          "internalType": "uint256",
          "name": "result",
          "type": "uint256"
        }
      ],
      "stateMutability": "view",
      "type": "function"
    },
    {
      "inputs": [],
      "name": "totalSupplyPoint",
      "outputs": [
        {
          "internalType": "int128",
          "name": "bias",
          "type": "int128"
        },
        {
          "internalType": "int128",
          "name": "slope",
          "type": "int128"
        },
        {
          "internalType": "uint256",
          "name": "ts",
          "type": "uint256"
        },
        {
          "internalType": "uint256",
          "name": "blk",
          "type": "uint256"
        }
      ],
      "stateMutability": "view",
      "type": "function"
    },
    {
      "inputs": [
        {
          "internalType": "address",
          "name": "newOwner",
          "type": "address"
        }
      ],
      "name": "transferOwnership",
      "outputs": [],
      "stateMutability": "nonpayable",
      "type": "function"
    },
    {
      "inputs": [
        {
          "internalType": "address",
          "name": "user",
          "type": "address"
        }
      ],
      "name": "userPoints",
      "outputs": [
        {
          "internalType": "int128",
          "name": "bias",
          "type": "int128"
        },
        {
          "internalType": "int128",
          "name": "slope",
          "type": "int128"
        },
        {
          "internalType": "uint256",
          "name": "ts",
          "type": "uint256"
        },
        {
          "internalType": "uint256",
          "name": "blk",
          "type": "uint256"
        }
      ],
      "stateMutability": "view",
      "type": "function"
    },
    {
      "inputs": [
        {
          "internalType": "address",
          "name": "_beneficiary",
          "type": "address"
        }
      ],
      "name": "withdraw",
      "outputs": [],
      "stateMutability": "nonpayable",
      "type": "function"
    },
    {
      "inputs": [
        {
          "internalType": "address",
          "name": "_beneficiary",
          "type": "address"
        },
        {
          "internalType": "address",
          "name": "_token",
          "type": "address"
        }
      ],
      "name": "withdrawToken",
      "outputs": [],
      "stateMutability": "nonpayable",
      "type": "function"
    },
    {
      "anonymous": false,
      "inputs": [
        {
          "indexed": false,
          "internalType": "uint64",
          "name": "version",
          "type": "uint64"
        }
      ],
      "name": "Initialized",
      "type": "event"
    },
    {
      "anonymous": false,
      "inputs": [
        {
          "indexed": false,
          "internalType": "address",
          "name": "sender",
          "type": "address"
        }
      ],
      "name": "MainChainSenderConfiguered",
      "type": "event"
    },
    {
      "anonymous": false,
      "inputs": [
        {
          "indexed": true,
          "internalType": "bytes32",
          "name": "messageId",
          "type": "bytes32"
        }
      ],
      "name": "MessageReceived",
      "type": "event"
    },
    {
      "anonymous": false,
      "inputs": [
        {
          "indexed": true,
          "internalType": "address",
          "name": "previousOwner",
          "type": "address"
        },
        {
          "indexed": true,
          "internalType": "address",
          "name": "newOwner",
          "type": "address"
        }
      ],
      "name": "OwnershipTransferStarted",
      "type": "event"
    },
    {
      "anonymous": false,
      "inputs": [
        {
          "indexed": true,
          "internalType": "address",
          "name": "previousOwner",
          "type": "address"
        },
        {
          "indexed": true,
          "internalType": "address",
          "name": "newOwner",
          "type": "address"
        }
      ],
      "name": "OwnershipTransferred",
      "type": "event"
    },
    {
      "anonymous": false,
      "inputs": [
        {
          "components": [
            {
              "internalType": "int128",
              "name": "bias",
              "type": "int128"
            },
            {
              "internalType": "int128",
              "name": "slope",
              "type": "int128"
            },
            {
              "internalType": "uint256",
              "name": "ts",
              "type": "uint256"
            },
            {
              "internalType": "uint256",
              "name": "blk",
              "type": "uint256"
            }
          ],
          "indexed": false,
          "internalType": "struct IVeSilo.Point",
          "name": "totalSupplyPoint",
          "type": "tuple"
        }
      ],
      "name": "TotalSupplyUpdated",
      "type": "event"
    },
    {
      "anonymous": false,
      "inputs": [
        {
          "indexed": true,
          "internalType": "address",
          "name": "user",
          "type": "address"
        },
        {
          "indexed": false,
          "internalType": "uint256",
          "name": "lockedEnd",
          "type": "uint256"
        },
        {
          "components": [
            {
              "internalType": "int128",
              "name": "bias",
              "type": "int128"
            },
            {
              "internalType": "int128",
              "name": "slope",
              "type": "int128"
            },
            {
              "internalType": "uint256",
              "name": "ts",
              "type": "uint256"
            },
            {
              "internalType": "uint256",
              "name": "blk",
              "type": "uint256"
            }
          ],
          "indexed": false,
          "internalType": "struct IVeSilo.Point",
          "name": "userPoint",
          "type": "tuple"
        }
      ],
      "name": "UserBalanceUpdated",
      "type": "event"
    },
    {
      "inputs": [
        {
          "internalType": "address",
          "name": "target",
          "type": "address"
        },
        {
          "internalType": "uint256",
          "name": "value",
          "type": "uint256"
        }
      ],
      "name": "FailedToWithdraw",
      "type": "error"
    },
    {
      "inputs": [],
      "name": "InvalidInitialization",
      "type": "error"
    },
    {
      "inputs": [
        {
          "internalType": "address",
          "name": "router",
          "type": "address"
        }
      ],
      "name": "InvalidRouter",
      "type": "error"
    },
    {
      "inputs": [],
      "name": "NotInitializing",
      "type": "error"
    },
    {
      "inputs": [],
      "name": "NothingToWithdraw",
      "type": "error"
    },
    {
      "inputs": [
        {
          "internalType": "address",
          "name": "owner",
          "type": "address"
        }
      ],
      "name": "OwnableInvalidOwner",
      "type": "error"
    },
    {
      "inputs": [
        {
          "internalType": "address",
          "name": "account",
          "type": "address"
        }
      ],
      "name": "OwnableUnauthorizedAccount",
      "type": "error"
    },
    {
      "inputs": [],
      "name": "UnauthorizedSender",
      "type": "error"
    },
    {
      "inputs": [],
      "name": "UnknownMessageType",
      "type": "error"
    },
    {
      "inputs": [],
      "name": "UnsupportedSourceChain",
      "type": "error"
    }
  ],
  "bytecode": "0x60c060405234801562000010575f80fd5b50604051620015cb380380620015cb833981016040819052620000339162000141565b816001600160a01b03811662000062576040516335fdcccd60e21b81525f600482015260240160405180910390fd5b6001600160a01b03166080526001600160401b03811660a052620000856200008d565b505062000192565b7ff0c57e16840df040f15088dc2f81fe391c3923bec73e23a9662efc9c229c6a00805468010000000000000000900460ff1615620000de5760405163f92ee8a960e01b815260040160405180910390fd5b80546001600160401b03908116146200013e5780546001600160401b0319166001600160401b0390811782556040519081527fc7f505b2f371ae2175ee4913f4499e1f2633a7b5936321eed1cdaeb6115181d29060200160405180910390a15b50565b5f806040838503121562000153575f80fd5b82516001600160a01b03811681146200016a575f80fd5b60208401519092506001600160401b038116811462000187575f80fd5b809150509250929050565b60805160a051611409620001c25f395f818161019601526109aa01525f818161026c01526106a101526114095ff3fe608060405234801561000f575f80fd5b5060043610610127575f3560e01c806385572ffb116100a9578063c4d66de81161006e578063c4d66de8146102a3578063e30c3978146102b6578063f2fde38b146102be578063f4182acb146102d1578063f50ddbc71461031a575f80fd5b806385572ffb146102305780638da5cb5b14610243578063adc635891461024b578063b0f479a11461026a578063bbb5785714610290575f80fd5b806351cff8d9116100ef57806351cff8d9146101d0578063578a0efe146101e357806370a082311461020d578063715018a61461022057806379ba509714610228575f80fd5b806301ffc9a71461012b57806318160ddd14610153578063378ef708146101695780633aeac4e11461017c5780634717262b14610191575b5f80fd5b61013e610139366004610dd2565b610357565b60405190151581526020015b60405180910390f35b61015b61038d565b60405190815260200161014a565b61015b610177366004610eb7565b6103d2565b61018f61018a366004610f20565b610423565b005b6101b87f000000000000000000000000000000000000000000000000000000000000000081565b6040516001600160401b03909116815260200161014a565b61018f6101de366004610f57565b61052b565b5f546101f5906001600160a01b031681565b6040516001600160a01b03909116815260200161014a565b61015b61021b366004610f57565b6105e1565b61018f61063b565b61018f61064e565b61018f61023e366004610f72565b610696565b6101f56106f2565b61015b610259366004610f57565b60046020525f908152604090205481565b7f00000000000000000000000000000000000000000000000000000000000000006101f5565b61018f61029e366004610f57565b610726565b61018f6102b1366004610f57565b610781565b6101f561088d565b61018f6102cc366004610f57565b6108b5565b6001546002546003546102f292600f81810b93600160801b909204900b9184565b60408051600f95860b81529390940b602084015292820152606081019190915260800161014a565b6102f2610328366004610f57565b60056020525f9081526040902080546001820154600290920154600f82810b93600160801b909304900b919084565b5f6001600160e01b031982166385572ffb60e01b148061038757506001600160e01b031982166301ffc9a760e01b145b92915050565b60408051608081018252600154600f81810b8352600160801b909104900b60208201526002549181019190915260035460608201525f906103cd906103d2565b905090565b5f808260400151426103e49190610fbc565b83602001516103f39190610fcf565b83516103ff9190610ff5565b90505f81600f0b1261041a57806001600160801b031661041c565b5f5b9392505050565b61042b61093a565b6040516370a0823160e01b81523060048201525f906001600160a01b038316906370a0823190602401602060405180830381865afa15801561046f573d5f803e3d5ffd5b505050506040513d601f19601f820116820180604052508101906104939190611034565b9050805f036104b557604051630686827b60e51b815260040160405180910390fd5b60405163a9059cbb60e01b81526001600160a01b0384811660048301526024820183905283169063a9059cbb906044016020604051808303815f875af1158015610501573d5f803e3d5ffd5b505050506040513d601f19601f82011682018060405250810190610525919061104b565b50505050565b61053361093a565b475f81900361055557604051630686827b60e51b815260040160405180910390fd5b5f826001600160a01b0316826040515f6040518083038185875af1925050503d805f811461059e576040519150601f19603f3d011682016040523d82523d5f602084013e6105a3565b606091505b50509050806105dc576040516378e1a7e360e11b81526001600160a01b0384166004820152602481018390526044015b60405180910390fd5b505050565b6001600160a01b0381165f90815260056020908152604080832081516080810183528154600f81810b8352600160801b909104900b93810193909352600181015491830191909152600201546060820152610387906103d2565b61064361093a565b61064c5f61096c565b565b338061065861088d565b6001600160a01b03161461068a5760405163118cdaa760e01b81526001600160a01b03821660048201526024016105d3565b6106938161096c565b50565b336001600160a01b037f000000000000000000000000000000000000000000000000000000000000000016146106e1576040516335fdcccd60e21b81523360048201526024016105d3565b6106936106ed82611197565b6109a8565b5f807f9016d09d72d40fdae2fd8ceac6b6234c7706214fd39c1cd1e609a0528c1993005b546001600160a01b031692915050565b61072e61093a565b5f80546001600160a01b0319166001600160a01b0383169081179091556040519081527f684225f2d248264008d124953042124514cfc72cab4a1f1d6e88b0c5736f13a39060200160405180910390a150565b7ff0c57e16840df040f15088dc2f81fe391c3923bec73e23a9662efc9c229c6a008054600160401b810460ff1615906001600160401b03165f811580156107c55750825b90505f826001600160401b031660011480156107e05750303b155b9050811580156107ee575080155b1561080c5760405163f92ee8a960e01b815260040160405180910390fd5b845467ffffffffffffffff19166001178555831561083657845460ff60401b1916600160401b1785555b61083f86610ae2565b831561088557845460ff60401b19168555604051600181527fc7f505b2f371ae2175ee4913f4499e1f2633a7b5936321eed1cdaeb6115181d29060200160405180910390a15b505050505050565b5f807f237e158222e3e6968b72b9db0d8043aacf074ad9f650f0d1606b4d82ee432c00610716565b6108bd61093a565b7f237e158222e3e6968b72b9db0d8043aacf074ad9f650f0d1606b4d82ee432c0080546001600160a01b0319166001600160a01b03831690811782556109016106f2565b6001600160a01b03167f38d16b8cac22d99fc7c124b9cd0de2d3fa1faef420bfe791d8c362d765e2270060405160405180910390a35050565b336109436106f2565b6001600160a01b03161461064c5760405163118cdaa760e01b81523360048201526024016105d3565b7f237e158222e3e6968b72b9db0d8043aacf074ad9f650f0d1606b4d82ee432c0080546001600160a01b03191681556109a482610b13565b5050565b7f00000000000000000000000000000000000000000000000000000000000000006001600160401b031681602001516001600160401b0316146109fe57604051630e488d3560e21b815260040160405180910390fd5b5f8160400151806020019051810190610a17919061123e565b5f549091506001600160a01b03808316911614610a4757604051630101292160e31b815260040160405180910390fd5b606082015160208101515f816001811115610a6457610a64611259565b03610a7757610a7282610b83565b610ab2565b6001816001811115610a8b57610a8b611259565b03610a9957610a7282610ce7565b6040516304c735eb60e11b815260040160405180910390fd5b83516040517fe29dc34207c78fc0f6048a32f159139c33339c6d6df8b07dcd33f6d699ff2327905f90a250505050565b610aea610d89565b6001600160a01b03811661068a57604051631e4fbdf760e01b81525f60048201526024016105d3565b7f9016d09d72d40fdae2fd8ceac6b6234c7706214fd39c1cd1e609a0528c19930080546001600160a01b031981166001600160a01b03848116918217845560405192169182907f8be0079c531659141344cd1fd0a4f28419497f9722a3daafe3b4186f6b6457e0905f90a3505050565b604080516080810182525f80825260208201819052918101829052606081018290528190604080516080810182525f80825260208201819052918101829052606081019190915284806020019051810190610bde91906112d1565b6001600160a01b0384165f81815260046020908152604080832087905560058252918290208551918601516001600160801b03908116600160801b029216919091178155818501516001820155606085015160029091015551949950929750909550935091507f0b045302c2d4935ce0babec6ac360084c22c66d72556617803377df68c71d85690610c739086908690611331565b60405180910390a2805160208201516001600160801b03908116600160801b029116176001556040808201516002556060820151600355517f02e5cad5e9890d9e62b08557035a1b58753175a159cf95084efd66d49ee9f3c790610cd890839061136c565b60405180910390a15050505050565b604080516080810182525f8082526020808301829052928201819052606082015282519091610d1c91840181019084016113a1565b805160208201516001600160801b03908116600160801b029116176001556040808201516002556060820151600355519092507f02e5cad5e9890d9e62b08557035a1b58753175a159cf95084efd66d49ee9f3c79150610d7d90839061136c565b60405180910390a15050565b7ff0c57e16840df040f15088dc2f81fe391c3923bec73e23a9662efc9c229c6a0054600160401b900460ff1661064c57604051631afcd79f60e31b815260040160405180910390fd5b5f60208284031215610de2575f80fd5b81356001600160e01b03198116811461041c575f80fd5b634e487b7160e01b5f52604160045260245ffd5b604051608081016001600160401b0381118282101715610e2f57610e2f610df9565b60405290565b604080519081016001600160401b0381118282101715610e2f57610e2f610df9565b60405160a081016001600160401b0381118282101715610e2f57610e2f610df9565b604051601f8201601f191681016001600160401b0381118282101715610ea157610ea1610df9565b604052919050565b80600f0b8114610693575f80fd5b5f60808284031215610ec7575f80fd5b610ecf610e0d565b8235610eda81610ea9565b81526020830135610eea81610ea9565b6020820152604083810135908201526060928301359281019290925250919050565b6001600160a01b0381168114610693575f80fd5b5f8060408385031215610f31575f80fd5b8235610f3c81610f0c565b91506020830135610f4c81610f0c565b809150509250929050565b5f60208284031215610f67575f80fd5b813561041c81610f0c565b5f60208284031215610f82575f80fd5b81356001600160401b03811115610f97575f80fd5b820160a0818503121561041c575f80fd5b634e487b7160e01b5f52601160045260245ffd5b8181038181111561038757610387610fa8565b5f82600f0b82600f0b0280600f0b9150808214610fee57610fee610fa8565b5092915050565b600f82810b9082900b036f7fffffffffffffffffffffffffffffff1981126f7fffffffffffffffffffffffffffffff8213171561038757610387610fa8565b5f60208284031215611044575f80fd5b5051919050565b5f6020828403121561105b575f80fd5b8151801515811461041c575f80fd5b80356001600160401b0381168114611080575f80fd5b919050565b5f82601f830112611094575f80fd5b81356001600160401b038111156110ad576110ad610df9565b6110c0601f8201601f1916602001610e79565b8181528460208386010111156110d4575f80fd5b816020850160208301375f918101602001919091529392505050565b5f82601f8301126110ff575f80fd5b813560206001600160401b0382111561111a5761111a610df9565b611128818360051b01610e79565b82815260069290921b84018101918181019086841115611146575f80fd5b8286015b8481101561118c5760408189031215611161575f80fd5b611169610e35565b813561117481610f0c565b8152818501358582015283529183019160400161114a565b509695505050505050565b5f60a082360312156111a7575f80fd5b6111af610e57565b823581526111bf6020840161106a565b602082015260408301356001600160401b03808211156111dd575f80fd5b6111e936838701611085565b60408401526060850135915080821115611201575f80fd5b61120d36838701611085565b60608401526080850135915080821115611225575f80fd5b50611232368286016110f0565b60808301525092915050565b5f6020828403121561124e575f80fd5b815161041c81610f0c565b634e487b7160e01b5f52602160045260245ffd5b805160028110611080575f80fd5b5f6080828403121561128b575f80fd5b611293610e0d565b905081516112a081610ea9565b815260208201516112b081610ea9565b80602083015250604082015160408201526060820151606082015292915050565b5f805f805f61016086880312156112e6575f80fd5b6112ef8661126d565b945060208601516112ff81610f0c565b60408701519094509250611316876060880161127b565b91506113258760e0880161127b565b90509295509295909350565b82815260a0810161041c60208301848051600f0b82526020810151600f0b602083015260408101516040830152606081015160608301525050565b6080810161038782848051600f0b82526020810151600f0b602083015260408101516040830152606081015160608301525050565b5f8060a083850312156113b2575f80fd5b6113bb8361126d565b91506113ca846020850161127b565b9050925092905056fea26469706673582212207ed7fd37528a45107c5c9f81de1de6f58748a02e81ecb98a8bbf83586145451064736f6c63430008180033",
  "language": "Solidity",
  "compiler": "0.8.24+commit.e11b9ed9"
}