{
  "address": "0x8b85bB9c75a05D5080E3065C65E6035AB1028222",
  "abi": [
    {
      "inputs": [
        {
          "internalType": "contract IBalancerToken",
          "name": "balancerToken",
          "type": "address"
        }
      ],
      "stateMutability": "nonpayable",
      "type": "constructor"
    },
    {
      "inputs": [],
      "name": "INITIAL_RATE",
      "outputs": [
        {
          "internalType": "uint256",
          "name": "",
          "type": "uint256"
        }
      ],
      "stateMutability": "view",
      "type": "function"
    },
    {
      "inputs": [],
      "name": "RATE_DENOMINATOR",
      "outputs": [
        {
          "internalType": "uint256",
          "name": "",
          "type": "uint256"
        }
      ],
      "stateMutability": "view",
      "type": "function"
    },
    {
      "inputs": [],
      "name": "RATE_REDUCTION_COEFFICIENT",
      "outputs": [
        {
          "internalType": "uint256",
          "name": "",
          "type": "uint256"
        }
      ],
      "stateMutability": "view",
      "type": "function"
    },
    {
      "inputs": [],
      "name": "RATE_REDUCTION_TIME",
      "outputs": [
        {
          "internalType": "uint256",
          "name": "",
          "type": "uint256"
        }
      ],
      "stateMutability": "view",
      "type": "function"
    },
    {
      "inputs": [],
      "name": "acceptOwnership",
      "outputs": [],
      "stateMutability": "nonpayable",
      "type": "function"
    },
    {
      "inputs": [],
      "name": "activate",
      "outputs": [],
      "stateMutability": "nonpayable",
      "type": "function"
    },
    {
      "inputs": [],
      "name": "available_supply",
      "outputs": [
        {
          "internalType": "uint256",
          "name": "",
          "type": "uint256"
        }
      ],
      "stateMutability": "view",
      "type": "function"
    },
    {
      "inputs": [
        {
          "internalType": "address",
          "name": "_manager",
          "type": "address"
        }
      ],
      "name": "changeManager",
      "outputs": [],
      "stateMutability": "nonpayable",
      "type": "function"
    },
    {
      "inputs": [],
      "name": "futureEpochTimeWrite",
      "outputs": [
        {
          "internalType": "uint256",
          "name": "",
          "type": "uint256"
        }
      ],
      "stateMutability": "nonpayable",
      "type": "function"
    },
    {
      "inputs": [],
      "name": "future_epoch_time_write",
      "outputs": [
        {
          "internalType": "uint256",
          "name": "",
          "type": "uint256"
        }
      ],
      "stateMutability": "nonpayable",
      "type": "function"
    },
    {
      "inputs": [],
      "name": "getAvailableSupply",
      "outputs": [
        {
          "internalType": "uint256",
          "name": "",
          "type": "uint256"
        }
      ],
      "stateMutability": "view",
      "type": "function"
    },
    {
      "inputs": [],
      "name": "getBalancerToken",
      "outputs": [
        {
          "internalType": "contract IBalancerToken",
          "name": "",
          "type": "address"
        }
      ],
      "stateMutability": "view",
      "type": "function"
    },
    {
      "inputs": [],
      "name": "getFutureEpochTime",
      "outputs": [
        {
          "internalType": "uint256",
          "name": "",
          "type": "uint256"
        }
      ],
      "stateMutability": "view",
      "type": "function"
    },
    {
      "inputs": [],
      "name": "getInflationRate",
      "outputs": [
        {
          "internalType": "uint256",
          "name": "",
          "type": "uint256"
        }
      ],
      "stateMutability": "view",
      "type": "function"
    },
    {
      "inputs": [],
      "name": "getMiningEpoch",
      "outputs": [
        {
          "internalType": "uint256",
          "name": "",
          "type": "uint256"
        }
      ],
      "stateMutability": "view",
      "type": "function"
    },
    {
      "inputs": [],
      "name": "getStartEpochSupply",
      "outputs": [
        {
          "internalType": "uint256",
          "name": "",
          "type": "uint256"
        }
      ],
      "stateMutability": "view",
      "type": "function"
    },
    {
      "inputs": [],
      "name": "getStartEpochTime",
      "outputs": [
        {
          "internalType": "uint256",
          "name": "",
          "type": "uint256"
        }
      ],
      "stateMutability": "view",
      "type": "function"
    },
    {
      "inputs": [],
      "name": "isActive",
      "outputs": [
        {
          "internalType": "bool",
          "name": "",
          "type": "bool"
        }
      ],
      "stateMutability": "view",
      "type": "function"
    },
    {
      "inputs": [],
      "name": "manager",
      "outputs": [
        {
          "internalType": "address",
          "name": "",
          "type": "address"
        }
      ],
      "stateMutability": "view",
      "type": "function"
    },
    {
      "inputs": [
        {
          "internalType": "address",
          "name": "to",
          "type": "address"
        },
        {
          "internalType": "uint256",
          "name": "amount",
          "type": "uint256"
        }
      ],
      "name": "mint",
      "outputs": [],
      "stateMutability": "nonpayable",
      "type": "function"
    },
    {
      "inputs": [
        {
          "internalType": "uint256",
          "name": "start",
          "type": "uint256"
        },
        {
          "internalType": "uint256",
          "name": "end",
          "type": "uint256"
        }
      ],
      "name": "mintableInTimeframe",
      "outputs": [
        {
          "internalType": "uint256",
          "name": "",
          "type": "uint256"
        }
      ],
      "stateMutability": "view",
      "type": "function"
    },
    {
      "inputs": [
        {
          "internalType": "uint256",
          "name": "start",
          "type": "uint256"
        },
        {
          "internalType": "uint256",
          "name": "end",
          "type": "uint256"
        }
      ],
      "name": "mintable_in_timeframe",
      "outputs": [
        {
          "internalType": "uint256",
          "name": "",
          "type": "uint256"
        }
      ],
      "stateMutability": "view",
      "type": "function"
    },
    {
      "inputs": [],
      "name": "owner",
      "outputs": [
        {
          "internalType": "address",
          "name": "",
          "type": "address"
        }
      ],
      "stateMutability": "view",
      "type": "function"
    },
    {
      "inputs": [],
      "name": "pendingOwner",
      "outputs": [
        {
          "internalType": "address",
          "name": "",
          "type": "address"
        }
      ],
      "stateMutability": "view",
      "type": "function"
    },
    {
      "inputs": [],
      "name": "rate",
      "outputs": [
        {
          "internalType": "uint256",
          "name": "",
          "type": "uint256"
        }
      ],
      "stateMutability": "view",
      "type": "function"
    },
    {
      "inputs": [],
      "name": "renounceOwnership",
      "outputs": [],
      "stateMutability": "nonpayable",
      "type": "function"
    },
    {
      "inputs": [],
      "name": "startEpochTimeWrite",
      "outputs": [
        {
          "internalType": "uint256",
          "name": "",
          "type": "uint256"
        }
      ],
      "stateMutability": "nonpayable",
      "type": "function"
    },
    {
      "inputs": [],
      "name": "start_epoch_time_write",
      "outputs": [
        {
          "internalType": "uint256",
          "name": "",
          "type": "uint256"
        }
      ],
      "stateMutability": "nonpayable",
      "type": "function"
    },
    {
      "inputs": [],
      "name": "stopMining",
      "outputs": [],
      "stateMutability": "nonpayable",
      "type": "function"
    },
    {
      "inputs": [
        {
          "internalType": "address",
          "name": "newOwner",
          "type": "address"
        }
      ],
      "name": "transferOwnership",
      "outputs": [],
      "stateMutability": "nonpayable",
      "type": "function"
    },
    {
      "inputs": [],
      "name": "updateMiningParameters",
      "outputs": [],
      "stateMutability": "nonpayable",
      "type": "function"
    },
    {
      "inputs": [],
      "name": "update_mining_parameters",
      "outputs": [],
      "stateMutability": "nonpayable",
      "type": "function"
    },
    {
      "anonymous": false,
      "inputs": [
        {
          "indexed": false,
          "internalType": "address",
          "name": "manager",
          "type": "address"
        }
      ],
      "name": "ManagerChanged",
      "type": "event"
    },
    {
      "anonymous": false,
      "inputs": [
        {
          "indexed": false,
          "internalType": "uint256",
          "name": "rate",
          "type": "uint256"
        },
        {
          "indexed": false,
          "internalType": "uint256",
          "name": "supply",
          "type": "uint256"
        }
      ],
      "name": "MiningParametersUpdated",
      "type": "event"
    },
    {
      "anonymous": false,
      "inputs": [],
      "name": "MiningProgramStoped",
      "type": "event"
    },
    {
      "anonymous": false,
      "inputs": [
        {
          "indexed": true,
          "internalType": "address",
          "name": "previousOwner",
          "type": "address"
        },
        {
          "indexed": true,
          "internalType": "address",
          "name": "newOwner",
          "type": "address"
        }
      ],
      "name": "OwnershipTransferStarted",
      "type": "event"
    },
    {
      "anonymous": false,
      "inputs": [
        {
          "indexed": true,
          "internalType": "address",
          "name": "previousOwner",
          "type": "address"
        },
        {
          "indexed": true,
          "internalType": "address",
          "name": "newOwner",
          "type": "address"
        }
      ],
      "name": "OwnershipTransferred",
      "type": "event"
    },
    {
      "inputs": [],
      "name": "ManagerDidNotChange",
      "type": "error"
    },
    {
      "inputs": [],
      "name": "ManagerIsZero",
      "type": "error"
    },
    {
      "inputs": [],
      "name": "OnlyManager",
      "type": "error"
    },
    {
      "inputs": [],
      "name": "OnlyOwnerOrManager",
      "type": "error"
    }
  ],
  "bytecode": "0x60a06040525f19600655348015610014575f80fd5b50604051611253380380611253833981016040819052610033916100f9565b3361003d3361008e565b6001600160a01b03811661006457604051639c774ebf60e01b815260040160405180910390fd5b600280546001600160a01b0319166001600160a01b03928316179055600160035516608052610126565b600180546001600160a01b03191690556100a7816100aa565b50565b5f80546001600160a01b038381166001600160a01b0319831681178455604051919092169283917f8be0079c531659141344cd1fd0a4f28419497f9722a3daafe3b4186f6b6457e09190a35050565b5f60208284031215610109575f80fd5b81516001600160a01b038116811461011f575f80fd5b9392505050565b6080516110f26101615f395f81816102ff015281816103e9015281816104ca0152818161064d015281816107560152610a2c01526110f25ff3fe608060405234801561000f575f80fd5b50600436106101e7575f3560e01c8063819df2c411610109578063c167d1cd1161009e578063d725a9ca1161006e578063d725a9ca14610323578063da4086791461033e578063e30c397814610346578063f2fde38b14610357575f80fd5b8063c167d1cd14610240578063c3b03fa814610323578063cb626ae214610336578063d43b40fa14610336575f80fd5b8063adc4cf43116100d9578063adc4cf43146102d7578063b26b238e14610248578063b87b5616146102f2578063c0039699146102fd575f80fd5b8063819df2c4146102505780638da5cb5b146102c7578063a228bced146102d7578063a3fbbaae146102df575f80fd5b806340c10f191161017f57806355f741761161014f57806355f74176146102a0578063715018a6146102a857806379ba5097146102b05780637efad8e0146102b8575f80fd5b806340c10f1914610258578063481c6a751461026b5780634d2fa413146102905780634dbac73314610298575f80fd5b806322f3e2d4116101ba57806322f3e2d41461022357806324f92a2514610240578063277dbafb146102485780632c4e722e14610250575f80fd5b8063087905c9146101eb5780630dfbdce4146102025780630f15f4c01461020a57806321609bbf14610214575b5f80fd5b6005545b6040519081526020015b60405180910390f35b6101ef61036a565b610212610382565b005b6101ef671080e992061ab30081565b6004546102309060ff1681565b60405190151581526020016101f9565b6101ef6105d5565b6101ef6105de565b6008546101ef565b610212610266366004610f9a565b6105f5565b6002546001600160a01b03165b6040516001600160a01b0390911681526020016101f9565b6006546101ef565b6101ef6107b1565b6007546101ef565b6102126107cb565b6102126107dc565b6101ef670de0b6b3a764000081565b5f546001600160a01b0316610278565b6101ef610856565b6102126102ed366004610fc4565b61085f565b6101ef6301e1338081565b7f0000000000000000000000000000000000000000000000000000000000000000610278565b6101ef610331366004610fe6565b610955565b610212610969565b6102126109d1565b6001546001600160a01b0316610278565b610212610365366004610fc4565b610ae0565b6006545f9061037d906301e13380610b4f565b905090565b61038a610b5a565b610392610bb3565b5f19600654146103dd5760405162461bcd60e51b8152602060048201526011602482015270105b1c9958591e481858dd1a5d985d1959607a1b60448201526064015b60405180910390fd5b306001600160a01b03167f00000000000000000000000000000000000000000000000000000000000000006001600160a01b0316638da5cb5b6040518163ffffffff1660e01b8152600401602060405180830381865afa158015610443573d5f803e3d5ffd5b505050506040513d601f19601f820116820180604052508101906104679190611006565b6001600160a01b0316146104c85760405162461bcd60e51b815260206004820152602260248201527f42616c616e636572546f6b656e41646d696e206973206e6f742061206d696e7460448201526132b960f11b60648201526084016103d4565b7f00000000000000000000000000000000000000000000000000000000000000006001600160a01b03166318160ddd6040518163ffffffff1660e01b8152600401602060405180830381865afa158015610524573d5f803e3d5ffd5b505050506040513d601f19601f820116820180604052508101906105489190611021565b6007554260065561056662093a80691eb4773b6d1318a0000061104c565b6008556004805460ff191660011790557fa96ad9a0b81b29565fbe231714a2f2c152b759e603c91bf87144a3f61944f0a56105ae62093a80691eb4773b6d1318a0000061104c565b6007546040805192835260208301919091520160405180910390a16105d36001600355565b565b5f61037d610c0c565b5f61037d6301e133806105ef610c45565b90610b4f565b6002546001600160a01b031633146106205760405163605919ad60e11b815260040160405180910390fd5b600654610631906301e13380610b4f565b421061063f5761063f610c73565b610647610c0c565b6106cb827f00000000000000000000000000000000000000000000000000000000000000006001600160a01b03166318160ddd6040518163ffffffff1660e01b8152600401602060405180830381865afa1580156106a7573d5f803e3d5ffd5b505050506040513d601f19601f820116820180604052508101906105ef9190611021565b11156107305760405162461bcd60e51b815260206004820152602e60248201527f4d696e7420616d6f756e7420657863656564732072656d61696e696e6720617660448201526d61696c61626c6520737570706c7960901b60648201526084016103d4565b6040516340c10f1960e01b81526001600160a01b038381166004830152602482018390527f000000000000000000000000000000000000000000000000000000000000000016906340c10f19906044015f604051808303815f87803b158015610797575f80fd5b505af11580156107a9573d5f803e3d5ffd5b505050505050565b6107c862093a80691eb4773b6d1318a0000061104c565b81565b6107d3610bb3565b6105d35f610d26565b60015433906001600160a01b0316811461084a5760405162461bcd60e51b815260206004820152602960248201527f4f776e61626c6532537465703a2063616c6c6572206973206e6f7420746865206044820152683732bb9037bbb732b960b91b60648201526084016103d4565b61085381610d26565b50565b5f61037d610c45565b5f546001600160a01b0316331480159061088d57506002546001600160a01b0316336001600160a01b031614155b156108ab5760405163b647320d60e01b815260040160405180910390fd5b6001600160a01b0381166108d257604051639c774ebf60e01b815260040160405180910390fd5b6002546001600160a01b039081169082160361090157604051632ebe652b60e21b815260040160405180910390fd5b600280546001600160a01b0319166001600160a01b0383169081179091556040519081527f198db6e425fb8aafd1823c6ca50be2d51e5764571a5ae0f0f21c6812e45def0b9060200160405180910390a150565b5f6109608383610d3f565b90505b92915050565b60065461097a906301e13380610b4f565b4210156109c95760405162461bcd60e51b815260206004820152601a60248201527f45706f636820686173206e6f742066696e69736865642079657400000000000060448201526064016103d4565b6105d3610c73565b6109d9610bb3565b60045460ff16610a185760405162461bcd60e51b815260206004820152600a6024820152694e6f742061637469766560b01b60448201526064016103d4565b6004805460ff191690556001600160a01b037f00000000000000000000000000000000000000000000000000000000000000001663f2fde38b610a625f546001600160a01b031690565b6040516001600160e01b031960e084901b1681526001600160a01b0390911660048201526024015f604051808303815f87803b158015610aa0575f80fd5b505af1158015610ab2573d5f803e3d5ffd5b50506040517fb6521e7ab0ff3f1fde9e2422524e6436261993852fe0bcbb0480531d0c893e1992505f9150a1565b610ae8610bb3565b600180546001600160a01b0319166001600160a01b038316908117909155610b175f546001600160a01b031690565b6001600160a01b03167f38d16b8cac22d99fc7c124b9cd0de2d3fa1faef420bfe791d8c362d765e2270060405160405180910390a350565b5f610960828461106b565b600260035403610bac5760405162461bcd60e51b815260206004820152601f60248201527f5265656e7472616e637947756172643a207265656e7472616e742063616c6c0060448201526064016103d4565b6002600355565b5f546001600160a01b031633146105d35760405162461bcd60e51b815260206004820181905260248201527f4f776e61626c653a2063616c6c6572206973206e6f7420746865206f776e657260448201526064016103d4565b5f80610c2f600854610c2960065442610f1690919063ffffffff16565b90610f21565b600754909150610c3f9082610b4f565b91505090565b6006545f90610c58816301e13380610b4f565b4210610c6e57610c66610c73565b505060065490565b919050565b6008545f610c91610c88836301e13380610f21565b60075490610b4f565b9050610cb7671080e992061ab300610cb184670de0b6b3a7640000610f21565b90610f2c565b600554909250610cc8906001610b4f565b600555600654610cdc906301e13380610b4f565b6006556008829055600781905560408051838152602081018390527fa96ad9a0b81b29565fbe231714a2f2c152b759e603c91bf87144a3f61944f0a5910160405180910390a15050565b600180546001600160a01b031916905561085381610f37565b5f81831115610d7e5760405162461bcd60e51b815260206004820152600b60248201526a1cdd185c9d080f88195b9960aa1b60448201526064016103d4565b600654600854610d92826301e13380610b4f565b841115610dca57610da7826301e13380610b4f565b9150610dc7671080e992061ab300610cb183670de0b6b3a7640000610f21565b90505b610dd8826301e13380610b4f565b841115610e1b5760405162461bcd60e51b8152602060048201526011602482015270746f6f2066617220696e2066757475726560781b60448201526064016103d4565b5f805b6103e7811015610f0c57838610610eae5785610e3e856301e13380610b4f565b811115610e5657610e53856301e13380610b4f565b90505b87610e65866301e13380610b4f565b8110610e72575050610f0c565b85811015610e7d5750845b610e9b610e94610e8d8484610f16565b8790610f21565b8590610b4f565b9350858910610eab575050610f0c565b50505b610ebc846301e13380610f16565b9350610edc670de0b6b3a7640000610cb185671080e992061ab300610f21565b9250610ef562093a80691eb4773b6d1318a0000061104c565b831115610f0457610f0461107e565b600101610e1e565b5095945050505050565b5f6109608284611092565b5f61096082846110a5565b5f610960828461104c565b5f80546001600160a01b038381166001600160a01b0319831681178455604051919092169283917f8be0079c531659141344cd1fd0a4f28419497f9722a3daafe3b4186f6b6457e09190a35050565b6001600160a01b0381168114610853575f80fd5b5f8060408385031215610fab575f80fd5b8235610fb681610f86565b946020939093013593505050565b5f60208284031215610fd4575f80fd5b8135610fdf81610f86565b9392505050565b5f8060408385031215610ff7575f80fd5b50508035926020909101359150565b5f60208284031215611016575f80fd5b8151610fdf81610f86565b5f60208284031215611031575f80fd5b5051919050565b634e487b7160e01b5f52601160045260245ffd5b5f8261106657634e487b7160e01b5f52601260045260245ffd5b500490565b8082018082111561096357610963611038565b634e487b7160e01b5f52600160045260245ffd5b8181038181111561096357610963611038565b80820281158282048414176109635761096361103856fea26469706673582212204d51e4f82c4e09799b296ea93bd1b60cd06852932f06f6189c81ab7d637ba42b64736f6c63430008180033",
  "language": "Solidity",
  "compiler": "0.8.24+commit.e11b9ed9"
}