{
  "address": "0x89C601257801BA6072D2ef39afb49E00929C205b",
  "abi": [
    {
      "inputs": [
        {
          "internalType": "address",
          "name": "_siloLikeToken",
          "type": "address"
        },
        {
          "internalType": "address",
          "name": "_linkLikeToken",
          "type": "address"
        }
      ],
      "stateMutability": "nonpayable",
      "type": "constructor"
    },
    {
      "inputs": [],
      "name": "FEE",
      "outputs": [
        {
          "internalType": "uint256",
          "name": "",
          "type": "uint256"
        }
      ],
      "stateMutability": "view",
      "type": "function"
    },
    {
      "inputs": [],
      "name": "LINK_LIKE_TOKEN",
      "outputs": [
        {
          "internalType": "address",
          "name": "",
          "type": "address"
        }
      ],
      "stateMutability": "view",
      "type": "function"
    },
    {
      "inputs": [],
      "name": "SILO_LIKE_TOKEN",
      "outputs": [
        {
          "internalType": "address",
          "name": "",
          "type": "address"
        }
      ],
      "stateMutability": "view",
      "type": "function"
    },
    {
      "inputs": [
        {
          "internalType": "uint64",
          "name": "destinationChainSelector",
          "type": "uint64"
        },
        {
          "components": [
            {
              "internalType": "bytes",
              "name": "receiver",
              "type": "bytes"
            },
            {
              "internalType": "bytes",
              "name": "data",
              "type": "bytes"
            },
            {
              "components": [
                {
                  "internalType": "address",
                  "name": "token",
                  "type": "address"
                },
                {
                  "internalType": "uint256",
                  "name": "amount",
                  "type": "uint256"
                }
              ],
              "internalType": "struct Client.EVMTokenAmount[]",
              "name": "tokenAmounts",
              "type": "tuple[]"
            },
            {
              "internalType": "address",
              "name": "feeToken",
              "type": "address"
            },
            {
              "internalType": "bytes",
              "name": "extraArgs",
              "type": "bytes"
            }
          ],
          "internalType": "struct Client.EVM2AnyMessage",
          "name": "message",
          "type": "tuple"
        }
      ],
      "name": "ccipSend",
      "outputs": [
        {
          "internalType": "bytes32",
          "name": "",
          "type": "bytes32"
        }
      ],
      "stateMutability": "payable",
      "type": "function"
    },
    {
      "inputs": [
        {
          "internalType": "uint64",
          "name": "",
          "type": "uint64"
        },
        {
          "components": [
            {
              "internalType": "bytes",
              "name": "receiver",
              "type": "bytes"
            },
            {
              "internalType": "bytes",
              "name": "data",
              "type": "bytes"
            },
            {
              "components": [
                {
                  "internalType": "address",
                  "name": "token",
                  "type": "address"
                },
                {
                  "internalType": "uint256",
                  "name": "amount",
                  "type": "uint256"
                }
              ],
              "internalType": "struct Client.EVMTokenAmount[]",
              "name": "tokenAmounts",
              "type": "tuple[]"
            },
            {
              "internalType": "address",
              "name": "feeToken",
              "type": "address"
            },
            {
              "internalType": "bytes",
              "name": "extraArgs",
              "type": "bytes"
            }
          ],
          "internalType": "struct Client.EVM2AnyMessage",
          "name": "",
          "type": "tuple"
        }
      ],
      "name": "getFee",
      "outputs": [
        {
          "internalType": "uint256",
          "name": "fee",
          "type": "uint256"
        }
      ],
      "stateMutability": "pure",
      "type": "function"
    },
    {
      "inputs": [
        {
          "internalType": "uint64",
          "name": "",
          "type": "uint64"
        }
      ],
      "name": "getSupportedTokens",
      "outputs": [
        {
          "internalType": "address[]",
          "name": "tokens",
          "type": "address[]"
        }
      ],
      "stateMutability": "pure",
      "type": "function"
    },
    {
      "inputs": [
        {
          "internalType": "uint64",
          "name": "",
          "type": "uint64"
        }
      ],
      "name": "isChainSupported",
      "outputs": [
        {
          "internalType": "bool",
          "name": "supported",
          "type": "bool"
        }
      ],
      "stateMutability": "pure",
      "type": "function"
    },
    {
      "inputs": [],
      "name": "InsufficientFeeTokenAmount",
      "type": "error"
    },
    {
      "inputs": [],
      "name": "InvalidMsgValue",
      "type": "error"
    },
    {
      "inputs": [
        {
          "internalType": "uint64",
          "name": "destChainSelector",
          "type": "uint64"
        }
      ],
      "name": "UnsupportedDestinationChain",
      "type": "error"
    }
  ],
  "bytecode": "0x60e060405234801561000f575f80fd5b50604051610d3d380380610d3d83398101604081905261002e91610064565b6001600160a01b039182166080521660a0523360c052610095565b80516001600160a01b038116811461005f575f80fd5b919050565b5f8060408385031215610075575f80fd5b61007e83610049565b915061008c60208401610049565b90509250929050565b60805160a05160c051610c626100db5f395f61038201525f8181610101015281816101bf0152818161021a01526102dd01525f818161016601526103c50152610c625ff3fe60806040526004361061006e575f3560e01c8063b05c50411161004c578063b05c5041146100f0578063c57981b51461013b578063dfac491114610155578063fbca3b7414610188575f80fd5b806320487ded1461007257806396f4e9f9146100ad578063a48a9058146100c0575b5f80fd5b34801561007d575f80fd5b5061009a61008c36600461080a565b5066038d7ea4c68000919050565b6040519081526020015b60405180910390f35b61009a6100bb3660046108ff565b6101b4565b3480156100cb575f80fd5b506100e06100da366004610950565b50600190565b60405190151581526020016100a4565b3480156100fb575f80fd5b506101237f000000000000000000000000000000000000000000000000000000000000000081565b6040516001600160a01b0390911681526020016100a4565b348015610146575f80fd5b5061009a66038d7ea4c6800081565b348015610160575f80fd5b506101237f000000000000000000000000000000000000000000000000000000000000000081565b348015610193575f80fd5b506101a76101a2366004610950565b6104bc565b6040516100a49190610970565b5f6001600160a01b037f0000000000000000000000000000000000000000000000000000000000000000166101ef60808401606085016109bc565b6001600160a01b03160361035657604051636eb1769f60e11b81523360048201523060248201525f907f00000000000000000000000000000000000000000000000000000000000000006001600160a01b03169063dd62ed3e90604401602060405180830381865afa158015610267573d5f803e3d5ffd5b505050506040513d601f19601f8201168201806040525081019061028b91906109d5565b905066038d7ea4c680008110156102b5576040516303ed377360e11b815260040160405180910390fd5b6040516323b872dd60e01b815233600482015230602482015266038d7ea4c6800060448201527f00000000000000000000000000000000000000000000000000000000000000006001600160a01b0316906323b872dd906064016020604051808303815f875af115801561032b573d5f803e3d5ffd5b505050506040513d601f19601f8201168201806040525081019061034f91906109ec565b50506103a7565b66038d7ea4c68000341461037d57604051631841b4e160e01b815260040160405180910390fd5b6103a77f000000000000000000000000000000000000000000000000000000000000000034610516565b6103b46040830183610a0b565b15905061048b576001600160a01b037f0000000000000000000000000000000000000000000000000000000000000000166323b872dd33306103f96040870187610a0b565b5f81811061040957610409610a58565b6040805160e088901b6001600160e01b03191681526001600160a01b0396871660048201529490951660248501529093020160200135604482015260640190506020604051808303815f875af1158015610465573d5f803e3d5ffd5b505050506040513d601f19601f8201168201806040525081019061048991906109ec565b505b828260405160200161049e929190610b25565b60405160208183030381529060405280519060200120905092915050565b604080516001808252818301909252606091602080830190803683370190505090505f815f815181106104f1576104f1610a58565b60200260200101906001600160a01b031690816001600160a01b031681525050919050565b8047101561056b5760405162461bcd60e51b815260206004820152601d60248201527f416464726573733a20696e73756666696369656e742062616c616e636500000060448201526064015b60405180910390fd5b5f826001600160a01b0316826040515f6040518083038185875af1925050503d805f81146105b4576040519150601f19603f3d011682016040523d82523d5f602084013e6105b9565b606091505b50509050806106305760405162461bcd60e51b815260206004820152603a60248201527f416464726573733a20756e61626c6520746f2073656e642076616c75652c207260448201527f6563697069656e74206d617920686176652072657665727465640000000000006064820152608401610562565b505050565b803567ffffffffffffffff8116811461064c575f80fd5b919050565b634e487b7160e01b5f52604160045260245ffd5b6040805190810167ffffffffffffffff8111828210171561068857610688610651565b60405290565b60405160a0810167ffffffffffffffff8111828210171561068857610688610651565b604051601f8201601f1916810167ffffffffffffffff811182821017156106da576106da610651565b604052919050565b5f82601f8301126106f1575f80fd5b813567ffffffffffffffff81111561070b5761070b610651565b61071e601f8201601f19166020016106b1565b818152846020838601011115610732575f80fd5b816020850160208301375f918101602001919091529392505050565b80356001600160a01b038116811461064c575f80fd5b5f82601f830112610773575f80fd5b8135602067ffffffffffffffff82111561078f5761078f610651565b61079d818360051b016106b1565b82815260069290921b840181019181810190868411156107bb575f80fd5b8286015b848110156107ff57604081890312156107d6575f80fd5b6107de610665565b6107e78261074e565b815281850135858201528352918301916040016107bf565b509695505050505050565b5f806040838503121561081b575f80fd5b61082483610635565b9150602083013567ffffffffffffffff80821115610840575f80fd5b9084019060a08287031215610853575f80fd5b61085b61068e565b823582811115610869575f80fd5b610875888286016106e2565b825250602083013582811115610889575f80fd5b610895888286016106e2565b6020830152506040830135828111156108ac575f80fd5b6108b888828601610764565b6040830152506108ca6060840161074e565b60608201526080830135828111156108e0575f80fd5b6108ec888286016106e2565b6080830152508093505050509250929050565b5f8060408385031215610910575f80fd5b61091983610635565b9150602083013567ffffffffffffffff811115610934575f80fd5b830160a08186031215610945575f80fd5b809150509250929050565b5f60208284031215610960575f80fd5b61096982610635565b9392505050565b602080825282518282018190525f9190848201906040850190845b818110156109b05783516001600160a01b03168352928401929184019160010161098b565b50909695505050505050565b5f602082840312156109cc575f80fd5b6109698261074e565b5f602082840312156109e5575f80fd5b5051919050565b5f602082840312156109fc575f80fd5b81518015158114610969575f80fd5b5f808335601e19843603018112610a20575f80fd5b83018035915067ffffffffffffffff821115610a3a575f80fd5b6020019150600681901b3603821315610a51575f80fd5b9250929050565b634e487b7160e01b5f52603260045260245ffd5b5f808335601e19843603018112610a81575f80fd5b830160208101925035905067ffffffffffffffff811115610aa0575f80fd5b803603821315610a51575f80fd5b81835281816020850137505f828201602090810191909152601f909101601f19169091010190565b8183525f60208085019450825f5b85811015610b1a576001600160a01b03610afd8361074e565b168752818301358388015260409687019690910190600101610ae4565b509495945050505050565b5f67ffffffffffffffff808516835260406020840152610b458485610a6c565b60a06040860152610b5a60e086018284610aae565b915050610b6a6020860186610a6c565b603f1980878503016060880152610b82848385610aae565b935060408801359250601e19883603018312610b9c575f80fd5b60209288019283019235915084821115610bb4575f80fd5b8160061b3603831315610bc5575f80fd5b80878503016080880152610bda848385610ad6565b9450610be86060890161074e565b6001600160a01b03811660a08901529350610c066080890189610a6c565b94509250808786030160c08801525050610c21838383610aae565b97965050505050505056fea2646970667358221220da5743031200cafbed254cc822fd3e1ccfff50f53a71cb8d0914ece7c976825064736f6c63430008180033",
  "language": "Solidity",
  "compiler": "0.8.24+commit.e11b9ed9"
}