{
  "address": "0x37ff6151C04daffa3F062C61aDA32dCe650F1dae",
  "abi": [
    {
      "inputs": [
        {
          "internalType": "address",
          "name": "_beacon",
          "type": "address"
        },
        {
          "internalType": "address",
          "name": "_checkpointer",
          "type": "address"
        }
      ],
      "stateMutability": "nonpayable",
      "type": "constructor"
    },
    {
      "inputs": [],
      "name": "BEACON",
      "outputs": [
        {
          "internalType": "contract IBeacon",
          "name": "",
          "type": "address"
        }
      ],
      "stateMutability": "view",
      "type": "function"
    },
    {
      "inputs": [],
      "name": "acceptOwnership",
      "outputs": [],
      "stateMutability": "nonpayable",
      "type": "function"
    },
    {
      "inputs": [],
      "name": "checkpointer",
      "outputs": [
        {
          "internalType": "address",
          "name": "",
          "type": "address"
        }
      ],
      "stateMutability": "view",
      "type": "function"
    },
    {
      "inputs": [
        {
          "internalType": "address",
          "name": "recipient",
          "type": "address"
        },
        {
          "internalType": "uint256",
          "name": "relativeWeightCap",
          "type": "uint256"
        },
        {
          "internalType": "uint64",
          "name": "destinationChain",
          "type": "uint64"
        }
      ],
      "name": "create",
      "outputs": [
        {
          "internalType": "address",
          "name": "",
          "type": "address"
        }
      ],
      "stateMutability": "nonpayable",
      "type": "function"
    },
    {
      "inputs": [],
      "name": "getGaugeImplementation",
      "outputs": [
        {
          "internalType": "address",
          "name": "",
          "type": "address"
        }
      ],
      "stateMutability": "view",
      "type": "function"
    },
    {
      "inputs": [
        {
          "internalType": "address",
          "name": "gauge",
          "type": "address"
        }
      ],
      "name": "isGaugeFromFactory",
      "outputs": [
        {
          "internalType": "bool",
          "name": "",
          "type": "bool"
        }
      ],
      "stateMutability": "view",
      "type": "function"
    },
    {
      "inputs": [],
      "name": "owner",
      "outputs": [
        {
          "internalType": "address",
          "name": "",
          "type": "address"
        }
      ],
      "stateMutability": "view",
      "type": "function"
    },
    {
      "inputs": [],
      "name": "pendingOwner",
      "outputs": [
        {
          "internalType": "address",
          "name": "",
          "type": "address"
        }
      ],
      "stateMutability": "view",
      "type": "function"
    },
    {
      "inputs": [],
      "name": "renounceOwnership",
      "outputs": [],
      "stateMutability": "nonpayable",
      "type": "function"
    },
    {
      "inputs": [
        {
          "internalType": "address",
          "name": "newOwner",
          "type": "address"
        }
      ],
      "name": "transferOwnership",
      "outputs": [],
      "stateMutability": "nonpayable",
      "type": "function"
    },
    {
      "anonymous": false,
      "inputs": [
        {
          "indexed": true,
          "internalType": "address",
          "name": "gauge",
          "type": "address"
        }
      ],
      "name": "GaugeCreated",
      "type": "event"
    },
    {
      "anonymous": false,
      "inputs": [
        {
          "indexed": true,
          "internalType": "address",
          "name": "previousOwner",
          "type": "address"
        },
        {
          "indexed": true,
          "internalType": "address",
          "name": "newOwner",
          "type": "address"
        }
      ],
      "name": "OwnershipTransferStarted",
      "type": "event"
    },
    {
      "anonymous": false,
      "inputs": [
        {
          "indexed": true,
          "internalType": "address",
          "name": "previousOwner",
          "type": "address"
        },
        {
          "indexed": true,
          "internalType": "address",
          "name": "newOwner",
          "type": "address"
        }
      ],
      "name": "OwnershipTransferred",
      "type": "event"
    }
  ],
  "bytecode": "0x60a060405234801561000f575f80fd5b50604051610d48380380610d4883398101604081905261002e916100f8565b5f80546001600160a01b0319169055818161004833610070565b600480546001600160a01b0319166001600160a01b0392831617905516608052506101299050565b600380546001600160a01b03191690556100898161008c565b50565b600280546001600160a01b038381166001600160a01b0319831681179093556040519116919082907f8be0079c531659141344cd1fd0a4f28419497f9722a3daafe3b4186f6b6457e0905f90a35050565b80516001600160a01b03811681146100f3575f80fd5b919050565b5f8060408385031215610109575f80fd5b610112836100dd565b9150610120602084016100dd565b90509250929050565b608051610bfa61014e5f395f818160f00152818161024e01526104bc0152610bfa5ff3fe608060405234801562000010575f80fd5b5060043610620000a8575f3560e01c80638da5cb5b116200006b5780638da5cb5b1462000128578063ce3cc8bd146200013a578063e30c39781462000179578063f2fde38b146200018b578063ff441dda14620001a2575f80fd5b806312e3abc014620000ac57806339312dee14620000e057806349493a4d14620000ea578063715018a6146200011257806379ba5097146200011e575b5f80fd5b620000c3620000bd3660046200059b565b620001b6565b6040516001600160a01b0390911681526020015b60405180910390f35b620000c36200024b565b620000c37f000000000000000000000000000000000000000000000000000000000000000081565b6200011c620002d4565b005b6200011c620002eb565b6002546001600160a01b0316620000c3565b620001686200014b366004620005ea565b6001600160a01b03165f9081526001602052604090205460ff1690565b6040519015158152602001620000d7565b6003546001600160a01b0316620000c3565b6200011c6200019c366004620005ea565b6200036d565b600454620000c3906001600160a01b031681565b5f80620001c2620003e1565b600480546040516320c9d7d960e21b81526001600160a01b038981169382019390935260248101889052908216604482015267ffffffffffffffff861660648201529192508216906383275f64906084015f604051808303815f87803b1580156200022b575f80fd5b505af11580156200023e573d5f803e3d5ffd5b5092979650505050505050565b5f7f00000000000000000000000000000000000000000000000000000000000000006001600160a01b0316635c60da1b6040518163ffffffff1660e01b8152600401602060405180830381865afa158015620002a9573d5f803e3d5ffd5b505050506040513d601f19601f82011682018060405250810190620002cf91906200060f565b905090565b620002de62000442565b620002e95f6200049e565b565b60035433906001600160a01b031681146200035f5760405162461bcd60e51b815260206004820152602960248201527f4f776e61626c6532537465703a2063616c6c6572206973206e6f7420746865206044820152683732bb9037bbb732b960b91b60648201526084015b60405180910390fd5b6200036a816200049e565b50565b6200037762000442565b600380546001600160a01b0383166001600160a01b03199091168117909155620003a96002546001600160a01b031690565b6001600160a01b03167f38d16b8cac22d99fc7c124b9cd0de2d3fa1faef420bfe791d8c362d765e2270060405160405180910390a350565b5f80620003ed620004b9565b6001600160a01b0381165f818152600160208190526040808320805460ff19169092179091555192935090917faa98436d09d130af48de49867af8b723bbbebb0d737638b5fe8f1bf31bbb71c09190a2919050565b6002546001600160a01b03163314620002e95760405162461bcd60e51b815260206004820181905260248201527f4f776e61626c653a2063616c6c6572206973206e6f7420746865206f776e6572604482015260640162000356565b600380546001600160a01b03191690556200036a8162000527565b5f7f0000000000000000000000000000000000000000000000000000000000000000604051620004e99062000578565b6001600160a01b0390911681526040602082018190525f90820152606001604051809103905ff08015801562000521573d5f803e3d5ffd5b50905090565b600280546001600160a01b038381166001600160a01b0319831681179093556040519116919082907f8be0079c531659141344cd1fd0a4f28419497f9722a3daafe3b4186f6b6457e0905f90a35050565b610597806200062e83390190565b6001600160a01b03811681146200036a575f80fd5b5f805f60608486031215620005ae575f80fd5b8335620005bb8162000586565b925060208401359150604084013567ffffffffffffffff81168114620005df575f80fd5b809150509250925092565b5f60208284031215620005fb575f80fd5b8135620006088162000586565b9392505050565b5f6020828403121562000620575f80fd5b815162000608816200058656fe60a060405260405161059738038061059783398101604081905261002291610376565b61002c828261003e565b506001600160a01b0316608052610465565b610047826100fb565b6040516001600160a01b038316907f1cf3b03a6cf19fa2baba4df148e9dcabedea7f8a5c07840e207e5c089be95d3e905f90a28051156100ef576100ea826001600160a01b0316635c60da1b6040518163ffffffff1660e01b8152600401602060405180830381865afa1580156100c0573d5f803e3d5ffd5b505050506040513d601f19601f820116820180604052508101906100e49190610431565b82610209565b505050565b6100f761027c565b5050565b806001600160a01b03163b5f0361013557604051631933b43b60e21b81526001600160a01b03821660048201526024015b60405180910390fd5b807fa3f0ad74e5423aebfd80d3ef4346578335a9a72aeaee59ff6cb3582b35133d5080546001600160a01b0319166001600160a01b0392831617905560408051635c60da1b60e01b815290515f92841691635c60da1b9160048083019260209291908290030181865afa1580156101ae573d5f803e3d5ffd5b505050506040513d601f19601f820116820180604052508101906101d29190610431565b9050806001600160a01b03163b5f036100f757604051634c9c8ce360e01b81526001600160a01b038216600482015260240161012c565b60605f80846001600160a01b031684604051610225919061044a565b5f60405180830381855af49150503d805f811461025d576040519150601f19603f3d011682016040523d82523d5f602084013e610262565b606091505b50909250905061027385838361029d565b95945050505050565b341561029b5760405163b398979f60e01b815260040160405180910390fd5b565b6060826102b2576102ad826102fc565b6102f5565b81511580156102c957506001600160a01b0384163b155b156102f257604051639996b31560e01b81526001600160a01b038516600482015260240161012c565b50805b9392505050565b80511561030c5780518082602001fd5b60405163d6bda27560e01b815260040160405180910390fd5b80516001600160a01b038116811461033b575f80fd5b919050565b634e487b7160e01b5f52604160045260245ffd5b5f5b8381101561036e578181015183820152602001610356565b50505f910152565b5f8060408385031215610387575f80fd5b61039083610325565b60208401519092506001600160401b03808211156103ac575f80fd5b818501915085601f8301126103bf575f80fd5b8151818111156103d1576103d1610340565b604051601f8201601f19908116603f011681019083821181831017156103f9576103f9610340565b81604052828152886020848701011115610411575f80fd5b610422836020830160208801610354565b80955050505050509250929050565b5f60208284031215610441575f80fd5b6102f582610325565b5f825161045b818460208701610354565b9190910192915050565b60805161011b61047c5f395f601d015261011b5ff3fe6080604052600a600c565b005b60186014601a565b609d565b565b5f7f00000000000000000000000000000000000000000000000000000000000000006001600160a01b0316635c60da1b6040518163ffffffff1660e01b8152600401602060405180830381865afa1580156076573d5f803e3d5ffd5b505050506040513d601f19601f820116820180604052508101906098919060ba565b905090565b365f80375f80365f845af43d5f803e80801560b6573d5ff35b3d5ffd5b5f6020828403121560c9575f80fd5b81516001600160a01b038116811460de575f80fd5b939250505056fea2646970667358221220a35d6db6067755c6ab95d226fed47d528dee2e2dce7d71b0625bc49492de14b764736f6c63430008180033a2646970667358221220726af27ca110944de127b2fea6c490e0cb60743a06bc02839245f99c3400687e64736f6c63430008180033",
  "language": "Solidity",
  "compiler": "0.8.24+commit.e11b9ed9"
}