{
  "address": "0x931cf9F135a0cd54922256aAc33ca6151Ed735d3",
  "abi": [
    {
      "inputs": [
        {
          "internalType": "contract IGaugeAdder",
          "name": "_gaugeAdder",
          "type": "address"
        },
        {
          "internalType": "contract IStakelessGaugeCheckpointerAdaptor",
          "name": "_checkpointerAdaptor",
          "type": "address"
        },
        {
          "internalType": "address",
          "name": "_linkToken",
          "type": "address"
        }
      ],
      "stateMutability": "nonpayable",
      "type": "constructor"
    },
    {
      "stateMutability": "payable",
      "type": "receive"
    },
    {
      "inputs": [],
      "name": "CHECKPOINTER_ADAPTOR",
      "outputs": [
        {
          "internalType": "contract IStakelessGaugeCheckpointerAdaptor",
          "name": "",
          "type": "address"
        }
      ],
      "stateMutability": "view",
      "type": "function"
    },
    {
      "inputs": [],
      "name": "GAUGE_ADDER",
      "outputs": [
        {
          "internalType": "contract IGaugeAdder",
          "name": "",
          "type": "address"
        }
      ],
      "stateMutability": "view",
      "type": "function"
    },
    {
      "inputs": [],
      "name": "GAUGE_CONTROLLER",
      "outputs": [
        {
          "internalType": "contract IGaugeController",
          "name": "",
          "type": "address"
        }
      ],
      "stateMutability": "view",
      "type": "function"
    },
    {
      "inputs": [],
      "name": "LINK",
      "outputs": [
        {
          "internalType": "address",
          "name": "",
          "type": "address"
        }
      ],
      "stateMutability": "view",
      "type": "function"
    },
    {
      "inputs": [],
      "name": "acceptOwnership",
      "outputs": [],
      "stateMutability": "nonpayable",
      "type": "function"
    },
    {
      "inputs": [
        {
          "internalType": "string",
          "name": "gaugeType",
          "type": "string"
        },
        {
          "internalType": "contract ICCIPGauge[]",
          "name": "gauges",
          "type": "address[]"
        }
      ],
      "name": "addGauges",
      "outputs": [],
      "stateMutability": "nonpayable",
      "type": "function"
    },
    {
      "inputs": [
        {
          "internalType": "string",
          "name": "gaugeType",
          "type": "string"
        },
        {
          "internalType": "contract ICCIPGauge[]",
          "name": "gauges",
          "type": "address[]"
        }
      ],
      "name": "addGaugesWithVerifiedType",
      "outputs": [],
      "stateMutability": "nonpayable",
      "type": "function"
    },
    {
      "inputs": [
        {
          "internalType": "uint256",
          "name": "minRelativeWeight",
          "type": "uint256"
        },
        {
          "internalType": "enum ICCIPGauge.PayFeesIn",
          "name": "payFeesIn",
          "type": "uint8"
        }
      ],
      "name": "checkpointGaugesAboveRelativeWeight",
      "outputs": [],
      "stateMutability": "payable",
      "type": "function"
    },
    {
      "inputs": [
        {
          "internalType": "string",
          "name": "gaugeType",
          "type": "string"
        },
        {
          "internalType": "uint256",
          "name": "minRelativeWeight",
          "type": "uint256"
        },
        {
          "internalType": "enum ICCIPGauge.PayFeesIn",
          "name": "payFeesIn",
          "type": "uint8"
        }
      ],
      "name": "checkpointGaugesOfTypeAboveRelativeWeight",
      "outputs": [],
      "stateMutability": "payable",
      "type": "function"
    },
    {
      "inputs": [
        {
          "internalType": "string[]",
          "name": "gaugeTypes",
          "type": "string[]"
        },
        {
          "internalType": "contract ICCIPGauge[]",
          "name": "gauges",
          "type": "address[]"
        },
        {
          "internalType": "enum ICCIPGauge.PayFeesIn",
          "name": "payFeesIn",
          "type": "uint8"
        }
      ],
      "name": "checkpointMultipleGauges",
      "outputs": [],
      "stateMutability": "payable",
      "type": "function"
    },
    {
      "inputs": [
        {
          "internalType": "string",
          "name": "gaugeType",
          "type": "string"
        },
        {
          "internalType": "contract ICCIPGauge",
          "name": "gauge",
          "type": "address"
        },
        {
          "internalType": "enum ICCIPGauge.PayFeesIn",
          "name": "payFeesIn",
          "type": "uint8"
        }
      ],
      "name": "checkpointSingleGauge",
      "outputs": [],
      "stateMutability": "payable",
      "type": "function"
    },
    {
      "inputs": [
        {
          "internalType": "string",
          "name": "gaugeType",
          "type": "string"
        },
        {
          "internalType": "uint256",
          "name": "index",
          "type": "uint256"
        }
      ],
      "name": "getGaugeAtIndex",
      "outputs": [
        {
          "internalType": "contract ICCIPGauge",
          "name": "",
          "type": "address"
        }
      ],
      "stateMutability": "view",
      "type": "function"
    },
    {
      "inputs": [],
      "name": "getGaugeTypes",
      "outputs": [
        {
          "internalType": "string[]",
          "name": "",
          "type": "string[]"
        }
      ],
      "stateMutability": "view",
      "type": "function"
    },
    {
      "inputs": [],
      "name": "getRoundedDownBlockTimestamp",
      "outputs": [
        {
          "internalType": "uint256",
          "name": "",
          "type": "uint256"
        }
      ],
      "stateMutability": "view",
      "type": "function"
    },
    {
      "inputs": [
        {
          "internalType": "string",
          "name": "gaugeType",
          "type": "string"
        },
        {
          "internalType": "contract ICCIPGauge",
          "name": "gauge",
          "type": "address"
        },
        {
          "internalType": "enum ICCIPGauge.PayFeesIn",
          "name": "payFeesIn",
          "type": "uint8"
        },
        {
          "internalType": "uint256",
          "name": "incentivesAmount",
          "type": "uint256"
        }
      ],
      "name": "getSingleBridgeCost",
      "outputs": [
        {
          "internalType": "uint256",
          "name": "fees",
          "type": "uint256"
        }
      ],
      "stateMutability": "view",
      "type": "function"
    },
    {
      "inputs": [
        {
          "internalType": "uint256",
          "name": "minRelativeWeight",
          "type": "uint256"
        },
        {
          "internalType": "string",
          "name": "gaugeType",
          "type": "string"
        },
        {
          "internalType": "enum ICCIPGauge.PayFeesIn",
          "name": "payFeesIn",
          "type": "uint8"
        }
      ],
      "name": "getTotalBridgeCost",
      "outputs": [
        {
          "internalType": "uint256",
          "name": "totalCost",
          "type": "uint256"
        }
      ],
      "stateMutability": "nonpayable",
      "type": "function"
    },
    {
      "inputs": [
        {
          "internalType": "string",
          "name": "gaugeType",
          "type": "string"
        }
      ],
      "name": "getTotalGauges",
      "outputs": [
        {
          "internalType": "uint256",
          "name": "",
          "type": "uint256"
        }
      ],
      "stateMutability": "view",
      "type": "function"
    },
    {
      "inputs": [
        {
          "internalType": "string",
          "name": "gaugeType",
          "type": "string"
        },
        {
          "internalType": "contract ICCIPGauge",
          "name": "gauge",
          "type": "address"
        }
      ],
      "name": "hasGauge",
      "outputs": [
        {
          "internalType": "bool",
          "name": "",
          "type": "bool"
        }
      ],
      "stateMutability": "view",
      "type": "function"
    },
    {
      "inputs": [
        {
          "internalType": "string",
          "name": "gaugeType",
          "type": "string"
        }
      ],
      "name": "isValidGaugeType",
      "outputs": [
        {
          "internalType": "bool",
          "name": "",
          "type": "bool"
        }
      ],
      "stateMutability": "view",
      "type": "function"
    },
    {
      "inputs": [],
      "name": "owner",
      "outputs": [
        {
          "internalType": "address",
          "name": "",
          "type": "address"
        }
      ],
      "stateMutability": "view",
      "type": "function"
    },
    {
      "inputs": [],
      "name": "pendingOwner",
      "outputs": [
        {
          "internalType": "address",
          "name": "",
          "type": "address"
        }
      ],
      "stateMutability": "view",
      "type": "function"
    },
    {
      "inputs": [
        {
          "internalType": "string",
          "name": "gaugeType",
          "type": "string"
        },
        {
          "internalType": "contract ICCIPGauge[]",
          "name": "gauges",
          "type": "address[]"
        }
      ],
      "name": "removeGauges",
      "outputs": [],
      "stateMutability": "nonpayable",
      "type": "function"
    },
    {
      "inputs": [],
      "name": "renounceOwnership",
      "outputs": [],
      "stateMutability": "nonpayable",
      "type": "function"
    },
    {
      "inputs": [
        {
          "internalType": "address",
          "name": "newOwner",
          "type": "address"
        }
      ],
      "name": "transferOwnership",
      "outputs": [],
      "stateMutability": "nonpayable",
      "type": "function"
    },
    {
      "anonymous": false,
      "inputs": [
        {
          "indexed": true,
          "internalType": "contract ICCIPGauge",
          "name": "gauge",
          "type": "address"
        },
        {
          "indexed": true,
          "internalType": "string",
          "name": "indexedGaugeType",
          "type": "string"
        },
        {
          "indexed": false,
          "internalType": "string",
          "name": "gaugeType",
          "type": "string"
        }
      ],
      "name": "GaugeAdded",
      "type": "event"
    },
    {
      "anonymous": false,
      "inputs": [
        {
          "indexed": true,
          "internalType": "contract ICCIPGauge",
          "name": "gauge",
          "type": "address"
        },
        {
          "indexed": true,
          "internalType": "string",
          "name": "indexedGaugeType",
          "type": "string"
        },
        {
          "indexed": false,
          "internalType": "string",
          "name": "gaugeType",
          "type": "string"
        }
      ],
      "name": "GaugeRemoved",
      "type": "event"
    },
    {
      "anonymous": false,
      "inputs": [
        {
          "indexed": true,
          "internalType": "address",
          "name": "previousOwner",
          "type": "address"
        },
        {
          "indexed": true,
          "internalType": "address",
          "name": "newOwner",
          "type": "address"
        }
      ],
      "name": "OwnershipTransferStarted",
      "type": "event"
    },
    {
      "anonymous": false,
      "inputs": [
        {
          "indexed": true,
          "internalType": "address",
          "name": "previousOwner",
          "type": "address"
        },
        {
          "indexed": true,
          "internalType": "address",
          "name": "newOwner",
          "type": "address"
        }
      ],
      "name": "OwnershipTransferred",
      "type": "event"
    },
    {
      "inputs": [
        {
          "internalType": "uint256",
          "name": "fees",
          "type": "uint256"
        },
        {
          "internalType": "uint256",
          "name": "balance",
          "type": "uint256"
        },
        {
          "internalType": "enum ICCIPGauge.PayFeesIn",
          "name": "payFeesIn",
          "type": "uint8"
        }
      ],
      "name": "NotEnougtFundsToPayFees",
      "type": "error"
    }
  ],
  "bytecode": "0x61010060405234801562000011575f80fd5b50604051620030ce380380620030ce833981016040819052620000349162000158565b60015f556200004333620000d4565b6001600160a01b0380841660c081905290831660a05260408051632c6f4d6f60e11b815290516358de9ade916004808201926020929091908290030181865afa15801562000093573d5f803e3d5ffd5b505050506040513d601f19601f82011682018060405250810190620000b99190620001a9565b6001600160a01b0390811660e0521660805250620001ce9050565b600280546001600160a01b0319169055620000ef81620000f2565b50565b600180546001600160a01b038381166001600160a01b0319831681179093556040519116919082907f8be0079c531659141344cd1fd0a4f28419497f9722a3daafe3b4186f6b6457e0905f90a35050565b6001600160a01b0381168114620000ef575f80fd5b5f805f606084860312156200016b575f80fd5b8351620001788162000143565b60208501519093506200018b8162000143565b60408501519092506200019e8162000143565b809150509250925092565b5f60208284031215620001ba575f80fd5b8151620001c78162000143565b9392505050565b60805160a05160c05160e051612e16620002b85f395f818161029501528181610f56015281816118b901528181611947015281816119c70152611ecd01525f81816103140152818161050b01528181610691015281816107a70152818161088801528181610bb201528181610e4f0152818161110b015281816111fd0152818161132d015281816114e401526120bb01525f818161015a015281816101e301528181611bbd0152611d6701525f8181610262015281816116a001528181611733015281816117d301528181611a7a01528181611b0f01528181611c410152611cdb0152612e165ff3fe60806040526004361061014a575f3560e01c8063715018a6116100b3578063c91be0431161006d578063c91be04314610446578063d8dba2ce14610465578063e30c397814610484578063eb423322146104a1578063f2fde38b146104b4578063f7178b88146104d3575f80fd5b8063715018a6146103a257806373ebd060146103b657806379ba5097146103d55780638da5cb5b146103e9578063afcb1a8614610406578063c5e0499214610427575f80fd5b80632b2c1a4e116101045780632b2c1a4e1461030357806346583adf146103365780634db34d2a1461034a578063517b5309146103695780635767680f1461037c57806362e15fde1461038f575f80fd5b8063164b96b1146101d257806316e772bc146102225780631b6b6d231461025157806322884e2c1461028457806325f8e584146102b757806327cb2a3b146102e4575f80fd5b366101ce57336001600160a01b037f000000000000000000000000000000000000000000000000000000000000000016146101cc5760405162461bcd60e51b815260206004820152601760248201527f4f6e6c7920636865636b706f696e742061646170746f7200000000000000000060448201526064015b60405180910390fd5b005b5f80fd5b3480156101dd575f80fd5b506102057f000000000000000000000000000000000000000000000000000000000000000081565b6040516001600160a01b0390911681526020015b60405180910390f35b34801561022d575f80fd5b5061024161023c36600461257f565b6104f2565b6040519015158152602001610219565b34801561025c575f80fd5b506102057f000000000000000000000000000000000000000000000000000000000000000081565b34801561028f575f80fd5b506102057f000000000000000000000000000000000000000000000000000000000000000081565b3480156102c2575f80fd5b506102d66102d136600461264e565b61058a565b604051908152602001610219565b3480156102ef575f80fd5b506102056102fe3660046126f1565b610646565b34801561030e575f80fd5b506102057f000000000000000000000000000000000000000000000000000000000000000081565b348015610341575f80fd5b506102d661074e565b348015610355575f80fd5b506102d661036436600461257f565b61075c565b6101cc610377366004612738565b610869565b6101cc61038a3660046127a2565b61095a565b6101cc61039d36600461281c565b610af1565b3480156103ad575f80fd5b506101cc610b55565b3480156103c1575f80fd5b506101cc6103d036600461287d565b610b68565b3480156103e0575f80fd5b506101cc610dd1565b3480156103f4575f80fd5b506001546001600160a01b0316610205565b348015610411575f80fd5b5061041a610e4b565b6040516102199190612930565b348015610432575f80fd5b506102d6610441366004612992565b610ecf565b348015610451575f80fd5b506102416104603660046129e0565b6110c0565b348015610470575f80fd5b506101cc61047f36600461287d565b6111b3565b34801561048f575f80fd5b506002546001600160a01b0316610205565b6101cc6104af366004612a32565b6112db565b3480156104bf575f80fd5b506101cc6104ce366004612a7f565b611429565b3480156104de575f80fd5b506101cc6104ed36600461287d565b61149a565b6040516305b9dcaf60e21b81525f906001600160a01b037f000000000000000000000000000000000000000000000000000000000000000016906316e772bc906105429086908690600401612aa1565b602060405180830381865afa15801561055d573d5f803e3d5ffd5b505050506040513d601f19601f820116820180604052508101906105819190612acf565b90505b92915050565b5f6105b48460038760405161059f9190612aee565b908152604051908190036020019020906115b7565b6105d05760405162461bcd60e51b81526004016101c390612b09565b6040516382300ee360e01b81526001600160a01b038516906382300ee3906105fe9085908790600401612b64565b602060405180830381865afa158015610619573d5f803e3d5ffd5b505050506040513d601f19601f8201168201806040525081019061063d9190612b94565b95945050505050565b5f83838080601f0160208091040260200160405190810160405280939291908181526020018383808284375f92019190915250506040516305b9dcaf60e21b81526001600160a01b037f00000000000000000000000000000000000000000000000000000000000000001692506316e772bc91506106c8908490600401612bab565b602060405180830381865afa1580156106e3573d5f803e3d5ffd5b505050506040513d601f19601f820116820180604052508101906107079190612acf565b6107235760405162461bcd60e51b81526004016101c390612bbd565b61063d8360038787604051610739929190612be9565b908152604051908190036020019020906115d8565b5f6107576115e3565b905090565b5f82828080601f0160208091040260200160405190810160405280939291908181526020018383808284375f92019190915250506040516305b9dcaf60e21b81526001600160a01b037f00000000000000000000000000000000000000000000000000000000000000001692506316e772bc91506107de908490600401612bab565b602060405180830381865afa1580156107f9573d5f803e3d5ffd5b505050506040513d601f19601f8201168201806040525081019061081d9190612acf565b6108395760405162461bcd60e51b81526004016101c390612bbd565b6108616003858560405161084e929190612be9565b908152602001604051809103902061160a565b949350505050565b610871611613565b5f61087a6115e3565b90506108858261166a565b5f7f00000000000000000000000000000000000000000000000000000000000000006001600160a01b031663afcb1a866040518163ffffffff1660e01b81526004015f60405180830381865afa1580156108e1573d5f803e3d5ffd5b505050506040513d5f823e601f3d908101601f191682016040526109089190810190612bf8565b90505f5b81518110156109425761093a82828151811061092a5761092a612ceb565b6020026020010151868587611845565b60010161090c565b5061094b611a52565b505061095660015f55565b5050565b610962611613565b8382146109c45760405162461bcd60e51b815260206004820152602a60248201527f4d69736d61746368206265747765656e20676175676520747970657320616e646044820152692061646472657373657360b01b60648201526084016101c3565b81610a115760405162461bcd60e51b815260206004820152601760248201527f4e6f2067617567657320746f20636865636b706f696e7400000000000000000060448201526064016101c3565b610a1a8161166a565b815f5b81811015610ad757610a83858583818110610a3a57610a3a612ceb565b9050602002016020810190610a4f9190612a7f565b6003898985818110610a6357610a63612ceb565b9050602002810190610a759190612cff565b60405161059f929190612be9565b610a9f5760405162461bcd60e51b81526004016101c390612b09565b610acf858583818110610ab457610ab4612ceb565b9050602002016020810190610ac99190612a7f565b84611b86565b600101610a1d565b50610ae0611a52565b50610aea60015f55565b5050505050565b610af9611613565b610b0f826003868660405161059f929190612be9565b610b2b5760405162461bcd60e51b81526004016101c390612b09565b610b348161166a565b610b3e8282611b86565b610b46611a52565b610b4f60015f55565b50505050565b610b5d611dd1565b610b665f611e2b565b565b83838080601f0160208091040260200160405190810160405280939291908181526020018383808284375f92019190915250506040516305b9dcaf60e21b81526001600160a01b037f00000000000000000000000000000000000000000000000000000000000000001692506316e772bc9150610be9908490600401612bab565b602060405180830381865afa158015610c04573d5f803e3d5ffd5b505050506040513d601f19601f82011682018060405250810190610c289190612acf565b610c445760405162461bcd60e51b81526004016101c390612bbd565b5f60038686604051610c57929190612be9565b908152602001604051809103902090505f5b83811015610dc8575f858583818110610c8457610c84612ceb565b9050602002016020810190610c999190612a7f565b9050806001600160a01b0316639c868ac06040518163ffffffff1660e01b8152600401602060405180830381865afa158015610cd7573d5f803e3d5ffd5b505050506040513d601f19601f82011682018060405250810190610cfb9190612acf565b610d3e5760405162461bcd60e51b815260206004820152601460248201527311d85d59d9481dd85cc81b9bdd081ada5b1b195960621b60448201526064016101c3565b610d488382611e44565b610d645760405162461bcd60e51b81526004016101c390612b09565b8787604051610d74929190612be9565b6040518091039020816001600160a01b03167fb87757e0365ca4f80cc1f429f422c0ea7ec26bbd3e5778727e77c809462aad028a8a604051610db7929190612aa1565b60405180910390a350600101610c69565b50505050505050565b60025433906001600160a01b03168114610e3f5760405162461bcd60e51b815260206004820152602960248201527f4f776e61626c6532537465703a2063616c6c6572206973206e6f7420746865206044820152683732bb9037bbb732b960b91b60648201526084016101c3565b610e4881611e2b565b50565b60607f00000000000000000000000000000000000000000000000000000000000000006001600160a01b031663afcb1a866040518163ffffffff1660e01b81526004015f60405180830381865afa158015610ea8573d5f803e3d5ffd5b505050506040513d5f823e601f3d908101601f191682016040526107579190810190612bf8565b5f80610ed96115e3565b90505f610ef16003878760405161084e929190612be9565b90505f60038787604051610f06929190612be9565b908152602001604051809103902090505f5b828110156110b4575f610f2b83836115d8565b6040516334c1e32560e21b81526001600160a01b038083166004830152602482018890529192508b917f0000000000000000000000000000000000000000000000000000000000000000169063d3078c9490604401602060405180830381865afa158015610f9b573d5f803e3d5ffd5b505050506040513d601f19601f82011682018060405250810190610fbf9190612b94565b1015610fcb57506110ac565b5f816001600160a01b0316630749ea5d6040518163ffffffff1660e01b81526004016020604051808303815f875af1158015611009573d5f803e3d5ffd5b505050506040513d601f19601f8201168201806040525081019061102d9190612b94565b6040516382300ee360e01b81529091506001600160a01b038316906382300ee39061105e9084908c90600401612b64565b602060405180830381865afa158015611079573d5f803e3d5ffd5b505050506040513d601f19601f8201168201806040525081019061109d9190612b94565b6110a79088612d55565b965050505b600101610f18565b50505050949350505050565b5f83838080601f0160208091040260200160405190810160405280939291908181526020018383808284375f92019190915250506040516305b9dcaf60e21b81526001600160a01b037f00000000000000000000000000000000000000000000000000000000000000001692506316e772bc9150611142908490600401612bab565b602060405180830381865afa15801561115d573d5f803e3d5ffd5b505050506040513d601f19601f820116820180604052508101906111819190612acf565b61119d5760405162461bcd60e51b81526004016101c390612bbd565b61063d836003878760405161059f929190612be9565b83838080601f0160208091040260200160405190810160405280939291908181526020018383808284375f92019190915250506040516305b9dcaf60e21b81526001600160a01b037f00000000000000000000000000000000000000000000000000000000000000001692506316e772bc9150611234908490600401612bab565b602060405180830381865afa15801561124f573d5f803e3d5ffd5b505050506040513d601f19601f820116820180604052508101906112739190612acf565b61128f5760405162461bcd60e51b81526004016101c390612bbd565b611297611dd1565b610aea85858080601f0160208091040260200160405190810160405280939291908181526020018383808284375f9201919091525087925086915060019050611e58565b6112e3611613565b83838080601f0160208091040260200160405190810160405280939291908181526020018383808284375f92019190915250506040516305b9dcaf60e21b81526001600160a01b037f00000000000000000000000000000000000000000000000000000000000000001692506316e772bc9150611364908490600401612bab565b602060405180830381865afa15801561137f573d5f803e3d5ffd5b505050506040513d601f19601f820116820180604052508101906113a39190612acf565b6113bf5760405162461bcd60e51b81526004016101c390612bbd565b5f6113c86115e3565b90506113d38361166a565b61141686868080601f0160208091040260200160405190810160405280939291908181526020018383808284375f92019190915250889250859150879050611845565b61141e611a52565b5050610b4f60015f55565b611431611dd1565b600280546001600160a01b0383166001600160a01b031990911681179091556114626001546001600160a01b031690565b6001600160a01b03167f38d16b8cac22d99fc7c124b9cd0de2d3fa1faef420bfe791d8c362d765e2270060405160405180910390a350565b83838080601f0160208091040260200160405190810160405280939291908181526020018383808284375f92019190915250506040516305b9dcaf60e21b81526001600160a01b037f00000000000000000000000000000000000000000000000000000000000000001692506316e772bc915061151b908490600401612bab565b602060405180830381865afa158015611536573d5f803e3d5ffd5b505050506040513d601f19601f8201168201806040525081019061155a9190612acf565b6115765760405162461bcd60e51b81526004016101c390612bbd565b610aea85858080601f0160208091040260200160405190810160405280939291908181526020018383808284375f9201829052508893508792509050611e58565b6001600160a01b0381165f9081526001830160205260408120541515610581565b5f6105818383612264565b5f60016115f362093a8042612d68565b6115fd9190612d87565b6107579062093a80612d9a565b5f610584825490565b60025f54036116645760405162461bcd60e51b815260206004820152601f60248201527f5265656e7472616e637947756172643a207265656e7472616e742063616c6c0060448201526064016101c3565b60025f55565b600181600181111561167e5761167e612b50565b03610e4857604051636eb1769f60e11b81523360048201523060248201525f907f00000000000000000000000000000000000000000000000000000000000000006001600160a01b03169063dd62ed3e90604401602060405180830381865afa1580156116ed573d5f803e3d5ffd5b505050506040513d601f19601f820116820180604052508101906117119190612b94565b6040516370a0823160e01b81523360048201529091505f906001600160a01b037f000000000000000000000000000000000000000000000000000000000000000016906370a0823190602401602060405180830381865afa158015611778573d5f803e3d5ffd5b505050506040513d601f19601f8201168201806040525081019061179c9190612b94565b90505f8183106117ac57816117ae565b825b6040516323b872dd60e01b8152336004820152306024820152604481018290529091507f00000000000000000000000000000000000000000000000000000000000000006001600160a01b0316906323b872dd906064016020604051808303815f875af1158015611821573d5f803e3d5ffd5b505050506040513d601f19601f82011682018060405250810190610aea9190612acf565b5f6003856040516118569190612aee565b908152602001604051809103902090505f6118708261160a565b9050805f03611880575050610b4f565b5f5b81811015610dc8575f61189584836115d8565b604051630a4d7a2560e41b81526001600160a01b03808316600483015291925087917f0000000000000000000000000000000000000000000000000000000000000000169063a4d7a25090602401602060405180830381865afa1580156118fe573d5f803e3d5ffd5b505050506040513d601f19601f820116820180604052508101906119229190612b94565b101561199f5760405163615e523760e01b81526001600160a01b0382811660048301527f0000000000000000000000000000000000000000000000000000000000000000169063615e5237906024015f604051808303815f87803b158015611988575f80fd5b505af115801561199a573d5f803e3d5ffd5b505050505b6040516334c1e32560e21b81526001600160a01b0382811660048301526024820188905288917f00000000000000000000000000000000000000000000000000000000000000009091169063d3078c9490604401602060405180830381865afa158015611a0e573d5f803e3d5ffd5b505050506040513d601f19601f82011682018060405250810190611a329190612b94565b1015611a3e5750611a4a565b611a488186611b86565b505b600101611882565b478015611a6357611a63338261228a565b6040516370a0823160e01b81523060048201525f907f00000000000000000000000000000000000000000000000000000000000000006001600160a01b0316906370a0823190602401602060405180830381865afa158015611ac7573d5f803e3d5ffd5b505050506040513d601f19601f82011682018060405250810190611aeb9190612b94565b905080156109565760405163a9059cbb60e01b8152336004820152602481018290527f00000000000000000000000000000000000000000000000000000000000000006001600160a01b03169063a9059cbb906044016020604051808303815f875af1158015611b5d573d5f803e3d5ffd5b505050506040513d601f19601f82011682018060405250810190611b819190612acf565b505050565b5f816001811115611b9957611b99612b50565b03611c2a576040516354b94c2f60e11b81526001600160a01b0383811660048301527f0000000000000000000000000000000000000000000000000000000000000000169063a972985e90349060240160206040518083038185885af1158015611c05573d5f803e3d5ffd5b50505050506040513d601f19601f82011682018060405250810190611b819190612acf565b6040516370a0823160e01b81523060048201525f907f00000000000000000000000000000000000000000000000000000000000000006001600160a01b0316906370a0823190602401602060405180830381865afa158015611c8e573d5f803e3d5ffd5b505050506040513d601f19601f82011682018060405250810190611cb29190612b94565b60405163a9059cbb60e01b81526001600160a01b038581166004830152602482018390529192507f00000000000000000000000000000000000000000000000000000000000000009091169063a9059cbb906044016020604051808303815f875af1158015611d23573d5f803e3d5ffd5b505050506040513d601f19601f82011682018060405250810190611d479190612acf565b506040516354b94c2f60e11b81526001600160a01b0384811660048301527f0000000000000000000000000000000000000000000000000000000000000000169063a972985e906024016020604051808303815f875af1158015611dad573d5f803e3d5ffd5b505050506040513d601f19601f82011682018060405250810190610b4f9190612acf565b6001546001600160a01b03163314610b665760405162461bcd60e51b815260206004820181905260248201527f4f776e61626c653a2063616c6c6572206973206e6f7420746865206f776e657260448201526064016101c3565b600280546001600160a01b0319169055610e488161239f565b5f610581836001600160a01b0384166123f0565b5f600385604051611e699190612aee565b908152602001604051809103902090505f5b8381101561225c575f858583818110611e9657611e96612ceb565b9050602002016020810190611eab9190612a7f565b6040516361df1bf960e01b81526001600160a01b0380831660048301529192507f0000000000000000000000000000000000000000000000000000000000000000909116906361df1bf990602401602060405180830381865afa158015611f14573d5f803e3d5ffd5b505050506040513d601f19601f82011682018060405250810190611f389190612acf565b611f975760405162461bcd60e51b815260206004820152602a60248201527f476175676520776173206e6f7420616464656420746f2074686520476175676560448201526921b7b73a3937b63632b960b11b60648201526084016101c3565b806001600160a01b0316639c868ac06040518163ffffffff1660e01b8152600401602060405180830381865afa158015611fd3573d5f803e3d5ffd5b505050506040513d601f19601f82011682018060405250810190611ff79190612acf565b156120375760405162461bcd60e51b815260206004820152601060248201526f11d85d59d9481dd85cc81ada5b1b195960821b60448201526064016101c3565b61204183826124d3565b61209d5760405162461bcd60e51b815260206004820152602760248201527f476175676520616c726561647920616464656420746f2074686520636865636b6044820152663837b4b73a32b960c91b60648201526084016101c3565b8380612199575060405163572cb6a560e01b81526001600160a01b037f0000000000000000000000000000000000000000000000000000000000000000169063572cb6a5906120f0908a90600401612bab565b602060405180830381865afa15801561210b573d5f803e3d5ffd5b505050506040513d601f19601f8201168201806040525081019061212f9190612db1565b60405163ce3cc8bd60e01b81526001600160a01b038381166004830152919091169063ce3cc8bd90602401602060405180830381865afa158015612175573d5f803e3d5ffd5b505050506040513d601f19601f820116820180604052508101906121999190612acf565b6121fc5760405162461bcd60e51b815260206004820152602e60248201527f476175676520646f6573206e6f7420636f72726573706f6e6420746f2074686560448201526d2073656c6563746564207479706560901b60648201526084016101c3565b8660405161220a9190612aee565b6040518091039020816001600160a01b03167fbd3a33b3738a69bcfb84219d93fb0b1b2d91efbf2e5bef206c9af4122290fb548960405161224b9190612bab565b60405180910390a350600101611e7b565b505050505050565b5f825f01828154811061227957612279612ceb565b905f5260205f200154905092915050565b804710156122da5760405162461bcd60e51b815260206004820152601d60248201527f416464726573733a20696e73756666696369656e742062616c616e636500000060448201526064016101c3565b5f826001600160a01b0316826040515f6040518083038185875af1925050503d805f8114612323576040519150601f19603f3d011682016040523d82523d5f602084013e612328565b606091505b5050905080611b815760405162461bcd60e51b815260206004820152603a60248201527f416464726573733a20756e61626c6520746f2073656e642076616c75652c207260448201527f6563697069656e74206d6179206861766520726576657274656400000000000060648201526084016101c3565b600180546001600160a01b038381166001600160a01b0319831681179093556040519116919082907f8be0079c531659141344cd1fd0a4f28419497f9722a3daafe3b4186f6b6457e0905f90a35050565b5f81815260018301602052604081205480156124ca575f612412600183612d87565b85549091505f9061242590600190612d87565b9050818114612484575f865f01828154811061244357612443612ceb565b905f5260205f200154905080875f01848154811061246357612463612ceb565b5f918252602080832090910192909255918252600188019052604090208390555b855486908061249557612495612dcc565b600190038181905f5260205f20015f90559055856001015f8681526020019081526020015f205f905560019350505050610584565b5f915050610584565b5f610581836001600160a01b0384165f6124ff83835f9081526001919091016020526040902054151590565b61253457508154600181810184555f848152602080822090930184905584548482528286019093526040902091909155610584565b505f610584565b5f8083601f84011261254b575f80fd5b5081356001600160401b03811115612561575f80fd5b602083019150836020828501011115612578575f80fd5b9250929050565b5f8060208385031215612590575f80fd5b82356001600160401b038111156125a5575f80fd5b6125b18582860161253b565b90969095509350505050565b634e487b7160e01b5f52604160045260245ffd5b604051601f8201601f191681016001600160401b03811182821017156125f9576125f96125bd565b604052919050565b5f6001600160401b03821115612619576126196125bd565b50601f01601f191660200190565b6001600160a01b0381168114610e48575f80fd5b803560028110612649575f80fd5b919050565b5f805f8060808587031215612661575f80fd5b84356001600160401b03811115612676575f80fd5b8501601f81018713612686575f80fd5b803561269961269482612601565b6125d1565b8181528860208385010111156126ad575f80fd5b816020840160208301375f6020838301015280965050505060208501356126d381612627565b92506126e16040860161263b565b9396929550929360600135925050565b5f805f60408486031215612703575f80fd5b83356001600160401b03811115612718575f80fd5b6127248682870161253b565b909790965060209590950135949350505050565b5f8060408385031215612749575f80fd5b823591506127596020840161263b565b90509250929050565b5f8083601f840112612772575f80fd5b5081356001600160401b03811115612788575f80fd5b6020830191508360208260051b8501011115612578575f80fd5b5f805f805f606086880312156127b6575f80fd5b85356001600160401b03808211156127cc575f80fd5b6127d889838a01612762565b909750955060208801359150808211156127f0575f80fd5b506127fd88828901612762565b909450925061281090506040870161263b565b90509295509295909350565b5f805f806060858703121561282f575f80fd5b84356001600160401b03811115612844575f80fd5b6128508782880161253b565b909550935050602085013561286481612627565b91506128726040860161263b565b905092959194509250565b5f805f8060408587031215612890575f80fd5b84356001600160401b03808211156128a6575f80fd5b6128b28883890161253b565b909650945060208701359150808211156128ca575f80fd5b506128d787828801612762565b95989497509550505050565b5f5b838110156128fd5781810151838201526020016128e5565b50505f910152565b5f815180845261291c8160208601602086016128e3565b601f01601f19169290920160200192915050565b5f60208083016020845280855180835260408601915060408160051b8701019250602087015f5b8281101561298557603f19888603018452612973858351612905565b94509285019290850190600101612957565b5092979650505050505050565b5f805f80606085870312156129a5575f80fd5b8435935060208501356001600160401b038111156129c1575f80fd5b6129cd8782880161253b565b909450925061287290506040860161263b565b5f805f604084860312156129f2575f80fd5b83356001600160401b03811115612a07575f80fd5b612a138682870161253b565b9094509250506020840135612a2781612627565b809150509250925092565b5f805f8060608587031215612a45575f80fd5b84356001600160401b03811115612a5a575f80fd5b612a668782880161253b565b909550935050602085013591506128726040860161263b565b5f60208284031215612a8f575f80fd5b8135612a9a81612627565b9392505050565b60208152816020820152818360408301375f818301604090810191909152601f909201601f19160101919050565b5f60208284031215612adf575f80fd5b81518015158114612a9a575f80fd5b5f8251612aff8184602087016128e3565b9190910192915050565b60208082526027908201527f476175676520776173206e6f7420616464656420746f2074686520636865636b6040820152663837b4b73a32b960c91b606082015260800190565b634e487b7160e01b5f52602160045260245ffd5b8281526040810160028310612b8757634e487b7160e01b5f52602160045260245ffd5b8260208301529392505050565b5f60208284031215612ba4575f80fd5b5051919050565b602081525f6105816020830184612905565b602080825260129082015271496e76616c6964206761756765207479706560701b604082015260600190565b818382375f9101908152919050565b5f6020808385031215612c09575f80fd5b82516001600160401b0380821115612c1f575f80fd5b818501915085601f830112612c32575f80fd5b815181811115612c4457612c446125bd565b8060051b612c538582016125d1565b9182528381018501918581019089841115612c6c575f80fd5b86860192505b83831015612cde57825185811115612c88575f80fd5b8601603f81018b13612c98575f80fd5b878101516040612caa61269483612601565b8281528d82848601011115612cbd575f80fd5b612ccc838c83018487016128e3565b85525050509186019190860190612c72565b9998505050505050505050565b634e487b7160e01b5f52603260045260245ffd5b5f808335601e19843603018112612d14575f80fd5b8301803591506001600160401b03821115612d2d575f80fd5b602001915036819003821315612578575f80fd5b634e487b7160e01b5f52601160045260245ffd5b8082018082111561058457610584612d41565b5f82612d8257634e487b7160e01b5f52601260045260245ffd5b500490565b8181038181111561058457610584612d41565b808202811582820484141761058457610584612d41565b5f60208284031215612dc1575f80fd5b8151612a9a81612627565b634e487b7160e01b5f52603160045260245ffdfea264697066735822122051f2c17d9cecae77a82fded6a131efe5c62f854867515b4a2f361f6ef646510b64736f6c63430008180033",
  "language": "Solidity",
  "compiler": "0.8.24+commit.e11b9ed9"
}