{
  "address": "0x7A2E2FB81298D749f1b542Ee8049070ba3E7401B",
  "abi": [
    {
      "inputs": [
        {
          "internalType": "contract IMainnetBalancerMinter",
          "name": "_minter",
          "type": "address"
        },
        {
          "internalType": "address",
          "name": "_router",
          "type": "address"
        },
        {
          "internalType": "address",
          "name": "_link",
          "type": "address"
        }
      ],
      "stateMutability": "nonpayable",
      "type": "constructor"
    },
    {
      "inputs": [],
      "name": "LINK",
      "outputs": [
        {
          "internalType": "address",
          "name": "",
          "type": "address"
        }
      ],
      "stateMutability": "view",
      "type": "function"
    },
    {
      "inputs": [],
      "name": "MAX_RELATIVE_WEIGHT_CAP",
      "outputs": [
        {
          "internalType": "uint256",
          "name": "",
          "type": "uint256"
        }
      ],
      "stateMutability": "view",
      "type": "function"
    },
    {
      "inputs": [],
      "name": "ROUTER",
      "outputs": [
        {
          "internalType": "contract IRouterClient",
          "name": "",
          "type": "address"
        }
      ],
      "stateMutability": "view",
      "type": "function"
    },
    {
      "inputs": [],
      "name": "acceptOwnership",
      "outputs": [],
      "stateMutability": "nonpayable",
      "type": "function"
    },
    {
      "inputs": [
        {
          "internalType": "uint256",
          "name": "_amount",
          "type": "uint256"
        },
        {
          "internalType": "enum ICCIPGauge.PayFeesIn",
          "name": "_payFeesIn",
          "type": "uint8"
        }
      ],
      "name": "buildCCIPMessage",
      "outputs": [
        {
          "components": [
            {
              "internalType": "bytes",
              "name": "receiver",
              "type": "bytes"
            },
            {
              "internalType": "bytes",
              "name": "data",
              "type": "bytes"
            },
            {
              "components": [
                {
                  "internalType": "address",
                  "name": "token",
                  "type": "address"
                },
                {
                  "internalType": "uint256",
                  "name": "amount",
                  "type": "uint256"
                }
              ],
              "internalType": "struct Client.EVMTokenAmount[]",
              "name": "tokenAmounts",
              "type": "tuple[]"
            },
            {
              "internalType": "address",
              "name": "feeToken",
              "type": "address"
            },
            {
              "internalType": "bytes",
              "name": "extraArgs",
              "type": "bytes"
            }
          ],
          "internalType": "struct Client.EVM2AnyMessage",
          "name": "evm2AnyMessage",
          "type": "tuple"
        }
      ],
      "stateMutability": "view",
      "type": "function"
    },
    {
      "inputs": [
        {
          "internalType": "uint256",
          "name": "_amount",
          "type": "uint256"
        },
        {
          "internalType": "enum ICCIPGauge.PayFeesIn",
          "name": "_payFeesIn",
          "type": "uint8"
        }
      ],
      "name": "calculateFee",
      "outputs": [
        {
          "internalType": "uint256",
          "name": "fee",
          "type": "uint256"
        }
      ],
      "stateMutability": "view",
      "type": "function"
    },
    {
      "inputs": [],
      "name": "checkpoint",
      "outputs": [
        {
          "internalType": "bool",
          "name": "",
          "type": "bool"
        }
      ],
      "stateMutability": "payable",
      "type": "function"
    },
    {
      "inputs": [],
      "name": "destinationChain",
      "outputs": [
        {
          "internalType": "uint64",
          "name": "",
          "type": "uint64"
        }
      ],
      "stateMutability": "view",
      "type": "function"
    },
    {
      "inputs": [],
      "name": "extraArgs",
      "outputs": [
        {
          "internalType": "bytes",
          "name": "",
          "type": "bytes"
        }
      ],
      "stateMutability": "view",
      "type": "function"
    },
    {
      "inputs": [
        {
          "internalType": "uint256",
          "name": "time",
          "type": "uint256"
        }
      ],
      "name": "getCappedRelativeWeight",
      "outputs": [
        {
          "internalType": "uint256",
          "name": "",
          "type": "uint256"
        }
      ],
      "stateMutability": "view",
      "type": "function"
    },
    {
      "inputs": [],
      "name": "getCheckpointer",
      "outputs": [
        {
          "internalType": "address",
          "name": "",
          "type": "address"
        }
      ],
      "stateMutability": "view",
      "type": "function"
    },
    {
      "inputs": [],
      "name": "getRecipient",
      "outputs": [
        {
          "internalType": "address",
          "name": "",
          "type": "address"
        }
      ],
      "stateMutability": "view",
      "type": "function"
    },
    {
      "inputs": [],
      "name": "getRelativeWeightCap",
      "outputs": [
        {
          "internalType": "uint256",
          "name": "",
          "type": "uint256"
        }
      ],
      "stateMutability": "view",
      "type": "function"
    },
    {
      "inputs": [
        {
          "internalType": "address",
          "name": "_recepient",
          "type": "address"
        },
        {
          "internalType": "uint256",
          "name": "_relativeWeightCap",
          "type": "uint256"
        },
        {
          "internalType": "address",
          "name": "_checkpointer",
          "type": "address"
        },
        {
          "internalType": "uint64",
          "name": "_destinationChain",
          "type": "uint64"
        }
      ],
      "name": "initialize",
      "outputs": [],
      "stateMutability": "nonpayable",
      "type": "function"
    },
    {
      "inputs": [
        {
          "internalType": "address",
          "name": "user",
          "type": "address"
        }
      ],
      "name": "integrate_fraction",
      "outputs": [
        {
          "internalType": "uint256",
          "name": "",
          "type": "uint256"
        }
      ],
      "stateMutability": "view",
      "type": "function"
    },
    {
      "inputs": [],
      "name": "is_killed",
      "outputs": [
        {
          "internalType": "bool",
          "name": "",
          "type": "bool"
        }
      ],
      "stateMutability": "view",
      "type": "function"
    },
    {
      "inputs": [],
      "name": "killGauge",
      "outputs": [],
      "stateMutability": "nonpayable",
      "type": "function"
    },
    {
      "inputs": [],
      "name": "owner",
      "outputs": [
        {
          "internalType": "address",
          "name": "",
          "type": "address"
        }
      ],
      "stateMutability": "view",
      "type": "function"
    },
    {
      "inputs": [],
      "name": "pendingOwner",
      "outputs": [
        {
          "internalType": "address",
          "name": "",
          "type": "address"
        }
      ],
      "stateMutability": "view",
      "type": "function"
    },
    {
      "inputs": [],
      "name": "renounceOwnership",
      "outputs": [],
      "stateMutability": "nonpayable",
      "type": "function"
    },
    {
      "inputs": [
        {
          "internalType": "address",
          "name": "newCheckpointer",
          "type": "address"
        }
      ],
      "name": "setCheckpointer",
      "outputs": [],
      "stateMutability": "nonpayable",
      "type": "function"
    },
    {
      "inputs": [
        {
          "internalType": "bytes",
          "name": "_extraArgs",
          "type": "bytes"
        }
      ],
      "name": "setExtraArgs",
      "outputs": [],
      "stateMutability": "nonpayable",
      "type": "function"
    },
    {
      "inputs": [
        {
          "internalType": "uint256",
          "name": "relativeWeightCap",
          "type": "uint256"
        }
      ],
      "name": "setRelativeWeightCap",
      "outputs": [],
      "stateMutability": "nonpayable",
      "type": "function"
    },
    {
      "inputs": [
        {
          "internalType": "address",
          "name": "newOwner",
          "type": "address"
        }
      ],
      "name": "transferOwnership",
      "outputs": [],
      "stateMutability": "nonpayable",
      "type": "function"
    },
    {
      "inputs": [],
      "name": "unclaimedIncentives",
      "outputs": [
        {
          "internalType": "uint256",
          "name": "unclaimed",
          "type": "uint256"
        }
      ],
      "stateMutability": "nonpayable",
      "type": "function"
    },
    {
      "inputs": [],
      "name": "unkillGauge",
      "outputs": [],
      "stateMutability": "nonpayable",
      "type": "function"
    },
    {
      "inputs": [
        {
          "internalType": "address",
          "name": "",
          "type": "address"
        }
      ],
      "name": "user_checkpoint",
      "outputs": [
        {
          "internalType": "bool",
          "name": "",
          "type": "bool"
        }
      ],
      "stateMutability": "pure",
      "type": "function"
    },
    {
      "anonymous": false,
      "inputs": [
        {
          "indexed": false,
          "internalType": "bytes32",
          "name": "messageId",
          "type": "bytes32"
        }
      ],
      "name": "CCIPTransferMessage",
      "type": "event"
    },
    {
      "anonymous": false,
      "inputs": [
        {
          "indexed": true,
          "internalType": "uint256",
          "name": "periodTime",
          "type": "uint256"
        },
        {
          "indexed": false,
          "internalType": "uint256",
          "name": "periodEmissions",
          "type": "uint256"
        }
      ],
      "name": "Checkpoint",
      "type": "event"
    },
    {
      "anonymous": false,
      "inputs": [
        {
          "indexed": false,
          "internalType": "bytes",
          "name": "extraArgs",
          "type": "bytes"
        }
      ],
      "name": "ExtraArgsUpdated",
      "type": "event"
    },
    {
      "anonymous": false,
      "inputs": [
        {
          "indexed": false,
          "internalType": "address",
          "name": "checkpointer",
          "type": "address"
        }
      ],
      "name": "NewCheckpointer",
      "type": "event"
    },
    {
      "anonymous": false,
      "inputs": [
        {
          "indexed": true,
          "internalType": "address",
          "name": "previousOwner",
          "type": "address"
        },
        {
          "indexed": true,
          "internalType": "address",
          "name": "newOwner",
          "type": "address"
        }
      ],
      "name": "OwnershipTransferStarted",
      "type": "event"
    },
    {
      "anonymous": false,
      "inputs": [
        {
          "indexed": true,
          "internalType": "address",
          "name": "previousOwner",
          "type": "address"
        },
        {
          "indexed": true,
          "internalType": "address",
          "name": "newOwner",
          "type": "address"
        }
      ],
      "name": "OwnershipTransferred",
      "type": "event"
    },
    {
      "anonymous": false,
      "inputs": [
        {
          "indexed": false,
          "internalType": "uint256",
          "name": "new_relative_weight_cap",
          "type": "uint256"
        }
      ],
      "name": "RelativeWeightCapChanged",
      "type": "event"
    }
  ],
  "bytecode": "0x6101a060405234801562000011575f80fd5b506040516200275438038062002754833981016040819052620000349162000384565b60015f5582828282620000473362000300565b5f816001600160a01b031663e6dec36f6040518163ffffffff1660e01b8152600401602060405180830381865afa15801562000085573d5f803e3d5ffd5b505050506040513d601f19601f82011682018060405250810190620000ab9190620003d5565b90505f816001600160a01b031663c00396996040518163ffffffff1660e01b8152600401602060405180830381865afa158015620000eb573d5f803e3d5ffd5b505050506040513d601f19601f82011682018060405250810190620001119190620003d5565b90505f836001600160a01b03166358de9ade6040518163ffffffff1660e01b8152600401602060405180830381865afa15801562000151573d5f803e3d5ffd5b505050506040513d601f19601f82011682018060405250810190620001779190620003d5565b6001600160a01b0380841660805284811660a081905286821660c05290821660e05260408051635c3dab0b60e11b81529051929350909163b87b5616916004808201926020929091908290030181865afa158015620001d8573d5f803e3d5ffd5b505050506040513d601f19601f82011682018060405250810190620001fe9190620003fa565b6101008181525050826001600160a01b03166321609bbf6040518163ffffffff1660e01b8152600401602060405180830381865afa15801562000243573d5f803e3d5ffd5b505050506040513d601f19601f82011682018060405250810190620002699190620003fa565b6101208181525050826001600160a01b0316637efad8e06040518163ffffffff1660e01b8152600401602060405180830381865afa158015620002ae573d5f803e3d5ffd5b505050506040513d601f19601f82011682018060405250810190620002d49190620003fa565b6101405250505f1960045550506001600160a01b03918216610160521661018052506200041292505050565b600280546001600160a01b03191690556200031b816200031e565b50565b600180546001600160a01b038381166001600160a01b0319831681179093556040519116919082907f8be0079c531659141344cd1fd0a4f28419497f9722a3daafe3b4186f6b6457e0905f90a35050565b6001600160a01b03811681146200031b575f80fd5b5f805f6060848603121562000397575f80fd5b8351620003a4816200036f565b6020850151909350620003b7816200036f565b6040850151909250620003ca816200036f565b809150509250925092565b5f60208284031215620003e6575f80fd5b8151620003f3816200036f565b9392505050565b5f602082840312156200040b575f80fd5b5051919050565b60805160a05160c05160e0516101005161012051610140516101605161018051612257620004fd5f395f8181610230015281816112bb015281816119a201528181611ad80152611b6d01525f81816102b7015281816113b201528181611722015281816117f6015281816119700152611a2101525f81816106a20152610db801525f818161067e0152610d9401525f81816105bf0152818161071c01528181610cd50152610e3c01525f818161054a015281816108e30152610c6001525f81816107b60152610f3501525f818161148a015261157a01525f81816111f0015261175101526122575ff3fe608060405260043610610195575f3560e01c806382300ee3116100e7578063c2c4c5c111610087578063e2c431db11610062578063e2c431db1461046e578063e30c39781461048b578063f2fde38b146104a8578063fd1337a6146104c7575f80fd5b8063c2c4c5c114610433578063d34fb2671461043b578063e0d94af91461044f575f80fd5b80638da5cb5b116100c25780638da5cb5b146103d05780639c868ac0146103ed5780639f86767114610404578063ab8f09451461041f575f80fd5b806382300ee31461037e57806383275f641461039d57806383f5c39b146103bc575f80fd5b806326cc37311161015257806356f416931161012d57806356f41693146103095780635bbc56c11461032a578063715018a61461035657806379ba50971461036a575f80fd5b806326cc37311461028757806332fe7b26146102a65780634b820093146102d9575f80fd5b80630749ea5d1461019957806309400707146101c057806310d3eb04146101df57806314e956f5146102005780631b6b6d231461021f5780631b88094d1461026a575b5f80fd5b3480156101a4575f80fd5b506101ad610507565b6040519081526020015b60405180910390f35b3480156101cb575f80fd5b506101ad6101da366004611d44565b61083f565b3480156101ea575f80fd5b506101fe6101f9366004611d5f565b6108a5565b005b34801561020b575f80fd5b506101ad61021a366004611d5f565b6108b9565b34801561022a575f80fd5b506102527f000000000000000000000000000000000000000000000000000000000000000081565b6040516001600160a01b0390911681526020016101b7565b348015610275575f80fd5b50600b546001600160a01b0316610252565b348015610292575f80fd5b506101fe6102a1366004611d76565b61095a565b3480156102b1575f80fd5b506102527f000000000000000000000000000000000000000000000000000000000000000081565b3480156102e4575f80fd5b506102f96102f3366004611d44565b50600190565b60405190151581526020016101b7565b348015610314575f80fd5b5061031d6109ad565b6040516101b79190611e25565b348015610335575f80fd5b50610349610344366004611e37565b610a39565b6040516101b79190611f29565b348015610361575f80fd5b506101fe610a52565b348015610375575f80fd5b506101fe610a65565b348015610389575f80fd5b506101ad610398366004611e37565b610adc565b3480156103a8575f80fd5b506101fe6103b7366004611f3b565b610afb565b3480156103c7575f80fd5b506008546101ad565b3480156103db575f80fd5b506001546001600160a01b0316610252565b3480156103f8575f80fd5b5060075460ff166102f9565b34801561040f575f80fd5b506101ad670de0b6b3a764000081565b34801561042a575f80fd5b506101fe610bc7565b6102f9610bde565b348015610446575f80fd5b506101fe610fc7565b34801561045a575f80fd5b506101fe610469366004611d44565b610fdb565b348015610479575f80fd5b506009546001600160a01b0316610252565b348015610496575f80fd5b506002546001600160a01b0316610252565b3480156104b3575f80fd5b506101fe6104c2366004611d44565b610fec565b3480156104d2575f80fd5b506009546104ee90600160a01b900467ffffffffffffffff1681565b60405167ffffffffffffffff90911681526020016101b7565b6004545f908161051561105d565b90508082101580610528575060075460ff165b15610535575f9250505090565b60405163615e523760e01b81523060048201527f00000000000000000000000000000000000000000000000000000000000000006001600160a01b03169063615e5237906024015f604051808303815f87803b158015610593575f80fd5b505af11580156105a5573d5f803e3d5ffd5b505060035491505f90506105ba600185611fab565b93505f7f00000000000000000000000000000000000000000000000000000000000000006005546105eb9190611fab565b9050845b6105fa8660ff611fab565b81101561079157848111610791575f6106168262093a80611fbe565b90505f80610623836108b9565b9050828510158015610640575061063d8362093a80611fab565b85105b1561074a575f6106508487611fd5565b9050670de0b6b3a7640000816106668a85611fbe565b6106709190611fbe565b61067a9190611fe8565b92507f00000000000000000000000000000000000000000000000000000000000000006106c77f00000000000000000000000000000000000000000000000000000000000000008a611fbe565b6106d19190611fe8565b97505f6106e18262093a80611fd5565b9050670de0b6b3a7640000816106f78b86611fbe565b6107019190611fbe565b61070b9190611fe8565b6107159085611fab565b93506107417f000000000000000000000000000000000000000000000000000000000000000088611fab565b96505050610777565b670de0b6b3a764000061075d8883611fbe565b61076a9062093a80611fbe565b6107749190611fe8565b91505b6107818287611fab565b95505050508060010190506105ef565b508115610837576040516308b752bb60e41b8152306004820181905260248201525f907f00000000000000000000000000000000000000000000000000000000000000006001600160a01b031690638b752bb090604401602060405180830381865afa158015610803573d5f803e3d5ffd5b505050506040513d601f19601f820116820180604052508101906108279190612007565b90506108338184611fd5565b9650505b505050505090565b5f6001600160a01b038216301461089d5760405162461bcd60e51b815260206004820152601e60248201527f47617567652063616e206f6e6c79206d696e7420666f7220697473656c66000060448201526064015b60405180910390fd5b505060065490565b6108ad61107c565b6108b6816110d6565b50565b6040516334c1e32560e21b8152306004820152602481018290525f90610954906001600160a01b037f0000000000000000000000000000000000000000000000000000000000000000169063d3078c9490604401602060405180830381865afa158015610928573d5f803e3d5ffd5b505050506040513d601f19601f8201168201806040525081019061094c9190612007565b600854611187565b92915050565b61096261107c565b600a61096f8284836120b5565b507fd7693fa685e87b95e7bd6dc60982f82ce2510fe103f2b5bfa0f842c392c4f06082826040516109a192919061216f565b60405180910390a15050565b600a80546109ba90612032565b80601f01602080910402602001604051908101604052809291908181526020018280546109e690612032565b8015610a315780601f10610a0857610100808354040283529160200191610a31565b820191905f5260205f20905b815481529060010190602001808311610a1457829003601f168201915b505050505081565b610a41611cf9565b610a4b838361119c565b9392505050565b610a5a61107c565b610a635f611385565b565b60025433906001600160a01b03168114610ad35760405162461bcd60e51b815260206004820152602960248201527f4f776e61626c6532537465703a2063616c6c6572206973206e6f7420746865206044820152683732bb9037bbb732b960b91b6064820152608401610894565b6108b681611385565b5f80610ae8848461119c565b9050610af38161139e565b949350505050565b610b0483611441565b610b0d82611609565b610b75336001600160a01b0316638da5cb5b6040518163ffffffff1660e01b8152600401602060405180830381865afa158015610b4c573d5f803e3d5ffd5b505050506040513d601f19601f82011682018060405250810190610b70919061219d565b611385565b600b80546001600160a01b039095166001600160a01b03199095169490941790935550506009805467ffffffffffffffff909216600160a01b0267ffffffffffffffff60a01b19909216919091179055565b610bcf61107c565b6007805460ff19166001179055565b5f610be76116b4565b6009546001600160a01b03163314610c355760405162461bcd60e51b815260206004820152601160248201527027b7363c9031b432b1b5b837b4b73a32b960791b6044820152606401610894565b6004545f610c4161105d565b905080821015610fb55760405163615e523760e01b81523060048201527f00000000000000000000000000000000000000000000000000000000000000006001600160a01b03169063615e5237906024015f604051808303815f87803b158015610ca9575f80fd5b505af1158015610cbb573d5f803e3d5ffd5b505060035491505f9050610cd0600185611fab565b93505f7f0000000000000000000000000000000000000000000000000000000000000000600554610d019190611fab565b9050845b610d108660ff611fab565b811015610eeb57848111610eeb575f610d2c8262093a80611fbe565b90505f80610d39836108b9565b9050828510158015610d565750610d538362093a80611fab565b85105b15610e6a575f610d668487611fd5565b9050670de0b6b3a764000081610d7c8a85611fbe565b610d869190611fbe565b610d909190611fe8565b92507f0000000000000000000000000000000000000000000000000000000000000000610ddd7f00000000000000000000000000000000000000000000000000000000000000008a611fbe565b610de79190611fe8565b97505f610df78262093a80611fd5565b9050670de0b6b3a764000081610e0d8b86611fbe565b610e179190611fbe565b610e219190611fe8565b610e2b9085611fab565b60038a905560058890559350610e617f000000000000000000000000000000000000000000000000000000000000000088611fab565b96505050610e97565b670de0b6b3a7640000610e7d8883611fbe565b610e8a9062093a80611fbe565b610e949190611fe8565b91505b827f21d81d5d656869e8ce3ba8d65526a2f0dbbcd3d36f5f9999eb7c84360e45eced83604051610ec991815260200190565b60405180910390a2610edb8287611fab565b9550505050806001019050610d05565b50836004819055508160065f828254610f049190611fab565b90915550508115801590610f1b575060075460ff16155b15610fb1576040516335313c2160e11b81523060048201527f00000000000000000000000000000000000000000000000000000000000000006001600160a01b031690636a627842906024016020604051808303815f875af1158015610f83573d5f803e3d5ffd5b505050506040513d601f19601f82011682018060405250810190610fa79190612007565b50610fb18261170b565b5050505b600192505050610fc460015f55565b90565b610fcf61107c565b6007805460ff19169055565b610fe361107c565b6108b681611609565b610ff461107c565b600280546001600160a01b0383166001600160a01b031990911681179091556110256001546001600160a01b031690565b6001600160a01b03167f38d16b8cac22d99fc7c124b9cd0de2d3fa1faef420bfe791d8c362d765e2270060405160405180910390a350565b5f600161106d62093a8042611fe8565b6110779190611fd5565b905090565b6001546001600160a01b03163314610a635760405162461bcd60e51b815260206004820181905260248201527f4f776e61626c653a2063616c6c6572206973206e6f7420746865206f776e65726044820152606401610894565b670de0b6b3a764000081111561114b5760405162461bcd60e51b815260206004820152603460248201527f52656c61746976652077656967687420636170206578636565647320616c6c6f604482015273776564206162736f6c757465206d6178696d756d60601b6064820152608401610894565b60088190556040518181527f13e45870490f54cea50d245930d12102c72b502641ef6850d0b15a8c92decfb2906020015b60405180910390a150565b5f8183106111955781610a4b565b5090919050565b6111a4611cf9565b6040805160018082528183019092525f91816020015b604080518082019091525f80825260208201528152602001906001900390816111ba5790505090505f60405180604001604052807f00000000000000000000000000000000000000000000000000000000000000006001600160a01b0316815260200186815250905080825f81518110611236576112366121b8565b60209081029190910101526040805160a08101909152600b546001600160a01b031660c08201528060e08101604051602081830303815290604052815260200160405180602001604052805f81525081526020018381526020015f60018111156112a2576112a26121cc565b8660018111156112b4576112b46121cc565b146112df577f00000000000000000000000000000000000000000000000000000000000000006112e1565b5f5b6001600160a01b03168152602001600a80546112fc90612032565b80601f016020809104026020016040519081016040528092919081815260200182805461132890612032565b80156113735780601f1061134a57610100808354040283529160200191611373565b820191905f5260205f20905b81548152906001019060200180831161135657829003601f168201915b50505050508152509250505092915050565b600280546001600160a01b03191690556108b6816118ef565b6009546040516320487ded60e01b81525f917f00000000000000000000000000000000000000000000000000000000000000006001600160a01b0316916320487ded9161140291600160a01b90910467ffffffffffffffff169086906004016121e0565b602060405180830381865afa15801561141d573d5f803e3d5ffd5b505050506040513d601f19601f820116820180604052508101906109549190612007565b600454156114875760405162461bcd60e51b8152602060048201526013602482015272105b1c9958591e481a5b9a5d1a585b1a5e9959606a1b6044820152606401610894565b5f7f00000000000000000000000000000000000000000000000000000000000000006001600160a01b0316632c4e722e6040518163ffffffff1660e01b8152600401602060405180830381865afa1580156114e4573d5f803e3d5ffd5b505050506040513d601f19601f820116820180604052508101906115089190612007565b9050805f036115655760405162461bcd60e51b8152602060048201526024808201527f42616c616e636572546f6b656e41646d696e206e6f7420796574206163746976604482015263185d195960e21b6064820152608401610894565b600381905561157261105d565b6004819055507f00000000000000000000000000000000000000000000000000000000000000006001600160a01b031663a228bced6040518163ffffffff1660e01b81526004016020604051808303815f875af11580156115d5573d5f803e3d5ffd5b505050506040513d601f19601f820116820180604052508101906115f99190612007565b600555611605826110d6565b5050565b6009546001600160a01b038083169116036116665760405162461bcd60e51b815260206004820152601d60248201527f436865636b706f696e7465722061646472657373207468652073616d650000006044820152606401610894565b600980546001600160a01b0319166001600160a01b0383169081179091556040519081527f3190bf8b029b3c91959167cee9ebe5b851694eb747c7f6fc542bbf2da52dd35b9060200161117c565b60025f54036117055760405162461bcd60e51b815260206004820152601f60248201527f5265656e7472616e637947756172643a207265656e7472616e742063616c6c006044820152606401610894565b60025f55565b60405163095ea7b360e01b81526001600160a01b037f000000000000000000000000000000000000000000000000000000000000000081166004830152602482018390527f0000000000000000000000000000000000000000000000000000000000000000169063095ea7b3906044016020604051808303815f875af1158015611797573d5f803e3d5ffd5b505050506040513d601f19601f820116820180604052508101906117bb9190612202565b505f4780156118ab575f6117cf845f61119c565b90505f6117db8261139e565b9050808310611890576009546040516396f4e9f960e01b81527f00000000000000000000000000000000000000000000000000000000000000006001600160a01b0316916396f4e9f991849161184891600160a01b90910467ffffffffffffffff169087906004016121e0565b60206040518083038185885af1158015611864573d5f803e3d5ffd5b50505050506040513d601f19601f820116820180604052508101906118899190612007565b935061189c565b61189985611940565b93505b6118a4611ab0565b50506118b7565b6118b483611940565b91505b6040518281527f11640279d2bfea2707c549aed7ae3af60fc4367b17ae67764f856612121b5fda9060200160405180910390a1505050565b600180546001600160a01b038381166001600160a01b0319831681179093556040519116919082907f8be0079c531659141344cd1fd0a4f28419497f9722a3daafe3b4186f6b6457e0905f90a35050565b5f8061194d83600161119c565b90505f6119598261139e565b60405163095ea7b360e01b81526001600160a01b037f000000000000000000000000000000000000000000000000000000000000000081166004830152602482018390529192507f00000000000000000000000000000000000000000000000000000000000000009091169063095ea7b3906044016020604051808303815f875af11580156119ea573d5f803e3d5ffd5b505050506040513d601f19601f82011682018060405250810190611a0e9190612202565b506009546040516396f4e9f960e01b81527f00000000000000000000000000000000000000000000000000000000000000006001600160a01b0316916396f4e9f991611a7091600160a01b900467ffffffffffffffff169086906004016121e0565b6020604051808303815f875af1158015611a8c573d5f803e3d5ffd5b505050506040513d601f19601f82011682018060405250810190610af39190612007565b478015611ac157611ac13382611be4565b6040516370a0823160e01b81523060048201525f907f00000000000000000000000000000000000000000000000000000000000000006001600160a01b0316906370a0823190602401602060405180830381865afa158015611b25573d5f803e3d5ffd5b505050506040513d601f19601f82011682018060405250810190611b499190612007565b905080156116055760405163a9059cbb60e01b8152336004820152602481018290527f00000000000000000000000000000000000000000000000000000000000000006001600160a01b03169063a9059cbb906044016020604051808303815f875af1158015611bbb573d5f803e3d5ffd5b505050506040513d601f19601f82011682018060405250810190611bdf9190612202565b505050565b80471015611c345760405162461bcd60e51b815260206004820152601d60248201527f416464726573733a20696e73756666696369656e742062616c616e63650000006044820152606401610894565b5f826001600160a01b0316826040515f6040518083038185875af1925050503d805f8114611c7d576040519150601f19603f3d011682016040523d82523d5f602084013e611c82565b606091505b5050905080611bdf5760405162461bcd60e51b815260206004820152603a60248201527f416464726573733a20756e61626c6520746f2073656e642076616c75652c207260448201527f6563697069656e74206d617920686176652072657665727465640000000000006064820152608401610894565b6040518060a001604052806060815260200160608152602001606081526020015f6001600160a01b03168152602001606081525090565b6001600160a01b03811681146108b6575f80fd5b5f60208284031215611d54575f80fd5b8135610a4b81611d30565b5f60208284031215611d6f575f80fd5b5035919050565b5f8060208385031215611d87575f80fd5b823567ffffffffffffffff80821115611d9e575f80fd5b818501915085601f830112611db1575f80fd5b813581811115611dbf575f80fd5b866020828501011115611dd0575f80fd5b60209290920196919550909350505050565b5f81518084525f5b81811015611e0657602081850181015186830182015201611dea565b505f602082860101526020601f19601f83011685010191505092915050565b602081525f610a4b6020830184611de2565b5f8060408385031215611e48575f80fd5b82359150602083013560028110611e5d575f80fd5b809150509250929050565b5f815160a08452611e7c60a0850182611de2565b905060208084015185830382870152611e958382611de2565b60408681015188830389830152805180845290850195509092505f918401905b80831015611ee757855180516001600160a01b0316835285015185830152948401946001929092019190830190611eb5565b5060608701519450611f0460608901866001600160a01b03169052565b608087015194508781036080890152611f1d8186611de2565b98975050505050505050565b602081525f610a4b6020830184611e68565b5f805f8060808587031215611f4e575f80fd5b8435611f5981611d30565b9350602085013592506040850135611f7081611d30565b9150606085013567ffffffffffffffff81168114611f8c575f80fd5b939692955090935050565b634e487b7160e01b5f52601160045260245ffd5b8082018082111561095457610954611f97565b808202811582820484141761095457610954611f97565b8181038181111561095457610954611f97565b5f8261200257634e487b7160e01b5f52601260045260245ffd5b500490565b5f60208284031215612017575f80fd5b5051919050565b634e487b7160e01b5f52604160045260245ffd5b600181811c9082168061204657607f821691505b60208210810361206457634e487b7160e01b5f52602260045260245ffd5b50919050565b601f821115611bdf57805f5260205f20601f840160051c8101602085101561208f5750805b601f840160051c820191505b818110156120ae575f815560010161209b565b5050505050565b67ffffffffffffffff8311156120cd576120cd61201e565b6120e1836120db8354612032565b8361206a565b5f601f841160018114612112575f85156120fb5750838201355b5f19600387901b1c1916600186901b1783556120ae565b5f83815260208120601f198716915b828110156121415786850135825560209485019460019092019101612121565b508682101561215d575f1960f88860031b161c19848701351681555b505060018560011b0183555050505050565b60208152816020820152818360408301375f818301604090810191909152601f909201601f19160101919050565b5f602082840312156121ad575f80fd5b8151610a4b81611d30565b634e487b7160e01b5f52603260045260245ffd5b634e487b7160e01b5f52602160045260245ffd5b67ffffffffffffffff83168152604060208201525f610af36040830184611e68565b5f60208284031215612212575f80fd5b81518015158114610a4b575f80fdfea26469706673582212209e7ba9a697e1c4a7094e344d31907df6ca542edafa1b67c292c399e5a0775e2964736f6c63430008180033",
  "language": "Solidity",
  "compiler": "0.8.24+commit.e11b9ed9"
}