{
  "address": "0x7720Ef280e6A280EC86a4FEAa2Ae32Fe9e9F2AB6",
  "abi": [
    {
      "inputs": [
        {
          "internalType": "contract IGaugeController",
          "name": "gaugeController",
          "type": "address"
        }
      ],
      "stateMutability": "nonpayable",
      "type": "constructor"
    },
    {
      "inputs": [],
      "name": "acceptOwnership",
      "outputs": [],
      "stateMutability": "nonpayable",
      "type": "function"
    },
    {
      "inputs": [
        {
          "internalType": "address",
          "name": "gauge",
          "type": "address"
        },
        {
          "internalType": "string",
          "name": "gaugeType",
          "type": "string"
        }
      ],
      "name": "addGauge",
      "outputs": [],
      "stateMutability": "nonpayable",
      "type": "function"
    },
    {
      "inputs": [
        {
          "internalType": "string",
          "name": "gaugeType",
          "type": "string"
        }
      ],
      "name": "addGaugeType",
      "outputs": [],
      "stateMutability": "nonpayable",
      "type": "function"
    },
    {
      "inputs": [
        {
          "internalType": "string",
          "name": "gaugeType",
          "type": "string"
        }
      ],
      "name": "getFactoryForGaugeType",
      "outputs": [
        {
          "internalType": "contract ILiquidityGaugeFactory",
          "name": "",
          "type": "address"
        }
      ],
      "stateMutability": "view",
      "type": "function"
    },
    {
      "inputs": [],
      "name": "getGaugeController",
      "outputs": [
        {
          "internalType": "contract IGaugeController",
          "name": "",
          "type": "address"
        }
      ],
      "stateMutability": "view",
      "type": "function"
    },
    {
      "inputs": [
        {
          "internalType": "uint256",
          "name": "index",
          "type": "uint256"
        }
      ],
      "name": "getGaugeTypeAtIndex",
      "outputs": [
        {
          "internalType": "string",
          "name": "",
          "type": "string"
        }
      ],
      "stateMutability": "view",
      "type": "function"
    },
    {
      "inputs": [],
      "name": "getGaugeTypes",
      "outputs": [
        {
          "internalType": "string[]",
          "name": "",
          "type": "string[]"
        }
      ],
      "stateMutability": "view",
      "type": "function"
    },
    {
      "inputs": [],
      "name": "getGaugeTypesCount",
      "outputs": [
        {
          "internalType": "uint256",
          "name": "",
          "type": "uint256"
        }
      ],
      "stateMutability": "view",
      "type": "function"
    },
    {
      "inputs": [
        {
          "internalType": "address",
          "name": "gauge",
          "type": "address"
        },
        {
          "internalType": "string",
          "name": "gaugeType",
          "type": "string"
        }
      ],
      "name": "isGaugeFromValidFactory",
      "outputs": [
        {
          "internalType": "bool",
          "name": "",
          "type": "bool"
        }
      ],
      "stateMutability": "view",
      "type": "function"
    },
    {
      "inputs": [
        {
          "internalType": "string",
          "name": "gaugeType",
          "type": "string"
        }
      ],
      "name": "isValidGaugeType",
      "outputs": [
        {
          "internalType": "bool",
          "name": "",
          "type": "bool"
        }
      ],
      "stateMutability": "view",
      "type": "function"
    },
    {
      "inputs": [],
      "name": "owner",
      "outputs": [
        {
          "internalType": "address",
          "name": "",
          "type": "address"
        }
      ],
      "stateMutability": "view",
      "type": "function"
    },
    {
      "inputs": [],
      "name": "pendingOwner",
      "outputs": [
        {
          "internalType": "address",
          "name": "",
          "type": "address"
        }
      ],
      "stateMutability": "view",
      "type": "function"
    },
    {
      "inputs": [],
      "name": "renounceOwnership",
      "outputs": [],
      "stateMutability": "nonpayable",
      "type": "function"
    },
    {
      "inputs": [
        {
          "internalType": "contract ILiquidityGaugeFactory",
          "name": "factory",
          "type": "address"
        },
        {
          "internalType": "string",
          "name": "gaugeType",
          "type": "string"
        }
      ],
      "name": "setGaugeFactory",
      "outputs": [],
      "stateMutability": "nonpayable",
      "type": "function"
    },
    {
      "inputs": [
        {
          "internalType": "address",
          "name": "newOwner",
          "type": "address"
        }
      ],
      "name": "transferOwnership",
      "outputs": [],
      "stateMutability": "nonpayable",
      "type": "function"
    },
    {
      "anonymous": false,
      "inputs": [
        {
          "indexed": true,
          "internalType": "string",
          "name": "indexedGaugeType",
          "type": "string"
        },
        {
          "indexed": false,
          "internalType": "string",
          "name": "gaugeType",
          "type": "string"
        },
        {
          "indexed": false,
          "internalType": "contract ILiquidityGaugeFactory",
          "name": "gaugeFactory",
          "type": "address"
        }
      ],
      "name": "GaugeFactorySet",
      "type": "event"
    },
    {
      "anonymous": false,
      "inputs": [
        {
          "indexed": true,
          "internalType": "string",
          "name": "indexedGaugeType",
          "type": "string"
        },
        {
          "indexed": false,
          "internalType": "string",
          "name": "gaugeType",
          "type": "string"
        }
      ],
      "name": "GaugeTypeAdded",
      "type": "event"
    },
    {
      "anonymous": false,
      "inputs": [
        {
          "indexed": true,
          "internalType": "address",
          "name": "previousOwner",
          "type": "address"
        },
        {
          "indexed": true,
          "internalType": "address",
          "name": "newOwner",
          "type": "address"
        }
      ],
      "name": "OwnershipTransferStarted",
      "type": "event"
    },
    {
      "anonymous": false,
      "inputs": [
        {
          "indexed": true,
          "internalType": "address",
          "name": "previousOwner",
          "type": "address"
        },
        {
          "indexed": true,
          "internalType": "address",
          "name": "newOwner",
          "type": "address"
        }
      ],
      "name": "OwnershipTransferred",
      "type": "event"
    }
  ],
  "bytecode": "0x60a060405234801561000f575f80fd5b506040516110dd3803806110dd83398101604081905261002e916100b8565b6100373361004d565b60016002556001600160a01b03166080526100e5565b600180546001600160a01b031916905561006681610069565b50565b5f80546001600160a01b038381166001600160a01b0319831681178455604051919092169283917f8be0079c531659141344cd1fd0a4f28419497f9722a3daafe3b4186f6b6457e09190a35050565b5f602082840312156100c8575f80fd5b81516001600160a01b03811681146100de575f80fd5b9392505050565b608051610fd96101045f395f818161019501526109c80152610fd95ff3fe608060405234801561000f575f80fd5b50600436106100f0575f3560e01c8063715018a611610093578063a0ade33e11610063578063a0ade33e146101fd578063afcb1a8614610210578063e30c397814610225578063f2fde38b14610236575f80fd5b8063715018a6146101cc57806379ba5097146101d45780638da5cb5b146101dc57806396432aeb146101ec575f80fd5b8063231856fa116100ce578063231856fa14610155578063572cb6a51461016857806358de9ade146101935780635bf71434146101b9575f80fd5b8063066edd7a146100f457806308ceb0301461010957806316e772bc14610132575b5f80fd5b610107610102366004610bdc565b610249565b005b61011c610117366004610c29565b6103d7565b6040516101299190610c8d565b60405180910390f35b610145610140366004610ca6565b610482565b6040519015158152602001610129565b610107610163366004610ca6565b610492565b61017b610176366004610ca6565b6105cc565b6040516001600160a01b039091168152602001610129565b7f000000000000000000000000000000000000000000000000000000000000000061017b565b6101076101c7366004610bdc565b610625565b610107610662565b610107610675565b5f546001600160a01b031661017b565b600354604051908152602001610129565b61014561020b366004610bdc565b6106ef565b610218610728565b6040516101299190610cd8565b6001546001600160a01b031661017b565b610107610244366004610d3a565b6107fc565b61025161086c565b8061025b816108c5565b6102805760405162461bcd60e51b815260040161027790610d55565b60405180910390fd5b6001600160a01b03831615806102f9575060405163ce3cc8bd60e01b81525f60048201526001600160a01b0384169063ce3cc8bd90602401602060405180830381865afa1580156102d3573d5f803e3d5ffd5b505050506040513d601f19601f820116820180604052508101906102f79190610d81565b155b6103455760405162461bcd60e51b815260206004820152601e60248201527f496e76616c696420666163746f727920696d706c656d656e746174696f6e00006044820152606401610277565b826004836040516103569190610da0565b90815260405190819003602001812080546001600160a01b03939093166001600160a01b031990931692909217909155610391908390610da0565b60405180910390207f46b04b7db9f5602bff429ad4ca486bf7ce9ef39d52716794e092c44d68db286783856040516103ca929190610dbb565b60405180910390a2505050565b6060600382815481106103ec576103ec610de4565b905f5260205f200180546103ff90610df8565b80601f016020809104026020016040519081016040528092919081815260200182805461042b90610df8565b80156104765780601f1061044d57610100808354040283529160200191610476565b820191905f5260205f20905b81548152906001019060200180831161045957829003601f168201915b50505050509050919050565b5f61048c826108c5565b92915050565b61049a61086c565b5f8151116104ea5760405162461bcd60e51b815260206004820152601a60248201527f476175676520747970652063616e6e6f7420626520656d7074790000000000006044820152606401610277565b6104f3816108c5565b156105405760405162461bcd60e51b815260206004820152601860248201527f4761756765207479706520616c726561647920616464656400000000000000006044820152606401610277565b600380546001810182555f919091527fc2575a0e9e593c00f959f8c92f12db2869c3395a3b0502d05e2516446f71f85b0161057b8282610e75565b508060405161058a9190610da0565b60405180910390207fb6691d9563ae43400fbc0d74ed71ab5fa74200ebcf1c8a2b5c9a0a67fd649be0826040516105c19190610c8d565b60405180910390a250565b5f816105d7816108c5565b6105f35760405162461bcd60e51b815260040161027790610d55565b6004836040516106039190610da0565b908152604051908190036020019020546001600160a01b031691505b50919050565b61062d61086c565b80610637816108c5565b6106535760405162461bcd60e51b815260040161027790610d55565b61065d838361095e565b505050565b61066a61086c565b6106735f610a23565b565b60015433906001600160a01b031681146106e35760405162461bcd60e51b815260206004820152602960248201527f4f776e61626c6532537465703a2063616c6c6572206973206e6f7420746865206044820152683732bb9037bbb732b960b91b6064820152608401610277565b6106ec81610a23565b50565b5f816106fa816108c5565b6107165760405162461bcd60e51b815260040161027790610d55565b6107208484610a3c565b949350505050565b60606003805480602002602001604051908101604052809291908181526020015f905b828210156107f3578382905f5260205f2001805461076890610df8565b80601f016020809104026020016040519081016040528092919081815260200182805461079490610df8565b80156107df5780601f106107b6576101008083540402835291602001916107df565b820191905f5260205f20905b8154815290600101906020018083116107c257829003601f168201915b50505050508152602001906001019061074b565b50505050905090565b61080461086c565b600180546001600160a01b0383166001600160a01b031990911681179091556108345f546001600160a01b031690565b6001600160a01b03167f38d16b8cac22d99fc7c124b9cd0de2d3fa1faef420bfe791d8c362d765e2270060405160405180910390a350565b5f546001600160a01b031633146106735760405162461bcd60e51b815260206004820181905260248201527f4f776e61626c653a2063616c6c6572206973206e6f7420746865206f776e65726044820152606401610277565b5f80826040516020016108d89190610da0565b6040516020818303038152906040528051906020012090505f5b600354811015610955576003818154811061090f5761090f610de4565b905f5260205f20016040516020016109279190610f31565b60405160208183030381529060405280519060200120820361094d575060019392505050565b6001016108f2565b505f9392505050565b6109688282610a3c565b6109a45760405162461bcd60e51b815260206004820152600d60248201526c496e76616c696420676175676560981b6044820152606401610277565b604051623a04f960e81b81526001600160a01b0383811660048301525f60248301527f00000000000000000000000000000000000000000000000000000000000000001690633a04f900906044015f604051808303815f87803b158015610a09575f80fd5b505af1158015610a1b573d5f803e3d5ffd5b505050505050565b600180546001600160a01b03191690556106ec81610adc565b5f80600483604051610a4e9190610da0565b908152604051908190036020019020546001600160a01b0316905080156109555760405163ce3cc8bd60e01b81526001600160a01b03858116600483015282169063ce3cc8bd90602401602060405180830381865afa158015610ab3573d5f803e3d5ffd5b505050506040513d601f19601f82011682018060405250810190610ad79190610d81565b610720565b5f80546001600160a01b038381166001600160a01b0319831681178455604051919092169283917f8be0079c531659141344cd1fd0a4f28419497f9722a3daafe3b4186f6b6457e09190a35050565b6001600160a01b03811681146106ec575f80fd5b634e487b7160e01b5f52604160045260245ffd5b5f82601f830112610b62575f80fd5b813567ffffffffffffffff80821115610b7d57610b7d610b3f565b604051601f8301601f19908116603f01168101908282118183101715610ba557610ba5610b3f565b81604052838152866020858801011115610bbd575f80fd5b836020870160208301375f602085830101528094505050505092915050565b5f8060408385031215610bed575f80fd5b8235610bf881610b2b565b9150602083013567ffffffffffffffff811115610c13575f80fd5b610c1f85828601610b53565b9150509250929050565b5f60208284031215610c39575f80fd5b5035919050565b5f5b83811015610c5a578181015183820152602001610c42565b50505f910152565b5f8151808452610c79816020860160208601610c40565b601f01601f19169290920160200192915050565b602081525f610c9f6020830184610c62565b9392505050565b5f60208284031215610cb6575f80fd5b813567ffffffffffffffff811115610ccc575f80fd5b61072084828501610b53565b5f60208083016020845280855180835260408601915060408160051b8701019250602087015f5b82811015610d2d57603f19888603018452610d1b858351610c62565b94509285019290850190600101610cff565b5092979650505050505050565b5f60208284031215610d4a575f80fd5b8135610c9f81610b2b565b602080825260129082015271496e76616c6964206761756765207479706560701b604082015260600190565b5f60208284031215610d91575f80fd5b81518015158114610c9f575f80fd5b5f8251610db1818460208701610c40565b9190910192915050565b604081525f610dcd6040830185610c62565b905060018060a01b03831660208301529392505050565b634e487b7160e01b5f52603260045260245ffd5b600181811c90821680610e0c57607f821691505b60208210810361061f57634e487b7160e01b5f52602260045260245ffd5b601f82111561065d57805f5260205f20601f840160051c81016020851015610e4f5750805b601f840160051c820191505b81811015610e6e575f8155600101610e5b565b5050505050565b815167ffffffffffffffff811115610e8f57610e8f610b3f565b610ea381610e9d8454610df8565b84610e2a565b602080601f831160018114610ed6575f8415610ebf5750858301515b5f19600386901b1c1916600185901b178555610a1b565b5f85815260208120601f198616915b82811015610f0457888601518255948401946001909101908401610ee5565b5085821015610f2157878501515f19600388901b60f8161c191681555b5050505050600190811b01905550565b5f808354610f3e81610df8565b60018281168015610f565760018114610f6b57610f97565b60ff1984168752821515830287019450610f97565b875f526020805f205f5b85811015610f8e5781548a820152908401908201610f75565b50505082870194505b5092969550505050505056fea2646970667358221220650a52b121afe08b540dc26d2752ce0d87df312fd0fa669e43dfb6909b2abfa064736f6c63430008180033",
  "language": "Solidity",
  "compiler": "0.8.24+commit.e11b9ed9"
}