{
  "address": "0x0fA3e18658d7e542Cb4969CC045f1F73B8536F10",
  "abi": [
    {
      "inputs": [
        {
          "internalType": "contract ISiloLiquidityGauge",
          "name": "gauge",
          "type": "address"
        }
      ],
      "stateMutability": "nonpayable",
      "type": "constructor"
    },
    {
      "inputs": [],
      "name": "BPS_MAX",
      "outputs": [
        {
          "internalType": "uint256",
          "name": "",
          "type": "uint256"
        }
      ],
      "stateMutability": "view",
      "type": "function"
    },
    {
      "inputs": [],
      "name": "acceptOwnership",
      "outputs": [],
      "stateMutability": "nonpayable",
      "type": "function"
    },
    {
      "inputs": [
        {
          "internalType": "uint256",
          "name": "relativeWeightCap",
          "type": "uint256"
        },
        {
          "internalType": "address",
          "name": "shareToken",
          "type": "address"
        }
      ],
      "name": "create",
      "outputs": [
        {
          "internalType": "address",
          "name": "",
          "type": "address"
        }
      ],
      "stateMutability": "nonpayable",
      "type": "function"
    },
    {
      "inputs": [],
      "name": "daoFee",
      "outputs": [
        {
          "internalType": "uint128",
          "name": "",
          "type": "uint128"
        }
      ],
      "stateMutability": "view",
      "type": "function"
    },
    {
      "inputs": [],
      "name": "deployerFee",
      "outputs": [
        {
          "internalType": "uint128",
          "name": "",
          "type": "uint128"
        }
      ],
      "stateMutability": "view",
      "type": "function"
    },
    {
      "inputs": [],
      "name": "getFees",
      "outputs": [
        {
          "internalType": "uint256",
          "name": "",
          "type": "uint256"
        },
        {
          "internalType": "uint256",
          "name": "",
          "type": "uint256"
        }
      ],
      "stateMutability": "view",
      "type": "function"
    },
    {
      "inputs": [],
      "name": "getGaugeImplementation",
      "outputs": [
        {
          "internalType": "address",
          "name": "",
          "type": "address"
        }
      ],
      "stateMutability": "view",
      "type": "function"
    },
    {
      "inputs": [
        {
          "internalType": "address",
          "name": "gauge",
          "type": "address"
        }
      ],
      "name": "isGaugeFromFactory",
      "outputs": [
        {
          "internalType": "bool",
          "name": "",
          "type": "bool"
        }
      ],
      "stateMutability": "view",
      "type": "function"
    },
    {
      "inputs": [],
      "name": "owner",
      "outputs": [
        {
          "internalType": "address",
          "name": "",
          "type": "address"
        }
      ],
      "stateMutability": "view",
      "type": "function"
    },
    {
      "inputs": [],
      "name": "pendingOwner",
      "outputs": [
        {
          "internalType": "address",
          "name": "",
          "type": "address"
        }
      ],
      "stateMutability": "view",
      "type": "function"
    },
    {
      "inputs": [],
      "name": "renounceOwnership",
      "outputs": [],
      "stateMutability": "nonpayable",
      "type": "function"
    },
    {
      "inputs": [
        {
          "internalType": "uint256",
          "name": "_daoFee",
          "type": "uint256"
        },
        {
          "internalType": "uint256",
          "name": "_deployerFee",
          "type": "uint256"
        }
      ],
      "name": "setFees",
      "outputs": [],
      "stateMutability": "nonpayable",
      "type": "function"
    },
    {
      "inputs": [
        {
          "internalType": "address",
          "name": "newOwner",
          "type": "address"
        }
      ],
      "name": "transferOwnership",
      "outputs": [],
      "stateMutability": "nonpayable",
      "type": "function"
    },
    {
      "anonymous": false,
      "inputs": [
        {
          "indexed": false,
          "internalType": "uint256",
          "name": "daoFee",
          "type": "uint256"
        },
        {
          "indexed": false,
          "internalType": "uint256",
          "name": "deployerFee",
          "type": "uint256"
        }
      ],
      "name": "FeesUpdate",
      "type": "event"
    },
    {
      "anonymous": false,
      "inputs": [
        {
          "indexed": true,
          "internalType": "address",
          "name": "gauge",
          "type": "address"
        }
      ],
      "name": "GaugeCreated",
      "type": "event"
    },
    {
      "anonymous": false,
      "inputs": [
        {
          "indexed": true,
          "internalType": "address",
          "name": "previousOwner",
          "type": "address"
        },
        {
          "indexed": true,
          "internalType": "address",
          "name": "newOwner",
          "type": "address"
        }
      ],
      "name": "OwnershipTransferStarted",
      "type": "event"
    },
    {
      "anonymous": false,
      "inputs": [
        {
          "indexed": true,
          "internalType": "address",
          "name": "previousOwner",
          "type": "address"
        },
        {
          "indexed": true,
          "internalType": "address",
          "name": "newOwner",
          "type": "address"
        }
      ],
      "name": "OwnershipTransferred",
      "type": "event"
    },
    {
      "inputs": [],
      "name": "OverallFee",
      "type": "error"
    }
  ],
  "bytecode": "0x608060405234801561000f575f80fd5b506040516107e33803806107e383398101604081905261002e916100ca565b5f80546001600160a01b0319166001600160a01b0383161790556100576100523390565b61005d565b506100f7565b600380546001600160a01b031916905561007681610079565b50565b600280546001600160a01b038381166001600160a01b0319831681179093556040519116919082907f8be0079c531659141344cd1fd0a4f28419497f9722a3daafe3b4186f6b6457e0905f90a35050565b5f602082840312156100da575f80fd5b81516001600160a01b03811681146100f0575f80fd5b9392505050565b6106df806101045f395ff3fe608060405234801561000f575f80fd5b50600436106100cb575f3560e01c806379ba509711610088578063db8d55f111610063578063db8d55f1146101c5578063e30c3978146101ef578063f01fe69214610200578063f2fde38b14610213575f80fd5b806379ba5097146101715780638da5cb5b14610179578063ce3cc8bd1461018a575f80fd5b80630b78f9c0146100cf5780632957b839146100e457806339312dee146101145780633eb6e84614610138578063457755cb1461014f578063715018a614610169575b5f80fd5b6100e26100dd36600461060a565b610226565b005b6004546100f7906001600160801b031681565b6040516001600160801b0390911681526020015b60405180910390f35b5f546001600160a01b03165b6040516001600160a01b03909116815260200161010b565b610141610bb881565b60405190815260200161010b565b6004546100f790600160801b90046001600160801b031681565b6100e26102be565b6100e26102d1565b6002546001600160a01b0316610120565b6101b5610198366004610640565b6001600160a01b03165f9081526001602052604090205460ff1690565b604051901515815260200161010b565b600454604080516001600160801b038084168252600160801b90930490921660208301520161010b565b6003546001600160a01b0316610120565b61012061020e366004610660565b610350565b6100e2610221366004610640565b6103c5565b61022e610436565b610bb861023b828461068a565b111561025a57604051630658df5360e31b815260040160405180910390fd5b6001600160801b03828116600160801b838316810282811760048190556040805192861690941782529190910490921660208301527f55589a71b7512692e2b494ce9cccfd8df2c98f5321191acb273c05c37e7b53bd910160405180910390a15050565b6102c6610436565b6102cf5f610490565b565b60035433906001600160a01b031681146103445760405162461bcd60e51b815260206004820152602960248201527f4f776e61626c6532537465703a2063616c6c6572206973206e6f7420746865206044820152683732bb9037bbb732b960b91b60648201526084015b60405180910390fd5b61034d81610490565b50565b5f8061035a6104a9565b60405163da35a26f60e01b8152600481018690526001600160a01b0385811660248301529192509082169063da35a26f906044015f604051808303815f87803b1580156103a5575f80fd5b505af11580156103b7573d5f803e3d5ffd5b509293505050505b92915050565b6103cd610436565b600380546001600160a01b0383166001600160a01b031990911681179091556103fe6002546001600160a01b031690565b6001600160a01b03167f38d16b8cac22d99fc7c124b9cd0de2d3fa1faef420bfe791d8c362d765e2270060405160405180910390a350565b6002546001600160a01b031633146102cf5760405162461bcd60e51b815260206004820181905260248201527f4f776e61626c653a2063616c6c6572206973206e6f7420746865206f776e6572604482015260640161033b565b600380546001600160a01b031916905561034d81610508565b5f806104b3610559565b6001600160a01b0381165f818152600160208190526040808320805460ff19169092179091555192935090917faa98436d09d130af48de49867af8b723bbbebb0d737638b5fe8f1bf31bbb71c09190a2919050565b600280546001600160a01b038381166001600160a01b0319831681179093556040519116919082907f8be0079c531659141344cd1fd0a4f28419497f9722a3daafe3b4186f6b6457e0905f90a35050565b5f805461056e906001600160a01b0316610573565b905090565b5f763d602d80600a3d3981f3363d3d373d3d3d363d730000008260601b60e81c175f526e5af43d82803e903d91602b57fd5bf38260781b17602052603760095ff090506001600160a01b0381166106055760405162461bcd60e51b8152602060048201526016602482015275115490cc4c4d8dce8818dc99585d194819985a5b195960521b604482015260640161033b565b919050565b5f806040838503121561061b575f80fd5b50508035926020909101359150565b80356001600160a01b0381168114610605575f80fd5b5f60208284031215610650575f80fd5b6106598261062a565b9392505050565b5f8060408385031215610671575f80fd5b823591506106816020840161062a565b90509250929050565b808201808211156103bf57634e487b7160e01b5f52601160045260245ffdfea26469706673582212206093c193c6819428352452db151a113ad90ead2de826e339c3b80c697f45ec9f64736f6c63430008180033",
  "language": "Solidity",
  "compiler": "0.8.24+commit.e11b9ed9"
}