{
  "address": "0xe1a597cBE6107300263c6C07EE6DC98D895cE3F8",
  "abi": [
    {
      "inputs": [
        {
          "internalType": "contract IBalancerTokenAdmin",
          "name": "tokenAdmin",
          "type": "address"
        },
        {
          "internalType": "contract IGaugeController",
          "name": "gaugeController",
          "type": "address"
        }
      ],
      "stateMutability": "nonpayable",
      "type": "constructor"
    },
    {
      "inputs": [],
      "name": "BPS_MAX",
      "outputs": [
        {
          "internalType": "uint256",
          "name": "",
          "type": "uint256"
        }
      ],
      "stateMutability": "view",
      "type": "function"
    },
    {
      "inputs": [],
      "name": "acceptOwnership",
      "outputs": [],
      "stateMutability": "nonpayable",
      "type": "function"
    },
    {
      "inputs": [
        {
          "internalType": "address",
          "name": "minter",
          "type": "address"
        },
        {
          "internalType": "address",
          "name": "user",
          "type": "address"
        }
      ],
      "name": "allowed_to_mint_for",
      "outputs": [
        {
          "internalType": "bool",
          "name": "",
          "type": "bool"
        }
      ],
      "stateMutability": "view",
      "type": "function"
    },
    {
      "inputs": [],
      "name": "daoFee",
      "outputs": [
        {
          "internalType": "uint128",
          "name": "",
          "type": "uint128"
        }
      ],
      "stateMutability": "view",
      "type": "function"
    },
    {
      "inputs": [],
      "name": "deployerFee",
      "outputs": [
        {
          "internalType": "uint128",
          "name": "",
          "type": "uint128"
        }
      ],
      "stateMutability": "view",
      "type": "function"
    },
    {
      "inputs": [],
      "name": "eip712Domain",
      "outputs": [
        {
          "internalType": "bytes1",
          "name": "fields",
          "type": "bytes1"
        },
        {
          "internalType": "string",
          "name": "name",
          "type": "string"
        },
        {
          "internalType": "string",
          "name": "version",
          "type": "string"
        },
        {
          "internalType": "uint256",
          "name": "chainId",
          "type": "uint256"
        },
        {
          "internalType": "address",
          "name": "verifyingContract",
          "type": "address"
        },
        {
          "internalType": "bytes32",
          "name": "salt",
          "type": "bytes32"
        },
        {
          "internalType": "uint256[]",
          "name": "extensions",
          "type": "uint256[]"
        }
      ],
      "stateMutability": "view",
      "type": "function"
    },
    {
      "inputs": [],
      "name": "getBalancerToken",
      "outputs": [
        {
          "internalType": "contract IERC20",
          "name": "",
          "type": "address"
        }
      ],
      "stateMutability": "view",
      "type": "function"
    },
    {
      "inputs": [],
      "name": "getBalancerTokenAdmin",
      "outputs": [
        {
          "internalType": "contract IBalancerTokenAdmin",
          "name": "",
          "type": "address"
        }
      ],
      "stateMutability": "view",
      "type": "function"
    },
    {
      "inputs": [],
      "name": "getDomainSeparator",
      "outputs": [
        {
          "internalType": "bytes32",
          "name": "",
          "type": "bytes32"
        }
      ],
      "stateMutability": "view",
      "type": "function"
    },
    {
      "inputs": [],
      "name": "getFees",
      "outputs": [
        {
          "internalType": "uint256",
          "name": "",
          "type": "uint256"
        },
        {
          "internalType": "uint256",
          "name": "",
          "type": "uint256"
        }
      ],
      "stateMutability": "view",
      "type": "function"
    },
    {
      "inputs": [],
      "name": "getGaugeController",
      "outputs": [
        {
          "internalType": "contract IGaugeController",
          "name": "",
          "type": "address"
        }
      ],
      "stateMutability": "view",
      "type": "function"
    },
    {
      "inputs": [
        {
          "internalType": "address",
          "name": "minter",
          "type": "address"
        },
        {
          "internalType": "address",
          "name": "user",
          "type": "address"
        }
      ],
      "name": "getMinterApproval",
      "outputs": [
        {
          "internalType": "bool",
          "name": "",
          "type": "bool"
        }
      ],
      "stateMutability": "view",
      "type": "function"
    },
    {
      "inputs": [
        {
          "internalType": "address",
          "name": "account",
          "type": "address"
        }
      ],
      "name": "getNextNonce",
      "outputs": [
        {
          "internalType": "uint256",
          "name": "",
          "type": "uint256"
        }
      ],
      "stateMutability": "view",
      "type": "function"
    },
    {
      "inputs": [
        {
          "internalType": "address",
          "name": "gauge",
          "type": "address"
        }
      ],
      "name": "mint",
      "outputs": [
        {
          "internalType": "uint256",
          "name": "",
          "type": "uint256"
        }
      ],
      "stateMutability": "nonpayable",
      "type": "function"
    },
    {
      "inputs": [
        {
          "internalType": "address",
          "name": "gauge",
          "type": "address"
        },
        {
          "internalType": "address",
          "name": "user",
          "type": "address"
        }
      ],
      "name": "mintFor",
      "outputs": [
        {
          "internalType": "uint256",
          "name": "",
          "type": "uint256"
        }
      ],
      "stateMutability": "nonpayable",
      "type": "function"
    },
    {
      "inputs": [
        {
          "internalType": "address[]",
          "name": "gauges",
          "type": "address[]"
        }
      ],
      "name": "mintMany",
      "outputs": [
        {
          "internalType": "uint256",
          "name": "",
          "type": "uint256"
        }
      ],
      "stateMutability": "nonpayable",
      "type": "function"
    },
    {
      "inputs": [
        {
          "internalType": "address[]",
          "name": "gauges",
          "type": "address[]"
        },
        {
          "internalType": "address",
          "name": "user",
          "type": "address"
        }
      ],
      "name": "mintManyFor",
      "outputs": [
        {
          "internalType": "uint256",
          "name": "",
          "type": "uint256"
        }
      ],
      "stateMutability": "nonpayable",
      "type": "function"
    },
    {
      "inputs": [
        {
          "internalType": "address",
          "name": "gauge",
          "type": "address"
        },
        {
          "internalType": "address",
          "name": "user",
          "type": "address"
        }
      ],
      "name": "mint_for",
      "outputs": [],
      "stateMutability": "nonpayable",
      "type": "function"
    },
    {
      "inputs": [
        {
          "internalType": "address[8]",
          "name": "gauges",
          "type": "address[8]"
        }
      ],
      "name": "mint_many",
      "outputs": [],
      "stateMutability": "nonpayable",
      "type": "function"
    },
    {
      "inputs": [
        {
          "internalType": "address",
          "name": "user",
          "type": "address"
        },
        {
          "internalType": "address",
          "name": "gauge",
          "type": "address"
        }
      ],
      "name": "minted",
      "outputs": [
        {
          "internalType": "uint256",
          "name": "",
          "type": "uint256"
        }
      ],
      "stateMutability": "view",
      "type": "function"
    },
    {
      "inputs": [
        {
          "internalType": "address",
          "name": "user",
          "type": "address"
        },
        {
          "internalType": "address",
          "name": "gauge",
          "type": "address"
        }
      ],
      "name": "mintedToUser",
      "outputs": [
        {
          "internalType": "uint256",
          "name": "",
          "type": "uint256"
        }
      ],
      "stateMutability": "view",
      "type": "function"
    },
    {
      "inputs": [],
      "name": "owner",
      "outputs": [
        {
          "internalType": "address",
          "name": "",
          "type": "address"
        }
      ],
      "stateMutability": "view",
      "type": "function"
    },
    {
      "inputs": [],
      "name": "pendingOwner",
      "outputs": [
        {
          "internalType": "address",
          "name": "",
          "type": "address"
        }
      ],
      "stateMutability": "view",
      "type": "function"
    },
    {
      "inputs": [],
      "name": "renounceOwnership",
      "outputs": [],
      "stateMutability": "nonpayable",
      "type": "function"
    },
    {
      "inputs": [
        {
          "internalType": "uint256",
          "name": "_daoFee",
          "type": "uint256"
        },
        {
          "internalType": "uint256",
          "name": "_deployerFee",
          "type": "uint256"
        }
      ],
      "name": "setFees",
      "outputs": [],
      "stateMutability": "nonpayable",
      "type": "function"
    },
    {
      "inputs": [
        {
          "internalType": "address",
          "name": "minter",
          "type": "address"
        },
        {
          "internalType": "bool",
          "name": "approval",
          "type": "bool"
        }
      ],
      "name": "setMinterApproval",
      "outputs": [],
      "stateMutability": "nonpayable",
      "type": "function"
    },
    {
      "inputs": [
        {
          "internalType": "address",
          "name": "minter",
          "type": "address"
        },
        {
          "internalType": "bool",
          "name": "approval",
          "type": "bool"
        },
        {
          "internalType": "address",
          "name": "user",
          "type": "address"
        },
        {
          "internalType": "uint256",
          "name": "deadline",
          "type": "uint256"
        },
        {
          "internalType": "uint8",
          "name": "v",
          "type": "uint8"
        },
        {
          "internalType": "bytes32",
          "name": "r",
          "type": "bytes32"
        },
        {
          "internalType": "bytes32",
          "name": "s",
          "type": "bytes32"
        }
      ],
      "name": "setMinterApprovalWithSignature",
      "outputs": [],
      "stateMutability": "nonpayable",
      "type": "function"
    },
    {
      "inputs": [
        {
          "internalType": "address",
          "name": "minter",
          "type": "address"
        }
      ],
      "name": "toggle_approve_mint",
      "outputs": [],
      "stateMutability": "nonpayable",
      "type": "function"
    },
    {
      "inputs": [
        {
          "internalType": "address",
          "name": "newOwner",
          "type": "address"
        }
      ],
      "name": "transferOwnership",
      "outputs": [],
      "stateMutability": "nonpayable",
      "type": "function"
    },
    {
      "anonymous": false,
      "inputs": [],
      "name": "EIP712DomainChanged",
      "type": "event"
    },
    {
      "anonymous": false,
      "inputs": [
        {
          "indexed": true,
          "internalType": "address",
          "name": "gauge",
          "type": "address"
        },
        {
          "indexed": true,
          "internalType": "address",
          "name": "daoReceiver",
          "type": "address"
        },
        {
          "indexed": true,
          "internalType": "address",
          "name": "deployerReceiver",
          "type": "address"
        },
        {
          "indexed": false,
          "internalType": "uint256",
          "name": "mintedToDao",
          "type": "uint256"
        },
        {
          "indexed": false,
          "internalType": "uint256",
          "name": "mintedToDeployer",
          "type": "uint256"
        }
      ],
      "name": "FeeCollected",
      "type": "event"
    },
    {
      "anonymous": false,
      "inputs": [
        {
          "indexed": false,
          "internalType": "uint256",
          "name": "daoFee",
          "type": "uint256"
        },
        {
          "indexed": false,
          "internalType": "uint256",
          "name": "deployerFee",
          "type": "uint256"
        }
      ],
      "name": "FeesUpdate",
      "type": "event"
    },
    {
      "anonymous": false,
      "inputs": [
        {
          "indexed": true,
          "internalType": "address",
          "name": "recipient",
          "type": "address"
        },
        {
          "indexed": false,
          "internalType": "address",
          "name": "gauge",
          "type": "address"
        },
        {
          "indexed": false,
          "internalType": "uint256",
          "name": "minted",
          "type": "uint256"
        }
      ],
      "name": "Minted",
      "type": "event"
    },
    {
      "anonymous": false,
      "inputs": [
        {
          "indexed": true,
          "internalType": "address",
          "name": "recipient",
          "type": "address"
        },
        {
          "indexed": false,
          "internalType": "address",
          "name": "gauge",
          "type": "address"
        },
        {
          "indexed": false,
          "internalType": "uint256",
          "name": "minted",
          "type": "uint256"
        }
      ],
      "name": "MintedToUser",
      "type": "event"
    },
    {
      "anonymous": false,
      "inputs": [
        {
          "indexed": true,
          "internalType": "address",
          "name": "user",
          "type": "address"
        },
        {
          "indexed": true,
          "internalType": "address",
          "name": "minter",
          "type": "address"
        },
        {
          "indexed": false,
          "internalType": "bool",
          "name": "approval",
          "type": "bool"
        }
      ],
      "name": "MinterApprovalSet",
      "type": "event"
    },
    {
      "anonymous": false,
      "inputs": [
        {
          "indexed": true,
          "internalType": "address",
          "name": "previousOwner",
          "type": "address"
        },
        {
          "indexed": true,
          "internalType": "address",
          "name": "newOwner",
          "type": "address"
        }
      ],
      "name": "OwnershipTransferStarted",
      "type": "event"
    },
    {
      "anonymous": false,
      "inputs": [
        {
          "indexed": true,
          "internalType": "address",
          "name": "previousOwner",
          "type": "address"
        },
        {
          "indexed": true,
          "internalType": "address",
          "name": "newOwner",
          "type": "address"
        }
      ],
      "name": "OwnershipTransferred",
      "type": "event"
    },
    {
      "inputs": [],
      "name": "InvalidShortString",
      "type": "error"
    },
    {
      "inputs": [],
      "name": "OverallFee",
      "type": "error"
    },
    {
      "inputs": [
        {
          "internalType": "string",
          "name": "str",
          "type": "string"
        }
      ],
      "name": "StringTooLong",
      "type": "error"
    }
  ],
  "bytecode": "0x6101c060405234801562000011575f80fd5b5060405162001fba38038062001fba8339810160408190526200003491620002d0565b816001600160a01b031663c00396996040518163ffffffff1660e01b8152600401602060405180830381865afa15801562000071573d5f803e3d5ffd5b505050506040513d601f19601f820116820180604052508101906200009791906200030d565b6040518060400160405280600b81526020016a29b4b6379026b4b73a32b960a91b815250604051806040016040528060018152602001603160f81b815250818160015f81905550620000f4600183620001c960201b90919060201c565b6101205262000105816002620001c9565b61014052815160208084019190912060e052815190820120610100524660a0526200019260e05161010051604080517f8b73c3c69bb8fe3d512ecc4cf759cc79239f7b179b0ffacaa9a75d522b39400f60208201529081019290925260608201524660808201523060a08201525f9060c00160405160208183030381529060405280519060200120905090565b60805250503060c052620001a63362000201565b50506001600160a01b039081166101605291821661018052166101a0526200050e565b5f602083511015620001e857620001e0836200021f565b9050620001fb565b81620001f58482620003d0565b5060ff90505b92915050565b600580546001600160a01b03191690556200021c816200026a565b50565b5f80829050601f8151111562000255578260405163305a27a960e01b81526004016200024c91906200049c565b60405180910390fd5b80516200026282620004ea565b179392505050565b600480546001600160a01b038381166001600160a01b0319831681179093556040519116919082907f8be0079c531659141344cd1fd0a4f28419497f9722a3daafe3b4186f6b6457e0905f90a35050565b6001600160a01b03811681146200021c575f80fd5b5f8060408385031215620002e2575f80fd5b8251620002ef81620002bb565b60208401519092506200030281620002bb565b809150509250929050565b5f602082840312156200031e575f80fd5b81516200032b81620002bb565b9392505050565b634e487b7160e01b5f52604160045260245ffd5b600181811c908216806200035b57607f821691505b6020821081036200037a57634e487b7160e01b5f52602260045260245ffd5b50919050565b601f821115620003cb57805f5260205f20601f840160051c81016020851015620003a75750805b601f840160051c820191505b81811015620003c8575f8155600101620003b3565b50505b505050565b81516001600160401b03811115620003ec57620003ec62000332565b6200040481620003fd845462000346565b8462000380565b602080601f8311600181146200043a575f8415620004225750858301515b5f19600386901b1c1916600185901b17855562000494565b5f85815260208120601f198616915b828110156200046a5788860151825594840194600190910190840162000449565b50858210156200048857878501515f19600388901b60f8161c191681555b505060018460011b0185555b505050505050565b5f602080835283518060208501525f5b81811015620004ca57858101830151858201604001528201620004ac565b505f604082860101526040601f19601f8301168501019250505092915050565b805160208083015191908110156200037a575f1960209190910360031b1b16919050565b60805160a05160c05160e05161010051610120516101405161016051610180516101a051611a2e6200058c5f395f81816102d90152610e3701525f81816104a7015261107a01525f6103e801525f6107a801525f61077d01525f610dc401525f610d9c01525f610cf701525f610d2101525f610d4b0152611a2e5ff3fe608060405234801561000f575f80fd5b50600436106101c6575f3560e01c806384b0196e116100fe578063c65427941161009e578063e30c39781161006e578063e30c397814610494578063e6dec36f146104a5578063ed24911d146104cb578063f2fde38b146104d3575f80fd5b8063c65427941461040c578063d4adab401461041f578063db8d55f114610457578063dd289d6014610481575f80fd5b806390193b7c116100d957806390193b7c146103ab578063a099003314610269578063a51e1904146103d3578063c0039699146103e6575f80fd5b806384b0196e146103475780638b752bb0146103625780638da5cb5b1461039a575f80fd5b80633eb6e846116101695780636a627842116101445780636a62784214610311578063715018a6146103245780637504a15d1461032c57806379ba50971461033f575f80fd5b80633eb6e846146102b4578063457755cb146102bd57806358de9ade146102d7575f80fd5b80632957b839116101a45780632957b83914610205578063397ada21146102355780633b9f7384146102565780633c543bc614610269575f80fd5b80630b78f9c0146101ca5780630de54ba0146101df57806327f18ae3146101f2575b5f80fd5b6101dd6101d8366004611584565b6104e6565b005b6101dd6101ed3660046115c5565b61057e565b6101dd6102003660046115fc565b61058d565b600654610218906001600160801b031681565b6040516001600160801b0390911681526020015b60405180910390f35b610248610243366004611670565b6105d5565b60405190815260200161022c565b6102486102643660046116af565b6105fa565b6102a46102773660046115fc565b6001600160a01b039182165f90815260096020908152604080832093909416825291909152205460ff1690565b604051901515815260200161022c565b610248610bb881565b60065461021890600160801b90046001600160801b031681565b7f00000000000000000000000000000000000000000000000000000000000000005b6040516001600160a01b03909116815260200161022c565b61024861031f366004611702565b61066b565b6101dd61068e565b61024861033a3660046115fc565b6106a1565b6101dd6106f6565b61034f610770565b60405161022c9796959493929190611760565b6102486103703660046115fc565b6001600160a01b039182165f90815260076020908152604080832093909416825291909152205490565b6004546001600160a01b03166102f9565b6102486103b9366004611702565b6001600160a01b03165f9081526003602052604090205490565b6101dd6103e13660046117f7565b6107f7565b7f00000000000000000000000000000000000000000000000000000000000000006102f9565b6101dd61041a36600461181f565b61087f565b61024861042d3660046115fc565b6001600160a01b039182165f90815260086020908152604080832093909416825291909152205490565b600654604080516001600160801b038084168252600160801b90930490921660208301520161022c565b6101dd61048f366004611702565b61093b565b6005546001600160a01b03166102f9565b7f00000000000000000000000000000000000000000000000000000000000000006102f9565b61024861096d565b6101dd6104e1366004611702565b61097b565b6104ee6109ec565b610bb86104fb82846118ad565b111561051a57604051630658df5360e31b815260040160405180910390fd5b6001600160801b03828116600160801b838316810282811760068190556040805192861690941782529190910490921660208301527f55589a71b7512692e2b494ce9cccfd8df2c98f5321191acb273c05c37e7b53bd910160405180910390a15050565b610589823383610a46565b5050565b610595610ab5565b335f9081526009602090815260408083206001600160a01b038516845290915290205460ff16156105cc576105ca8282610b0c565b505b61058960015f55565b5f6105de610ab5565b6105e9838333610b23565b90506105f460015f55565b92915050565b5f610603610ab5565b335f9081526009602090815260408083206001600160a01b038616845290915290205460ff1661064e5760405162461bcd60e51b8152600401610645906118c0565b60405180910390fd5b610659848484610b23565b905061066460015f55565b9392505050565b5f610674610ab5565b61067e8233610b0c565b905061068960015f55565b919050565b6106966109ec565b61069f5f610b86565b565b5f6106aa610ab5565b335f9081526009602090815260408083206001600160a01b038616845290915290205460ff166106ec5760405162461bcd60e51b8152600401610645906118c0565b6105e98383610b0c565b60055433906001600160a01b031681146107645760405162461bcd60e51b815260206004820152602960248201527f4f776e61626c6532537465703a2063616c6c6572206973206e6f7420746865206044820152683732bb9037bbb732b960b91b6064820152608401610645565b61076d81610b86565b50565b5f606080828080836107a37f00000000000000000000000000000000000000000000000000000000000000006001610b9f565b6107ce7f00000000000000000000000000000000000000000000000000000000000000006002610b9f565b604080515f80825260208201909252600f60f81b9b939a50919850469750309650945092509050565b6107ff610ab5565b5f5b6008811015610875575f82826008811061081d5761081d611903565b6020020160208101906108309190611702565b6001600160a01b0316146108755761086c82826008811061085357610853611903565b6020020160208101906108669190611702565b33610b0c565b50600101610801565b5061076d60015f55565b5f7fc87351a089bbdc3b2b9299d2ce29f08fd982826b275b3642939a2f7fdd81538088886108c1896001600160a01b03165f9081526003602052604090205490565b6040805160208101959095526001600160a01b039093169284019290925215156060830152608082015260a0810186905260c001604051602081830303815290604052805190602001209050610926868261091d878787610c48565b886101f8610c87565b610931888789610a46565b5050505050505050565b6001600160a01b0381165f90815260096020908152604080832033845290915290205461076d90829060ff161561057e565b5f610976610ceb565b905090565b6109836109ec565b600580546001600160a01b0383166001600160a01b031990911681179091556109b46004546001600160a01b031690565b6001600160a01b03167f38d16b8cac22d99fc7c124b9cd0de2d3fa1faef420bfe791d8c362d765e2270060405160405180910390a350565b6004546001600160a01b0316331461069f5760405162461bcd60e51b815260206004820181905260248201527f4f776e61626c653a2063616c6c6572206973206e6f7420746865206f776e65726044820152606401610645565b6001600160a01b038381165f81815260096020908152604080832094871680845294825291829020805460ff191686151590811790915591519182529192917fa3ffb51320bbca4e61e7423e3c97dd7bd7e31b6ea7429eb26ef92780e84572a0910160405180910390a3505050565b60025f5403610b065760405162461bcd60e51b815260206004820152601f60248201527f5265656e7472616e637947756172643a207265656e7472616e742063616c6c006044820152606401610645565b60025f55565b5f610b178383610e14565b90506105f4828261104e565b5f82815b81811015610b7357610b69610b62878784818110610b4757610b47611903565b9050602002016020810190610b5c9190611702565b86610e14565b84906110d5565b9250600101610b27565b50610b7e838361104e565b509392505050565b600580546001600160a01b031916905561076d816110e0565b606060ff8314610bb957610bb283611131565b90506105f4565b818054610bc590611917565b80601f0160208091040260200160405190810160405280929190818152602001828054610bf190611917565b8015610c3c5780601f10610c1357610100808354040283529160200191610c3c565b820191905f5260205f20905b815481529060010190602001808311610c1f57829003601f168201915b505050505090506105f4565b604080516041808252608082019092526060915f9190602082018180368337019050509050836020820152826040820152846060820153949350505050565b5f610c918561116e565b9050610ca7610ca187838761119a565b8361124e565b610cb6428410156101b861124e565b6001600160a01b0386165f908152600360205260408120805460019290610cde9084906118ad565b9091555050505050505050565b5f306001600160a01b037f000000000000000000000000000000000000000000000000000000000000000016148015610d4357507f000000000000000000000000000000000000000000000000000000000000000046145b15610d6d57507f000000000000000000000000000000000000000000000000000000000000000090565b610976604080517f8b73c3c69bb8fe3d512ecc4cf759cc79239f7b179b0ffacaa9a75d522b39400f60208201527f0000000000000000000000000000000000000000000000000000000000000000918101919091527f000000000000000000000000000000000000000000000000000000000000000060608201524660808201523060a08201525f9060c00160405160208183030381529060405280519060200120905090565b604051633f9095b760e01b81526001600160a01b0383811660048301525f9182917f00000000000000000000000000000000000000000000000000000000000000001690633f9095b790602401602060405180830381865afa158015610e7c573d5f803e3d5ffd5b505050506040513d601f19601f82011682018060405250810190610ea0919061194f565b600f0b1215610efc5760405162461bcd60e51b815260206004820152602260248201527f476175676520646f6573206e6f74206578697374206f6e20436f6e74726f6c6c60448201526132b960f11b6064820152608401610645565b604051634b82009360e01b81526001600160a01b038381166004830152841690634b820093906024016020604051808303815f875af1158015610f41573d5f803e3d5ffd5b505050506040513d601f19601f82011682018060405250810190610f65919061196f565b50604051630940070760e01b81526001600160a01b0383811660048301525f9190851690630940070790602401602060405180830381865afa158015610fad573d5f803e3d5ffd5b505050506040513d601f19601f82011682018060405250810190610fd1919061198a565b6001600160a01b038085165f9081526007602090815260408083209389168352929052205490915061100490829061125c565b9150811561104757611017838583611267565b826001600160a01b0316846001600160a01b0316146110475761103a84836112ce565b9150611047838584611413565b5092915050565b8015610589576040516340c10f1960e01b81526001600160a01b038381166004830152602482018390527f000000000000000000000000000000000000000000000000000000000000000016906340c10f19906044015f604051808303815f87803b1580156110bb575f80fd5b505af11580156110cd573d5f803e3d5ffd5b505050505050565b5f61066482846118ad565b600480546001600160a01b038381166001600160a01b0319831681179093556040519116919082907f8be0079c531659141344cd1fd0a4f28419497f9722a3daafe3b4186f6b6457e0905f90a35050565b60605f61113d836114af565b6040805160208082528183019092529192505f91906020820181803683375050509182525060208101929092525090565b5f6105f461117a610ceb565b8360405161190160f01b8152600281019290925260228201526042902090565b5f6111ab82516041146101b961124e565b60208281015160408085015160608087015183515f8082529681018086528a905290861a938101849052908101849052608081018290529293909260019060a0016020604051602081039080840390855afa15801561120c573d5f803e3d5ffd5b5050604051601f1901519150506001600160a01b038116158015906112425750876001600160a01b0316816001600160a01b0316145b98975050505050505050565b8161058957610589816114d6565b5f61066482846119a1565b6001600160a01b038381165f818152600760209081526040808320948716808452948252918290208590558151938452830184905290917f9d228d69b5fdb8d273a2336f8fb8612d039631024ea9bf09c424a9503aa078f0910160405180910390a2505050565b5f815f036112dd57505f6105f4565b5f80846001600160a01b031663bccfafd16040518163ffffffff1660e01b81526004016040805180830381865afa15801561131a573d5f803e3d5ffd5b505050506040513d601f19601f8201168201806040525081019061133e91906119b4565b60065491935091505f9061135e90849087906001600160801b03166114e6565b90505f61138a8387600660109054906101000a90046001600160801b03166001600160801b03166114e6565b86955090508115158061139c57508015155b156114095780820185039450826001600160a01b0316846001600160a01b0316886001600160a01b03167ff51d4f85b9c67a6999073394e680d7eaba2ae56553370c00088941bf662f6b528585604051611400929190918252602082015260400190565b60405180910390a45b5050505092915050565b6001600160a01b038084165f9081526008602090815260408083209386168352929052908120546114459083906118ad565b6001600160a01b038581165f8181526008602090815260408083209489168084529482529182902085905581519384528301849052929350917f1d3c306136bd426714f135bc4ac6c18f7e52d80d7d07e4cab37de75e47474481910160405180910390a250505050565b5f60ff8216601f8111156105f457604051632cd44ac360e21b815260040160405180910390fd5b61076d816210905360ea1b611522565b5f8115806114fb57506001600160a01b038416155b1561150757505f610664565b61151182846119e1565b61271090049050610664848261104e565b62461bcd60e51b5f90815260206004526007602452600a808404818106603090810160081b958390069590950190829004918206850160101b01602363ffffff0060e086901c160160181b0190930160c81b604481905260e883901c91606490fd5b5f8060408385031215611595575f80fd5b50508035926020909101359150565b6001600160a01b038116811461076d575f80fd5b801515811461076d575f80fd5b5f80604083850312156115d6575f80fd5b82356115e1816115a4565b915060208301356115f1816115b8565b809150509250929050565b5f806040838503121561160d575f80fd5b8235611618816115a4565b915060208301356115f1816115a4565b5f8083601f840112611638575f80fd5b50813567ffffffffffffffff81111561164f575f80fd5b6020830191508360208260051b8501011115611669575f80fd5b9250929050565b5f8060208385031215611681575f80fd5b823567ffffffffffffffff811115611697575f80fd5b6116a385828601611628565b90969095509350505050565b5f805f604084860312156116c1575f80fd5b833567ffffffffffffffff8111156116d7575f80fd5b6116e386828701611628565b90945092505060208401356116f7816115a4565b809150509250925092565b5f60208284031215611712575f80fd5b8135610664816115a4565b5f81518084525f5b8181101561174157602081850181015186830182015201611725565b505f602082860101526020601f19601f83011685010191505092915050565b60ff60f81b881681525f602060e0602084015261178060e084018a61171d565b8381036040850152611792818a61171d565b606085018990526001600160a01b038816608086015260a0850187905284810360c0860152855180825260208088019350909101905f5b818110156117e5578351835292840192918401916001016117c9565b50909c9b505050505050505050505050565b5f610100808385031215611809575f80fd5b838184011115611817575f80fd5b509092915050565b5f805f805f805f60e0888a031215611835575f80fd5b8735611840816115a4565b96506020880135611850816115b8565b95506040880135611860816115a4565b945060608801359350608088013560ff8116811461187c575f80fd5b9699959850939692959460a0840135945060c09093013592915050565b634e487b7160e01b5f52601160045260245ffd5b808201808211156105f4576105f4611899565b60208082526023908201527f43616c6c6572206e6f7420616c6c6f77656420746f206d696e7420666f72207560408201526239b2b960e91b606082015260800190565b634e487b7160e01b5f52603260045260245ffd5b600181811c9082168061192b57607f821691505b60208210810361194957634e487b7160e01b5f52602260045260245ffd5b50919050565b5f6020828403121561195f575f80fd5b815180600f0b8114610664575f80fd5b5f6020828403121561197f575f80fd5b8151610664816115b8565b5f6020828403121561199a575f80fd5b5051919050565b818103818111156105f4576105f4611899565b5f80604083850312156119c5575f80fd5b82516119d0816115a4565b60208401519092506115f1816115a4565b80820281158282048414176105f4576105f461189956fea2646970667358221220c15a62f47544aaf4de30c7af51d71575393e531915d3c9c6ad69d5c63613ed9b64736f6c63430008180033",
  "language": "Solidity",
  "compiler": "0.8.24+commit.e11b9ed9"
}