{
  "address": "0x8FfC46A1b7a3b12F4A11Db8877d302876DCA7Ab1",
  "abi": [
    {
      "inputs": [],
      "stateMutability": "nonpayable",
      "type": "constructor"
    },
    {
      "inputs": [],
      "name": "DOMAIN_SEPARATOR",
      "outputs": [
        {
          "internalType": "bytes32",
          "name": "",
          "type": "bytes32"
        }
      ],
      "stateMutability": "view",
      "type": "function"
    },
    {
      "inputs": [
        {
          "internalType": "address",
          "name": "owner",
          "type": "address"
        },
        {
          "internalType": "address",
          "name": "spender",
          "type": "address"
        }
      ],
      "name": "allowance",
      "outputs": [
        {
          "internalType": "uint256",
          "name": "",
          "type": "uint256"
        }
      ],
      "stateMutability": "view",
      "type": "function"
    },
    {
      "inputs": [
        {
          "internalType": "address",
          "name": "spender",
          "type": "address"
        },
        {
          "internalType": "uint256",
          "name": "value",
          "type": "uint256"
        }
      ],
      "name": "approve",
      "outputs": [
        {
          "internalType": "bool",
          "name": "",
          "type": "bool"
        }
      ],
      "stateMutability": "nonpayable",
      "type": "function"
    },
    {
      "inputs": [
        {
          "internalType": "address",
          "name": "account",
          "type": "address"
        }
      ],
      "name": "balanceOf",
      "outputs": [
        {
          "internalType": "uint256",
          "name": "",
          "type": "uint256"
        }
      ],
      "stateMutability": "view",
      "type": "function"
    },
    {
      "inputs": [
        {
          "internalType": "uint256",
          "name": "_amount",
          "type": "uint256"
        }
      ],
      "name": "burn",
      "outputs": [],
      "stateMutability": "nonpayable",
      "type": "function"
    },
    {
      "inputs": [],
      "name": "decimals",
      "outputs": [
        {
          "internalType": "uint8",
          "name": "",
          "type": "uint8"
        }
      ],
      "stateMutability": "view",
      "type": "function"
    },
    {
      "inputs": [],
      "name": "eip712Domain",
      "outputs": [
        {
          "internalType": "bytes1",
          "name": "fields",
          "type": "bytes1"
        },
        {
          "internalType": "string",
          "name": "name",
          "type": "string"
        },
        {
          "internalType": "string",
          "name": "version",
          "type": "string"
        },
        {
          "internalType": "uint256",
          "name": "chainId",
          "type": "uint256"
        },
        {
          "internalType": "address",
          "name": "verifyingContract",
          "type": "address"
        },
        {
          "internalType": "bytes32",
          "name": "salt",
          "type": "bytes32"
        },
        {
          "internalType": "uint256[]",
          "name": "extensions",
          "type": "uint256[]"
        }
      ],
      "stateMutability": "view",
      "type": "function"
    },
    {
      "inputs": [
        {
          "internalType": "address",
          "name": "_to",
          "type": "address"
        },
        {
          "internalType": "uint256",
          "name": "_amount",
          "type": "uint256"
        }
      ],
      "name": "mint",
      "outputs": [],
      "stateMutability": "nonpayable",
      "type": "function"
    },
    {
      "inputs": [],
      "name": "name",
      "outputs": [
        {
          "internalType": "string",
          "name": "",
          "type": "string"
        }
      ],
      "stateMutability": "view",
      "type": "function"
    },
    {
      "inputs": [
        {
          "internalType": "address",
          "name": "owner",
          "type": "address"
        }
      ],
      "name": "nonces",
      "outputs": [
        {
          "internalType": "uint256",
          "name": "",
          "type": "uint256"
        }
      ],
      "stateMutability": "view",
      "type": "function"
    },
    {
      "inputs": [],
      "name": "owner",
      "outputs": [
        {
          "internalType": "address",
          "name": "",
          "type": "address"
        }
      ],
      "stateMutability": "view",
      "type": "function"
    },
    {
      "inputs": [
        {
          "internalType": "address",
          "name": "owner",
          "type": "address"
        },
        {
          "internalType": "address",
          "name": "spender",
          "type": "address"
        },
        {
          "internalType": "uint256",
          "name": "value",
          "type": "uint256"
        },
        {
          "internalType": "uint256",
          "name": "deadline",
          "type": "uint256"
        },
        {
          "internalType": "uint8",
          "name": "v",
          "type": "uint8"
        },
        {
          "internalType": "bytes32",
          "name": "r",
          "type": "bytes32"
        },
        {
          "internalType": "bytes32",
          "name": "s",
          "type": "bytes32"
        }
      ],
      "name": "permit",
      "outputs": [],
      "stateMutability": "nonpayable",
      "type": "function"
    },
    {
      "inputs": [],
      "name": "renounceOwnership",
      "outputs": [],
      "stateMutability": "nonpayable",
      "type": "function"
    },
    {
      "inputs": [],
      "name": "symbol",
      "outputs": [
        {
          "internalType": "string",
          "name": "",
          "type": "string"
        }
      ],
      "stateMutability": "view",
      "type": "function"
    },
    {
      "inputs": [],
      "name": "totalSupply",
      "outputs": [
        {
          "internalType": "uint256",
          "name": "",
          "type": "uint256"
        }
      ],
      "stateMutability": "view",
      "type": "function"
    },
    {
      "inputs": [
        {
          "internalType": "address",
          "name": "to",
          "type": "address"
        },
        {
          "internalType": "uint256",
          "name": "value",
          "type": "uint256"
        }
      ],
      "name": "transfer",
      "outputs": [
        {
          "internalType": "bool",
          "name": "",
          "type": "bool"
        }
      ],
      "stateMutability": "nonpayable",
      "type": "function"
    },
    {
      "inputs": [
        {
          "internalType": "address",
          "name": "from",
          "type": "address"
        },
        {
          "internalType": "address",
          "name": "to",
          "type": "address"
        },
        {
          "internalType": "uint256",
          "name": "value",
          "type": "uint256"
        }
      ],
      "name": "transferFrom",
      "outputs": [
        {
          "internalType": "bool",
          "name": "",
          "type": "bool"
        }
      ],
      "stateMutability": "nonpayable",
      "type": "function"
    },
    {
      "inputs": [
        {
          "internalType": "address",
          "name": "newOwner",
          "type": "address"
        }
      ],
      "name": "transferOwnership",
      "outputs": [],
      "stateMutability": "nonpayable",
      "type": "function"
    },
    {
      "anonymous": false,
      "inputs": [
        {
          "indexed": true,
          "internalType": "address",
          "name": "owner",
          "type": "address"
        },
        {
          "indexed": true,
          "internalType": "address",
          "name": "spender",
          "type": "address"
        },
        {
          "indexed": false,
          "internalType": "uint256",
          "name": "value",
          "type": "uint256"
        }
      ],
      "name": "Approval",
      "type": "event"
    },
    {
      "anonymous": false,
      "inputs": [],
      "name": "EIP712DomainChanged",
      "type": "event"
    },
    {
      "anonymous": false,
      "inputs": [
        {
          "indexed": true,
          "internalType": "address",
          "name": "previousOwner",
          "type": "address"
        },
        {
          "indexed": true,
          "internalType": "address",
          "name": "newOwner",
          "type": "address"
        }
      ],
      "name": "OwnershipTransferred",
      "type": "event"
    },
    {
      "anonymous": false,
      "inputs": [
        {
          "indexed": true,
          "internalType": "address",
          "name": "from",
          "type": "address"
        },
        {
          "indexed": true,
          "internalType": "address",
          "name": "to",
          "type": "address"
        },
        {
          "indexed": false,
          "internalType": "uint256",
          "name": "value",
          "type": "uint256"
        }
      ],
      "name": "Transfer",
      "type": "event"
    },
    {
      "inputs": [],
      "name": "ECDSAInvalidSignature",
      "type": "error"
    },
    {
      "inputs": [
        {
          "internalType": "uint256",
          "name": "length",
          "type": "uint256"
        }
      ],
      "name": "ECDSAInvalidSignatureLength",
      "type": "error"
    },
    {
      "inputs": [
        {
          "internalType": "bytes32",
          "name": "s",
          "type": "bytes32"
        }
      ],
      "name": "ECDSAInvalidSignatureS",
      "type": "error"
    },
    {
      "inputs": [
        {
          "internalType": "address",
          "name": "spender",
          "type": "address"
        },
        {
          "internalType": "uint256",
          "name": "allowance",
          "type": "uint256"
        },
        {
          "internalType": "uint256",
          "name": "needed",
          "type": "uint256"
        }
      ],
      "name": "ERC20InsufficientAllowance",
      "type": "error"
    },
    {
      "inputs": [
        {
          "internalType": "address",
          "name": "sender",
          "type": "address"
        },
        {
          "internalType": "uint256",
          "name": "balance",
          "type": "uint256"
        },
        {
          "internalType": "uint256",
          "name": "needed",
          "type": "uint256"
        }
      ],
      "name": "ERC20InsufficientBalance",
      "type": "error"
    },
    {
      "inputs": [
        {
          "internalType": "address",
          "name": "approver",
          "type": "address"
        }
      ],
      "name": "ERC20InvalidApprover",
      "type": "error"
    },
    {
      "inputs": [
        {
          "internalType": "address",
          "name": "receiver",
          "type": "address"
        }
      ],
      "name": "ERC20InvalidReceiver",
      "type": "error"
    },
    {
      "inputs": [
        {
          "internalType": "address",
          "name": "sender",
          "type": "address"
        }
      ],
      "name": "ERC20InvalidSender",
      "type": "error"
    },
    {
      "inputs": [
        {
          "internalType": "address",
          "name": "spender",
          "type": "address"
        }
      ],
      "name": "ERC20InvalidSpender",
      "type": "error"
    },
    {
      "inputs": [
        {
          "internalType": "uint256",
          "name": "deadline",
          "type": "uint256"
        }
      ],
      "name": "ERC2612ExpiredSignature",
      "type": "error"
    },
    {
      "inputs": [
        {
          "internalType": "address",
          "name": "signer",
          "type": "address"
        },
        {
          "internalType": "address",
          "name": "owner",
          "type": "address"
        }
      ],
      "name": "ERC2612InvalidSigner",
      "type": "error"
    },
    {
      "inputs": [
        {
          "internalType": "address",
          "name": "account",
          "type": "address"
        },
        {
          "internalType": "uint256",
          "name": "currentNonce",
          "type": "uint256"
        }
      ],
      "name": "InvalidAccountNonce",
      "type": "error"
    },
    {
      "inputs": [],
      "name": "InvalidShortString",
      "type": "error"
    },
    {
      "inputs": [
        {
          "internalType": "address",
          "name": "owner",
          "type": "address"
        }
      ],
      "name": "OwnableInvalidOwner",
      "type": "error"
    },
    {
      "inputs": [
        {
          "internalType": "address",
          "name": "account",
          "type": "address"
        }
      ],
      "name": "OwnableUnauthorizedAccount",
      "type": "error"
    },
    {
      "inputs": [
        {
          "internalType": "string",
          "name": "str",
          "type": "string"
        }
      ],
      "name": "StringTooLong",
      "type": "error"
    }
  ],
  "bytecode": "0x6101606040523480156200001257600080fd5b5033604051806040016040528060048152602001634d696c6f60e01b81525080604051806040016040528060018152602001603160f81b815250604051806040016040528060048152602001634d696c6f60e01b815250604051806040016040528060048152602001634d494c4f60e01b815250816003908162000097919062000318565b506004620000a6828262000318565b50620000b891508390506005620001a3565b61012052620000c9816006620001a3565b61014052815160208084019190912060e052815190820120610100524660a0526200015760e05161010051604080517f8b73c3c69bb8fe3d512ecc4cf759cc79239f7b179b0ffacaa9a75d522b39400f60208201529081019290925260608201524660808201523060a082015260009060c00160405160208183030381529060405280519060200120905090565b60805250503060c052506001600160a01b0381166200019157604051631e4fbdf760e01b8152600060048201526024015b60405180910390fd5b6200019c81620001dc565b506200045a565b6000602083511015620001c357620001bb836200022e565b9050620001d6565b81620001d0848262000318565b5060ff90505b92915050565b600880546001600160a01b038381166001600160a01b0319831681179093556040519116919082907f8be0079c531659141344cd1fd0a4f28419497f9722a3daafe3b4186f6b6457e090600090a35050565b600080829050601f815111156200025c578260405163305a27a960e01b8152600401620001889190620003e4565b8051620002698262000435565b179392505050565b634e487b7160e01b600052604160045260246000fd5b600181811c908216806200029c57607f821691505b602082108103620002bd57634e487b7160e01b600052602260045260246000fd5b50919050565b601f82111562000313576000816000526020600020601f850160051c81016020861015620002ee5750805b601f850160051c820191505b818110156200030f57828155600101620002fa565b5050505b505050565b81516001600160401b0381111562000334576200033462000271565b6200034c8162000345845462000287565b84620002c3565b602080601f8311600181146200038457600084156200036b5750858301515b600019600386901b1c1916600185901b1785556200030f565b600085815260208120601f198616915b82811015620003b55788860151825594840194600190910190840162000394565b5085821015620003d45787850151600019600388901b60f8161c191681555b5050505050600190811b01905550565b60006020808352835180602085015260005b818110156200041457858101830151858201604001528201620003f6565b506000604082860101526040601f19601f8301168501019250505092915050565b80516020808301519190811015620002bd5760001960209190910360031b1b16919050565b60805160a05160c05160e05161010051610120516101405161111c620004b56000396000610906015260006108d9015260006107960152600061076e015260006106c9015260006106f30152600061071d015261111c6000f3fe608060405234801561001057600080fd5b50600436106101165760003560e01c8063715018a6116100a257806395d89b411161007157806395d89b411461023a578063a9059cbb14610242578063d505accf14610255578063dd62ed3e14610268578063f2fde38b146102a157600080fd5b8063715018a6146101e95780637ecebe00146101f157806384b0196e146102045780638da5cb5b1461021f57600080fd5b8063313ce567116100e9578063313ce567146101815780633644e5151461019057806340c10f191461019857806342966c68146101ad57806370a08231146101c057600080fd5b806306fdde031461011b578063095ea7b31461013957806318160ddd1461015c57806323b872dd1461016e575b600080fd5b6101236102b4565b6040516101309190610e66565b60405180910390f35b61014c610147366004610e9c565b610346565b6040519015158152602001610130565b6002545b604051908152602001610130565b61014c61017c366004610ec6565b610360565b60405160128152602001610130565b610160610384565b6101ab6101a6366004610e9c565b610393565b005b6101ab6101bb366004610f02565b6103a9565b6101606101ce366004610f1b565b6001600160a01b031660009081526020819052604090205490565b6101ab6103be565b6101606101ff366004610f1b565b6103d2565b61020c6103f0565b6040516101309796959493929190610f36565b6008546040516001600160a01b039091168152602001610130565b610123610436565b61014c610250366004610e9c565b610445565b6101ab610263366004610fcf565b610453565b610160610276366004611042565b6001600160a01b03918216600090815260016020908152604080832093909416825291909152205490565b6101ab6102af366004610f1b565b610592565b6060600380546102c390611075565b80601f01602080910402602001604051908101604052809291908181526020018280546102ef90611075565b801561033c5780601f106103115761010080835404028352916020019161033c565b820191906000526020600020905b81548152906001019060200180831161031f57829003601f168201915b5050505050905090565b6000336103548185856105cd565b60019150505b92915050565b60003361036e8582856105df565b61037985858561065d565b506001949350505050565b600061038e6106bc565b905090565b61039b6107e7565b6103a58282610814565b5050565b6103b16107e7565b6103bb338261084a565b50565b6103c66107e7565b6103d06000610880565b565b6001600160a01b03811660009081526007602052604081205461035a565b6000606080600080600060606104046108d2565b61040c6108ff565b60408051600080825260208201909252600f60f81b9b939a50919850469750309650945092509050565b6060600480546102c390611075565b60003361035481858561065d565b8342111561047c5760405163313c898160e11b8152600481018590526024015b60405180910390fd5b60007f6e71edae12b1b97f4d1f60370fef10105fa2faae0126114a169c64845d6126c98888886104c98c6001600160a01b0316600090815260076020526040902080546001810190915590565b6040805160208101969096526001600160a01b0394851690860152929091166060840152608083015260a082015260c0810186905260e00160405160208183030381529060405280519060200120905060006105248261092c565b9050600061053482878787610959565b9050896001600160a01b0316816001600160a01b03161461057b576040516325c0072360e11b81526001600160a01b0380831660048301528b166024820152604401610473565b6105868a8a8a6105cd565b50505050505050505050565b61059a6107e7565b6001600160a01b0381166105c457604051631e4fbdf760e01b815260006004820152602401610473565b6103bb81610880565b6105da8383836001610987565b505050565b6001600160a01b038381166000908152600160209081526040808320938616835292905220546000198114610657578181101561064857604051637dc7a0d960e11b81526001600160a01b03841660048201526024810182905260448101839052606401610473565b61065784848484036000610987565b50505050565b6001600160a01b03831661068757604051634b637e8f60e11b815260006004820152602401610473565b6001600160a01b0382166106b15760405163ec442f0560e01b815260006004820152602401610473565b6105da838383610a5c565b6000306001600160a01b037f00000000000000000000000000000000000000000000000000000000000000001614801561071557507f000000000000000000000000000000000000000000000000000000000000000046145b1561073f57507f000000000000000000000000000000000000000000000000000000000000000090565b61038e604080517f8b73c3c69bb8fe3d512ecc4cf759cc79239f7b179b0ffacaa9a75d522b39400f60208201527f0000000000000000000000000000000000000000000000000000000000000000918101919091527f000000000000000000000000000000000000000000000000000000000000000060608201524660808201523060a082015260009060c00160405160208183030381529060405280519060200120905090565b6008546001600160a01b031633146103d05760405163118cdaa760e01b8152336004820152602401610473565b6001600160a01b03821661083e5760405163ec442f0560e01b815260006004820152602401610473565b6103a560008383610a5c565b6001600160a01b03821661087457604051634b637e8f60e11b815260006004820152602401610473565b6103a582600083610a5c565b600880546001600160a01b038381166001600160a01b0319831681179093556040519116919082907f8be0079c531659141344cd1fd0a4f28419497f9722a3daafe3b4186f6b6457e090600090a35050565b606061038e7f00000000000000000000000000000000000000000000000000000000000000006005610b86565b606061038e7f00000000000000000000000000000000000000000000000000000000000000006006610b86565b600061035a6109396106bc565b8360405161190160f01b8152600281019290925260228201526042902090565b60008060008061096b88888888610c31565b92509250925061097b8282610d00565b50909695505050505050565b6001600160a01b0384166109b15760405163e602df0560e01b815260006004820152602401610473565b6001600160a01b0383166109db57604051634a1406b160e11b815260006004820152602401610473565b6001600160a01b038085166000908152600160209081526040808320938716835292905220829055801561065757826001600160a01b0316846001600160a01b03167f8c5be1e5ebec7d5bd14f71427d1e84f3dd0314c0f7b2291e5b200ac8c7c3b92584604051610a4e91815260200190565b60405180910390a350505050565b6001600160a01b038316610a87578060026000828254610a7c91906110af565b90915550610af99050565b6001600160a01b03831660009081526020819052604090205481811015610ada5760405163391434e360e21b81526001600160a01b03851660048201526024810182905260448101839052606401610473565b6001600160a01b03841660009081526020819052604090209082900390555b6001600160a01b038216610b1557600280548290039055610b34565b6001600160a01b03821660009081526020819052604090208054820190555b816001600160a01b0316836001600160a01b03167fddf252ad1be2c89b69c2b068fc378daa952ba7f163c4a11628f55a4df523b3ef83604051610b7991815260200190565b60405180910390a3505050565b606060ff8314610ba057610b9983610db9565b905061035a565b818054610bac90611075565b80601f0160208091040260200160405190810160405280929190818152602001828054610bd890611075565b8015610c255780601f10610bfa57610100808354040283529160200191610c25565b820191906000526020600020905b815481529060010190602001808311610c0857829003601f168201915b5050505050905061035a565b600080807f7fffffffffffffffffffffffffffffff5d576e7357a4501ddfe92f46681b20a0841115610c6c5750600091506003905082610cf6565b604080516000808252602082018084528a905260ff891692820192909252606081018790526080810186905260019060a0016020604051602081039080840390855afa158015610cc0573d6000803e3d6000fd5b5050604051601f1901519150506001600160a01b038116610cec57506000925060019150829050610cf6565b9250600091508190505b9450945094915050565b6000826003811115610d1457610d146110d0565b03610d1d575050565b6001826003811115610d3157610d316110d0565b03610d4f5760405163f645eedf60e01b815260040160405180910390fd5b6002826003811115610d6357610d636110d0565b03610d845760405163fce698f760e01b815260048101829052602401610473565b6003826003811115610d9857610d986110d0565b036103a5576040516335e2f38360e21b815260048101829052602401610473565b60606000610dc683610df8565b604080516020808252818301909252919250600091906020820181803683375050509182525060208101929092525090565b600060ff8216601f81111561035a57604051632cd44ac360e21b815260040160405180910390fd5b6000815180845260005b81811015610e4657602081850181015186830182015201610e2a565b506000602082860101526020601f19601f83011685010191505092915050565b602081526000610e796020830184610e20565b9392505050565b80356001600160a01b0381168114610e9757600080fd5b919050565b60008060408385031215610eaf57600080fd5b610eb883610e80565b946020939093013593505050565b600080600060608486031215610edb57600080fd5b610ee484610e80565b9250610ef260208501610e80565b9150604084013590509250925092565b600060208284031215610f1457600080fd5b5035919050565b600060208284031215610f2d57600080fd5b610e7982610e80565b60ff60f81b881681526000602060e06020840152610f5760e084018a610e20565b8381036040850152610f69818a610e20565b606085018990526001600160a01b038816608086015260a0850187905284810360c08601528551808252602080880193509091019060005b81811015610fbd57835183529284019291840191600101610fa1565b50909c9b505050505050505050505050565b600080600080600080600060e0888a031215610fea57600080fd5b610ff388610e80565b965061100160208901610e80565b95506040880135945060608801359350608088013560ff8116811461102557600080fd5b9699959850939692959460a0840135945060c09093013592915050565b6000806040838503121561105557600080fd5b61105e83610e80565b915061106c60208401610e80565b90509250929050565b600181811c9082168061108957607f821691505b6020821081036110a957634e487b7160e01b600052602260045260246000fd5b50919050565b8082018082111561035a57634e487b7160e01b600052601160045260246000fd5b634e487b7160e01b600052602160045260246000fdfea2646970667358221220a565d03b69078c77657c2eb849f7013ac5bac6d012d55e92eae448eae6a471ba64736f6c63430008180033",
  "language": "Solidity",
  "compiler": "0.8.24+commit.e11b9ed9"
}