{
  "address": "0x96C3172087BD6C935132013E2e7958C1CC12EFB9",
  "abi": [
    {
      "inputs": [
        {
          "internalType": "contract TimelockController",
          "name": "_timelock",
          "type": "address"
        },
        {
          "internalType": "contract IVeSilo",
          "name": "_veSilo",
          "type": "address"
        }
      ],
      "stateMutability": "nonpayable",
      "type": "constructor"
    },
    {
      "stateMutability": "payable",
      "type": "receive"
    },
    {
      "inputs": [],
      "name": "BALLOT_TYPEHASH",
      "outputs": [
        {
          "internalType": "bytes32",
          "name": "",
          "type": "bytes32"
        }
      ],
      "stateMutability": "view",
      "type": "function"
    },
    {
      "inputs": [],
      "name": "CLOCK_MODE",
      "outputs": [
        {
          "internalType": "string",
          "name": "",
          "type": "string"
        }
      ],
      "stateMutability": "pure",
      "type": "function"
    },
    {
      "inputs": [],
      "name": "COUNTING_MODE",
      "outputs": [
        {
          "internalType": "string",
          "name": "",
          "type": "string"
        }
      ],
      "stateMutability": "pure",
      "type": "function"
    },
    {
      "inputs": [],
      "name": "EXTENDED_BALLOT_TYPEHASH",
      "outputs": [
        {
          "internalType": "bytes32",
          "name": "",
          "type": "bytes32"
        }
      ],
      "stateMutability": "view",
      "type": "function"
    },
    {
      "inputs": [
        {
          "internalType": "address[]",
          "name": "targets",
          "type": "address[]"
        },
        {
          "internalType": "uint256[]",
          "name": "values",
          "type": "uint256[]"
        },
        {
          "internalType": "bytes[]",
          "name": "calldatas",
          "type": "bytes[]"
        },
        {
          "internalType": "bytes32",
          "name": "descriptionHash",
          "type": "bytes32"
        }
      ],
      "name": "cancel",
      "outputs": [
        {
          "internalType": "uint256",
          "name": "",
          "type": "uint256"
        }
      ],
      "stateMutability": "nonpayable",
      "type": "function"
    },
    {
      "inputs": [
        {
          "internalType": "uint256",
          "name": "proposalId",
          "type": "uint256"
        },
        {
          "internalType": "uint8",
          "name": "support",
          "type": "uint8"
        }
      ],
      "name": "castVote",
      "outputs": [
        {
          "internalType": "uint256",
          "name": "",
          "type": "uint256"
        }
      ],
      "stateMutability": "nonpayable",
      "type": "function"
    },
    {
      "inputs": [
        {
          "internalType": "uint256",
          "name": "proposalId",
          "type": "uint256"
        },
        {
          "internalType": "uint8",
          "name": "support",
          "type": "uint8"
        },
        {
          "internalType": "address",
          "name": "voter",
          "type": "address"
        },
        {
          "internalType": "bytes",
          "name": "signature",
          "type": "bytes"
        }
      ],
      "name": "castVoteBySig",
      "outputs": [
        {
          "internalType": "uint256",
          "name": "",
          "type": "uint256"
        }
      ],
      "stateMutability": "nonpayable",
      "type": "function"
    },
    {
      "inputs": [
        {
          "internalType": "uint256",
          "name": "proposalId",
          "type": "uint256"
        },
        {
          "internalType": "uint8",
          "name": "support",
          "type": "uint8"
        },
        {
          "internalType": "string",
          "name": "reason",
          "type": "string"
        }
      ],
      "name": "castVoteWithReason",
      "outputs": [
        {
          "internalType": "uint256",
          "name": "",
          "type": "uint256"
        }
      ],
      "stateMutability": "nonpayable",
      "type": "function"
    },
    {
      "inputs": [
        {
          "internalType": "uint256",
          "name": "proposalId",
          "type": "uint256"
        },
        {
          "internalType": "uint8",
          "name": "support",
          "type": "uint8"
        },
        {
          "internalType": "string",
          "name": "reason",
          "type": "string"
        },
        {
          "internalType": "bytes",
          "name": "params",
          "type": "bytes"
        }
      ],
      "name": "castVoteWithReasonAndParams",
      "outputs": [
        {
          "internalType": "uint256",
          "name": "",
          "type": "uint256"
        }
      ],
      "stateMutability": "nonpayable",
      "type": "function"
    },
    {
      "inputs": [
        {
          "internalType": "uint256",
          "name": "proposalId",
          "type": "uint256"
        },
        {
          "internalType": "uint8",
          "name": "support",
          "type": "uint8"
        },
        {
          "internalType": "address",
          "name": "voter",
          "type": "address"
        },
        {
          "internalType": "string",
          "name": "reason",
          "type": "string"
        },
        {
          "internalType": "bytes",
          "name": "params",
          "type": "bytes"
        },
        {
          "internalType": "bytes",
          "name": "signature",
          "type": "bytes"
        }
      ],
      "name": "castVoteWithReasonAndParamsBySig",
      "outputs": [
        {
          "internalType": "uint256",
          "name": "",
          "type": "uint256"
        }
      ],
      "stateMutability": "nonpayable",
      "type": "function"
    },
    {
      "inputs": [],
      "name": "clock",
      "outputs": [
        {
          "internalType": "uint48",
          "name": "",
          "type": "uint48"
        }
      ],
      "stateMutability": "view",
      "type": "function"
    },
    {
      "inputs": [],
      "name": "eip712Domain",
      "outputs": [
        {
          "internalType": "bytes1",
          "name": "fields",
          "type": "bytes1"
        },
        {
          "internalType": "string",
          "name": "name",
          "type": "string"
        },
        {
          "internalType": "string",
          "name": "version",
          "type": "string"
        },
        {
          "internalType": "uint256",
          "name": "chainId",
          "type": "uint256"
        },
        {
          "internalType": "address",
          "name": "verifyingContract",
          "type": "address"
        },
        {
          "internalType": "bytes32",
          "name": "salt",
          "type": "bytes32"
        },
        {
          "internalType": "uint256[]",
          "name": "extensions",
          "type": "uint256[]"
        }
      ],
      "stateMutability": "view",
      "type": "function"
    },
    {
      "inputs": [
        {
          "internalType": "address[]",
          "name": "targets",
          "type": "address[]"
        },
        {
          "internalType": "uint256[]",
          "name": "values",
          "type": "uint256[]"
        },
        {
          "internalType": "bytes[]",
          "name": "calldatas",
          "type": "bytes[]"
        },
        {
          "internalType": "bytes32",
          "name": "descriptionHash",
          "type": "bytes32"
        }
      ],
      "name": "execute",
      "outputs": [
        {
          "internalType": "uint256",
          "name": "",
          "type": "uint256"
        }
      ],
      "stateMutability": "payable",
      "type": "function"
    },
    {
      "inputs": [
        {
          "internalType": "address",
          "name": "account",
          "type": "address"
        },
        {
          "internalType": "uint256",
          "name": "timepoint",
          "type": "uint256"
        }
      ],
      "name": "getVotes",
      "outputs": [
        {
          "internalType": "uint256",
          "name": "",
          "type": "uint256"
        }
      ],
      "stateMutability": "view",
      "type": "function"
    },
    {
      "inputs": [
        {
          "internalType": "address",
          "name": "account",
          "type": "address"
        },
        {
          "internalType": "uint256",
          "name": "timepoint",
          "type": "uint256"
        },
        {
          "internalType": "bytes",
          "name": "params",
          "type": "bytes"
        }
      ],
      "name": "getVotesWithParams",
      "outputs": [
        {
          "internalType": "uint256",
          "name": "",
          "type": "uint256"
        }
      ],
      "stateMutability": "view",
      "type": "function"
    },
    {
      "inputs": [
        {
          "internalType": "uint256",
          "name": "proposalId",
          "type": "uint256"
        },
        {
          "internalType": "address",
          "name": "account",
          "type": "address"
        }
      ],
      "name": "hasVoted",
      "outputs": [
        {
          "internalType": "bool",
          "name": "",
          "type": "bool"
        }
      ],
      "stateMutability": "view",
      "type": "function"
    },
    {
      "inputs": [
        {
          "internalType": "address[]",
          "name": "targets",
          "type": "address[]"
        },
        {
          "internalType": "uint256[]",
          "name": "values",
          "type": "uint256[]"
        },
        {
          "internalType": "bytes[]",
          "name": "calldatas",
          "type": "bytes[]"
        },
        {
          "internalType": "bytes32",
          "name": "descriptionHash",
          "type": "bytes32"
        }
      ],
      "name": "hashProposal",
      "outputs": [
        {
          "internalType": "uint256",
          "name": "",
          "type": "uint256"
        }
      ],
      "stateMutability": "pure",
      "type": "function"
    },
    {
      "inputs": [],
      "name": "name",
      "outputs": [
        {
          "internalType": "string",
          "name": "",
          "type": "string"
        }
      ],
      "stateMutability": "view",
      "type": "function"
    },
    {
      "inputs": [
        {
          "internalType": "address",
          "name": "owner",
          "type": "address"
        }
      ],
      "name": "nonces",
      "outputs": [
        {
          "internalType": "uint256",
          "name": "",
          "type": "uint256"
        }
      ],
      "stateMutability": "view",
      "type": "function"
    },
    {
      "inputs": [
        {
          "internalType": "address",
          "name": "",
          "type": "address"
        },
        {
          "internalType": "address",
          "name": "",
          "type": "address"
        },
        {
          "internalType": "uint256[]",
          "name": "",
          "type": "uint256[]"
        },
        {
          "internalType": "uint256[]",
          "name": "",
          "type": "uint256[]"
        },
        {
          "internalType": "bytes",
          "name": "",
          "type": "bytes"
        }
      ],
      "name": "onERC1155BatchReceived",
      "outputs": [
        {
          "internalType": "bytes4",
          "name": "",
          "type": "bytes4"
        }
      ],
      "stateMutability": "nonpayable",
      "type": "function"
    },
    {
      "inputs": [
        {
          "internalType": "address",
          "name": "",
          "type": "address"
        },
        {
          "internalType": "address",
          "name": "",
          "type": "address"
        },
        {
          "internalType": "uint256",
          "name": "",
          "type": "uint256"
        },
        {
          "internalType": "uint256",
          "name": "",
          "type": "uint256"
        },
        {
          "internalType": "bytes",
          "name": "",
          "type": "bytes"
        }
      ],
      "name": "onERC1155Received",
      "outputs": [
        {
          "internalType": "bytes4",
          "name": "",
          "type": "bytes4"
        }
      ],
      "stateMutability": "nonpayable",
      "type": "function"
    },
    {
      "inputs": [
        {
          "internalType": "address",
          "name": "",
          "type": "address"
        },
        {
          "internalType": "address",
          "name": "",
          "type": "address"
        },
        {
          "internalType": "uint256",
          "name": "",
          "type": "uint256"
        },
        {
          "internalType": "bytes",
          "name": "",
          "type": "bytes"
        }
      ],
      "name": "onERC721Received",
      "outputs": [
        {
          "internalType": "bytes4",
          "name": "",
          "type": "bytes4"
        }
      ],
      "stateMutability": "nonpayable",
      "type": "function"
    },
    {
      "inputs": [
        {
          "internalType": "uint256",
          "name": "proposalId",
          "type": "uint256"
        }
      ],
      "name": "proposalDeadline",
      "outputs": [
        {
          "internalType": "uint256",
          "name": "",
          "type": "uint256"
        }
      ],
      "stateMutability": "view",
      "type": "function"
    },
    {
      "inputs": [
        {
          "internalType": "uint256",
          "name": "proposalId",
          "type": "uint256"
        }
      ],
      "name": "proposalEta",
      "outputs": [
        {
          "internalType": "uint256",
          "name": "",
          "type": "uint256"
        }
      ],
      "stateMutability": "view",
      "type": "function"
    },
    {
      "inputs": [
        {
          "internalType": "uint256",
          "name": "_proposalId",
          "type": "uint256"
        }
      ],
      "name": "proposalNeedsQueuing",
      "outputs": [
        {
          "internalType": "bool",
          "name": "",
          "type": "bool"
        }
      ],
      "stateMutability": "view",
      "type": "function"
    },
    {
      "inputs": [
        {
          "internalType": "uint256",
          "name": "proposalId",
          "type": "uint256"
        }
      ],
      "name": "proposalProposer",
      "outputs": [
        {
          "internalType": "address",
          "name": "",
          "type": "address"
        }
      ],
      "stateMutability": "view",
      "type": "function"
    },
    {
      "inputs": [
        {
          "internalType": "uint256",
          "name": "proposalId",
          "type": "uint256"
        }
      ],
      "name": "proposalSnapshot",
      "outputs": [
        {
          "internalType": "uint256",
          "name": "",
          "type": "uint256"
        }
      ],
      "stateMutability": "view",
      "type": "function"
    },
    {
      "inputs": [],
      "name": "proposalThreshold",
      "outputs": [
        {
          "internalType": "uint256",
          "name": "",
          "type": "uint256"
        }
      ],
      "stateMutability": "view",
      "type": "function"
    },
    {
      "inputs": [
        {
          "internalType": "uint256",
          "name": "proposalId",
          "type": "uint256"
        }
      ],
      "name": "proposalVotes",
      "outputs": [
        {
          "internalType": "uint256",
          "name": "againstVotes",
          "type": "uint256"
        },
        {
          "internalType": "uint256",
          "name": "forVotes",
          "type": "uint256"
        },
        {
          "internalType": "uint256",
          "name": "abstainVotes",
          "type": "uint256"
        }
      ],
      "stateMutability": "view",
      "type": "function"
    },
    {
      "inputs": [
        {
          "internalType": "address[]",
          "name": "targets",
          "type": "address[]"
        },
        {
          "internalType": "uint256[]",
          "name": "values",
          "type": "uint256[]"
        },
        {
          "internalType": "bytes[]",
          "name": "calldatas",
          "type": "bytes[]"
        },
        {
          "internalType": "string",
          "name": "description",
          "type": "string"
        }
      ],
      "name": "propose",
      "outputs": [
        {
          "internalType": "uint256",
          "name": "",
          "type": "uint256"
        }
      ],
      "stateMutability": "nonpayable",
      "type": "function"
    },
    {
      "inputs": [
        {
          "internalType": "address[]",
          "name": "targets",
          "type": "address[]"
        },
        {
          "internalType": "uint256[]",
          "name": "values",
          "type": "uint256[]"
        },
        {
          "internalType": "bytes[]",
          "name": "calldatas",
          "type": "bytes[]"
        },
        {
          "internalType": "bytes32",
          "name": "descriptionHash",
          "type": "bytes32"
        }
      ],
      "name": "queue",
      "outputs": [
        {
          "internalType": "uint256",
          "name": "",
          "type": "uint256"
        }
      ],
      "stateMutability": "nonpayable",
      "type": "function"
    },
    {
      "inputs": [
        {
          "internalType": "uint256",
          "name": "_timepoint",
          "type": "uint256"
        }
      ],
      "name": "quorum",
      "outputs": [
        {
          "internalType": "uint256",
          "name": "",
          "type": "uint256"
        }
      ],
      "stateMutability": "view",
      "type": "function"
    },
    {
      "inputs": [],
      "name": "quorumDenominator",
      "outputs": [
        {
          "internalType": "uint256",
          "name": "",
          "type": "uint256"
        }
      ],
      "stateMutability": "view",
      "type": "function"
    },
    {
      "inputs": [
        {
          "internalType": "uint256",
          "name": "timepoint",
          "type": "uint256"
        }
      ],
      "name": "quorumNumerator",
      "outputs": [
        {
          "internalType": "uint256",
          "name": "",
          "type": "uint256"
        }
      ],
      "stateMutability": "view",
      "type": "function"
    },
    {
      "inputs": [],
      "name": "quorumNumerator",
      "outputs": [
        {
          "internalType": "uint256",
          "name": "",
          "type": "uint256"
        }
      ],
      "stateMutability": "view",
      "type": "function"
    },
    {
      "inputs": [
        {
          "internalType": "address",
          "name": "target",
          "type": "address"
        },
        {
          "internalType": "uint256",
          "name": "value",
          "type": "uint256"
        },
        {
          "internalType": "bytes",
          "name": "data",
          "type": "bytes"
        }
      ],
      "name": "relay",
      "outputs": [],
      "stateMutability": "payable",
      "type": "function"
    },
    {
      "inputs": [
        {
          "internalType": "uint256",
          "name": "newProposalThreshold",
          "type": "uint256"
        }
      ],
      "name": "setProposalThreshold",
      "outputs": [],
      "stateMutability": "nonpayable",
      "type": "function"
    },
    {
      "inputs": [
        {
          "internalType": "uint48",
          "name": "newVotingDelay",
          "type": "uint48"
        }
      ],
      "name": "setVotingDelay",
      "outputs": [],
      "stateMutability": "nonpayable",
      "type": "function"
    },
    {
      "inputs": [
        {
          "internalType": "uint32",
          "name": "newVotingPeriod",
          "type": "uint32"
        }
      ],
      "name": "setVotingPeriod",
      "outputs": [],
      "stateMutability": "nonpayable",
      "type": "function"
    },
    {
      "inputs": [
        {
          "internalType": "uint256",
          "name": "_proposalId",
          "type": "uint256"
        }
      ],
      "name": "state",
      "outputs": [
        {
          "internalType": "enum IGovernor.ProposalState",
          "name": "",
          "type": "uint8"
        }
      ],
      "stateMutability": "view",
      "type": "function"
    },
    {
      "inputs": [
        {
          "internalType": "bytes4",
          "name": "_interfaceId",
          "type": "bytes4"
        }
      ],
      "name": "supportsInterface",
      "outputs": [
        {
          "internalType": "bool",
          "name": "",
          "type": "bool"
        }
      ],
      "stateMutability": "view",
      "type": "function"
    },
    {
      "inputs": [],
      "name": "timelock",
      "outputs": [
        {
          "internalType": "address",
          "name": "",
          "type": "address"
        }
      ],
      "stateMutability": "view",
      "type": "function"
    },
    {
      "inputs": [],
      "name": "token",
      "outputs": [
        {
          "internalType": "contract IERC5805",
          "name": "",
          "type": "address"
        }
      ],
      "stateMutability": "view",
      "type": "function"
    },
    {
      "inputs": [
        {
          "internalType": "uint256",
          "name": "newQuorumNumerator",
          "type": "uint256"
        }
      ],
      "name": "updateQuorumNumerator",
      "outputs": [],
      "stateMutability": "nonpayable",
      "type": "function"
    },
    {
      "inputs": [
        {
          "internalType": "contract TimelockController",
          "name": "newTimelock",
          "type": "address"
        }
      ],
      "name": "updateTimelock",
      "outputs": [],
      "stateMutability": "nonpayable",
      "type": "function"
    },
    {
      "inputs": [],
      "name": "veSiloToken",
      "outputs": [
        {
          "internalType": "contract IVeSilo",
          "name": "",
          "type": "address"
        }
      ],
      "stateMutability": "view",
      "type": "function"
    },
    {
      "inputs": [],
      "name": "version",
      "outputs": [
        {
          "internalType": "string",
          "name": "",
          "type": "string"
        }
      ],
      "stateMutability": "view",
      "type": "function"
    },
    {
      "inputs": [],
      "name": "votingDelay",
      "outputs": [
        {
          "internalType": "uint256",
          "name": "",
          "type": "uint256"
        }
      ],
      "stateMutability": "view",
      "type": "function"
    },
    {
      "inputs": [],
      "name": "votingPeriod",
      "outputs": [
        {
          "internalType": "uint256",
          "name": "",
          "type": "uint256"
        }
      ],
      "stateMutability": "view",
      "type": "function"
    },
    {
      "anonymous": false,
      "inputs": [],
      "name": "EIP712DomainChanged",
      "type": "event"
    },
    {
      "anonymous": false,
      "inputs": [
        {
          "indexed": false,
          "internalType": "uint256",
          "name": "proposalId",
          "type": "uint256"
        }
      ],
      "name": "ProposalCanceled",
      "type": "event"
    },
    {
      "anonymous": false,
      "inputs": [
        {
          "indexed": false,
          "internalType": "uint256",
          "name": "proposalId",
          "type": "uint256"
        },
        {
          "indexed": false,
          "internalType": "address",
          "name": "proposer",
          "type": "address"
        },
        {
          "indexed": false,
          "internalType": "address[]",
          "name": "targets",
          "type": "address[]"
        },
        {
          "indexed": false,
          "internalType": "uint256[]",
          "name": "values",
          "type": "uint256[]"
        },
        {
          "indexed": false,
          "internalType": "string[]",
          "name": "signatures",
          "type": "string[]"
        },
        {
          "indexed": false,
          "internalType": "bytes[]",
          "name": "calldatas",
          "type": "bytes[]"
        },
        {
          "indexed": false,
          "internalType": "uint256",
          "name": "voteStart",
          "type": "uint256"
        },
        {
          "indexed": false,
          "internalType": "uint256",
          "name": "voteEnd",
          "type": "uint256"
        },
        {
          "indexed": false,
          "internalType": "string",
          "name": "description",
          "type": "string"
        }
      ],
      "name": "ProposalCreated",
      "type": "event"
    },
    {
      "anonymous": false,
      "inputs": [
        {
          "indexed": false,
          "internalType": "uint256",
          "name": "proposalId",
          "type": "uint256"
        }
      ],
      "name": "ProposalExecuted",
      "type": "event"
    },
    {
      "anonymous": false,
      "inputs": [
        {
          "indexed": false,
          "internalType": "uint256",
          "name": "proposalId",
          "type": "uint256"
        },
        {
          "indexed": false,
          "internalType": "uint256",
          "name": "etaSeconds",
          "type": "uint256"
        }
      ],
      "name": "ProposalQueued",
      "type": "event"
    },
    {
      "anonymous": false,
      "inputs": [
        {
          "indexed": false,
          "internalType": "uint256",
          "name": "oldProposalThreshold",
          "type": "uint256"
        },
        {
          "indexed": false,
          "internalType": "uint256",
          "name": "newProposalThreshold",
          "type": "uint256"
        }
      ],
      "name": "ProposalThresholdSet",
      "type": "event"
    },
    {
      "anonymous": false,
      "inputs": [
        {
          "indexed": false,
          "internalType": "uint256",
          "name": "oldQuorumNumerator",
          "type": "uint256"
        },
        {
          "indexed": false,
          "internalType": "uint256",
          "name": "newQuorumNumerator",
          "type": "uint256"
        }
      ],
      "name": "QuorumNumeratorUpdated",
      "type": "event"
    },
    {
      "anonymous": false,
      "inputs": [
        {
          "indexed": false,
          "internalType": "address",
          "name": "oldTimelock",
          "type": "address"
        },
        {
          "indexed": false,
          "internalType": "address",
          "name": "newTimelock",
          "type": "address"
        }
      ],
      "name": "TimelockChange",
      "type": "event"
    },
    {
      "anonymous": false,
      "inputs": [
        {
          "indexed": true,
          "internalType": "address",
          "name": "voter",
          "type": "address"
        },
        {
          "indexed": false,
          "internalType": "uint256",
          "name": "proposalId",
          "type": "uint256"
        },
        {
          "indexed": false,
          "internalType": "uint8",
          "name": "support",
          "type": "uint8"
        },
        {
          "indexed": false,
          "internalType": "uint256",
          "name": "weight",
          "type": "uint256"
        },
        {
          "indexed": false,
          "internalType": "string",
          "name": "reason",
          "type": "string"
        }
      ],
      "name": "VoteCast",
      "type": "event"
    },
    {
      "anonymous": false,
      "inputs": [
        {
          "indexed": true,
          "internalType": "address",
          "name": "voter",
          "type": "address"
        },
        {
          "indexed": false,
          "internalType": "uint256",
          "name": "proposalId",
          "type": "uint256"
        },
        {
          "indexed": false,
          "internalType": "uint8",
          "name": "support",
          "type": "uint8"
        },
        {
          "indexed": false,
          "internalType": "uint256",
          "name": "weight",
          "type": "uint256"
        },
        {
          "indexed": false,
          "internalType": "string",
          "name": "reason",
          "type": "string"
        },
        {
          "indexed": false,
          "internalType": "bytes",
          "name": "params",
          "type": "bytes"
        }
      ],
      "name": "VoteCastWithParams",
      "type": "event"
    },
    {
      "anonymous": false,
      "inputs": [
        {
          "indexed": false,
          "internalType": "uint256",
          "name": "oldVotingDelay",
          "type": "uint256"
        },
        {
          "indexed": false,
          "internalType": "uint256",
          "name": "newVotingDelay",
          "type": "uint256"
        }
      ],
      "name": "VotingDelaySet",
      "type": "event"
    },
    {
      "anonymous": false,
      "inputs": [
        {
          "indexed": false,
          "internalType": "uint256",
          "name": "oldVotingPeriod",
          "type": "uint256"
        },
        {
          "indexed": false,
          "internalType": "uint256",
          "name": "newVotingPeriod",
          "type": "uint256"
        }
      ],
      "name": "VotingPeriodSet",
      "type": "event"
    },
    {
      "inputs": [],
      "name": "CheckpointUnorderedInsertion",
      "type": "error"
    },
    {
      "inputs": [],
      "name": "FailedCall",
      "type": "error"
    },
    {
      "inputs": [
        {
          "internalType": "address",
          "name": "voter",
          "type": "address"
        }
      ],
      "name": "GovernorAlreadyCastVote",
      "type": "error"
    },
    {
      "inputs": [
        {
          "internalType": "uint256",
          "name": "proposalId",
          "type": "uint256"
        }
      ],
      "name": "GovernorAlreadyQueuedProposal",
      "type": "error"
    },
    {
      "inputs": [],
      "name": "GovernorDisabledDeposit",
      "type": "error"
    },
    {
      "inputs": [
        {
          "internalType": "address",
          "name": "proposer",
          "type": "address"
        },
        {
          "internalType": "uint256",
          "name": "votes",
          "type": "uint256"
        },
        {
          "internalType": "uint256",
          "name": "threshold",
          "type": "uint256"
        }
      ],
      "name": "GovernorInsufficientProposerVotes",
      "type": "error"
    },
    {
      "inputs": [
        {
          "internalType": "uint256",
          "name": "targets",
          "type": "uint256"
        },
        {
          "internalType": "uint256",
          "name": "calldatas",
          "type": "uint256"
        },
        {
          "internalType": "uint256",
          "name": "values",
          "type": "uint256"
        }
      ],
      "name": "GovernorInvalidProposalLength",
      "type": "error"
    },
    {
      "inputs": [
        {
          "internalType": "uint256",
          "name": "quorumNumerator",
          "type": "uint256"
        },
        {
          "internalType": "uint256",
          "name": "quorumDenominator",
          "type": "uint256"
        }
      ],
      "name": "GovernorInvalidQuorumFraction",
      "type": "error"
    },
    {
      "inputs": [
        {
          "internalType": "address",
          "name": "voter",
          "type": "address"
        }
      ],
      "name": "GovernorInvalidSignature",
      "type": "error"
    },
    {
      "inputs": [],
      "name": "GovernorInvalidVoteType",
      "type": "error"
    },
    {
      "inputs": [
        {
          "internalType": "uint256",
          "name": "votingPeriod",
          "type": "uint256"
        }
      ],
      "name": "GovernorInvalidVotingPeriod",
      "type": "error"
    },
    {
      "inputs": [
        {
          "internalType": "uint256",
          "name": "proposalId",
          "type": "uint256"
        }
      ],
      "name": "GovernorNonexistentProposal",
      "type": "error"
    },
    {
      "inputs": [
        {
          "internalType": "uint256",
          "name": "proposalId",
          "type": "uint256"
        }
      ],
      "name": "GovernorNotQueuedProposal",
      "type": "error"
    },
    {
      "inputs": [
        {
          "internalType": "address",
          "name": "account",
          "type": "address"
        }
      ],
      "name": "GovernorOnlyExecutor",
      "type": "error"
    },
    {
      "inputs": [
        {
          "internalType": "address",
          "name": "account",
          "type": "address"
        }
      ],
      "name": "GovernorOnlyProposer",
      "type": "error"
    },
    {
      "inputs": [],
      "name": "GovernorQueueNotImplemented",
      "type": "error"
    },
    {
      "inputs": [
        {
          "internalType": "address",
          "name": "proposer",
          "type": "address"
        }
      ],
      "name": "GovernorRestrictedProposer",
      "type": "error"
    },
    {
      "inputs": [
        {
          "internalType": "uint256",
          "name": "proposalId",
          "type": "uint256"
        },
        {
          "internalType": "enum IGovernor.ProposalState",
          "name": "current",
          "type": "uint8"
        },
        {
          "internalType": "bytes32",
          "name": "expectedStates",
          "type": "bytes32"
        }
      ],
      "name": "GovernorUnexpectedProposalState",
      "type": "error"
    },
    {
      "inputs": [
        {
          "internalType": "address",
          "name": "account",
          "type": "address"
        },
        {
          "internalType": "uint256",
          "name": "currentNonce",
          "type": "uint256"
        }
      ],
      "name": "InvalidAccountNonce",
      "type": "error"
    },
    {
      "inputs": [],
      "name": "InvalidShortString",
      "type": "error"
    },
    {
      "inputs": [
        {
          "internalType": "uint8",
          "name": "bits",
          "type": "uint8"
        },
        {
          "internalType": "uint256",
          "name": "value",
          "type": "uint256"
        }
      ],
      "name": "SafeCastOverflowedUintDowncast",
      "type": "error"
    },
    {
      "inputs": [
        {
          "internalType": "string",
          "name": "str",
          "type": "string"
        }
      ],
      "name": "StringTooLong",
      "type": "error"
    },
    {
      "inputs": [],
      "name": "VeSiloAlreadyInitialized",
      "type": "error"
    }
  ],
  "bytecode": "0x61018060405234801562000011575f80fd5b506040516200492b3803806200492b833981016040819052620000349162000735565b8160015f600162093a8069152d02c7e14af68000006040518060400160405280600c81526020016b29b4b637a3b7bb32b93737b960a11b815250806200007f620001b360201b60201c565b6200008b825f620001ce565b610120526200009c816001620001ce565b61014052815160208084019190912060e052815190820120610100524660a0526200012960e05161010051604080517f8b73c3c69bb8fe3d512ecc4cf759cc79239f7b179b0ffacaa9a75d522b39400f60208201529081019290925260608201524660808201523060a08201525f9060c00160405160208183030381529060405280519060200120905090565b60805250503060c052600362000140828262000810565b506200014e90508362000206565b62000159826200026c565b620001648162000311565b5050506001600160a01b0316610160526200017f8162000352565b506200018b81620003f1565b50600d80546001600160a01b0319166001600160a01b0392909216919091179055506200096e565b6040805180820190915260018152603160f81b602082015290565b5f602083511015620001ed57620001e5836200045a565b905062000200565b81620001fa848262000810565b5060ff90505b92915050565b6008546040805165ffffffffffff928316815291831660208301527fc565b045403dc03c2eea82b81a0465edad9e2e7fc4d97e11421c209da93d7a93910160405180910390a16008805465ffffffffffff191665ffffffffffff92909216919091179055565b8063ffffffff165f036200029a5760405163f1cfbf0560e01b81525f60048201526024015b60405180910390fd5b6008546040805163ffffffff66010000000000009093048316815291831660208301527f7e3f7f0708a84de9203036abaa450dccc85ad5ff52f78c170f3edb55cf5e8828910160405180910390a16008805463ffffffff90921666010000000000000263ffffffff60301b19909216919091179055565b60075460408051918252602082018390527fccb45da8d5717e6c4544694297c4ba5cf151d455c9bb0ed4fc7a38411bc05461910160405180910390a1600755565b606480821115620003815760405163243e544560e01b8152600481018390526024810182905260440162000291565b5f6200038c6200049c565b9050620003b16200039c620004b7565b620003a785620004c8565b600a919062000501565b505060408051828152602081018590527f0553476bf02ef2726e8ce5ced78d63e26e602e4a2257b1f559418e24b4633997910160405180910390a1505050565b600b54604080516001600160a01b03928316815291831660208301527f08f74ea46ef7894f65eabfb5e6e695de773a000b47c529ab559178069b226401910160405180910390a1600b80546001600160a01b0319166001600160a01b0392909216919091179055565b5f80829050601f8151111562000487578260405163305a27a960e01b8152600401620002919190620008dc565b805162000494826200092a565b179392505050565b5f620004a9600a6200051d565b6001600160d01b0316905090565b5f620004c3426200056a565b905090565b5f6001600160d01b03821115620004fd576040516306dfcc6560e41b815260d060048201526024810183905260440162000291565b5090565b5f80620005108585856200059e565b915091505b935093915050565b80545f908015620005615762000547836200053a6001846200094e565b5f91825260209091200190565b54660100000000000090046001600160d01b031662000563565b5f5b9392505050565b5f65ffffffffffff821115620004fd576040516306dfcc6560e41b8152603060048201526024810183905260440162000291565b82545f9081908015620006bf575f620005be876200053a6001856200094e565b805490915065ffffffffffff80821691660100000000000090046001600160d01b03169088168211156200060557604051632520601d60e01b815260040160405180910390fd5b8765ffffffffffff168265ffffffffffff16036200065d5786620006308a6200053a6001886200094e565b80546001600160d01b039290921666010000000000000265ffffffffffff909216919091179055620006b0565b6040805180820190915265ffffffffffff808a1682526001600160d01b03808a1660208085019182528d54600181018f555f8f815291909120945191519092166601000000000000029216919091179101555b94508593506200051592505050565b50506040805180820190915265ffffffffffff80851682526001600160d01b0380851660208085019182528854600181018a555f8a815291822095519251909316660100000000000002919093161792019190915590508162000515565b6001600160a01b038116811462000732575f80fd5b50565b5f806040838503121562000747575f80fd5b825162000754816200071d565b602084015190925062000767816200071d565b809150509250929050565b634e487b7160e01b5f52604160045260245ffd5b600181811c908216806200079b57607f821691505b602082108103620007ba57634e487b7160e01b5f52602260045260245ffd5b50919050565b601f8211156200080b57805f5260205f20601f840160051c81016020851015620007e75750805b601f840160051c820191505b8181101562000808575f8155600101620007f3565b50505b505050565b81516001600160401b038111156200082c576200082c62000772565b62000844816200083d845462000786565b84620007c0565b602080601f8311600181146200087a575f8415620008625750858301515b5f19600386901b1c1916600185901b178555620008d4565b5f85815260208120601f198616915b82811015620008aa5788860151825594840194600190910190840162000889565b5085821015620008c857878501515f19600388901b60f8161c191681555b505060018460011b0185555b505050505050565b5f602080835283518060208501525f5b818110156200090a57858101830151858201604001528201620008ec565b505f604082860101526040601f19601f8301168501019250505092915050565b80516020808301519190811015620007ba575f1960209190910360031b1b16919050565b818103818111156200020057634e487b7160e01b5f52601160045260245ffd5b60805160a05160c05160e05161010051610120516101405161016051613f61620009ca5f395f610a1301525f611ec901525f611e9d01525f61269201525f61266a01525f6125c501525f6125ef01525f6126190152613f615ff3fe6080604052600436106102a8575f3560e01c80637d5e81e21161016f578063bc197c81116100d8578063deaaa7cc11610092578063ece40cc11161006d578063ece40cc1146109a8578063f23a6e61146109c7578063f8ce560a146109e6578063fc0c546a14610a05575f80fd5b8063deaaa7cc14610937578063e540d01d1461096a578063eb9019d414610989575f80fd5b8063bc197c8114610865578063c01f9e3714610884578063c28bc2fa146108a3578063c59057e4146108b6578063d33219b4146108d5578063dd4e2ba5146108f2575f80fd5b80639a802a6d116101295780639a802a6d146107aa578063a7713a70146107c9578063a890c910146107dd578063a9a95294146107fc578063ab58fb8e1461081b578063b58131b014610851575f80fd5b80637d5e81e2146106d35780637ecebe00146106f257806384b0196e146107265780638ff262e31461074d57806391ddadf41461076c57806397c3d33414610797575f80fd5b806343859632116102115780635b8d0e0d116101cb5780635b8d0e0d146106195780635f398a141461063857806360c4247f14610657578063650a0bd41461067657806379051887146106955780637b3c71d3146106b4575f80fd5b806343859632146104d2578063452115d61461051a5780634bf5d7e914610539578063544ffc9c1461057e57806354fd4d50146105d157806356781388146105fa575f80fd5b8063160cbed711610262578063160cbed7146104065780632656227d146104255780632d63f693146104385780632fe3e261146104575780633932abb11461048a5780633e4f49e6146104a6575f80fd5b806301ffc9a7146102e357806302a251a31461031757806306f3f9e61461034257806306fdde0314610361578063143489d014610382578063150b7a02146103ce575f80fd5b366102df57306102b6610a37565b6001600160a01b0316146102dd57604051637485328f60e11b815260040160405180910390fd5b005b5f80fd5b3480156102ee575f80fd5b506103026102fd366004612fd6565b610a4f565b60405190151581526020015b60405180910390f35b348015610322575f80fd5b50600854600160301b900463ffffffff165b60405190815260200161030e565b34801561034d575f80fd5b506102dd61035c366004612ffd565b610a5f565b34801561036c575f80fd5b50610375610a73565b60405161030e9190613061565b34801561038d575f80fd5b506103b661039c366004612ffd565b5f908152600460205260409020546001600160a01b031690565b6040516001600160a01b03909116815260200161030e565b3480156103d9575f80fd5b506103ed6103e836600461313d565b610b03565b6040516001600160e01b0319909116815260200161030e565b348015610411575f80fd5b50610334610420366004613311565b610b45565b610334610433366004613311565b610c11565b348015610443575f80fd5b50610334610452366004612ffd565b610d79565b348015610462575f80fd5b506103347f3e83946653575f9a39005e1545185629e92736b7528ab20ca3816f315424a81181565b348015610495575f80fd5b5060085465ffffffffffff16610334565b3480156104b1575f80fd5b506104c56104c0366004612ffd565b610d99565b60405161030e91906133ce565b3480156104dd575f80fd5b506103026104ec3660046133dc565b5f8281526009602090815260408083206001600160a01b038516845260030190915290205460ff1692915050565b348015610525575f80fd5b50610334610534366004613311565b610da3565b348015610544575f80fd5b506040805180820190915260208082527f6d6f64653d626c6f636b74696d657374616d702666726f6d3d64656661756c7490820152610375565b348015610589575f80fd5b506105b6610598366004612ffd565b5f908152600960205260409020805460018201546002909201549092565b6040805193845260208401929092529082015260600161030e565b3480156105dc575f80fd5b506040805180820190915260018152603160f81b6020820152610375565b348015610605575f80fd5b5061033461061436600461341f565b610e14565b348015610624575f80fd5b5061033461063336600461348d565b610e3b565b348015610643575f80fd5b5061033461065236600461353f565b610f97565b348015610662575f80fd5b50610334610671366004612ffd565b610fea565b348015610681575f80fd5b50600d546103b6906001600160a01b031681565b3480156106a0575f80fd5b506102dd6106af3660046135bc565b611076565b3480156106bf575f80fd5b506103346106ce3660046135e1565b611087565b3480156106de575f80fd5b506103346106ed366004613636565b6110cd565b3480156106fd575f80fd5b5061033461070c3660046136e2565b6001600160a01b03165f9081526002602052604090205490565b348015610731575f80fd5b5061073a611183565b60405161030e9796959493929190613737565b348015610758575f80fd5b506103346107673660046137a6565b6111c5565b348015610777575f80fd5b50610780611294565b60405165ffffffffffff909116815260200161030e565b3480156107a2575f80fd5b506064610334565b3480156107b5575f80fd5b506103346107c43660046137f3565b61129e565b3480156107d4575f80fd5b506103346112aa565b3480156107e8575f80fd5b506102dd6107f73660046136e2565b6112c3565b348015610807575f80fd5b50610302610816366004612ffd565b6112d4565b348015610826575f80fd5b50610334610835366004612ffd565b5f9081526004602052604090206001015465ffffffffffff1690565b34801561085c575f80fd5b506103346112dc565b348015610870575f80fd5b506103ed61087f366004613847565b6112e6565b34801561088f575f80fd5b5061033461089e366004612ffd565b611329565b6102dd6108b13660046138d3565b61136b565b3480156108c1575f80fd5b506103346108d0366004613311565b6113e7565b3480156108e0575f80fd5b50600b546001600160a01b03166103b6565b3480156108fd575f80fd5b506040805180820190915260208082527f737570706f72743d627261766f2671756f72756d3d666f722c6162737461696e90820152610375565b348015610942575f80fd5b506103347ff2aad550cf55f045cb27e9c559f9889fdfb6e6cdaa032301d6ea397784ae51d781565b348015610975575f80fd5b506102dd610984366004613912565b611420565b348015610994575f80fd5b506103346109a3366004613935565b611431565b3480156109b3575f80fd5b506102dd6109c2366004612ffd565b611457565b3480156109d2575f80fd5b506103ed6109e136600461395f565b611468565b3480156109f1575f80fd5b50610334610a00366004612ffd565b6114ab565b348015610a10575f80fd5b507f00000000000000000000000000000000000000000000000000000000000000006103b6565b5f610a4a600b546001600160a01b031690565b905090565b5f610a5982611536565b92915050565b610a67611585565b610a70816115fe565b50565b606060038054610a82906139c2565b80601f0160208091040260200160405190810160405280929190818152602001828054610aae906139c2565b8015610af95780601f10610ad057610100808354040283529160200191610af9565b820191905f5260205f20905b815481529060010190602001808311610adc57829003601f168201915b5050505050905090565b5f30610b0d610a37565b6001600160a01b031614610b3457604051637485328f60e11b815260040160405180910390fd5b50630a85bd0160e11b949350505050565b5f80610b53868686866113e7565b9050610b6881610b636004611693565b6116b5565b505f610b7782888888886116f2565b905065ffffffffffff811615610bee575f82815260046020908152604091829020600101805465ffffffffffff191665ffffffffffff85169081179091558251858152918201527f9a2e42fd6722813d69113e7d0079d3d940171428df7373df9c7f7617cfda2892910160405180910390a1610c07565b604051634844252360e11b815260040160405180910390fd5b5095945050505050565b5f80610c1f868686866113e7565b9050610c3f81610c2f6005611693565b610c396004611693565b176116b5565b505f818152600460205260409020805460ff60f01b1916600160f01b17905530610c67610a37565b6001600160a01b031614610cf0575f5b8651811015610cee57306001600160a01b0316878281518110610c9c57610c9c6139fa565b60200260200101516001600160a01b031603610ce657610ce6858281518110610cc757610cc76139fa565b602002602001015180519060200120600561170090919063ffffffff16565b600101610c77565b505b610cfd8187878787611761565b30610d06610a37565b6001600160a01b031614158015610d3257506005546001600160801b03808216600160801b9092041614155b15610d3c575f6005555b6040518181527f712ae1383f79ac853f8d882153778e0260ef8f03b504e2866e0593e04d2b291f906020015b60405180910390a195945050505050565b5f90815260046020526040902054600160a01b900465ffffffffffff1690565b5f610a5982611775565b5f80610db1868686866113e7565b9050610dc081610b635f611693565b505f818152600460205260409020546001600160a01b03163314610dfe5760405163233d98e360e01b81523360048201526024015b60405180910390fd5b610e0a868686866118ae565b9695505050505050565b5f80339050610e3384828560405180602001604052805f8152506118c4565b949350505050565b5f80610f1c87610f167f3e83946653575f9a39005e1545185629e92736b7528ab20ca3816f315424a8118c8c8c610e8e8e6001600160a01b03165f90815260026020526040902080546001810190915590565b8d8d604051610e9e929190613a0e565b60405180910390208c80519060200120604051602001610efb9796959493929190968752602087019590955260ff9390931660408601526001600160a01b03919091166060850152608084015260a083015260c082015260e00190565b604051602081830303815290604052805190602001206118e5565b85611911565b905080610f47576040516394ab6c0760e01b81526001600160a01b0388166004820152602401610df5565b610f8a89888a89898080601f0160208091040260200160405190810160405280939291908181526020018383808284375f920191909152508b9250611966915050565b9998505050505050505050565b5f80339050610fdf87828888888080601f0160208091040260200160405190810160405280939291908181526020018383808284375f920191909152508a9250611966915050565b979650505050505050565b600a80545f918290610ffd600184613a31565b8154811061100d5761100d6139fa565b5f918252602090912001805490915065ffffffffffff811690600160301b90046001600160d01b031685821161104f576001600160d01b031695945050505050565b61106361105b87611a40565b600a90611a76565b6001600160d01b03169695505050505050565b61107e611585565b610a7081611b25565b5f80339050610e0a86828787878080601f0160208091040260200160405190810160405280939291908181526020018383808284375f920191909152506118c492505050565b5f336110d98184611b8b565b6111015760405163d9b3955760e01b81526001600160a01b0382166004820152602401610df5565b5f61110a6112dc565b90508015611176575f611138836001611121611294565b61112b9190613a44565b65ffffffffffff16611431565b90508181101561117457604051636121770b60e11b81526001600160a01b03841660048201526024810182905260448101839052606401610df5565b505b610fdf8787878786611c73565b5f6060805f805f6060611194611e96565b61119c611ec2565b604080515f80825260208201909252600f60f81b9b939a50919850469750309650945092509050565b5f8061124f84610f167ff2aad550cf55f045cb27e9c559f9889fdfb6e6cdaa032301d6ea397784ae51d78989896112188b6001600160a01b03165f90815260026020526040902080546001810190915590565b60408051602081019690965285019390935260ff90911660608401526001600160a01b0316608083015260a082015260c001610efb565b90508061127a576040516394ab6c0760e01b81526001600160a01b0385166004820152602401610df5565b610e0a86858760405180602001604052805f8152506118c4565b5f610a4a42611a40565b5f610e33848484611eef565b5f6112b5600a611f60565b6001600160d01b0316905090565b6112cb611585565b610a7081611f97565b5f6001610a59565b5f610a4a60075490565b5f306112f0610a37565b6001600160a01b03161461131757604051637485328f60e11b815260040160405180910390fd5b5063bc197c8160e01b95945050505050565b5f8181526004602052604081205461135d90600160d01b810463ffffffff1690600160a01b900465ffffffffffff16613a6a565b65ffffffffffff1692915050565b611373611585565b5f80856001600160a01b0316858585604051611390929190613a0e565b5f6040518083038185875af1925050503d805f81146113ca576040519150601f19603f3d011682016040523d82523d5f602084013e6113cf565b606091505b50915091506113de8282612000565b50505050505050565b5f848484846040516020016113ff9493929190613b19565b60408051601f19818403018152919052805160209091012095945050505050565b611428611585565b610a708161201c565b5f611450838361144b60408051602081019091525f815290565b611eef565b9392505050565b61145f611585565b610a70816120b8565b5f30611472610a37565b6001600160a01b03161461149957604051637485328f60e11b815260040160405180910390fd5b5063f23a6e6160e01b95945050505050565b5f60646114b783610fea565b600d5460405163bd85b03960e01b8152600481018690526001600160a01b039091169063bd85b03990602401602060405180830381865afa1580156114fe573d5f803e3d5ffd5b505050506040513d601f19601f820116820180604052508101906115229190613b63565b61152c9190613b7a565b610a599190613ba5565b5f6001600160e01b031982166332a2ad4360e11b148061156657506001600160e01b03198216630271189760e51b145b80610a5957506301ffc9a760e01b6001600160e01b0319831614610a59565b3361158e610a37565b6001600160a01b0316146115b7576040516347096e4760e01b8152336004820152602401610df5565b306115c0610a37565b6001600160a01b0316146115fc575f80366040516115df929190613a0e565b604051809103902090505b806115f560056120f9565b036115ea57505b565b60648082111561162b5760405163243e544560e01b81526004810183905260248101829052604401610df5565b5f6116346112aa565b9050611653611641611294565b61164a85612166565b600a9190612199565b505060408051828152602081018590527f0553476bf02ef2726e8ce5ced78d63e26e602e4a2257b1f559418e24b4633997910160405180910390a1505050565b5f8160078111156116a6576116a661339a565b600160ff919091161b92915050565b5f806116c084610d99565b90505f836116cd83611693565b1603611450578381846040516331b75e4d60e01b8152600401610df593929190613bc4565b5f610e0a86868686866121b3565b81546001600160801b03600160801b82048116918116600183019091160361172c5761172c6041612350565b6001600160801b038082165f90815260018086016020526040909120939093558354919092018216600160801b029116179055565b61176e8585858585612361565b5050505050565b5f80611780836123f1565b905060058160078111156117965761179661339a565b146117a15792915050565b5f838152600c60205260409081902054600b549151632c258a9f60e11b81526004810182905290916001600160a01b03169063584b153e90602401602060405180830381865afa1580156117f7573d5f803e3d5ffd5b505050506040513d601f19601f8201168201806040525081019061181b9190613be6565b1561182a575060059392505050565b600b54604051632ab0f52960e01b8152600481018390526001600160a01b0390911690632ab0f52990602401602060405180830381865afa158015611871573d5f803e3d5ffd5b505050506040513d601f19601f820116820180604052508101906118959190613be6565b156118a4575060079392505050565b5060029392505050565b5f6118bb85858585612522565b95945050505050565b5f6118bb858585856118e060408051602081019091525f815290565b611966565b5f610a596118f16125b9565b8360405161190160f01b8152600281019290925260228201526042902090565b5f805f61191e85856126e2565b5090925090505f8160038111156119375761193761339a565b1480156119555750856001600160a01b0316826001600160a01b0316145b80610e0a5750610e0a86868661272b565b5f61197586610b636001611693565b505f61198a8661198489610d79565b85611eef565b90506119998787878487612801565b82515f036119ed57856001600160a01b03167fb8e138887d0aa13bab447e82de9d5c1777041ecd21ca36ba824ff1e6c07ddda4888784886040516119e09493929190613c05565b60405180910390a2610e0a565b856001600160a01b03167fe2babfbac5889a709b63bb7f598b324e08bc5a4fb9ec647fb3cbc9ec07eb87128887848888604051611a2e959493929190613c2c565b60405180910390a29695505050505050565b5f65ffffffffffff821115611a72576040516306dfcc6560e41b81526030600482015260248101839052604401610df5565b5090565b81545f9081816005811115611ad2575f611a8f846128fb565b611a999085613a31565b5f8881526020902090915081015465ffffffffffff9081169087161015611ac257809150611ad0565b611acd816001613c65565b92505b505b5f611adf87878585612a53565b90508015611b1957611b0387611af6600184613a31565b5f91825260209091200190565b54600160301b90046001600160d01b0316610fdf565b5f979650505050505050565b6008546040805165ffffffffffff928316815291831660208301527fc565b045403dc03c2eea82b81a0465edad9e2e7fc4d97e11421c209da93d7a93910160405180910390a16008805465ffffffffffff191665ffffffffffff92909216919091179055565b80515f906034811015611ba2576001915050610a59565b82810160131901516001600160a01b031981166b046e0e4dee0dee6cae47a60f60a31b14611bd557600192505050610a59565b5f80611be2602885613a31565b90505b83811015611c52575f80611c18888481518110611c0457611c046139fa565b01602001516001600160f81b031916612ab2565b9150915081611c305760019650505050505050610a59565b8060ff166004856001600160a01b0316901b1793505050806001019050611be5565b50856001600160a01b0316816001600160a01b031614935050505092915050565b5f611c8786868686805190602001206113e7565b905084518651141580611c9c57508351865114155b80611ca657508551155b15611cdb57855184518651604051630447b05d60e41b8152600481019390935260248301919091526044820152606401610df5565b5f81815260046020526040902054600160a01b900465ffffffffffff1615611d245780611d0782610d99565b6040516331b75e4d60e01b8152610df59291905f90600401613bc4565b5f611d3660085465ffffffffffff1690565b611d3e611294565b65ffffffffffff16611d509190613c65565b90505f611d6a60085463ffffffff600160301b9091041690565b5f84815260046020526040902080546001600160a01b0319166001600160a01b038716178155909150611d9c83611a40565b815465ffffffffffff91909116600160a01b0265ffffffffffff60a01b19909116178155611dc982612b42565b815463ffffffff91909116600160d01b0263ffffffff60d01b1990911617815588517f7d84a6263ae0d98d3329bd7b46bb4e8d6f98cd35a7adb45c274c8b7fd5ebd5e090859087908c908c906001600160401b03811115611e2c57611e2c613087565b604051908082528060200260200182016040528015611e5f57816020015b6060815260200190600190039081611e4a5790505b508c89611e6c8a82613c65565b8e604051611e8299989796959493929190613c78565b60405180910390a150505095945050505050565b6060610a4a7f00000000000000000000000000000000000000000000000000000000000000005f612b72565b6060610a4a7f00000000000000000000000000000000000000000000000000000000000000006001612b72565b600d54604051627eeac760e11b81526001600160a01b038581166004830152602482018590525f92169062fdd58e90604401602060405180830381865afa158015611f3c573d5f803e3d5ffd5b505050506040513d601f19601f82011682018060405250810190610e339190613b63565b80545f908015611f8f57611f7983611af6600184613a31565b54600160301b90046001600160d01b0316611450565b5f9392505050565b600b54604080516001600160a01b03928316815291831660208301527f08f74ea46ef7894f65eabfb5e6e695de773a000b47c529ab559178069b226401910160405180910390a1600b80546001600160a01b0319166001600160a01b0392909216919091179055565b6060826120155761201082612c1b565b610a59565b5080610a59565b8063ffffffff165f036120445760405163f1cfbf0560e01b81525f6004820152602401610df5565b6008546040805163ffffffff600160301b9093048316815291831660208301527f7e3f7f0708a84de9203036abaa450dccc85ad5ff52f78c170f3edb55cf5e8828910160405180910390a16008805463ffffffff909216600160301b0269ffffffff00000000000019909216919091179055565b60075460408051918252602082018390527fccb45da8d5717e6c4544694297c4ba5cf151d455c9bb0ed4fc7a38411bc05461910160405180910390a1600755565b80545f906001600160801b0380821691600160801b9004168103612121576121216031612350565b6001600160801b038181165f908152600185810160205260408220805492905585546fffffffffffffffffffffffffffffffff19169301909116919091179092555090565b5f6001600160d01b03821115611a72576040516306dfcc6560e41b815260d0600482015260248101839052604401610df5565b5f806121a6858585612c44565b915091505b935093915050565b5f80600b5f9054906101000a90046001600160a01b03166001600160a01b031663f27a0c926040518163ffffffff1660e01b8152600401602060405180830381865afa158015612205573d5f803e3d5ffd5b505050506040513d601f19601f820116820180604052508101906122299190613b63565b90505f3060601b6bffffffffffffffffffffffff19168418600b5460405163b1c5f42760e01b81529192506001600160a01b03169063b1c5f4279061227a908a908a908a905f908890600401613d4d565b602060405180830381865afa158015612295573d5f803e3d5ffd5b505050506040513d601f19601f820116820180604052508101906122b99190613b63565b5f898152600c602052604080822092909255600b5491516308f2a0bb60e41b81526001600160a01b0390921691638f2a0bb091612303918b918b918b919088908a90600401613d9a565b5f604051808303815f87803b15801561231a575f80fd5b505af115801561232c573d5f803e3d5ffd5b50505050612344824261233f9190613c65565b611a40565b98975050505050505050565b634e487b715f52806020526024601cfd5b600b546001600160a01b031663e38335e5348686865f3060601b6bffffffffffffffffffffffff191688186040518763ffffffff1660e01b81526004016123ac959493929190613d4d565b5f604051808303818588803b1580156123c3575f80fd5b505af11580156123d5573d5f803e3d5ffd5b5050505f9687525050600c602052505060408320929092555050565b5f818152600460205260408120805460ff600160f01b8204811691600160f81b900416811561242557506007949350505050565b801561243657506002949350505050565b5f61244086610d79565b9050805f0361246557604051636ad0607560e01b815260048101879052602401610df5565b5f61246e611294565b65ffffffffffff16905080821061248b57505f9695505050505050565b5f61249588611329565b90508181106124ac57506001979650505050505050565b6124b588612dab565b15806124d457505f888152600960205260409020805460019091015411155b156124e757506003979650505050505050565b5f8881526004602052604090206001015465ffffffffffff165f0361251457506004979650505050505050565b506005979650505050505050565b5f8061253086868686612de1565b5f818152600c60205260409020549091508015610c0757600b5460405163c4d252f560e01b8152600481018390526001600160a01b039091169063c4d252f5906024015f604051808303815f87803b15801561258a575f80fd5b505af115801561259c573d5f803e3d5ffd5b5050505f838152600c602052604081205550509050949350505050565b5f306001600160a01b037f00000000000000000000000000000000000000000000000000000000000000001614801561261157507f000000000000000000000000000000000000000000000000000000000000000046145b1561263b57507f000000000000000000000000000000000000000000000000000000000000000090565b610a4a604080517f8b73c3c69bb8fe3d512ecc4cf759cc79239f7b179b0ffacaa9a75d522b39400f60208201527f0000000000000000000000000000000000000000000000000000000000000000918101919091527f000000000000000000000000000000000000000000000000000000000000000060608201524660808201523060a08201525f9060c00160405160208183030381529060405280519060200120905090565b5f805f8351604103612719576020840151604085015160608601515f1a61270b88828585612e90565b955095509550505050612724565b505081515f91506002905b9250925092565b5f805f856001600160a01b0316858560405160240161274b929190613df1565b60408051601f198184030181529181526020820180516001600160e01b0316630b135d3f60e11b179052516127809190613e09565b5f60405180830381855afa9150503d805f81146127b8576040519150601f19603f3d011682016040523d82523d5f602084013e6127bd565b606091505b50915091508180156127d157506020815110155b8015610e0a57508051630b135d3f60e11b906127f69083016020908101908401613b63565b149695505050505050565b5f8581526009602090815260408083206001600160a01b0388168452600381019092529091205460ff1615612854576040516371c6af4960e01b81526001600160a01b0386166004820152602401610df5565b6001600160a01b0385165f9081526003820160205260409020805460ff1916600117905560ff841661289d5782815f015f8282546128929190613c65565b909155506128f39050565b5f1960ff8516016128bb5782816001015f8282546128929190613c65565b60011960ff8516016128da5782816002015f8282546128929190613c65565b6040516303599be160e11b815260040160405180910390fd5b505050505050565b5f60018211612908575090565b816001600160801b82106129215760809190911c9060401b5b68010000000000000000821061293c5760409190911c9060201b5b64010000000082106129535760209190911c9060101b5b6201000082106129685760109190911c9060081b5b610100821061297c5760089190911c9060041b5b6010821061298f5760049190911c9060021b5b6004821061299b5760011b5b600302600190811c908185816129b3576129b3613b91565b048201901c905060018185816129cb576129cb613b91565b048201901c905060018185816129e3576129e3613b91565b048201901c905060018185816129fb576129fb613b91565b048201901c90506001818581612a1357612a13613b91565b048201901c90506001818581612a2b57612a2b613b91565b048201901c9050612a4a818581612a4457612a44613b91565b04821190565b90039392505050565b5f5b81831015612aaa575f612a688484612f58565b5f8781526020902090915065ffffffffffff86169082015465ffffffffffff161115612a9657809250612aa4565b612aa1816001613c65565b93505b50612a55565b509392505050565b5f8060f883901c602f81118015612acc5750603a8160ff16105b15612ae157600194602f199091019350915050565b8060ff166040108015612af7575060478160ff16105b15612b0c576001946036199091019350915050565b8060ff166060108015612b22575060678160ff16105b15612b37576001946056199091019350915050565b505f93849350915050565b5f63ffffffff821115611a72576040516306dfcc6560e41b81526020600482015260248101839052604401610df5565b606060ff8314612b8c57612b8583612f72565b9050610a59565b818054612b98906139c2565b80601f0160208091040260200160405190810160405280929190818152602001828054612bc4906139c2565b8015612c0f5780601f10612be657610100808354040283529160200191612c0f565b820191905f5260205f20905b815481529060010190602001808311612bf257829003601f168201915b50505050509050610a59565b805115612c2b5780518082602001fd5b60405163d6bda27560e01b815260040160405180910390fd5b82545f9081908015612d51575f612c6087611af6600185613a31565b805490915065ffffffffffff80821691600160301b90046001600160d01b0316908816821115612ca357604051632520601d60e01b815260040160405180910390fd5b8765ffffffffffff168265ffffffffffff1603612cf35786612cca8a611af6600188613a31565b80546001600160d01b0392909216600160301b0265ffffffffffff909216919091179055612d43565b6040805180820190915265ffffffffffff808a1682526001600160d01b03808a1660208085019182528d54600181018f555f8f81529190912094519151909216600160301b029216919091179101555b94508593506121ab92505050565b50506040805180820190915265ffffffffffff80851682526001600160d01b0380851660208085019182528854600181018a555f8a815291822095519251909316600160301b0291909316179201919091559050816121ab565b5f81815260096020526040812060028101546001820154612dcc9190613c65565b612dd8610a0085610d79565b11159392505050565b5f80612def868686866113e7565b9050612e3d81612dff6007611693565b612e096006611693565b612e136002611693565b6001612e20600782613e24565b612e2b906002613f1d565b612e359190613a31565b1818186116b5565b505f818152600460205260409081902080546001600160f81b0316600160f81b179055517f789cf55be980739dad1d0699b93b58e806b51c9d96619bfa8fe0a28abaa7b30c90610d689083815260200190565b5f80807f7fffffffffffffffffffffffffffffff5d576e7357a4501ddfe92f46681b20a0841115612ec957505f91506003905082612f4e565b604080515f808252602082018084528a905260ff891692820192909252606081018790526080810186905260019060a0016020604051602081039080840390855afa158015612f1a573d5f803e3d5ffd5b5050604051601f1901519150506001600160a01b038116612f4557505f925060019150829050612f4e565b92505f91508190505b9450945094915050565b5f612f666002848418613ba5565b61145090848416613c65565b60605f612f7e83612faf565b6040805160208082528183019092529192505f91906020820181803683375050509182525060208101929092525090565b5f60ff8216601f811115610a5957604051632cd44ac360e21b815260040160405180910390fd5b5f60208284031215612fe6575f80fd5b81356001600160e01b031981168114611450575f80fd5b5f6020828403121561300d575f80fd5b5035919050565b5f5b8381101561302e578181015183820152602001613016565b50505f910152565b5f815180845261304d816020860160208601613014565b601f01601f19169290920160200192915050565b602081525f6114506020830184613036565b6001600160a01b0381168114610a70575f80fd5b634e487b7160e01b5f52604160045260245ffd5b604051601f8201601f191681016001600160401b03811182821017156130c3576130c3613087565b604052919050565b5f6001600160401b038311156130e3576130e3613087565b6130f6601f8401601f191660200161309b565b9050828152838383011115613109575f80fd5b828260208301375f602084830101529392505050565b5f82601f83011261312e575f80fd5b611450838335602085016130cb565b5f805f8060808587031215613150575f80fd5b843561315b81613073565b9350602085013561316b81613073565b92506040850135915060608501356001600160401b0381111561318c575f80fd5b6131988782880161311f565b91505092959194509250565b5f6001600160401b038211156131bc576131bc613087565b5060051b60200190565b5f82601f8301126131d5575f80fd5b813560206131ea6131e5836131a4565b61309b565b8083825260208201915060208460051b87010193508684111561320b575f80fd5b602086015b8481101561323057803561322381613073565b8352918301918301613210565b509695505050505050565b5f82601f83011261324a575f80fd5b8135602061325a6131e5836131a4565b8083825260208201915060208460051b87010193508684111561327b575f80fd5b602086015b848110156132305780358352918301918301613280565b5f82601f8301126132a6575f80fd5b813560206132b66131e5836131a4565b82815260059290921b840181019181810190868411156132d4575f80fd5b8286015b848110156132305780356001600160401b038111156132f5575f80fd5b6133038986838b010161311f565b8452509183019183016132d8565b5f805f8060808587031215613324575f80fd5b84356001600160401b038082111561333a575f80fd5b613346888389016131c6565b9550602087013591508082111561335b575f80fd5b6133678883890161323b565b9450604087013591508082111561337c575f80fd5b5061338987828801613297565b949793965093946060013593505050565b634e487b7160e01b5f52602160045260245ffd5b600881106133ca57634e487b7160e01b5f52602160045260245ffd5b9052565b60208101610a5982846133ae565b5f80604083850312156133ed575f80fd5b8235915060208301356133ff81613073565b809150509250929050565b803560ff8116811461341a575f80fd5b919050565b5f8060408385031215613430575f80fd5b823591506134406020840161340a565b90509250929050565b5f8083601f840112613459575f80fd5b5081356001600160401b0381111561346f575f80fd5b602083019150836020828501011115613486575f80fd5b9250929050565b5f805f805f805f60c0888a0312156134a3575f80fd5b873596506134b36020890161340a565b955060408801356134c381613073565b945060608801356001600160401b03808211156134de575f80fd5b6134ea8b838c01613449565b909650945060808a0135915080821115613502575f80fd5b61350e8b838c0161311f565b935060a08a0135915080821115613523575f80fd5b506135308a828b0161311f565b91505092959891949750929550565b5f805f805f60808688031215613553575f80fd5b853594506135636020870161340a565b935060408601356001600160401b038082111561357e575f80fd5b61358a89838a01613449565b909550935060608801359150808211156135a2575f80fd5b506135af8882890161311f565b9150509295509295909350565b5f602082840312156135cc575f80fd5b813565ffffffffffff81168114611450575f80fd5b5f805f80606085870312156135f4575f80fd5b843593506136046020860161340a565b925060408501356001600160401b0381111561361e575f80fd5b61362a87828801613449565b95989497509550505050565b5f805f8060808587031215613649575f80fd5b84356001600160401b038082111561365f575f80fd5b61366b888389016131c6565b95506020870135915080821115613680575f80fd5b61368c8883890161323b565b945060408701359150808211156136a1575f80fd5b6136ad88838901613297565b935060608701359150808211156136c2575f80fd5b508501601f810187136136d3575f80fd5b613198878235602084016130cb565b5f602082840312156136f2575f80fd5b813561145081613073565b5f815180845260208085019450602084015f5b8381101561372c57815187529582019590820190600101613710565b509495945050505050565b60ff60f81b8816815260e060208201525f61375560e0830189613036565b82810360408401526137678189613036565b606084018890526001600160a01b038716608085015260a0840186905283810360c0850152905061379881856136fd565b9a9950505050505050505050565b5f805f80608085870312156137b9575f80fd5b843593506137c96020860161340a565b925060408501356137d981613073565b915060608501356001600160401b0381111561318c575f80fd5b5f805f60608486031215613805575f80fd5b833561381081613073565b92506020840135915060408401356001600160401b03811115613831575f80fd5b61383d8682870161311f565b9150509250925092565b5f805f805f60a0868803121561385b575f80fd5b853561386681613073565b9450602086013561387681613073565b935060408601356001600160401b0380821115613891575f80fd5b61389d89838a0161323b565b945060608801359150808211156138b2575f80fd5b6138be89838a0161323b565b935060808801359150808211156135a2575f80fd5b5f805f80606085870312156138e6575f80fd5b84356138f181613073565b93506020850135925060408501356001600160401b0381111561361e575f80fd5b5f60208284031215613922575f80fd5b813563ffffffff81168114611450575f80fd5b5f8060408385031215613946575f80fd5b823561395181613073565b946020939093013593505050565b5f805f805f60a08688031215613973575f80fd5b853561397e81613073565b9450602086013561398e81613073565b9350604086013592506060860135915060808601356001600160401b038111156139b6575f80fd5b6135af8882890161311f565b600181811c908216806139d657607f821691505b6020821081036139f457634e487b7160e01b5f52602260045260245ffd5b50919050565b634e487b7160e01b5f52603260045260245ffd5b818382375f9101908152919050565b634e487b7160e01b5f52601160045260245ffd5b81810381811115610a5957610a59613a1d565b65ffffffffffff828116828216039080821115613a6357613a63613a1d565b5092915050565b65ffffffffffff818116838216019080821115613a6357613a63613a1d565b5f815180845260208085019450602084015f5b8381101561372c5781516001600160a01b031687529582019590820190600101613a9c565b5f8282518085526020808601955060208260051b840101602086015f5b84811015613b0c57601f19868403018952613afa838351613036565b98840198925090830190600101613ade565b5090979650505050505050565b608081525f613b2b6080830187613a89565b8281036020840152613b3d81876136fd565b90508281036040840152613b518186613ac1565b91505082606083015295945050505050565b5f60208284031215613b73575f80fd5b5051919050565b8082028115828204841417610a5957610a59613a1d565b634e487b7160e01b5f52601260045260245ffd5b5f82613bbf57634e487b7160e01b5f52601260045260245ffd5b500490565b83815260608101613bd860208301856133ae565b826040830152949350505050565b5f60208284031215613bf6575f80fd5b81518015158114611450575f80fd5b84815260ff84166020820152826040820152608060608201525f610e0a6080830184613036565b85815260ff8516602082015283604082015260a060608201525f613c5360a0830185613036565b82810360808401526123448185613036565b80820180821115610a5957610a59613a1d565b5f6101208b8352602060018060a01b038c1681850152816040850152613ca08285018c613a89565b91508382036060850152613cb4828b6136fd565b915083820360808501528189518084528284019150828160051b850101838c015f5b83811015613d0457601f19878403018552613cf2838351613036565b94860194925090850190600101613cd6565b505086810360a0880152613d18818c613ac1565b9450505050508560c08401528460e0840152828103610100840152613d3d8185613036565b9c9b505050505050505050505050565b60a081525f613d5f60a0830188613a89565b8281036020840152613d7181886136fd565b90508281036040840152613d858187613ac1565b60608401959095525050608001529392505050565b60c081525f613dac60c0830189613a89565b8281036020840152613dbe81896136fd565b90508281036040840152613dd28188613ac1565b60608401969096525050608081019290925260a0909101529392505050565b828152604060208201525f610e336040830184613036565b5f8251613e1a818460208701613014565b9190910192915050565b60ff8181168382160190811115610a5957610a59613a1d565b600181815b80851115613e7757815f1904821115613e5d57613e5d613a1d565b80851615613e6a57918102915b93841c9390800290613e42565b509250929050565b5f82613e8d57506001610a59565b81613e9957505f610a59565b8160018114613eaf5760028114613eb957613ed5565b6001915050610a59565b60ff841115613eca57613eca613a1d565b50506001821b610a59565b5060208310610133831016604e8410600b8410161715613ef8575081810a610a59565b613f028383613e3d565b805f1904821115613f1557613f15613a1d565b029392505050565b5f61145060ff841683613e7f56fea264697066735822122065f56da00a3cac657bbcfd5c873e84f40f4b051a3e9309bd387495b175101aaf64736f6c63430008180033",
  "language": "Solidity",
  "compiler": "0.8.24+commit.e11b9ed9"
}