{
  "address": "0x8431Adf6637c37d5F41c94ec954e206908C06B70",
  "abi": [
    {
      "inputs": [
        {
          "internalType": "address[]",
          "name": "initialAllowedAddresses",
          "type": "address[]"
        }
      ],
      "stateMutability": "nonpayable",
      "type": "constructor"
    },
    {
      "inputs": [],
      "name": "acceptOwnership",
      "outputs": [],
      "stateMutability": "nonpayable",
      "type": "function"
    },
    {
      "inputs": [
        {
          "internalType": "address",
          "name": "contractAddress",
          "type": "address"
        }
      ],
      "name": "allowlistAddress",
      "outputs": [],
      "stateMutability": "nonpayable",
      "type": "function"
    },
    {
      "inputs": [
        {
          "internalType": "address",
          "name": "contractAddress",
          "type": "address"
        }
      ],
      "name": "check",
      "outputs": [
        {
          "internalType": "bool",
          "name": "",
          "type": "bool"
        }
      ],
      "stateMutability": "view",
      "type": "function"
    },
    {
      "inputs": [
        {
          "internalType": "address",
          "name": "contractAddress",
          "type": "address"
        }
      ],
      "name": "denylistAddress",
      "outputs": [],
      "stateMutability": "nonpayable",
      "type": "function"
    },
    {
      "inputs": [
        {
          "internalType": "uint256",
          "name": "index",
          "type": "uint256"
        }
      ],
      "name": "getAllowlistedAddress",
      "outputs": [
        {
          "internalType": "address",
          "name": "",
          "type": "address"
        }
      ],
      "stateMutability": "view",
      "type": "function"
    },
    {
      "inputs": [],
      "name": "getAllowlistedAddressesLength",
      "outputs": [
        {
          "internalType": "uint256",
          "name": "",
          "type": "uint256"
        }
      ],
      "stateMutability": "view",
      "type": "function"
    },
    {
      "inputs": [],
      "name": "owner",
      "outputs": [
        {
          "internalType": "address",
          "name": "",
          "type": "address"
        }
      ],
      "stateMutability": "view",
      "type": "function"
    },
    {
      "inputs": [],
      "name": "pendingOwner",
      "outputs": [
        {
          "internalType": "address",
          "name": "",
          "type": "address"
        }
      ],
      "stateMutability": "view",
      "type": "function"
    },
    {
      "inputs": [],
      "name": "renounceOwnership",
      "outputs": [],
      "stateMutability": "nonpayable",
      "type": "function"
    },
    {
      "inputs": [
        {
          "internalType": "address",
          "name": "newOwner",
          "type": "address"
        }
      ],
      "name": "transferOwnership",
      "outputs": [],
      "stateMutability": "nonpayable",
      "type": "function"
    },
    {
      "anonymous": false,
      "inputs": [
        {
          "indexed": false,
          "internalType": "address",
          "name": "contractAddress",
          "type": "address"
        }
      ],
      "name": "ContractAddressAdded",
      "type": "event"
    },
    {
      "anonymous": false,
      "inputs": [
        {
          "indexed": false,
          "internalType": "address",
          "name": "contractAddress",
          "type": "address"
        }
      ],
      "name": "ContractAddressRemoved",
      "type": "event"
    },
    {
      "anonymous": false,
      "inputs": [
        {
          "indexed": true,
          "internalType": "address",
          "name": "previousOwner",
          "type": "address"
        },
        {
          "indexed": true,
          "internalType": "address",
          "name": "newOwner",
          "type": "address"
        }
      ],
      "name": "OwnershipTransferStarted",
      "type": "event"
    },
    {
      "anonymous": false,
      "inputs": [
        {
          "indexed": true,
          "internalType": "address",
          "name": "previousOwner",
          "type": "address"
        },
        {
          "indexed": true,
          "internalType": "address",
          "name": "newOwner",
          "type": "address"
        }
      ],
      "name": "OwnershipTransferred",
      "type": "event"
    }
  ],
  "bytecode": "0x608060405234801562000010575f80fd5b5060405162000a4138038062000a41833981016040819052620000339162000232565b6200003e336200008a565b80515f5b81811015620000815762000078838281518110620000645762000064620002ff565b6020026020010151620000a860201b60201c565b60010162000042565b50505062000313565b600180546001600160a01b0319169055620000a58162000145565b50565b620000b560028262000194565b620001065760405162461bcd60e51b815260206004820152601b60248201527f4164647265737320616c726561647920616c6c6f776c69737465640000000000604482015260640160405180910390fd5b6040516001600160a01b03821681527fc1fafd2633d2190fbc0bd1e0e993dc44495d77bd7a5bc0a4951b5edb0d58254e9060200160405180910390a150565b5f80546001600160a01b038381166001600160a01b0319831681178455604051919092169283917f8be0079c531659141344cd1fd0a4f28419497f9722a3daafe3b4186f6b6457e09190a35050565b5f620001aa836001600160a01b038416620001b3565b90505b92915050565b5f818152600183016020526040812054620001fa57508154600181810184555f848152602080822090930184905584548482528286019093526040902091909155620001ad565b505f620001ad565b634e487b7160e01b5f52604160045260245ffd5b80516001600160a01b03811681146200022d575f80fd5b919050565b5f602080838503121562000244575f80fd5b82516001600160401b03808211156200025b575f80fd5b818501915085601f8301126200026f575f80fd5b81518181111562000284576200028462000202565b8060051b604051601f19603f83011681018181108582111715620002ac57620002ac62000202565b604052918252848201925083810185019188831115620002ca575f80fd5b938501935b82851015620002f357620002e38562000216565b84529385019392850192620002cf565b98975050505050505050565b634e487b7160e01b5f52603260045260245ffd5b61072080620003215f395ff3fe608060405234801561000f575f80fd5b506004361061009b575f3560e01c8063c23697a811610063578063c23697a814610104578063c7abf7e214610127578063e30c39781461013d578063f191aad01461014e578063f2fde38b14610161575f80fd5b80632ee7ca641461009f578063715018a6146100cf57806379ba5097146100d95780638da5cb5b146100e1578063a5ee4e71146100f1575b5f80fd5b6100b26100ad366004610666565b610174565b6040516001600160a01b0390911681526020015b60405180910390f35b6100d7610186565b005b6100d7610199565b5f546001600160a01b03166100b2565b6100d76100ff36600461067d565b610218565b61011761011236600461067d565b6102b7565b60405190151581526020016100c6565b61012f6102c3565b6040519081526020016100c6565b6001546001600160a01b03166100b2565b6100d761015c36600461067d565b6102d3565b6100d761016f36600461067d565b6102e4565b5f610180600283610354565b92915050565b61018e610366565b6101975f6103bf565b565b60015433906001600160a01b0316811461020c5760405162461bcd60e51b815260206004820152602960248201527f4f776e61626c6532537465703a2063616c6c6572206973206e6f7420746865206044820152683732bb9037bbb732b960b91b60648201526084015b60405180910390fd5b610215816103bf565b50565b610220610366565b61022b6002826103d8565b6102775760405162461bcd60e51b815260206004820152601a60248201527f41646472657373206973206e6f7420616c6c6f776c69737465640000000000006044820152606401610203565b6040516001600160a01b03821681527f6b7e0fe40ab6dde83349106ff5b5ce7689d5912a704a21a972034191d182de32906020015b60405180910390a150565b5f6101806002836103ec565b5f6102ce600261040d565b905090565b6102db610366565b61021581610416565b6102ec610366565b600180546001600160a01b0383166001600160a01b0319909116811790915561031c5f546001600160a01b031690565b6001600160a01b03167f38d16b8cac22d99fc7c124b9cd0de2d3fa1faef420bfe791d8c362d765e2270060405160405180910390a350565b5f61035f83836104a6565b9392505050565b5f546001600160a01b031633146101975760405162461bcd60e51b815260206004820181905260248201527f4f776e61626c653a2063616c6c6572206973206e6f7420746865206f776e65726044820152606401610203565b600180546001600160a01b0319169055610215816104cc565b5f61035f836001600160a01b03841661051b565b6001600160a01b0381165f908152600183016020526040812054151561035f565b5f610180825490565b6104216002826105fe565b61046d5760405162461bcd60e51b815260206004820152601b60248201527f4164647265737320616c726561647920616c6c6f776c697374656400000000006044820152606401610203565b6040516001600160a01b03821681527fc1fafd2633d2190fbc0bd1e0e993dc44495d77bd7a5bc0a4951b5edb0d58254e906020016102ac565b5f825f0182815481106104bb576104bb6106a3565b905f5260205f200154905092915050565b5f80546001600160a01b038381166001600160a01b0319831681178455604051919092169283917f8be0079c531659141344cd1fd0a4f28419497f9722a3daafe3b4186f6b6457e09190a35050565b5f81815260018301602052604081205480156105f5575f61053d6001836106b7565b85549091505f90610550906001906106b7565b90508181146105af575f865f01828154811061056e5761056e6106a3565b905f5260205f200154905080875f01848154811061058e5761058e6106a3565b5f918252602080832090910192909255918252600188019052604090208390555b85548690806105c0576105c06106d6565b600190038181905f5260205f20015f90559055856001015f8681526020019081526020015f205f905560019350505050610180565b5f915050610180565b5f61035f836001600160a01b0384165f61062a83835f9081526001919091016020526040902054151590565b61065f57508154600181810184555f848152602080822090930184905584548482528286019093526040902091909155610180565b505f610180565b5f60208284031215610676575f80fd5b5035919050565b5f6020828403121561068d575f80fd5b81356001600160a01b038116811461035f575f80fd5b634e487b7160e01b5f52603260045260245ffd5b8181038181111561018057634e487b7160e01b5f52601160045260245ffd5b634e487b7160e01b5f52603160045260245ffdfea2646970667358221220d786985cf69c1ad2737cf1c049e4430ca5a75edb7a02c34e25febb8b361a463764736f6c63430008180033",
  "language": "Solidity",
  "compiler": "0.8.24+commit.e11b9ed9"
}