{
  "address": "0x8458396264bAaAfC9F6E6437a264636ce7c07c43",
  "abi": [
    {
      "inputs": [
        {
          "internalType": "address",
          "name": "_link",
          "type": "address"
        }
      ],
      "stateMutability": "nonpayable",
      "type": "constructor"
    },
    {
      "stateMutability": "payable",
      "type": "receive"
    },
    {
      "inputs": [],
      "name": "LINK",
      "outputs": [
        {
          "internalType": "address",
          "name": "",
          "type": "address"
        }
      ],
      "stateMutability": "view",
      "type": "function"
    },
    {
      "inputs": [],
      "name": "acceptOwnership",
      "outputs": [],
      "stateMutability": "nonpayable",
      "type": "function"
    },
    {
      "inputs": [
        {
          "internalType": "address",
          "name": "gauge",
          "type": "address"
        }
      ],
      "name": "checkpoint",
      "outputs": [
        {
          "internalType": "bool",
          "name": "result",
          "type": "bool"
        }
      ],
      "stateMutability": "payable",
      "type": "function"
    },
    {
      "inputs": [],
      "name": "checkpointer",
      "outputs": [
        {
          "internalType": "address",
          "name": "",
          "type": "address"
        }
      ],
      "stateMutability": "view",
      "type": "function"
    },
    {
      "inputs": [],
      "name": "owner",
      "outputs": [
        {
          "internalType": "address",
          "name": "",
          "type": "address"
        }
      ],
      "stateMutability": "view",
      "type": "function"
    },
    {
      "inputs": [],
      "name": "pendingOwner",
      "outputs": [
        {
          "internalType": "address",
          "name": "",
          "type": "address"
        }
      ],
      "stateMutability": "view",
      "type": "function"
    },
    {
      "inputs": [],
      "name": "renounceOwnership",
      "outputs": [],
      "stateMutability": "nonpayable",
      "type": "function"
    },
    {
      "inputs": [
        {
          "internalType": "address",
          "name": "newCheckpointer",
          "type": "address"
        }
      ],
      "name": "setStakelessGaugeCheckpointer",
      "outputs": [],
      "stateMutability": "nonpayable",
      "type": "function"
    },
    {
      "inputs": [
        {
          "internalType": "address",
          "name": "newOwner",
          "type": "address"
        }
      ],
      "name": "transferOwnership",
      "outputs": [],
      "stateMutability": "nonpayable",
      "type": "function"
    },
    {
      "anonymous": false,
      "inputs": [
        {
          "indexed": false,
          "internalType": "address",
          "name": "checkpointer",
          "type": "address"
        }
      ],
      "name": "CheckpointerUpdated",
      "type": "event"
    },
    {
      "anonymous": false,
      "inputs": [
        {
          "indexed": true,
          "internalType": "address",
          "name": "previousOwner",
          "type": "address"
        },
        {
          "indexed": true,
          "internalType": "address",
          "name": "newOwner",
          "type": "address"
        }
      ],
      "name": "OwnershipTransferStarted",
      "type": "event"
    },
    {
      "anonymous": false,
      "inputs": [
        {
          "indexed": true,
          "internalType": "address",
          "name": "previousOwner",
          "type": "address"
        },
        {
          "indexed": true,
          "internalType": "address",
          "name": "newOwner",
          "type": "address"
        }
      ],
      "name": "OwnershipTransferred",
      "type": "event"
    },
    {
      "inputs": [],
      "name": "OnlyCheckpointer",
      "type": "error"
    },
    {
      "inputs": [],
      "name": "TheSameCheckpointer",
      "type": "error"
    }
  ],
  "bytecode": "0x60a060405234801561000f575f80fd5b5060405161089938038061089983398101604081905261002e916100b3565b61003733610048565b6001600160a01b03166080526100e0565b600180546001600160a01b031916905561006181610064565b50565b5f80546001600160a01b038381166001600160a01b0319831681178455604051919092169283917f8be0079c531659141344cd1fd0a4f28419497f9722a3daafe3b4186f6b6457e09190a35050565b5f602082840312156100c3575f80fd5b81516001600160a01b03811681146100d9575f80fd5b9392505050565b6080516107946101055f395f818160c40152818161048a015261051f01526107945ff3fe608060405260043610610087575f3560e01c80638da5cb5b116100575780638da5cb5b1461012b578063a972985e14610147578063e30c39781461016a578063f2fde38b14610187578063ff441dda146101a6575f80fd5b80630de61f9e146100925780631b6b6d23146100b3578063715018a61461010357806379ba509714610117575f80fd5b3661008e57005b5f80fd5b34801561009d575f80fd5b506100b16100ac3660046106fb565b6101c5565b005b3480156100be575f80fd5b506100e67f000000000000000000000000000000000000000000000000000000000000000081565b6040516001600160a01b0390911681526020015b60405180910390f35b34801561010e575f80fd5b506100b161024f565b348015610122575f80fd5b506100b1610262565b348015610136575f80fd5b505f546001600160a01b03166100e6565b61015a6101553660046106fb565b6102e1565b60405190151581526020016100fa565b348015610175575f80fd5b506001546001600160a01b03166100e6565b348015610192575f80fd5b506100b16101a13660046106fb565b610380565b3480156101b1575f80fd5b506002546100e6906001600160a01b031681565b6101cd6103f0565b6002546001600160a01b038083169116036101fb5760405163438bfa4760e01b815260040160405180910390fd5b600280546001600160a01b0319166001600160a01b0383169081179091556040519081527ff181b70b4b914be9a4862716c2c9cbeeb0350c22b2ea6e80a23d3a798d176f529060200160405180910390a150565b6102576103f0565b6102605f610449565b565b60015433906001600160a01b031681146102d55760405162461bcd60e51b815260206004820152602960248201527f4f776e61626c6532537465703a2063616c6c6572206973206e6f7420746865206044820152683732bb9037bbb732b960b91b60648201526084015b60405180910390fd5b6102de81610449565b50565b6002545f906001600160a01b0316331461030e57604051631be8096160e01b815260040160405180910390fd5b816001600160a01b031663c2c4c5c1346040518263ffffffff1660e01b815260040160206040518083038185885af115801561034c573d5f803e3d5ffd5b50505050506040513d601f19601f820116820180604052508101906103719190610728565b905061037b610462565b919050565b6103886103f0565b600180546001600160a01b0383166001600160a01b031990911681179091556103b85f546001600160a01b031690565b6001600160a01b03167f38d16b8cac22d99fc7c124b9cd0de2d3fa1faef420bfe791d8c362d765e2270060405160405180910390a350565b5f546001600160a01b031633146102605760405162461bcd60e51b815260206004820181905260248201527f4f776e61626c653a2063616c6c6572206973206e6f7420746865206f776e657260448201526064016102cc565b600180546001600160a01b03191690556102de81610597565b4780156104735761047333826105e6565b6040516370a0823160e01b81523060048201525f907f00000000000000000000000000000000000000000000000000000000000000006001600160a01b0316906370a0823190602401602060405180830381865afa1580156104d7573d5f803e3d5ffd5b505050506040513d601f19601f820116820180604052508101906104fb9190610747565b905080156105935760405163a9059cbb60e01b8152336004820152602481018290527f00000000000000000000000000000000000000000000000000000000000000006001600160a01b03169063a9059cbb906044016020604051808303815f875af115801561056d573d5f803e3d5ffd5b505050506040513d601f19601f820116820180604052508101906105919190610728565b505b5050565b5f80546001600160a01b038381166001600160a01b0319831681178455604051919092169283917f8be0079c531659141344cd1fd0a4f28419497f9722a3daafe3b4186f6b6457e09190a35050565b804710156106365760405162461bcd60e51b815260206004820152601d60248201527f416464726573733a20696e73756666696369656e742062616c616e636500000060448201526064016102cc565b5f826001600160a01b0316826040515f6040518083038185875af1925050503d805f811461067f576040519150601f19603f3d011682016040523d82523d5f602084013e610684565b606091505b50509050806105915760405162461bcd60e51b815260206004820152603a60248201527f416464726573733a20756e61626c6520746f2073656e642076616c75652c207260448201527f6563697069656e74206d6179206861766520726576657274656400000000000060648201526084016102cc565b5f6020828403121561070b575f80fd5b81356001600160a01b0381168114610721575f80fd5b9392505050565b5f60208284031215610738575f80fd5b81518015158114610721575f80fd5b5f60208284031215610757575f80fd5b505191905056fea2646970667358221220633c8ec6505baf6137969bfbac2ac0f3e4a246d2826be42ca1649c0e8c4d7da964736f6c63430008180033",
  "language": "Solidity",
  "compiler": "0.8.24+commit.e11b9ed9"
}