{
  "address": "0x35665D0BFAa3F87b672F7b3b218B450445bc9045",
  "abi": [
    {
      "inputs": [
        {
          "internalType": "contract IVeSilo",
          "name": "votingEscrow",
          "type": "address"
        },
        {
          "internalType": "contract IVotingEscrowCCIPRemapper",
          "name": "remapper",
          "type": "address"
        },
        {
          "internalType": "address",
          "name": "router",
          "type": "address"
        },
        {
          "internalType": "address",
          "name": "link",
          "type": "address"
        }
      ],
      "stateMutability": "nonpayable",
      "type": "constructor"
    },
    {
      "inputs": [],
      "name": "LINK",
      "outputs": [
        {
          "internalType": "address",
          "name": "",
          "type": "address"
        }
      ],
      "stateMutability": "view",
      "type": "function"
    },
    {
      "inputs": [],
      "name": "REMAPPER",
      "outputs": [
        {
          "internalType": "contract IVotingEscrowCCIPRemapper",
          "name": "",
          "type": "address"
        }
      ],
      "stateMutability": "view",
      "type": "function"
    },
    {
      "inputs": [],
      "name": "ROUTER",
      "outputs": [
        {
          "internalType": "address",
          "name": "",
          "type": "address"
        }
      ],
      "stateMutability": "view",
      "type": "function"
    },
    {
      "inputs": [],
      "name": "VOTING_ESCROW",
      "outputs": [
        {
          "internalType": "contract IVeSilo",
          "name": "",
          "type": "address"
        }
      ],
      "stateMutability": "view",
      "type": "function"
    },
    {
      "inputs": [],
      "name": "acceptOwnership",
      "outputs": [],
      "stateMutability": "nonpayable",
      "type": "function"
    },
    {
      "inputs": [
        {
          "internalType": "uint64",
          "name": "dstChainId",
          "type": "uint64"
        }
      ],
      "name": "childChainReceivers",
      "outputs": [
        {
          "internalType": "address",
          "name": "receiver",
          "type": "address"
        }
      ],
      "stateMutability": "view",
      "type": "function"
    },
    {
      "inputs": [
        {
          "internalType": "uint64",
          "name": "_dstChainSelector",
          "type": "uint64"
        },
        {
          "internalType": "enum ICCIPMessageSender.PayFeesIn",
          "name": "_payFeesIn",
          "type": "uint8"
        }
      ],
      "name": "estimateSendTotalSupply",
      "outputs": [
        {
          "internalType": "uint256",
          "name": "fee",
          "type": "uint256"
        }
      ],
      "stateMutability": "view",
      "type": "function"
    },
    {
      "inputs": [
        {
          "internalType": "address",
          "name": "_localUser",
          "type": "address"
        },
        {
          "internalType": "uint64",
          "name": "_dstChainSelector",
          "type": "uint64"
        },
        {
          "internalType": "enum ICCIPMessageSender.PayFeesIn",
          "name": "_payFeesIn",
          "type": "uint8"
        }
      ],
      "name": "estimateSendUserBalance",
      "outputs": [
        {
          "internalType": "uint256",
          "name": "fee",
          "type": "uint256"
        }
      ],
      "stateMutability": "view",
      "type": "function"
    },
    {
      "inputs": [],
      "name": "extraArgs",
      "outputs": [
        {
          "internalType": "bytes",
          "name": "",
          "type": "bytes"
        }
      ],
      "stateMutability": "view",
      "type": "function"
    },
    {
      "inputs": [
        {
          "internalType": "address",
          "name": "_receiver",
          "type": "address"
        },
        {
          "internalType": "bytes",
          "name": "_data",
          "type": "bytes"
        },
        {
          "internalType": "enum ICCIPMessageSender.PayFeesIn",
          "name": "_payFeesIn",
          "type": "uint8"
        }
      ],
      "name": "getCCIPMessage",
      "outputs": [
        {
          "components": [
            {
              "internalType": "bytes",
              "name": "receiver",
              "type": "bytes"
            },
            {
              "internalType": "bytes",
              "name": "data",
              "type": "bytes"
            },
            {
              "components": [
                {
                  "internalType": "address",
                  "name": "token",
                  "type": "address"
                },
                {
                  "internalType": "uint256",
                  "name": "amount",
                  "type": "uint256"
                }
              ],
              "internalType": "struct Client.EVMTokenAmount[]",
              "name": "tokenAmounts",
              "type": "tuple[]"
            },
            {
              "internalType": "address",
              "name": "feeToken",
              "type": "address"
            },
            {
              "internalType": "bytes",
              "name": "extraArgs",
              "type": "bytes"
            }
          ],
          "internalType": "struct Client.EVM2AnyMessage",
          "name": "ccipMessage",
          "type": "tuple"
        }
      ],
      "stateMutability": "view",
      "type": "function"
    },
    {
      "inputs": [
        {
          "internalType": "address",
          "name": "_timelock",
          "type": "address"
        }
      ],
      "name": "initialize",
      "outputs": [],
      "stateMutability": "nonpayable",
      "type": "function"
    },
    {
      "inputs": [],
      "name": "owner",
      "outputs": [
        {
          "internalType": "address",
          "name": "",
          "type": "address"
        }
      ],
      "stateMutability": "view",
      "type": "function"
    },
    {
      "inputs": [],
      "name": "pendingOwner",
      "outputs": [
        {
          "internalType": "address",
          "name": "",
          "type": "address"
        }
      ],
      "stateMutability": "view",
      "type": "function"
    },
    {
      "inputs": [],
      "name": "renounceOwnership",
      "outputs": [],
      "stateMutability": "nonpayable",
      "type": "function"
    },
    {
      "inputs": [
        {
          "internalType": "uint64",
          "name": "_dstChainSelector",
          "type": "uint64"
        },
        {
          "internalType": "enum ICCIPMessageSender.PayFeesIn",
          "name": "_payFeesIn",
          "type": "uint8"
        }
      ],
      "name": "sendTotalSupply",
      "outputs": [],
      "stateMutability": "payable",
      "type": "function"
    },
    {
      "inputs": [
        {
          "internalType": "address",
          "name": "_localUser",
          "type": "address"
        },
        {
          "internalType": "uint64",
          "name": "_dstChainSelector",
          "type": "uint64"
        },
        {
          "internalType": "enum ICCIPMessageSender.PayFeesIn",
          "name": "_payFeesIn",
          "type": "uint8"
        }
      ],
      "name": "sendUserBalance",
      "outputs": [],
      "stateMutability": "payable",
      "type": "function"
    },
    {
      "inputs": [
        {
          "internalType": "uint64",
          "name": "_dstChainSelector",
          "type": "uint64"
        },
        {
          "internalType": "address",
          "name": "_receiver",
          "type": "address"
        }
      ],
      "name": "setChildChainReceiver",
      "outputs": [],
      "stateMutability": "nonpayable",
      "type": "function"
    },
    {
      "inputs": [
        {
          "internalType": "bytes",
          "name": "_extraArgs",
          "type": "bytes"
        }
      ],
      "name": "setExtraArgs",
      "outputs": [],
      "stateMutability": "nonpayable",
      "type": "function"
    },
    {
      "inputs": [
        {
          "internalType": "address",
          "name": "newOwner",
          "type": "address"
        }
      ],
      "name": "transferOwnership",
      "outputs": [],
      "stateMutability": "nonpayable",
      "type": "function"
    },
    {
      "anonymous": false,
      "inputs": [
        {
          "indexed": false,
          "internalType": "uint64",
          "name": "dstChainSelector",
          "type": "uint64"
        },
        {
          "indexed": false,
          "internalType": "address",
          "name": "receiver",
          "type": "address"
        }
      ],
      "name": "ChildChainReceiverUpdated",
      "type": "event"
    },
    {
      "anonymous": false,
      "inputs": [
        {
          "indexed": false,
          "internalType": "bytes",
          "name": "extraArgs",
          "type": "bytes"
        }
      ],
      "name": "ExtraArgsUpdated",
      "type": "event"
    },
    {
      "anonymous": false,
      "inputs": [
        {
          "indexed": false,
          "internalType": "uint64",
          "name": "version",
          "type": "uint64"
        }
      ],
      "name": "Initialized",
      "type": "event"
    },
    {
      "anonymous": false,
      "inputs": [
        {
          "indexed": false,
          "internalType": "bytes32",
          "name": "messageId",
          "type": "bytes32"
        }
      ],
      "name": "MessageSentVaiCCIP",
      "type": "event"
    },
    {
      "anonymous": false,
      "inputs": [
        {
          "indexed": true,
          "internalType": "address",
          "name": "previousOwner",
          "type": "address"
        },
        {
          "indexed": true,
          "internalType": "address",
          "name": "newOwner",
          "type": "address"
        }
      ],
      "name": "OwnershipTransferStarted",
      "type": "event"
    },
    {
      "anonymous": false,
      "inputs": [
        {
          "indexed": true,
          "internalType": "address",
          "name": "previousOwner",
          "type": "address"
        },
        {
          "indexed": true,
          "internalType": "address",
          "name": "newOwner",
          "type": "address"
        }
      ],
      "name": "OwnershipTransferred",
      "type": "event"
    },
    {
      "anonymous": false,
      "inputs": [
        {
          "indexed": false,
          "internalType": "uint64",
          "name": "dstChainSelector",
          "type": "uint64"
        },
        {
          "components": [
            {
              "internalType": "int128",
              "name": "bias",
              "type": "int128"
            },
            {
              "internalType": "int128",
              "name": "slope",
              "type": "int128"
            },
            {
              "internalType": "uint256",
              "name": "ts",
              "type": "uint256"
            },
            {
              "internalType": "uint256",
              "name": "blk",
              "type": "uint256"
            }
          ],
          "indexed": false,
          "internalType": "struct IVeSilo.Point",
          "name": "totalSupplyPoint",
          "type": "tuple"
        }
      ],
      "name": "SentTotalSupply",
      "type": "event"
    },
    {
      "anonymous": false,
      "inputs": [
        {
          "indexed": false,
          "internalType": "uint64",
          "name": "dstChainSelector",
          "type": "uint64"
        },
        {
          "indexed": false,
          "internalType": "address",
          "name": "localUser",
          "type": "address"
        },
        {
          "indexed": false,
          "internalType": "address",
          "name": "remoteUser",
          "type": "address"
        },
        {
          "components": [
            {
              "internalType": "int128",
              "name": "bias",
              "type": "int128"
            },
            {
              "internalType": "int128",
              "name": "slope",
              "type": "int128"
            },
            {
              "internalType": "uint256",
              "name": "ts",
              "type": "uint256"
            },
            {
              "internalType": "uint256",
              "name": "blk",
              "type": "uint256"
            }
          ],
          "indexed": false,
          "internalType": "struct IVeSilo.Point",
          "name": "userPoint",
          "type": "tuple"
        },
        {
          "components": [
            {
              "internalType": "int128",
              "name": "bias",
              "type": "int128"
            },
            {
              "internalType": "int128",
              "name": "slope",
              "type": "int128"
            },
            {
              "internalType": "uint256",
              "name": "ts",
              "type": "uint256"
            },
            {
              "internalType": "uint256",
              "name": "blk",
              "type": "uint256"
            }
          ],
          "indexed": false,
          "internalType": "struct IVeSilo.Point",
          "name": "totalSupplyPoint",
          "type": "tuple"
        }
      ],
      "name": "SentUserBalance",
      "type": "event"
    },
    {
      "inputs": [],
      "name": "ChainIdCantBeZero",
      "type": "error"
    },
    {
      "inputs": [
        {
          "internalType": "uint64",
          "name": "dstChainSelector",
          "type": "uint64"
        }
      ],
      "name": "ChainIsNotSupported",
      "type": "error"
    },
    {
      "inputs": [],
      "name": "InvalidInitialization",
      "type": "error"
    },
    {
      "inputs": [],
      "name": "NotInitializing",
      "type": "error"
    },
    {
      "inputs": [
        {
          "internalType": "address",
          "name": "owner",
          "type": "address"
        }
      ],
      "name": "OwnableInvalidOwner",
      "type": "error"
    },
    {
      "inputs": [
        {
          "internalType": "address",
          "name": "account",
          "type": "address"
        }
      ],
      "name": "OwnableUnauthorizedAccount",
      "type": "error"
    }
  ],
  "bytecode": "0x61010060405234801562000011575f80fd5b506040516200220f3803806200220f833981016040819052620000349162000130565b6001600160a01b0380831660805280821660a05284811660c052831660e0526200005d62000067565b5050505062000195565b7ff0c57e16840df040f15088dc2f81fe391c3923bec73e23a9662efc9c229c6a00805468010000000000000000900460ff1615620000b85760405163f92ee8a960e01b815260040160405180910390fd5b80546001600160401b0390811614620001185780546001600160401b0319166001600160401b0390811782556040519081527fc7f505b2f371ae2175ee4913f4499e1f2633a7b5936321eed1cdaeb6115181d29060200160405180910390a15b50565b6001600160a01b038116811462000118575f80fd5b5f805f806080858703121562000144575f80fd5b845162000151816200011b565b602086015190945062000164816200011b565b604086015190935062000177816200011b565b60608601519092506200018a816200011b565b939692955090935050565b60805160a05160c05160e051611fc8620002475f395f818161037d015261129301525f8181610175015281816106ae01528181610908015281816109a901528181610a4201528181610e2b01528181610fc70152818161105b015281816110ea0152818161115801526111ef01525f81816101250152818161050f015281816113a4015261145d01525f81816101c901528181610eda0152818161142e015281816114df01526115740152611fc85ff3fe608060405260043610610110575f3560e01c8063822907b91161009d578063e2b66e6411610062578063e2b66e6414610305578063e30c397814610339578063e3a642621461034d578063eb32cb5c1461036c578063f2fde38b1461039f575f80fd5b8063822907b91461028d5780638da5cb5b146102a05780639eb5b8fa146102b4578063c4d66de8146102c7578063d0b61333146102e6575f80fd5b80634540b9ca116100e35780634540b9ca146101eb57806356f416931461021757806366f58d8d14610238578063715018a61461026557806379ba509714610279575f80fd5b80631b6b6d23146101145780631f87f3331461016457806326cc37311461019757806332fe7b26146101b8575b5f80fd5b34801561011f575f80fd5b506101477f000000000000000000000000000000000000000000000000000000000000000081565b6040516001600160a01b0390911681526020015b60405180910390f35b34801561016f575f80fd5b506101477f000000000000000000000000000000000000000000000000000000000000000081565b3480156101a2575f80fd5b506101b66101b136600461186d565b6103be565b005b3480156101c3575f80fd5b506101477f000000000000000000000000000000000000000000000000000000000000000081565b3480156101f6575f80fd5b5061020a610205366004611943565b610410565b60405161015b9190611af7565b348015610222575f80fd5b5061022b6105d1565b60405161015b9190611b09565b348015610243575f80fd5b50610257610252366004611b31565b61065c565b60405190815260200161015b565b348015610270575f80fd5b506101b661075d565b348015610284575f80fd5b506101b6610770565b6101b661029b366004611b62565b6107b8565b3480156102ab575f80fd5b50610147610887565b6101b66102c2366004611b31565b6108bb565b3480156102d2575f80fd5b506101b66102e1366004611b9b565b610b12565b3480156102f1575f80fd5b50610257610300366004611b62565b610c1e565b348015610310575f80fd5b5061014761031f366004611bb6565b60016020525f90815260409020546001600160a01b031681565b348015610344575f80fd5b50610147610c90565b348015610358575f80fd5b506101b6610367366004611bcf565b610cb8565b348015610377575f80fd5b506101477f000000000000000000000000000000000000000000000000000000000000000081565b3480156103aa575f80fd5b506101b66103b9366004611b9b565b610d51565b6103c6610dd6565b5f6103d2828483611c87565b507fd7693fa685e87b95e7bd6dc60982f82ce2510fe103f2b5bfa0f842c392c4f0608282604051610404929190611d40565b60405180910390a15050565b61044a6040518060a001604052806060815260200160608152602001606081526020015f6001600160a01b03168152602001606081525090565b6040805160a081019091526001600160a01b03851660c08201528060e0810160405160208183030381529060405281526020018460405160200161048e9190611b09565b60408051601f1981840301815291905281526020015f6040519080825280602002602001820160405280156104e857816020015b604080518082019091525f80825260208201528152602001906001900390816104c25790505b508152602001600184600181111561050257610502611d6e565b1461050d575f61052f565b7f00000000000000000000000000000000000000000000000000000000000000005b6001600160a01b031681526020015f805461054990611c04565b80601f016020809104026020016040519081016040528092919081815260200182805461057590611c04565b80156105c05780601f10610597576101008083540402835291602001916105c0565b820191905f5260205f20905b8154815290600101906020018083116105a357829003601f168201915b505050505081525090509392505050565b5f80546105dd90611c04565b80601f016020809104026020016040519081016040528092919081815260200182805461060990611c04565b80156106545780601f1061062b57610100808354040283529160200191610654565b820191905f5260205f20905b81548152906001019060200180831161063757829003601f168201915b505050505081565b6001600160401b0382165f908152600160205260408120546001600160a01b0316806106ab5760405163db82509560e01b81526001600160401b03851660048201526024015b60405180910390fd5b5f7f00000000000000000000000000000000000000000000000000000000000000006001600160a01b031663900cf0cf6040518163ffffffff1660e01b8152600401602060405180830381865afa158015610708573d5f803e3d5ffd5b505050506040513d601f19601f8201168201806040525081019061072c9190611d82565b90505f61073882610e08565b90505f610746848388610410565b90506107528782610ec1565b979650505050505050565b610765610dd6565b61076e5f610f57565b565b338061077a610c90565b6001600160a01b0316146107ac5760405163118cdaa760e01b81526001600160a01b03821660048201526024016106a2565b6107b581610f57565b50565b6001600160401b0382165f908152600160205260409020546001600160a01b0316806108025760405163db82509560e01b81526001600160401b03841660048201526024016106a2565b5f61080b611843565b610813611843565b606061081f8888610f93565b929650945090925090506108358786838961134d565b5061083e61162e565b7f1778c32ddc98c0d3b94e32293f9b16e6077e4e3164591168175ea208651fe01c8789868587604051610875959493929190611dc5565b60405180910390a15050505050505050565b5f807f9016d09d72d40fdae2fd8ceac6b6234c7706214fd39c1cd1e609a0528c1993005b546001600160a01b031692915050565b6001600160401b0382165f908152600160205260409020546001600160a01b0316806109055760405163db82509560e01b81526001600160401b03841660048201526024016106a2565b5f7f00000000000000000000000000000000000000000000000000000000000000006001600160a01b031663900cf0cf6040518163ffffffff1660e01b8152600401602060405180830381865afa158015610962573d5f803e3d5ffd5b505050506040513d601f19601f820116820180604052508101906109869190611d82565b60405163d1febfb960e01b8152600481018290529091505f906001600160a01b037f0000000000000000000000000000000000000000000000000000000000000000169063d1febfb990602401608060405180830381865afa1580156109ee573d5f803e3d5ffd5b505050506040513d601f19601f82011682018060405250810190610a129190611e22565b90505f4262093a80836040015181610a2c57610a2c611e91565b0462093a800262093a80011090508015610aaf577f00000000000000000000000000000000000000000000000000000000000000006001600160a01b031663c2c4c5c16040518163ffffffff1660e01b81526004015f604051808303815f87803b158015610a98575f80fd5b505af1158015610aaa573d5f803e3d5ffd5b505050505b5f610ab984610e08565b9050610ac78786838961134d565b50610ad061162e565b7f304595f02fe5f0c14a1e2c386016b931afb266dbffca23122c2a5d246ee3efa28784604051610b01929190611ea5565b60405180910390a150505050505050565b7ff0c57e16840df040f15088dc2f81fe391c3923bec73e23a9662efc9c229c6a008054600160401b810460ff1615906001600160401b03165f81158015610b565750825b90505f826001600160401b03166001148015610b715750303b155b905081158015610b7f575080155b15610b9d5760405163f92ee8a960e01b815260040160405180910390fd5b845467ffffffffffffffff191660011785558315610bc757845460ff60401b1916600160401b1785555b610bd08661163f565b8315610c1657845460ff60401b19168555604051600181527fc7f505b2f371ae2175ee4913f4499e1f2633a7b5936321eed1cdaeb6115181d29060200160405180910390a15b505050505050565b6001600160401b0382165f908152600160205260408120546001600160a01b031680610c685760405163db82509560e01b81526001600160401b03851660048201526024016106a2565b5f610c738686610f93565b50509150505f610c84838387610410565b90506107528682610ec1565b5f807f237e158222e3e6968b72b9db0d8043aacf074ad9f650f0d1606b4d82ee432c006108ab565b610cc0610dd6565b816001600160401b03165f03610ce957604051636cc3468560e11b815260040160405180910390fd5b6001600160401b0382165f8181526001602090815260409182902080546001600160a01b0319166001600160a01b0386169081179091558251938452908301527f6130c757780124605e116b6c86e992f476498059365b50be548f1599ff4b70179101610404565b610d59610dd6565b7f237e158222e3e6968b72b9db0d8043aacf074ad9f650f0d1606b4d82ee432c0080546001600160a01b0319166001600160a01b0383169081178255610d9d610887565b6001600160a01b03167f38d16b8cac22d99fc7c124b9cd0de2d3fa1faef420bfe791d8c362d765e2270060405160405180910390a35050565b33610ddf610887565b6001600160a01b03161461076e5760405163118cdaa760e01b81523360048201526024016106a2565b60405163d1febfb960e01b8152600481018290526060905f906001600160a01b037f0000000000000000000000000000000000000000000000000000000000000000169063d1febfb990602401608060405180830381865afa158015610e70573d5f803e3d5ffd5b505050506040513d601f19601f82011682018060405250810190610e949190611e22565b9050600181604051602001610eaa929190611ee2565b604051602081830303815290604052915050919050565b6040516320487ded60e01b81525f906001600160a01b037f000000000000000000000000000000000000000000000000000000000000000016906320487ded90610f119086908690600401611efd565b602060405180830381865afa158015610f2c573d5f803e3d5ffd5b505050506040513d601f19601f82011682018060405250810190610f509190611d82565b9392505050565b7f237e158222e3e6968b72b9db0d8043aacf074ad9f650f0d1606b4d82ee432c0080546001600160a01b0319168155610f8f82611670565b5050565b5f6060610f9e611843565b610fa6611843565b60405163010ae75760e01b81526001600160a01b0387811660048301525f917f00000000000000000000000000000000000000000000000000000000000000009091169063010ae75790602401602060405180830381865afa15801561100e573d5f803e3d5ffd5b505050506040513d601f19601f820116820180604052508101906110329190611d82565b6040516328d09d4760e01b81526001600160a01b038981166004830152602482018390529192507f0000000000000000000000000000000000000000000000000000000000000000909116906328d09d4790604401608060405180830381865afa1580156110a2573d5f803e3d5ffd5b505050506040513d601f19601f820116820180604052508101906110c69190611e22565b60405163adc6358960e01b81526001600160a01b0389811660048301529193505f917f0000000000000000000000000000000000000000000000000000000000000000169063adc6358990602401602060405180830381865afa15801561112f573d5f803e3d5ffd5b505050506040513d601f19601f820116820180604052508101906111539190611d82565b90505f7f00000000000000000000000000000000000000000000000000000000000000006001600160a01b031663900cf0cf6040518163ffffffff1660e01b8152600401602060405180830381865afa1580156111b2573d5f803e3d5ffd5b505050506040513d601f19601f820116820180604052508101906111d69190611d82565b60405163d1febfb960e01b8152600481018290529091507f00000000000000000000000000000000000000000000000000000000000000006001600160a01b03169063d1febfb990602401608060405180830381865afa15801561123c573d5f803e3d5ffd5b505050506040513d601f19601f820116820180604052508101906112609190611e22565b6040516374de52ff60e11b81526001600160a01b038b811660048301526001600160401b038b1660248301529196505f917f0000000000000000000000000000000000000000000000000000000000000000169063e9bca5fe90604401602060405180830381865afa1580156112d8573d5f803e3d5ffd5b505050506040513d601f19601f820116820180604052508101906112fc9190611f26565b90506001600160a01b0381166113125789611314565b805b97505f8884878960405160200161132f959493929190611f41565b60405160208183030381529060405296505050505092959194509250565b5f8061135a858585610410565b90505f6113678783610ec1565b9050600184600181111561137d5761137d611d6e565b0361155d576040516323b872dd60e01b8152336004820152306024820152604481018290527f00000000000000000000000000000000000000000000000000000000000000006001600160a01b0316906323b872dd906064016020604051808303815f875af11580156113f2573d5f803e3d5ffd5b505050506040513d601f19601f820116820180604052508101906114169190611f73565b5060405163095ea7b360e01b81526001600160a01b037f000000000000000000000000000000000000000000000000000000000000000081166004830152602482018390527f0000000000000000000000000000000000000000000000000000000000000000169063095ea7b3906044016020604051808303815f875af11580156114a3573d5f803e3d5ffd5b505050506040513d601f19601f820116820180604052508101906114c79190611f73565b506040516396f4e9f960e01b81526001600160a01b037f000000000000000000000000000000000000000000000000000000000000000016906396f4e9f990611516908a908690600401611efd565b6020604051808303815f875af1158015611532573d5f803e3d5ffd5b505050506040513d601f19601f820116820180604052508101906115569190611d82565b92506115f1565b6040516396f4e9f960e01b81526001600160a01b037f000000000000000000000000000000000000000000000000000000000000000016906396f4e9f99083906115ad908b908790600401611efd565b60206040518083038185885af11580156115c9573d5f803e3d5ffd5b50505050506040513d601f19601f820116820180604052508101906115ee9190611d82565b92505b6040518381527f43b8b5116d8240ac8639876f2e976471587f211354432ee725e02c30101dd9ea9060200160405180910390a15050949350505050565b4780156107b5576107b533826116e0565b6116476117fa565b6001600160a01b0381166107ac57604051631e4fbdf760e01b81525f60048201526024016106a2565b7f9016d09d72d40fdae2fd8ceac6b6234c7706214fd39c1cd1e609a0528c19930080546001600160a01b031981166001600160a01b03848116918217845560405192169182907f8be0079c531659141344cd1fd0a4f28419497f9722a3daafe3b4186f6b6457e0905f90a3505050565b804710156117305760405162461bcd60e51b815260206004820152601d60248201527f416464726573733a20696e73756666696369656e742062616c616e636500000060448201526064016106a2565b5f826001600160a01b0316826040515f6040518083038185875af1925050503d805f8114611779576040519150601f19603f3d011682016040523d82523d5f602084013e61177e565b606091505b50509050806117f55760405162461bcd60e51b815260206004820152603a60248201527f416464726573733a20756e61626c6520746f2073656e642076616c75652c207260448201527f6563697069656e74206d6179206861766520726576657274656400000000000060648201526084016106a2565b505050565b7ff0c57e16840df040f15088dc2f81fe391c3923bec73e23a9662efc9c229c6a0054600160401b900460ff1661076e57604051631afcd79f60e31b815260040160405180910390fd5b60405180608001604052805f600f0b81526020015f600f0b81526020015f81526020015f81525090565b5f806020838503121561187e575f80fd5b82356001600160401b0380821115611894575f80fd5b818501915085601f8301126118a7575f80fd5b8135818111156118b5575f80fd5b8660208285010111156118c6575f80fd5b60209290920196919550909350505050565b6001600160a01b03811681146107b5575f80fd5b634e487b7160e01b5f52604160045260245ffd5b604051601f8201601f191681016001600160401b0381118282101715611928576119286118ec565b604052919050565b80356002811061193e575f80fd5b919050565b5f805f60608486031215611955575f80fd5b8335611960816118d8565b92506020848101356001600160401b038082111561197c575f80fd5b818701915087601f83011261198f575f80fd5b8135818111156119a1576119a16118ec565b6119b3601f8201601f19168501611900565b915080825288848285010111156119c8575f80fd5b80848401858401375f848284010152508094505050506119ea60408501611930565b90509250925092565b5f81518084525f5b81811015611a17576020818501810151868301820152016119fb565b505f602082860101526020601f19601f83011685010191505092915050565b5f815160a08452611a4a60a08501826119f3565b905060208084015185830382870152611a6383826119f3565b60408681015188830389830152805180845290850195509092505f918401905b80831015611ab557855180516001600160a01b0316835285015185830152948401946001929092019190830190611a83565b5060608701519450611ad260608901866001600160a01b03169052565b608087015194508781036080890152611aeb81866119f3565b98975050505050505050565b602081525f610f506020830184611a36565b602081525f610f5060208301846119f3565b80356001600160401b038116811461193e575f80fd5b5f8060408385031215611b42575f80fd5b611b4b83611b1b565b9150611b5960208401611930565b90509250929050565b5f805f60608486031215611b74575f80fd5b8335611b7f816118d8565b9250611b8d60208501611b1b565b91506119ea60408501611930565b5f60208284031215611bab575f80fd5b8135610f50816118d8565b5f60208284031215611bc6575f80fd5b610f5082611b1b565b5f8060408385031215611be0575f80fd5b611be983611b1b565b91506020830135611bf9816118d8565b809150509250929050565b600181811c90821680611c1857607f821691505b602082108103611c3657634e487b7160e01b5f52602260045260245ffd5b50919050565b601f8211156117f557805f5260205f20601f840160051c81016020851015611c615750805b601f840160051c820191505b81811015611c80575f8155600101611c6d565b5050505050565b6001600160401b03831115611c9e57611c9e6118ec565b611cb283611cac8354611c04565b83611c3c565b5f601f841160018114611ce3575f8515611ccc5750838201355b5f19600387901b1c1916600186901b178355611c80565b5f83815260208120601f198716915b82811015611d125786850135825560209485019460019092019101611cf2565b5086821015611d2e575f1960f88860031b161c19848701351681555b505060018560011b0183555050505050565b60208152816020820152818360408301375f818301604090810191909152601f909201601f19160101919050565b634e487b7160e01b5f52602160045260245ffd5b5f60208284031215611d92575f80fd5b5051919050565b8051600f0b82526020810151600f0b602083015260408101516040830152606081015160608301525050565b6001600160401b03861681526001600160a01b038581166020830152841660408201526101608101611dfa6060830185611d99565b611e0760e0830184611d99565b9695505050505050565b8051600f81900b811461193e575f80fd5b5f60808284031215611e32575f80fd5b604051608081018181106001600160401b0382111715611e5457611e546118ec565b604052611e6083611e11565b8152611e6e60208401611e11565b602082015260408301516040820152606083015160608201528091505092915050565b634e487b7160e01b5f52601260045260245ffd5b6001600160401b038316815260a08101610f506020830184611d99565b60028110611ede57634e487b7160e01b5f52602160045260245ffd5b9052565b60a08101611ef08285611ec2565b610f506020830184611d99565b6001600160401b0383168152604060208201525f611f1e6040830184611a36565b949350505050565b5f60208284031215611f36575f80fd5b8151610f50816118d8565b6101608101611f508288611ec2565b6001600160a01b038616602083015260408201859052611dfa6060830185611d99565b5f60208284031215611f83575f80fd5b81518015158114610f50575f80fdfea264697066735822122099e5e7c3839551c7383ddfcb863b6c22e4beb2bfcb515b8f5c558a299c3ad37364736f6c63430008180033",
  "language": "Solidity",
  "compiler": "0.8.24+commit.e11b9ed9"
}