{
  "address": "0x2890ABf7028E2f52339E5389aDC8962115Ee90e3",
  "abi": [
    {
      "inputs": [
        {
          "internalType": "contract IVotingEscrow",
          "name": "votingEscrow",
          "type": "address"
        },
        {
          "internalType": "contract IERC20",
          "name": "_link",
          "type": "address"
        }
      ],
      "stateMutability": "nonpayable",
      "type": "constructor"
    },
    {
      "inputs": [],
      "name": "LINK",
      "outputs": [
        {
          "internalType": "contract IERC20",
          "name": "",
          "type": "address"
        }
      ],
      "stateMutability": "view",
      "type": "function"
    },
    {
      "inputs": [],
      "name": "acceptOwnership",
      "outputs": [],
      "stateMutability": "nonpayable",
      "type": "function"
    },
    {
      "inputs": [
        {
          "internalType": "address",
          "name": "localUser",
          "type": "address"
        },
        {
          "internalType": "uint64",
          "name": "chainId",
          "type": "uint64"
        },
        {
          "internalType": "enum ICCIPMessageSender.PayFeesIn",
          "name": "payFeesIn",
          "type": "uint8"
        }
      ],
      "name": "clearNetworkRemapping",
      "outputs": [],
      "stateMutability": "payable",
      "type": "function"
    },
    {
      "inputs": [
        {
          "internalType": "address",
          "name": "remoteUser",
          "type": "address"
        },
        {
          "internalType": "uint64",
          "name": "chainId",
          "type": "uint64"
        }
      ],
      "name": "getLocalUser",
      "outputs": [
        {
          "internalType": "address",
          "name": "",
          "type": "address"
        }
      ],
      "stateMutability": "view",
      "type": "function"
    },
    {
      "inputs": [
        {
          "internalType": "address",
          "name": "user",
          "type": "address"
        }
      ],
      "name": "getLockedEnd",
      "outputs": [
        {
          "internalType": "uint256",
          "name": "",
          "type": "uint256"
        }
      ],
      "stateMutability": "view",
      "type": "function"
    },
    {
      "inputs": [
        {
          "internalType": "address",
          "name": "localUser",
          "type": "address"
        }
      ],
      "name": "getRemappingManager",
      "outputs": [
        {
          "internalType": "address",
          "name": "",
          "type": "address"
        }
      ],
      "stateMutability": "view",
      "type": "function"
    },
    {
      "inputs": [
        {
          "internalType": "address",
          "name": "localUser",
          "type": "address"
        },
        {
          "internalType": "uint64",
          "name": "chainId",
          "type": "uint64"
        }
      ],
      "name": "getRemoteUser",
      "outputs": [
        {
          "internalType": "address",
          "name": "",
          "type": "address"
        }
      ],
      "stateMutability": "view",
      "type": "function"
    },
    {
      "inputs": [],
      "name": "getTotalSupplyPoint",
      "outputs": [
        {
          "components": [
            {
              "internalType": "int128",
              "name": "bias",
              "type": "int128"
            },
            {
              "internalType": "int128",
              "name": "slope",
              "type": "int128"
            },
            {
              "internalType": "uint256",
              "name": "ts",
              "type": "uint256"
            },
            {
              "internalType": "uint256",
              "name": "blk",
              "type": "uint256"
            }
          ],
          "internalType": "struct IVotingEscrow.Point",
          "name": "",
          "type": "tuple"
        }
      ],
      "stateMutability": "view",
      "type": "function"
    },
    {
      "inputs": [
        {
          "internalType": "address",
          "name": "user",
          "type": "address"
        }
      ],
      "name": "getUserPoint",
      "outputs": [
        {
          "components": [
            {
              "internalType": "int128",
              "name": "bias",
              "type": "int128"
            },
            {
              "internalType": "int128",
              "name": "slope",
              "type": "int128"
            },
            {
              "internalType": "uint256",
              "name": "ts",
              "type": "uint256"
            },
            {
              "internalType": "uint256",
              "name": "blk",
              "type": "uint256"
            }
          ],
          "internalType": "struct IVotingEscrow.Point",
          "name": "",
          "type": "tuple"
        }
      ],
      "stateMutability": "view",
      "type": "function"
    },
    {
      "inputs": [],
      "name": "getVeSiloDelegator",
      "outputs": [
        {
          "internalType": "contract IVeSiloDelegatorViaCCIP",
          "name": "",
          "type": "address"
        }
      ],
      "stateMutability": "view",
      "type": "function"
    },
    {
      "inputs": [],
      "name": "getVotingEscrow",
      "outputs": [
        {
          "internalType": "contract IVotingEscrow",
          "name": "",
          "type": "address"
        }
      ],
      "stateMutability": "view",
      "type": "function"
    },
    {
      "inputs": [],
      "name": "owner",
      "outputs": [
        {
          "internalType": "address",
          "name": "",
          "type": "address"
        }
      ],
      "stateMutability": "view",
      "type": "function"
    },
    {
      "inputs": [],
      "name": "pendingOwner",
      "outputs": [
        {
          "internalType": "address",
          "name": "",
          "type": "address"
        }
      ],
      "stateMutability": "view",
      "type": "function"
    },
    {
      "inputs": [],
      "name": "renounceOwnership",
      "outputs": [],
      "stateMutability": "nonpayable",
      "type": "function"
    },
    {
      "inputs": [
        {
          "internalType": "address",
          "name": "localUser",
          "type": "address"
        },
        {
          "internalType": "address",
          "name": "remoteUser",
          "type": "address"
        },
        {
          "internalType": "uint64",
          "name": "chainId",
          "type": "uint64"
        },
        {
          "internalType": "enum ICCIPMessageSender.PayFeesIn",
          "name": "payFeesIn",
          "type": "uint8"
        }
      ],
      "name": "setNetworkRemapping",
      "outputs": [],
      "stateMutability": "payable",
      "type": "function"
    },
    {
      "inputs": [
        {
          "internalType": "address",
          "name": "localUser",
          "type": "address"
        },
        {
          "internalType": "address",
          "name": "delegate",
          "type": "address"
        }
      ],
      "name": "setNetworkRemappingManager",
      "outputs": [],
      "stateMutability": "nonpayable",
      "type": "function"
    },
    {
      "inputs": [
        {
          "internalType": "contract IVeSiloDelegatorViaCCIP",
          "name": "_delegator",
          "type": "address"
        }
      ],
      "name": "setVeSiloDelegator",
      "outputs": [],
      "stateMutability": "nonpayable",
      "type": "function"
    },
    {
      "inputs": [
        {
          "internalType": "address",
          "name": "newOwner",
          "type": "address"
        }
      ],
      "name": "transferOwnership",
      "outputs": [],
      "stateMutability": "nonpayable",
      "type": "function"
    },
    {
      "anonymous": false,
      "inputs": [
        {
          "indexed": true,
          "internalType": "address",
          "name": "localUser",
          "type": "address"
        },
        {
          "indexed": true,
          "internalType": "address",
          "name": "delegate",
          "type": "address"
        }
      ],
      "name": "AddressDelegateUpdated",
      "type": "event"
    },
    {
      "anonymous": false,
      "inputs": [
        {
          "indexed": true,
          "internalType": "address",
          "name": "localUser",
          "type": "address"
        },
        {
          "indexed": true,
          "internalType": "address",
          "name": "remoteUser",
          "type": "address"
        },
        {
          "indexed": true,
          "internalType": "uint64",
          "name": "chainId",
          "type": "uint64"
        }
      ],
      "name": "AddressMappingUpdated",
      "type": "event"
    },
    {
      "anonymous": false,
      "inputs": [
        {
          "indexed": true,
          "internalType": "address",
          "name": "previousOwner",
          "type": "address"
        },
        {
          "indexed": true,
          "internalType": "address",
          "name": "newOwner",
          "type": "address"
        }
      ],
      "name": "OwnershipTransferStarted",
      "type": "event"
    },
    {
      "anonymous": false,
      "inputs": [
        {
          "indexed": true,
          "internalType": "address",
          "name": "previousOwner",
          "type": "address"
        },
        {
          "indexed": true,
          "internalType": "address",
          "name": "newOwner",
          "type": "address"
        }
      ],
      "name": "OwnershipTransferred",
      "type": "event"
    },
    {
      "anonymous": false,
      "inputs": [
        {
          "indexed": true,
          "internalType": "address",
          "name": "remoteUser",
          "type": "address"
        },
        {
          "indexed": true,
          "internalType": "uint64",
          "name": "chainId",
          "type": "uint64"
        }
      ],
      "name": "RemoteAddressMappingCleared",
      "type": "event"
    },
    {
      "anonymous": false,
      "inputs": [
        {
          "indexed": false,
          "internalType": "contract IVeSiloDelegatorViaCCIP",
          "name": "delegator",
          "type": "address"
        }
      ],
      "name": "VeSiloDelegatorUpdated",
      "type": "event"
    }
  ],
  "bytecode": "0x60c060405234801562000010575f80fd5b5060405162001d4738038062001d478339810160408190526200003391620000dd565b6200003e336200005b565b60016002556001600160a01b0391821660a052166080526200011a565b600180546001600160a01b0319169055620000768162000079565b50565b5f80546001600160a01b038381166001600160a01b0319831681178455604051919092169283917f8be0079c531659141344cd1fd0a4f28419497f9722a3daafe3b4186f6b6457e09190a35050565b6001600160a01b038116811462000076575f80fd5b5f8060408385031215620000ef575f80fd5b8251620000fc81620000c8565b60208401519092506200010f81620000c8565b809150509250929050565b60805160a051611bda6200016d5f395f818161014d015281816106e201528181610a7901528181610dc8015281816110c9015261121701525f8181610182015281816116e3015261177c0152611bda5ff3fe608060405260043610610105575f3560e01c806379ba509711610092578063e30c397811610062578063e30c397814610321578063e9bca5fe1461033e578063ee98b1e714610388578063f2fde38b146103bf578063f6f4a332146103de575f80fd5b806379ba5097146102885780638da5cb5b1461029c578063a9f3f44e146102b8578063d2f54230146102d7575f80fd5b80633e7df7c8116100d85780633e7df7c8146101b95780634f0f0f23146101e657806360fd6f1f146101f9578063715018a61461021857806371628bfd1461022c575f80fd5b8063085e87891461010957806308b0308a1461013f5780631b6b6d23146101715780632c032ddc146101a4575b5f80fd5b348015610114575f80fd5b506003546001600160a01b03165b6040516001600160a01b0390911681526020015b60405180910390f35b34801561014a575f80fd5b507f0000000000000000000000000000000000000000000000000000000000000000610122565b34801561017c575f80fd5b506101227f000000000000000000000000000000000000000000000000000000000000000081565b6101b76101b23660046118e4565b6103f2565b005b3480156101c4575f80fd5b506101d86101d3366004611926565b6106df565b604051908152602001610136565b6101b76101f4366004611941565b610771565b348015610204575f80fd5b506101b7610213366004611926565b610d34565b348015610223575f80fd5b506101b7610d90565b348015610237575f80fd5b5061024b610246366004611926565b610da3565b60405161013691905f6080820190508251600f0b82526020830151600f0b6020830152604083015160408301526060830151606083015292915050565b348015610293575f80fd5b506101b7610ecf565b3480156102a7575f80fd5b505f546001600160a01b0316610122565b3480156102c3575f80fd5b506101b76102d2366004611996565b610f49565b3480156102e2575f80fd5b506101226102f13660046119cd565b6001600160401b03165f9081526005602090815260408083206001600160a01b0394851684529091529020541690565b34801561032c575f80fd5b506001546001600160a01b0316610122565b348015610349575f80fd5b506101226103583660046119cd565b6001600160401b03165f9081526004602090815260408083206001600160a01b0394851684529091529020541690565b348015610393575f80fd5b506101226103a2366004611926565b6001600160a01b039081165f908152600660205260409020541690565b3480156103ca575f80fd5b506101b76103d9366004611926565b611034565b3480156103e9575f80fd5b5061024b6110a4565b6103fa6111bc565b6001600160a01b0383166104555760405162461bcd60e51b815260206004820181905260248201527f6c6f63616c557365722063616e6e6f74206265207a65726f206164647265737360448201526064015b60405180910390fd5b61045e83611213565b158061047257506001600160a01b03831633145b6104ca5760405162461bcd60e51b815260206004820152602360248201527f6c6f63616c55736572206973207374696c6c20696e20676f6f64207374616e64604482015262696e6760e81b606482015260840161044c565b6001600160401b0382165f9081526004602090815260408083206001600160a01b038088168552925290912054168061054f5760405162461bcd60e51b815260206004820152602160248201527f52656d617070696e6720746f20636c65617220646f6573206e6f7420657869736044820152601d60fa1b606482015260840161044c565b6001600160401b0383165f8181526005602090815260408083206001600160a01b03808716855290835281842080546001600160a01b031990811690915585855260048452828520918a16808652919093528184208054909316909255517fa9356fd598535f015ff925c93b518bdb018b481543b0deebfec82e0d16107094908390a46040516001600160401b038416906001600160a01b038316907f5604161eb0c2583fb177c349a4567712e92a81c91d0186c8977b67cd64dfadf4905f90a360035460405163d0b6133360e01b81525f916001600160a01b03169063d0b613339061064490889088908890600401611a14565b602060405180830381865afa15801561065f573d5f803e3d5ffd5b505050506040513d601f19601f820116820180604052508101906106839190611a5d565b90505f83600181111561069857610698611a00565b036106af576106aa8183878787611308565b6106bc565b6106bc8183878787611435565b4780156106cd576106cd338261152c565b5050506106da6001600255565b505050565b5f7f000000000000000000000000000000000000000000000000000000000000000060405163adc6358960e01b81526001600160a01b038481166004830152919091169063adc6358990602401602060405180830381865afa158015610747573d5f803e3d5ffd5b505050506040513d601f19601f8201168201806040525081019061076b9190611a5d565b92915050565b6107796111bc565b6107b3336001600160a01b03861614806107ab57506001600160a01b038581165f908152600660205260409020541633145b610191611641565b6107bc84611213565b61082e5760405162461bcd60e51b815260206004820152603860248201527f4f6e6c7920636f6e7472616374732077686963682063616e20686f6c6420766560448201527f42414c2063616e207365742075702061206d617070696e670000000000000000606482015260840161044c565b6001600160a01b0383166108975760405162461bcd60e51b815260206004820152602a60248201527f5a65726f20616464726573732063616e6e6f742062652075736564206173207260448201526932b6b7ba32903ab9b2b960b11b606482015260840161044c565b6001600160401b0382165f9081526005602090815260408083206001600160a01b038781168552925290912054161561092f5760405162461bcd60e51b815260206004820152603460248201527f43616e6e6f74206f766572777269746520616e206578697374696e67206d61706044820152733834b73390313c9030b737ba3432b9103ab9b2b960611b606482015260840161044c565b6001600160401b0382165f9081526004602090815260408083206001600160a01b03878116855292529091205416156109c45760405162461bcd60e51b815260206004820152603160248201527f43616e6e6f742072656d617020746f20616e2061646472657373207468617420604482015270697320696e20757365206c6f63616c6c7960781b606482015260840161044c565b6001600160401b0382165f9081526005602090815260408083206001600160a01b0388811685529252909120541615610a5a5760405162461bcd60e51b815260206004820152603260248201527f43616e6e6f742072656d617020746f20616e2061646472657373207468617420604482015271697320696e207573652072656d6f74656c7960701b606482015260840161044c565b6040516370a0823160e01b81526001600160a01b0384811660048301527f000000000000000000000000000000000000000000000000000000000000000016906370a0823190602401602060405180830381865afa158015610abe573d5f803e3d5ffd5b505050506040513d601f19601f82011682018060405250810190610ae29190611a5d565b15610b485760405162461bcd60e51b815260206004820152603060248201527f5461726765742072656d6f7465206164647265737320686173206e6f6e2d7a6560448201526f726f20766542414c2062616c616e636560801b606482015260840161044c565b6001600160401b0382165f9081526004602090815260408083206001600160a01b038089168552925290912054168015610bdd576001600160401b0383165f8181526005602090815260408083206001600160a01b038616808552925280832080546001600160a01b03191690555190917f5604161eb0c2583fb177c349a4567712e92a81c91d0186c8977b67cd64dfadf491a35b6001600160401b0383165f8181526005602090815260408083206001600160a01b03808a168086529184528285208054918c166001600160a01b0319928316811790915586865260048552838620818752909452828520805490911682179055905190927fa9356fd598535f015ff925c93b518bdb018b481543b0deebfec82e0d1610709491a460035460405163d0b6133360e01b81525f916001600160a01b03169063d0b6133390610c9890899088908890600401611a14565b602060405180830381865afa158015610cb3573d5f803e3d5ffd5b505050506040513d601f19601f82011682018060405250810190610cd79190611a5d565b90505f836001811115610cec57610cec611a00565b03610d0357610cfe8183888787611308565b610d10565b610d108183888787611435565b478015610d2157610d21338261152c565b505050610d2e6001600255565b50505050565b610d3c61164f565b600380546001600160a01b0319166001600160a01b0383169081179091556040519081527fbd762807e524b55a30b2afbd210c5b14924702412eb01c37f71d833a1004a1f89060200160405180910390a150565b610d9861164f565b610da15f6116a8565b565b604080516080810182525f8082526020820181905291810182905260608101829052907f000000000000000000000000000000000000000000000000000000000000000060405163010ae75760e01b81526001600160a01b0385811660048301529192505f9183169063010ae75790602401602060405180830381865afa158015610e30573d5f803e3d5ffd5b505050506040513d601f19601f82011682018060405250810190610e549190611a5d565b6040516328d09d4760e01b81526001600160a01b03868116600483015260248201839052919250908316906328d09d4790604401608060405180830381865afa158015610ea3573d5f803e3d5ffd5b505050506040513d601f19601f82011682018060405250810190610ec79190611a85565b949350505050565b60015433906001600160a01b03168114610f3d5760405162461bcd60e51b815260206004820152602960248201527f4f776e61626c6532537465703a2063616c6c6572206973206e6f7420746865206044820152683732bb9037bbb732b960b91b606482015260840161044c565b610f46816116a8565b50565b610f5161164f565b610f596111bc565b610f6282611213565b610fd45760405162461bcd60e51b815260206004820152603760248201527f4f6e6c7920636f6e7472616374732077686963682063616e20686f6c6420766560448201527f42414c206d6179206861766520612064656c6567617465000000000000000000606482015260840161044c565b6001600160a01b038281165f8181526006602052604080822080546001600160a01b0319169486169485179055517f72cff3a94768f9930e59d7a01948e45bea689391918693c8d164c16f271c46d99190a36110306001600255565b5050565b61103c61164f565b600180546001600160a01b0383166001600160a01b0319909116811790915561106c5f546001600160a01b031690565b6001600160a01b03167f38d16b8cac22d99fc7c124b9cd0de2d3fa1faef420bfe791d8c362d765e2270060405160405180910390a350565b604080516080810182525f8082526020820181905291810182905260608101829052907f000000000000000000000000000000000000000000000000000000000000000090505f816001600160a01b031663900cf0cf6040518163ffffffff1660e01b8152600401602060405180830381865afa158015611127573d5f803e3d5ffd5b505050506040513d601f19601f8201168201806040525081019061114b9190611a5d565b60405163d1febfb960e01b8152600481018290529091506001600160a01b0383169063d1febfb990602401608060405180830381865afa158015611191573d5f803e3d5ffd5b505050506040513d601f19601f820116820180604052508101906111b59190611a85565b9250505090565b600280540361120d5760405162461bcd60e51b815260206004820152601f60248201527f5265656e7472616e637947756172643a207265656e7472616e742063616c6c00604482015260640161044c565b60028055565b5f807f00000000000000000000000000000000000000000000000000000000000000006001600160a01b0316637175d4f76040518163ffffffff1660e01b8152600401602060405180830381865afa158015611271573d5f803e3d5ffd5b505050506040513d601f19601f820116820180604052508101906112959190611b00565b604051631846d2f560e31b81526001600160a01b0385811660048301529192509082169063c23697a890602401602060405180830381865afa1580156112dd573d5f803e3d5ffd5b505050506040513d601f19601f820116820180604052508101906113019190611b1b565b9392505050565b6003546001600160a01b03908116908516156113ad57611329866002611b3a565b3410156113485760405162461bcd60e51b815260040161044c90611b5d565b60405163822907b960e01b81526001600160a01b0382169063822907b990889061137a90899088908890600401611a14565b5f604051808303818588803b158015611391575f80fd5b505af11580156113a3573d5f803e3d5ffd5b50505050506113cd565b853410156113cd5760405162461bcd60e51b815260040161044c90611b5d565b60405163822907b960e01b81526001600160a01b0382169063822907b99088906113ff90889088908890600401611a14565b5f604051808303818588803b158015611416575f80fd5b505af1158015611428573d5f803e3d5ffd5b5050505050505050505050565b6003546001600160a01b03908116908516156114bd5785600202955061145b81876116c1565b60405163822907b960e01b81526001600160a01b0382169063822907b99061148b90889087908790600401611a14565b5f604051808303815f87803b1580156114a2575f80fd5b505af11580156114b4573d5f803e3d5ffd5b505050506114c7565b6114c781876116c1565b60405163822907b960e01b81526001600160a01b0382169063822907b9906114f790879087908790600401611a14565b5f604051808303815f87803b15801561150e575f80fd5b505af1158015611520573d5f803e3d5ffd5b50505050505050505050565b8047101561157c5760405162461bcd60e51b815260206004820152601d60248201527f416464726573733a20696e73756666696369656e742062616c616e6365000000604482015260640161044c565b5f826001600160a01b0316826040515f6040518083038185875af1925050503d805f81146115c5576040519150601f19603f3d011682016040523d82523d5f602084013e6115ca565b606091505b50509050806106da5760405162461bcd60e51b815260206004820152603a60248201527f416464726573733a20756e61626c6520746f2073656e642076616c75652c207260448201527f6563697069656e74206d61792068617665207265766572746564000000000000606482015260840161044c565b8161103057611030816117e6565b5f546001600160a01b03163314610da15760405162461bcd60e51b815260206004820181905260248201527f4f776e61626c653a2063616c6c6572206973206e6f7420746865206f776e6572604482015260640161044c565b600180546001600160a01b0319169055610f46816117f6565b6040516323b872dd60e01b8152336004820152306024820152604481018290527f00000000000000000000000000000000000000000000000000000000000000006001600160a01b0316906323b872dd906064016020604051808303815f875af1158015611731573d5f803e3d5ffd5b505050506040513d601f19601f820116820180604052508101906117559190611b1b565b5060405163095ea7b360e01b81526001600160a01b038381166004830152602482018390527f0000000000000000000000000000000000000000000000000000000000000000169063095ea7b3906044016020604051808303815f875af11580156117c2573d5f803e3d5ffd5b505050506040513d601f19601f820116820180604052508101906106da9190611b1b565b610f46816210905360ea1b611845565b5f80546001600160a01b038381166001600160a01b0319831681178455604051919092169283917f8be0079c531659141344cd1fd0a4f28419497f9722a3daafe3b4186f6b6457e09190a35050565b62461bcd60e51b5f90815260206004526007602452600a808404818106603090810160081b958390069590950190829004918206850160101b01602363ffffff0060e086901c160160181b0190930160c81b604481905260e883901c91606490fd5b6001600160a01b0381168114610f46575f80fd5b80356001600160401b03811681146118d1575f80fd5b919050565b8035600281106118d1575f80fd5b5f805f606084860312156118f6575f80fd5b8335611901816118a7565b925061190f602085016118bb565b915061191d604085016118d6565b90509250925092565b5f60208284031215611936575f80fd5b8135611301816118a7565b5f805f8060808587031215611954575f80fd5b843561195f816118a7565b9350602085013561196f816118a7565b925061197d604086016118bb565b915061198b606086016118d6565b905092959194509250565b5f80604083850312156119a7575f80fd5b82356119b2816118a7565b915060208301356119c2816118a7565b809150509250929050565b5f80604083850312156119de575f80fd5b82356119e9816118a7565b91506119f7602084016118bb565b90509250929050565b634e487b7160e01b5f52602160045260245ffd5b6001600160a01b03841681526001600160401b03831660208201526060810160028310611a4f57634e487b7160e01b5f52602160045260245ffd5b826040830152949350505050565b5f60208284031215611a6d575f80fd5b5051919050565b8051600f81900b81146118d1575f80fd5b5f60808284031215611a95575f80fd5b604051608081018181106001600160401b0382111715611ac357634e487b7160e01b5f52604160045260245ffd5b604052611acf83611a74565b8152611add60208401611a74565b602082015260408301516040820152606083015160608201528091505092915050565b5f60208284031215611b10575f80fd5b8151611301816118a7565b5f60208284031215611b2b575f80fd5b81518015158114611301575f80fd5b808202811582820484141761076b57634e487b7160e01b5f52601160045260245ffd5b60208082526027908201527f496e73756666696369656e742045544820746f2062726964676520757365722060408201526662616c616e636560c81b60608201526080019056fea26469706673582212203a2370e8643c381b9071d8b5b1726f2e345434a2710381cf8fe0d74b50f7c18064736f6c63430008180033",
  "language": "Solidity",
  "compiler": "0.8.24+commit.e11b9ed9"
}