{
  "address": "0x557d83ed357208a97A83f04D073364fd68b36937",
  "abi": [
    {
      "inputs": [
        {
          "internalType": "contract IERC20",
          "name": "votingEscrow",
          "type": "address"
        },
        {
          "internalType": "contract IVeDelegation",
          "name": "delegation",
          "type": "address"
        }
      ],
      "stateMutability": "nonpayable",
      "type": "constructor"
    },
    {
      "inputs": [],
      "name": "acceptOwnership",
      "outputs": [],
      "stateMutability": "nonpayable",
      "type": "function"
    },
    {
      "inputs": [
        {
          "internalType": "address",
          "name": "user",
          "type": "address"
        }
      ],
      "name": "adjustedBalanceOf",
      "outputs": [
        {
          "internalType": "uint256",
          "name": "",
          "type": "uint256"
        }
      ],
      "stateMutability": "view",
      "type": "function"
    },
    {
      "inputs": [
        {
          "internalType": "address",
          "name": "user",
          "type": "address"
        }
      ],
      "name": "adjusted_balance_of",
      "outputs": [
        {
          "internalType": "uint256",
          "name": "",
          "type": "uint256"
        }
      ],
      "stateMutability": "view",
      "type": "function"
    },
    {
      "inputs": [],
      "name": "getDelegationImplementation",
      "outputs": [
        {
          "internalType": "contract IVeDelegation",
          "name": "",
          "type": "address"
        }
      ],
      "stateMutability": "view",
      "type": "function"
    },
    {
      "inputs": [],
      "name": "getVotingEscrow",
      "outputs": [
        {
          "internalType": "contract IERC20",
          "name": "",
          "type": "address"
        }
      ],
      "stateMutability": "view",
      "type": "function"
    },
    {
      "inputs": [],
      "name": "killDelegation",
      "outputs": [],
      "stateMutability": "nonpayable",
      "type": "function"
    },
    {
      "inputs": [],
      "name": "owner",
      "outputs": [
        {
          "internalType": "address",
          "name": "",
          "type": "address"
        }
      ],
      "stateMutability": "view",
      "type": "function"
    },
    {
      "inputs": [],
      "name": "pendingOwner",
      "outputs": [
        {
          "internalType": "address",
          "name": "",
          "type": "address"
        }
      ],
      "stateMutability": "view",
      "type": "function"
    },
    {
      "inputs": [],
      "name": "renounceOwnership",
      "outputs": [],
      "stateMutability": "nonpayable",
      "type": "function"
    },
    {
      "inputs": [
        {
          "internalType": "contract IVeDelegation",
          "name": "delegation",
          "type": "address"
        }
      ],
      "name": "setDelegation",
      "outputs": [],
      "stateMutability": "nonpayable",
      "type": "function"
    },
    {
      "inputs": [],
      "name": "totalSupply",
      "outputs": [
        {
          "internalType": "uint256",
          "name": "",
          "type": "uint256"
        }
      ],
      "stateMutability": "view",
      "type": "function"
    },
    {
      "inputs": [
        {
          "internalType": "address",
          "name": "newOwner",
          "type": "address"
        }
      ],
      "name": "transferOwnership",
      "outputs": [],
      "stateMutability": "nonpayable",
      "type": "function"
    },
    {
      "anonymous": false,
      "inputs": [
        {
          "indexed": true,
          "internalType": "address",
          "name": "newImplementation",
          "type": "address"
        }
      ],
      "name": "DelegationImplementationUpdated",
      "type": "event"
    },
    {
      "anonymous": false,
      "inputs": [
        {
          "indexed": true,
          "internalType": "address",
          "name": "previousOwner",
          "type": "address"
        },
        {
          "indexed": true,
          "internalType": "address",
          "name": "newOwner",
          "type": "address"
        }
      ],
      "name": "OwnershipTransferStarted",
      "type": "event"
    },
    {
      "anonymous": false,
      "inputs": [
        {
          "indexed": true,
          "internalType": "address",
          "name": "previousOwner",
          "type": "address"
        },
        {
          "indexed": true,
          "internalType": "address",
          "name": "newOwner",
          "type": "address"
        }
      ],
      "name": "OwnershipTransferred",
      "type": "event"
    }
  ],
  "bytecode": "0x60a060405234801561000f575f80fd5b506040516107b63803806107b683398101604081905261002e916100de565b6100373361005f565b6001600160a01b03918216608052600280546001600160a01b03191691909216179055610116565b600180546001600160a01b03191690556100788161007b565b50565b5f80546001600160a01b038381166001600160a01b0319831681178455604051919092169283917f8be0079c531659141344cd1fd0a4f28419497f9722a3daafe3b4186f6b6457e09190a35050565b6001600160a01b0381168114610078575f80fd5b5f80604083850312156100ef575f80fd5b82516100fa816100ca565b602084015190925061010b816100ca565b809150509250929050565b60805161067b61013b5f395f818160b7015281816101a401526104a4015261067b5ff3fe608060405234801561000f575f80fd5b50600436106100b1575f3560e01c806379ba50971161006e57806379ba5097146101405780638da5cb5b14610148578063bbf7408a1461010a578063e30c397814610158578063e6b3e70414610169578063f2fde38b1461017c575f80fd5b806308b0308a146100b557806318160ddd146100f4578063257984181461010a57806363408a901461011d5780636448a3ab1461012e578063715018a614610138575b5f80fd5b7f00000000000000000000000000000000000000000000000000000000000000005b6040516001600160a01b0390911681526020015b60405180910390f35b6100fc61018f565b6040519081526020016100eb565b6100fc610118366004610613565b610264565b6002546001600160a01b03166100d7565b610136610274565b005b6101366102b8565b6101366102cb565b5f546001600160a01b03166100d7565b6001546001600160a01b03166100d7565b610136610177366004610613565b61034a565b61013661018a366004610613565b610402565b6002545f906001600160a01b031680610228577f00000000000000000000000000000000000000000000000000000000000000006001600160a01b03166318160ddd6040518163ffffffff1660e01b8152600401602060405180830381865afa1580156101fe573d5f803e3d5ffd5b505050506040513d601f19601f82011682018060405250810190610222919061062e565b91505090565b806001600160a01b03166318160ddd6040518163ffffffff1660e01b8152600401602060405180830381865afa1580156101fe573d5f803e3d5ffd5b5f61026e82610472565b92915050565b61027c610543565b600280546001600160a01b03191690556040515f907fb2f6d9cc189e4fc02519ab5ba6d9455bedc32091e375e8a6383ed45f40653e74908290a2565b6102c0610543565b6102c95f61059c565b565b60015433906001600160a01b0316811461033e5760405162461bcd60e51b815260206004820152602960248201527f4f776e61626c6532537465703a2063616c6c6572206973206e6f7420746865206044820152683732bb9037bbb732b960b91b60648201526084015b60405180910390fd5b6103478161059c565b50565b610352610543565b604051635dfba04560e11b81523360048201526001600160a01b0382169063bbf7408a90602401602060405180830381865afa158015610394573d5f803e3d5ffd5b505050506040513d601f19601f820116820180604052508101906103b8919061062e565b50600280546001600160a01b0319166001600160a01b0383169081179091556040517fb2f6d9cc189e4fc02519ab5ba6d9455bedc32091e375e8a6383ed45f40653e74905f90a250565b61040a610543565b600180546001600160a01b0383166001600160a01b0319909116811790915561043a5f546001600160a01b031690565b6001600160a01b03167f38d16b8cac22d99fc7c124b9cd0de2d3fa1faef420bfe791d8c362d765e2270060405160405180910390a350565b6002545f906001600160a01b031680610515576040516370a0823160e01b81526001600160a01b0384811660048301527f000000000000000000000000000000000000000000000000000000000000000016906370a08231906024015b602060405180830381865afa1580156104ea573d5f803e3d5ffd5b505050506040513d601f19601f8201168201806040525081019061050e919061062e565b9392505050565b604051635dfba04560e11b81526001600160a01b03848116600483015282169063bbf7408a906024016104cf565b5f546001600160a01b031633146102c95760405162461bcd60e51b815260206004820181905260248201527f4f776e61626c653a2063616c6c6572206973206e6f7420746865206f776e65726044820152606401610335565b600180546001600160a01b0319169055610347815f80546001600160a01b038381166001600160a01b0319831681178455604051919092169283917f8be0079c531659141344cd1fd0a4f28419497f9722a3daafe3b4186f6b6457e09190a35050565b6001600160a01b0381168114610347575f80fd5b5f60208284031215610623575f80fd5b813561050e816105ff565b5f6020828403121561063e575f80fd5b505191905056fea26469706673582212201f6bd90372854a04a964e184b4b75e45e82baa1766321a8a85384cf316bf4b6364736f6c63430008180033",
  "language": "Solidity",
  "compiler": "0.8.24+commit.e11b9ed9"
}