{
  "address": "0xDbFD293b7b348De44933e05CFcAACA2E06b1C000",
  "abi": [
    {
      "inputs": [],
      "stateMutability": "nonpayable",
      "type": "constructor"
    },
    {
      "inputs": [],
      "name": "acceptOwnership",
      "outputs": [],
      "stateMutability": "nonpayable",
      "type": "function"
    },
    {
      "inputs": [
        {
          "internalType": "address",
          "name": "_silo",
          "type": "address"
        },
        {
          "internalType": "uint256",
          "name": "_action",
          "type": "uint256"
        },
        {
          "internalType": "bytes",
          "name": "_inputAndOutput",
          "type": "bytes"
        }
      ],
      "name": "afterAction",
      "outputs": [],
      "stateMutability": "nonpayable",
      "type": "function"
    },
    {
      "inputs": [
        {
          "internalType": "address",
          "name": "",
          "type": "address"
        },
        {
          "internalType": "uint256",
          "name": "",
          "type": "uint256"
        },
        {
          "internalType": "bytes",
          "name": "",
          "type": "bytes"
        }
      ],
      "name": "beforeAction",
      "outputs": [],
      "stateMutability": "nonpayable",
      "type": "function"
    },
    {
      "inputs": [
        {
          "internalType": "contract IShareToken",
          "name": "",
          "type": "address"
        }
      ],
      "name": "configuredGauges",
      "outputs": [
        {
          "internalType": "contract IGaugeLike",
          "name": "",
          "type": "address"
        }
      ],
      "stateMutability": "view",
      "type": "function"
    },
    {
      "inputs": [
        {
          "internalType": "address",
          "name": "_silo",
          "type": "address"
        }
      ],
      "name": "hookReceiverConfig",
      "outputs": [
        {
          "internalType": "uint24",
          "name": "hooksBefore",
          "type": "uint24"
        },
        {
          "internalType": "uint24",
          "name": "hooksAfter",
          "type": "uint24"
        }
      ],
      "stateMutability": "view",
      "type": "function"
    },
    {
      "inputs": [
        {
          "internalType": "contract ISiloConfig",
          "name": "_siloConfig",
          "type": "address"
        },
        {
          "internalType": "bytes",
          "name": "_data",
          "type": "bytes"
        }
      ],
      "name": "initialize",
      "outputs": [],
      "stateMutability": "nonpayable",
      "type": "function"
    },
    {
      "inputs": [
        {
          "internalType": "address",
          "name": "_collateralAsset",
          "type": "address"
        },
        {
          "internalType": "address",
          "name": "_debtAsset",
          "type": "address"
        },
        {
          "internalType": "address",
          "name": "_borrower",
          "type": "address"
        },
        {
          "internalType": "uint256",
          "name": "_maxDebtToCover",
          "type": "uint256"
        },
        {
          "internalType": "bool",
          "name": "_receiveSToken",
          "type": "bool"
        }
      ],
      "name": "liquidationCall",
      "outputs": [
        {
          "internalType": "uint256",
          "name": "withdrawCollateral",
          "type": "uint256"
        },
        {
          "internalType": "uint256",
          "name": "repayDebtAssets",
          "type": "uint256"
        }
      ],
      "stateMutability": "nonpayable",
      "type": "function"
    },
    {
      "inputs": [
        {
          "internalType": "address",
          "name": "_borrower",
          "type": "address"
        }
      ],
      "name": "maxLiquidation",
      "outputs": [
        {
          "internalType": "uint256",
          "name": "collateralToLiquidate",
          "type": "uint256"
        },
        {
          "internalType": "uint256",
          "name": "debtToRepay",
          "type": "uint256"
        },
        {
          "internalType": "bool",
          "name": "sTokenRequired",
          "type": "bool"
        }
      ],
      "stateMutability": "view",
      "type": "function"
    },
    {
      "inputs": [],
      "name": "owner",
      "outputs": [
        {
          "internalType": "address",
          "name": "",
          "type": "address"
        }
      ],
      "stateMutability": "view",
      "type": "function"
    },
    {
      "inputs": [],
      "name": "pendingOwner",
      "outputs": [
        {
          "internalType": "address",
          "name": "",
          "type": "address"
        }
      ],
      "stateMutability": "view",
      "type": "function"
    },
    {
      "inputs": [
        {
          "internalType": "contract IShareToken",
          "name": "_shareToken",
          "type": "address"
        }
      ],
      "name": "removeGauge",
      "outputs": [],
      "stateMutability": "nonpayable",
      "type": "function"
    },
    {
      "inputs": [],
      "name": "renounceOwnership",
      "outputs": [],
      "stateMutability": "nonpayable",
      "type": "function"
    },
    {
      "inputs": [
        {
          "internalType": "contract IGaugeLike",
          "name": "_gauge",
          "type": "address"
        },
        {
          "internalType": "contract IShareToken",
          "name": "_shareToken",
          "type": "address"
        }
      ],
      "name": "setGauge",
      "outputs": [],
      "stateMutability": "nonpayable",
      "type": "function"
    },
    {
      "inputs": [],
      "name": "shareToken",
      "outputs": [
        {
          "internalType": "contract IShareToken",
          "name": "",
          "type": "address"
        }
      ],
      "stateMutability": "view",
      "type": "function"
    },
    {
      "inputs": [],
      "name": "siloConfig",
      "outputs": [
        {
          "internalType": "contract ISiloConfig",
          "name": "",
          "type": "address"
        }
      ],
      "stateMutability": "view",
      "type": "function"
    },
    {
      "inputs": [
        {
          "internalType": "address",
          "name": "newOwner",
          "type": "address"
        }
      ],
      "name": "transferOwnership",
      "outputs": [],
      "stateMutability": "nonpayable",
      "type": "function"
    },
    {
      "anonymous": false,
      "inputs": [
        {
          "indexed": false,
          "internalType": "address",
          "name": "gauge",
          "type": "address"
        },
        {
          "indexed": false,
          "internalType": "address",
          "name": "shareToken",
          "type": "address"
        }
      ],
      "name": "GaugeConfigured",
      "type": "event"
    },
    {
      "anonymous": false,
      "inputs": [
        {
          "indexed": false,
          "internalType": "address",
          "name": "shareToken",
          "type": "address"
        }
      ],
      "name": "GaugeRemoved",
      "type": "event"
    },
    {
      "anonymous": false,
      "inputs": [
        {
          "indexed": false,
          "internalType": "address",
          "name": "silo",
          "type": "address"
        },
        {
          "indexed": false,
          "internalType": "uint24",
          "name": "hooksBefore",
          "type": "uint24"
        },
        {
          "indexed": false,
          "internalType": "uint24",
          "name": "hooksAfter",
          "type": "uint24"
        }
      ],
      "name": "HookConfigured",
      "type": "event"
    },
    {
      "anonymous": false,
      "inputs": [
        {
          "indexed": false,
          "internalType": "uint64",
          "name": "version",
          "type": "uint64"
        }
      ],
      "name": "Initialized",
      "type": "event"
    },
    {
      "anonymous": false,
      "inputs": [
        {
          "indexed": true,
          "internalType": "address",
          "name": "liquidator",
          "type": "address"
        },
        {
          "indexed": true,
          "internalType": "address",
          "name": "silo",
          "type": "address"
        },
        {
          "indexed": true,
          "internalType": "address",
          "name": "borrower",
          "type": "address"
        },
        {
          "indexed": false,
          "internalType": "uint256",
          "name": "repayDebtAssets",
          "type": "uint256"
        },
        {
          "indexed": false,
          "internalType": "uint256",
          "name": "withdrawCollateral",
          "type": "uint256"
        },
        {
          "indexed": false,
          "internalType": "bool",
          "name": "receiveSToken",
          "type": "bool"
        }
      ],
      "name": "LiquidationCall",
      "type": "event"
    },
    {
      "anonymous": false,
      "inputs": [
        {
          "indexed": true,
          "internalType": "address",
          "name": "previousOwner",
          "type": "address"
        },
        {
          "indexed": true,
          "internalType": "address",
          "name": "newOwner",
          "type": "address"
        }
      ],
      "name": "OwnershipTransferStarted",
      "type": "event"
    },
    {
      "anonymous": false,
      "inputs": [
        {
          "indexed": true,
          "internalType": "address",
          "name": "previousOwner",
          "type": "address"
        },
        {
          "indexed": true,
          "internalType": "address",
          "name": "newOwner",
          "type": "address"
        }
      ],
      "name": "OwnershipTransferred",
      "type": "event"
    },
    {
      "inputs": [
        {
          "internalType": "address",
          "name": "target",
          "type": "address"
        }
      ],
      "name": "AddressEmptyCode",
      "type": "error"
    },
    {
      "inputs": [],
      "name": "AlreadyConfigured",
      "type": "error"
    },
    {
      "inputs": [],
      "name": "CantRemoveActiveGauge",
      "type": "error"
    },
    {
      "inputs": [],
      "name": "EmptyGaugeAddress",
      "type": "error"
    },
    {
      "inputs": [],
      "name": "EmptySiloConfig",
      "type": "error"
    },
    {
      "inputs": [],
      "name": "FailedCall",
      "type": "error"
    },
    {
      "inputs": [],
      "name": "FullLiquidationRequired",
      "type": "error"
    },
    {
      "inputs": [],
      "name": "GaugeAlreadyConfigured",
      "type": "error"
    },
    {
      "inputs": [],
      "name": "GaugeIsNotConfigured",
      "type": "error"
    },
    {
      "inputs": [
        {
          "internalType": "uint256",
          "name": "balance",
          "type": "uint256"
        },
        {
          "internalType": "uint256",
          "name": "needed",
          "type": "uint256"
        }
      ],
      "name": "InsufficientBalance",
      "type": "error"
    },
    {
      "inputs": [],
      "name": "InvalidInitialization",
      "type": "error"
    },
    {
      "inputs": [],
      "name": "InvalidShareToken",
      "type": "error"
    },
    {
      "inputs": [],
      "name": "NoDebtToCover",
      "type": "error"
    },
    {
      "inputs": [],
      "name": "NoRepayAssets",
      "type": "error"
    },
    {
      "inputs": [],
      "name": "NotInitializing",
      "type": "error"
    },
    {
      "inputs": [
        {
          "internalType": "address",
          "name": "owner",
          "type": "address"
        }
      ],
      "name": "OwnableInvalidOwner",
      "type": "error"
    },
    {
      "inputs": [
        {
          "internalType": "address",
          "name": "account",
          "type": "address"
        }
      ],
      "name": "OwnableUnauthorizedAccount",
      "type": "error"
    },
    {
      "inputs": [],
      "name": "OwnerIsZeroAddress",
      "type": "error"
    },
    {
      "inputs": [],
      "name": "RequestNotSupported",
      "type": "error"
    },
    {
      "inputs": [
        {
          "internalType": "address",
          "name": "token",
          "type": "address"
        }
      ],
      "name": "SafeERC20FailedOperation",
      "type": "error"
    },
    {
      "inputs": [],
      "name": "UnexpectedCollateralToken",
      "type": "error"
    },
    {
      "inputs": [],
      "name": "UnexpectedDebtToken",
      "type": "error"
    },
    {
      "inputs": [],
      "name": "UnknownRatio",
      "type": "error"
    },
    {
      "inputs": [],
      "name": "UserIsSolvent",
      "type": "error"
    },
    {
      "inputs": [],
      "name": "WrongGaugeShareToken",
      "type": "error"
    }
  ],
  "bytecode": "0x608060405234801561000f575f5ffd5b50338061003557604051631e4fbdf760e01b81525f600482015260240160405180910390fd5b61003e81610055565b50610047610071565b6100505f610055565b610173565b600380546001600160a01b031916905561006e81610122565b50565b7ff0c57e16840df040f15088dc2f81fe391c3923bec73e23a9662efc9c229c6a00805468010000000000000000900460ff16156100c15760405163f92ee8a960e01b815260040160405180910390fd5b80546001600160401b039081161461006e5780546001600160401b0319166001600160401b0390811782556040519081527fc7f505b2f371ae2175ee4913f4499e1f2633a7b5936321eed1cdaeb6115181d29060200160405180910390a150565b600280546001600160a01b038381166001600160a01b0319831681179093556040519116919082907f8be0079c531659141344cd1fd0a4f28419497f9722a3daafe3b4186f6b6457e0905f90a35050565b6126b8806101805f395ff3fe608060405234801561000f575f5ffd5b50600436106100fa575f3560e01c8063a37d941111610093578063d714fd1911610063578063d714fd1914610230578063e30c397814610242578063e4784fa914610253578063f2fde38b146102bd575f5ffd5b8063a37d9411146101b2578063aef28235146101da578063bd02d848146101ed578063d1f578941461021d575f5ffd5b80636c9fa59e116100ce5780636c9fa59e14610166578063715018a61461019157806379ba5097146101995780638da5cb5b146101a1575f5ffd5b8062a718a9146100fe578063237e6d641461012b57806335cb1099146101405780633a04514514610153575b5f5ffd5b61011161010c366004611ea7565b6102d0565b604080519283526020830191909152015b60405180910390f35b61013e610139366004611f0b565b61085e565b005b61013e61014e366004611f87565b610a5d565b61013e610161366004611fdf565b610a76565b600454610179906001600160a01b031681565b6040516001600160a01b039091168152602001610122565b61013e610c1d565b61013e610c30565b6002546001600160a01b0316610179565b6101796101c0366004611fdf565b60056020525f90815260409020546001600160a01b031681565b61013e6101e8366004611f87565b610c79565b6102006101fb366004611fdf565b610e15565b604080519384526020840192909252151590820152606001610122565b61013e61022b366004611ffa565b610eac565b5f54610179906001600160a01b031681565b6003546001600160a01b0316610179565b6102a1610261366004611fdf565b6001600160a01b03165f9081526001602090815260409182902082518084019093525462ffffff8082168085526301000000909204169290910182905291565b6040805162ffffff938416815292909116602083015201610122565b61013e6102cb366004611fdf565b610ffc565b5f805481906001600160a01b0316806102fc576040516379c39cf960e01b815260040160405180910390fd5b845f0361031c576040516317ff0e0960e11b815260040160405180910390fd5b806001600160a01b0316639dd413306040518163ffffffff1660e01b81526004015f604051808303815f87803b158015610354575f5ffd5b505af1158015610366573d5f5f3e3d5ffd5b505050505f5f610378838b8b8b61106d565b915091506103b36040518060a001604052805f81526020015f81526020015f81526020015f81526020015f6001600160e01b03191681525090565b6101a0830151604051636da707db60e01b815273__$4209d056df1fbc111362886d9db28db294$__91636da707db916103f791879187918f918f91906004016121a3565b608060405180830381865af4158015610412573d5f5f3e3d5ffd5b505050506040513d601f19601f8201168201806040525081019061043691906121e8565b6001600160e01b03191660808501819052606085019290925260408401929092529095506104639061128a565b878511156104845760405163d65db62d60e01b815260040160405180910390fd5b606082015161049e906001600160a01b03163330886112cf565b6104c482604001518684606001516001600160a01b03166113369092919063ffffffff16565b5f876104d057306104d2565b335b90506104ef84604001518b8385604001518860a0015160016113bd565b825260408401516060830151608086015161051092918d918591905f6113bd565b826020018181525050846001600160a01b03166362402b046040518163ffffffff1660e01b81526004015f604051808303815f87803b158015610551575f5ffd5b505af1158015610563573d5f5f3e3d5ffd5b505050604080850151905163acb7081560e01b8152600481018990526001600160a01b038d81166024830152909116915063acb70815906044016020604051808303815f875af11580156105b9573d5f5f3e3d5ffd5b505050506040513d601f19601f820116820180604052508101906105dd9190612234565b5087156106ec57815115610663576040808501518351915163a7d6e44b60e01b81526001600160a01b039091169163a7d6e44b916106219190600190600401612273565b602060405180830381865afa15801561063c573d5f5f3e3d5ffd5b505050506040513d601f19601f820116820180604052508101906106609190612234565b96505b6020820151156106e75783604001516001600160a01b031663a7d6e44b83602001515f6040518363ffffffff1660e01b81526004016106a3929190612273565b602060405180830381865afa1580156106be573d5f5f3e3d5ffd5b505050506040513d601f19601f820116820180604052508101906106e29190612234565b870196505b6107f9565b81511561077057604080850151835191516306d29bb360e51b81526001600160a01b039091169163da5376609161072d919033903090600190600401612287565b6020604051808303815f875af1158015610749573d5f5f3e3d5ffd5b505050506040513d601f19601f8201168201806040525081019061076d9190612234565b96505b6020820151156107f95783604001516001600160a01b031663da537660836020015133305f6040518563ffffffff1660e01b81526004016107b49493929190612287565b6020604051808303815f875af11580156107d0573d5f5f3e3d5ffd5b505050506040513d601f19601f820116820180604052508101906107f49190612234565b870196505b6040838101518151888152602081018a90528a15158184015291516001600160a01b038d81169392169133917f3a84f64446e8eada995aa9da2ddbfcd9b5d5d650503b19f024096d04c05ef2a99181900360600190a450505050509550959350505050565b610866611522565b6001600160a01b03821661088d5760405163d1af83ef60e01b815260040160405180910390fd5b806001600160a01b0316826001600160a01b0316632ad87c6f6040518163ffffffff1660e01b8152600401602060405180830381865afa1580156108d3573d5f5f3e3d5ffd5b505050506040513d601f19601f820116820180604052508101906108f791906122c2565b6001600160a01b03161461091e5760405163060a0aaf60e41b815260040160405180910390fd5b6001600160a01b038082165f908152600560205260409020541680156109575760405163d0c7225560e01b815260040160405180910390fd5b5f826001600160a01b031663eb3beb296040518163ffffffff1660e01b8152600401602060405180830381865afa158015610994573d5f5f3e3d5ffd5b505050506040513d601f19601f820116820180604052508101906109b891906122c2565b90505f6109c5828561154f565b90505f6109d183611658565b905061040082176109e182821790565b91506109ee845f8461167e565b6001600160a01b038681165f8181526005602090815260409182902080546001600160a01b031916948c16948517905581519384528301919091527f213d54ca7d6adb897962b4f78f6c2424aa527ee584f57a6000f961c507e0ec27910160405180910390a150505050505050565b604051632a188cb160e21b815260040160405180910390fd5b610a7e611522565b6001600160a01b038082165f908152600560205260409020541680610ab657604051632e77844760e21b815260040160405180910390fd5b806001600160a01b0316639c868ac06040518163ffffffff1660e01b8152600401602060405180830381865afa158015610af2573d5f5f3e3d5ffd5b505050506040513d601f19601f82011682018060405250810190610b1691906122e8565b610b3357604051630d0ab16560e01b815260040160405180910390fd5b5f826001600160a01b031663eb3beb296040518163ffffffff1660e01b8152600401602060405180830381865afa158015610b70573d5f5f3e3d5ffd5b505050506040513d601f19601f82011682018060405250810190610b9491906122c2565b90505f610ba1828561154f565b90505f610bad83611658565b8219169050610bbd835f8361167e565b6001600160a01b0385165f8181526005602090815260409182902080546001600160a01b031916905590519182527f94ac12f5301759f065db9de7f23677e50bef009f062b028d4d4612f620f0f5fb910160405180910390a15050505050565b610c25611522565b610c2e5f611761565b565b60035433906001600160a01b03168114610c6d5760405163118cdaa760e01b81526001600160a01b03821660048201526024015b60405180910390fd5b610c7681611761565b50565b335f908152600560205260409020546001600160a01b031680610caf57604051632e77844760e21b815260040160405180910390fd5b806001600160a01b0316639c868ac06040518163ffffffff1660e01b8152600401602060405180830381865afa158015610ceb573d5f5f3e3d5ffd5b505050506040513d601f19601f82011682018060405250810190610d0f91906122e8565b15610d1a5750610e0f565b610d2d84610d2787611658565b81161490565b610d375750610e0f565b5f610d7684848080601f0160208091040260200160405190810160405280939291908181526020018383808284375f9201919091525061177a92505050565b805160608201516020830151608084015160a0850151604080870151905163bbdc013b60e01b81526001600160a01b039687166004820152602481019590955292851660448501526064840191909152608483015260a482015291925083169063bbdc013b9060c4015f604051808303815f87803b158015610df6575f5ffd5b505af1158015610e08573d5f5f3e3d5ffd5b5050505050505b50505050565b5f8054604051631c2b1ded60e01b81526001600160a01b03918216600482015290831660248201528190819073__$4209d056df1fbc111362886d9db28db294$__90631c2b1ded90604401606060405180830381865af4158015610e7b573d5f5f3e3d5ffd5b505050506040513d601f19601f82011682018060405250810190610e9f9190612303565b9250925092509193909250565b7ff0c57e16840df040f15088dc2f81fe391c3923bec73e23a9662efc9c229c6a008054600160401b810460ff16159067ffffffffffffffff165f81158015610ef15750825b90505f8267ffffffffffffffff166001148015610f0d5750303b155b905081158015610f1b575080155b15610f395760405163f92ee8a960e01b815260040160405180910390fd5b845467ffffffffffffffff191660011785558315610f6357845460ff60401b1916600160401b1785555b5f610f7087890189611fdf565b90506001600160a01b038116610f99576040516354a4010f60e01b815260040160405180910390fd5b610fa28961181e565b610fab81611761565b508315610ff257845460ff60401b19168555604051600181527fc7f505b2f371ae2175ee4913f4499e1f2633a7b5936321eed1cdaeb6115181d29060200160405180910390a15b5050505050505050565b611004611522565b600380546001600160a01b0383166001600160a01b031990911681179091556110356002546001600160a01b031690565b6001600160a01b03167f38d16b8cac22d99fc7c124b9cd0de2d3fa1faef420bfe791d8c362d765e2270060405160405180910390a350565b611075611dfb565b61107d611dfb565b6040516394c0527d60e01b81526001600160a01b0384811660048301528716906394c0527d9060240161044060405180830381865afa1580156110c2573d5f5f3e3d5ffd5b505050506040513d601f19601f820116820180604052508101906110e69190612488565b604081015191935091506001600160a01b031661111657604051632f13551560e11b815260040160405180910390fd5b81606001516001600160a01b0316856001600160a01b03161461114c5760405163055692d760e21b815260040160405180910390fd5b80606001516001600160a01b0316846001600160a01b0316146111825760405163129e080d60e21b815260040160405180910390fd5b80604001516001600160a01b031663a6afed956040518163ffffffff1660e01b81526004016020604051808303815f875af11580156111c3573d5f5f3e3d5ffd5b505050506040513d601f19601f820116820180604052508101906111e79190612234565b5080604001516001600160a01b031682604001516001600160a01b0316146112815781604001516001600160a01b031663a6afed956040518163ffffffff1660e01b81526004016020604051808303815f875af115801561124a573d5f5f3e3d5ffd5b505050506040513d601f19601f8201168201806040525081019061126e9190612234565b506112788261188f565b6112818161188f565b94509492505050565b6001600160e01b031981165f0361129e5750565b6040805160048152602481019091526020810180516001600160e01b03166001600160e01b03198416178152815190fd5b6040516001600160a01b038481166024830152838116604483015260648201839052610e0f9186918216906323b872dd906084015b604051602081830303815290604052915060e01b6020820180516001600160e01b038381831617835250505050611915565b604051636eb1769f60e11b81523060048201526001600160a01b0383811660248301525f919085169063dd62ed3e90604401602060405180830381865afa158015611383573d5f5f3e3d5ffd5b505050506040513d601f19601f820116820180604052508101906113a79190612234565b9050610e0f84846113b885856124d1565b61197b565b5f835f036113cc57505f611518565b6114a284886001600160a01b031663b6d821c7856040518263ffffffff1660e01b81526004016113fc91906124e4565b602060405180830381865afa158015611417573d5f5f3e3d5ffd5b505050506040513d601f19601f8201168201806040525081019061143b9190612234565b856001600160a01b03166318160ddd6040518163ffffffff1660e01b8152600401602060405180830381865afa158015611477573d5f5f3e3d5ffd5b505050506040513d601f19601f8201168201806040525081019061149b9190612234565b5f86611a0a565b9050805f036114b257505f611518565b604051633661585b60e21b81526001600160a01b03878116600483015286811660248301526044820183905284169063d985616c906064015f604051808303815f87803b158015611501575f5ffd5b505af1158015611513573d5f5f3e3d5ffd5b505050505b9695505050505050565b6002546001600160a01b03163314610c2e5760405163118cdaa760e01b8152336004820152602401610c64565b5f8054604051630483b24f60e41b81526001600160a01b0385811660048301528392839283929091169063483b24f090602401606060405180830381865afa15801561159d573d5f5f3e3d5ffd5b505050506040513d601f19601f820116820180604052508101906115c191906124fe565b925092509250816001600160a01b0316856001600160a01b0316036115ed576108009350505050611652565b826001600160a01b0316856001600160a01b031603611613576110009350505050611652565b806001600160a01b0316856001600160a01b031603611639576120009350505050611652565b60405163d938fa3760e01b815260040160405180910390fd5b92915050565b6001600160a01b03165f908152600160205260409020546301000000900462ffffff1690565b60408051808201825262ffffff84811680835284821660208085018281526001600160a01b038a165f81815260018452889020965187549251871663010000000265ffffffffffff1990931696169590951717909455845192835292820152918201527f1c26a8451bc890d476a0e7bb8310f00750604879bb30d4813a7718a1ee089fa69060600160405180910390a1826001600160a01b031663cad1aacf6040518163ffffffff1660e01b81526004015f604051808303815f87803b158015611746575f5ffd5b505af1158015611758573d5f5f3e3d5ffd5b50505050505050565b600380546001600160a01b0319169055610c7681611a47565b6117bf6040518060c001604052805f6001600160a01b031681526020015f6001600160a01b031681526020015f81526020015f81526020015f81526020015f81525090565b506014810151602882015160488301516068840151608885015160a8909501516040805160c0810182526001600160a01b039687168152959094166020860152928401919091526060830152608082019290925260a081019190915290565b6001600160a01b038116611845576040516379c39cf960e01b815260040160405180910390fd5b5f546001600160a01b03161561186e576040516308db0db560e11b815260040160405180910390fd5b5f80546001600160a01b0319166001600160a01b0392909216919091179055565b80610200015180156118ad575060e08101516001600160a01b031615155b15610c765760e08101516060820151604051637cfd30cd60e11b81526001600160a01b03918216600482015291169063f9fa619a906024015f604051808303815f87803b1580156118fc575f5ffd5b505af115801561190e573d5f5f3e3d5ffd5b5050505050565b5f6119296001600160a01b03841683611a98565b905080515f1415801561194d57508080602001905181019061194b91906122e8565b155b1561197657604051635274afe760e01b81526001600160a01b0384166004820152602401610c64565b505050565b604080516001600160a01b038416602482015260448082018490528251808303909101815260649091019091526020810180516001600160e01b031663095ea7b360e01b1790526119cc8482611aac565b610e0f576040516001600160a01b0384811660248301525f6044830152611a0091869182169063095ea7b390606401611304565b610e0f8482611915565b5f5f5f611a18878786611b49565b91509150815f03611a2d578792505050611a3e565b611a3988838388611ba4565b925050505b95945050505050565b600280546001600160a01b038381166001600160a01b0319831681179093556040519116919082907f8be0079c531659141344cd1fd0a4f28419497f9722a3daafe3b4186f6b6457e0905f90a35050565b6060611aa583835f611be6565b9392505050565b5f5f5f846001600160a01b031684604051611ac7919061253d565b5f604051808303815f865af19150503d805f8114611b00576040519150601f19603f3d011682016040523d82523d5f602084013e611b05565b606091505b5091509150818015611b2f575080511580611b2f575080806020019051810190611b2f91906122e8565b8015611a3e5750505050506001600160a01b03163b151590565b5f5f835f03611b56575f94505b6002836002811115611b6a57611b6a61224b565b14611b9557611b7b6003600a612636565b611b8590856124d1565b611b908660016124d1565b611b98565b83855b90969095509350505050565b5f611bd1611bb183611c7c565b8015611bcc57505f8480611bc757611bc7612641565b868809115b151590565b611bdc868686611ca8565b611a3e91906124d1565b606081471015611c125760405163cf47918160e01b815247600482015260248101839052604401610c64565b5f5f856001600160a01b03168486604051611c2d919061253d565b5f6040518083038185875af1925050503d805f8114611c67576040519150601f19603f3d011682016040523d82523d5f602084013e611c6c565b606091505b5091509150611518868383611d65565b5f6002826003811115611c9157611c9161224b565b611c9b9190612655565b60ff166001149050919050565b5f838302815f1985870982811083820303915050805f03611cdc57838281611cd257611cd2612641565b0492505050611aa5565b808411611cfa57611cfa8415611cf3576011611dc1565b6012611dc1565b5f848688095f868103871696879004966002600389028118808a02820302808a02820302808a02820302808a02820302808a02820302808a02909103029181900381900460010186841190950394909402919094039290920491909117919091029150509392505050565b606082611d7a57611d7582611dd2565b611aa5565b8151158015611d9157506001600160a01b0384163b155b15611dba57604051639996b31560e01b81526001600160a01b0385166004820152602401610c64565b5080611aa5565b634e487b715f52806020526024601cfd5b805115611de25780518082602001fd5b60405163d6bda27560e01b815260040160405180910390fd5b60408051610220810182525f80825260208201819052918101829052606081018290526080810182905260a0810182905260c0810182905260e08101829052610100810182905261012081018290526101408101829052610160810182905261018081018290526101a081018290526101c081018290526101e0810182905261020081019190915290565b6001600160a01b0381168114610c76575f5ffd5b8015158114610c76575f5ffd5b5f5f5f5f5f60a08688031215611ebb575f5ffd5b8535611ec681611e86565b94506020860135611ed681611e86565b93506040860135611ee681611e86565b9250606086013591506080860135611efd81611e9a565b809150509295509295909350565b5f5f60408385031215611f1c575f5ffd5b8235611f2781611e86565b91506020830135611f3781611e86565b809150509250929050565b5f5f83601f840112611f52575f5ffd5b50813567ffffffffffffffff811115611f69575f5ffd5b602083019150836020828501011115611f80575f5ffd5b9250929050565b5f5f5f5f60608587031215611f9a575f5ffd5b8435611fa581611e86565b935060208501359250604085013567ffffffffffffffff811115611fc7575f5ffd5b611fd387828801611f42565b95989497509550505050565b5f60208284031215611fef575f5ffd5b8135611aa581611e86565b5f5f5f6040848603121561200c575f5ffd5b833561201781611e86565b9250602084013567ffffffffffffffff811115612032575f5ffd5b61203e86828701611f42565b9497909650939450505050565b8051825260208101516020830152604081015161207360408401826001600160a01b03169052565b50606081015161208e60608401826001600160a01b03169052565b5060808101516120a960808401826001600160a01b03169052565b5060a08101516120c460a08401826001600160a01b03169052565b5060c08101516120df60c08401826001600160a01b03169052565b5060e08101516120fa60e08401826001600160a01b03169052565b506101008101516121176101008401826001600160a01b03169052565b506101208101516121346101208401826001600160a01b03169052565b506101408101516101408301526101608101516101608301526101808101516101808301526101a08101516101a08301526101c08101516101c08301526101e081015161218d6101e08401826001600160a01b03169052565b5061020081015161197661020084018215159052565b6104a081016121b2828861204b565b6121c061022083018761204b565b6001600160a01b03949094166104408201526104608101929092526104809091015292915050565b5f5f5f5f608085870312156121fb575f5ffd5b845160208601516040870151606088015192965090945092506001600160e01b031981168114612229575f5ffd5b939692955090935050565b5f60208284031215612244575f5ffd5b5051919050565b634e487b7160e01b5f52602160045260245ffd5b6002811061226f5761226f61224b565b9052565b82815260408101611aa5602083018461225f565b8481526001600160a01b0384811660208301528316604082015260808101611a3e606083018461225f565b80516122bd81611e86565b919050565b5f602082840312156122d2575f5ffd5b8151611aa581611e86565b80516122bd81611e9a565b5f602082840312156122f8575f5ffd5b8151611aa581611e9a565b5f5f5f60608486031215612315575f5ffd5b835160208501516040860151919450925061232f81611e9a565b809150509250925092565b604051610220810167ffffffffffffffff8111828210171561236a57634e487b7160e01b5f52604160045260245ffd5b60405290565b5f6102208284031215612381575f5ffd5b61238961233a565b825181526020808401519082015290506123a5604083016122b2565b60408201526123b6606083016122b2565b60608201526123c7608083016122b2565b60808201526123d860a083016122b2565b60a08201526123e960c083016122b2565b60c08201526123fa60e083016122b2565b60e082015261240c61010083016122b2565b61010082015261241f61012083016122b2565b6101208201526101408281015190820152610160808301519082015261018080830151908201526101a080830151908201526101c080830151908201526124696101e083016122b2565b6101e082015261247c61020083016122dd565b61020082015292915050565b5f5f610440838503121561249a575f5ffd5b6124a48484612370565b91506124b4846102208501612370565b90509250929050565b634e487b7160e01b5f52601160045260245ffd5b80820180821115611652576116526124bd565b60208101600383106124f8576124f861224b565b91905290565b5f5f5f60608486031215612510575f5ffd5b835161251b81611e86565b602085015190935061252c81611e86565b604085015190925061232f81611e86565b5f82518060208501845e5f920191825250919050565b6001815b600184111561258e57808504811115612572576125726124bd565b600184161561258057908102905b60019390931c928002612557565b935093915050565b5f826125a457506001611652565b816125b057505f611652565b81600181146125c657600281146125d0576125ec565b6001915050611652565b60ff8411156125e1576125e16124bd565b50506001821b611652565b5060208310610133831016604e8410600b841016171561260f575081810a611652565b61261b5f198484612553565b805f190482111561262e5761262e6124bd565b029392505050565b5f611aa58383612596565b634e487b7160e01b5f52601260045260245ffd5b5f60ff83168061267357634e487b7160e01b5f52601260045260245ffd5b8060ff8416069150509291505056fea26469706673582212203ad56ddcf7cb654846c5ac4e561baf3e1bc462ac8ceb225d159d670a4f220f8264736f6c634300081c0033",
  "language": "Solidity",
  "compiler": "0.8.28+commit.7893614a"
}