{
  "address": "0xb021B1FfD7FC90E4104f901710CB2eFa67Cf4Da4",
  "abi": [
    {
      "inputs": [
        {
          "internalType": "address",
          "name": "",
          "type": "address"
        },
        {
          "internalType": "uint256",
          "name": "",
          "type": "uint256"
        },
        {
          "internalType": "bytes",
          "name": "",
          "type": "bytes"
        }
      ],
      "name": "afterAction",
      "outputs": [],
      "stateMutability": "nonpayable",
      "type": "function"
    },
    {
      "inputs": [
        {
          "internalType": "address",
          "name": "",
          "type": "address"
        },
        {
          "internalType": "uint256",
          "name": "",
          "type": "uint256"
        },
        {
          "internalType": "bytes",
          "name": "",
          "type": "bytes"
        }
      ],
      "name": "beforeAction",
      "outputs": [],
      "stateMutability": "nonpayable",
      "type": "function"
    },
    {
      "inputs": [
        {
          "internalType": "address",
          "name": "",
          "type": "address"
        }
      ],
      "name": "hookReceiverConfig",
      "outputs": [
        {
          "internalType": "uint24",
          "name": "hooksBefore",
          "type": "uint24"
        },
        {
          "internalType": "uint24",
          "name": "hooksAfter",
          "type": "uint24"
        }
      ],
      "stateMutability": "view",
      "type": "function"
    },
    {
      "inputs": [
        {
          "internalType": "contract ISiloConfig",
          "name": "_siloConfig",
          "type": "address"
        },
        {
          "internalType": "bytes",
          "name": "",
          "type": "bytes"
        }
      ],
      "name": "initialize",
      "outputs": [],
      "stateMutability": "nonpayable",
      "type": "function"
    },
    {
      "inputs": [
        {
          "internalType": "address",
          "name": "_collateralAsset",
          "type": "address"
        },
        {
          "internalType": "address",
          "name": "_debtAsset",
          "type": "address"
        },
        {
          "internalType": "address",
          "name": "_borrower",
          "type": "address"
        },
        {
          "internalType": "uint256",
          "name": "_maxDebtToCover",
          "type": "uint256"
        },
        {
          "internalType": "bool",
          "name": "_receiveSToken",
          "type": "bool"
        }
      ],
      "name": "liquidationCall",
      "outputs": [
        {
          "internalType": "uint256",
          "name": "withdrawCollateral",
          "type": "uint256"
        },
        {
          "internalType": "uint256",
          "name": "repayDebtAssets",
          "type": "uint256"
        }
      ],
      "stateMutability": "nonpayable",
      "type": "function"
    },
    {
      "inputs": [
        {
          "internalType": "address",
          "name": "_borrower",
          "type": "address"
        }
      ],
      "name": "maxLiquidation",
      "outputs": [
        {
          "internalType": "uint256",
          "name": "collateralToLiquidate",
          "type": "uint256"
        },
        {
          "internalType": "uint256",
          "name": "debtToRepay",
          "type": "uint256"
        },
        {
          "internalType": "bool",
          "name": "sTokenRequired",
          "type": "bool"
        }
      ],
      "stateMutability": "view",
      "type": "function"
    },
    {
      "inputs": [],
      "name": "siloConfig",
      "outputs": [
        {
          "internalType": "contract ISiloConfig",
          "name": "",
          "type": "address"
        }
      ],
      "stateMutability": "view",
      "type": "function"
    },
    {
      "anonymous": false,
      "inputs": [
        {
          "indexed": false,
          "internalType": "address",
          "name": "silo",
          "type": "address"
        },
        {
          "indexed": false,
          "internalType": "uint24",
          "name": "hooksBefore",
          "type": "uint24"
        },
        {
          "indexed": false,
          "internalType": "uint24",
          "name": "hooksAfter",
          "type": "uint24"
        }
      ],
      "name": "HookConfigured",
      "type": "event"
    },
    {
      "anonymous": false,
      "inputs": [
        {
          "indexed": true,
          "internalType": "address",
          "name": "liquidator",
          "type": "address"
        },
        {
          "indexed": false,
          "internalType": "bool",
          "name": "receiveSToken",
          "type": "bool"
        }
      ],
      "name": "LiquidationCall",
      "type": "event"
    },
    {
      "inputs": [
        {
          "internalType": "address",
          "name": "target",
          "type": "address"
        }
      ],
      "name": "AddressEmptyCode",
      "type": "error"
    },
    {
      "inputs": [],
      "name": "AlreadyConfigured",
      "type": "error"
    },
    {
      "inputs": [],
      "name": "EmptySiloConfig",
      "type": "error"
    },
    {
      "inputs": [],
      "name": "FailedCall",
      "type": "error"
    },
    {
      "inputs": [],
      "name": "FullLiquidationRequired",
      "type": "error"
    },
    {
      "inputs": [
        {
          "internalType": "uint256",
          "name": "balance",
          "type": "uint256"
        },
        {
          "internalType": "uint256",
          "name": "needed",
          "type": "uint256"
        }
      ],
      "name": "InsufficientBalance",
      "type": "error"
    },
    {
      "inputs": [],
      "name": "NoDebtToCover",
      "type": "error"
    },
    {
      "inputs": [],
      "name": "NoRepayAssets",
      "type": "error"
    },
    {
      "inputs": [
        {
          "internalType": "address",
          "name": "token",
          "type": "address"
        }
      ],
      "name": "SafeERC20FailedOperation",
      "type": "error"
    },
    {
      "inputs": [],
      "name": "UnexpectedCollateralToken",
      "type": "error"
    },
    {
      "inputs": [],
      "name": "UnexpectedDebtToken",
      "type": "error"
    },
    {
      "inputs": [],
      "name": "UnknownRatio",
      "type": "error"
    },
    {
      "inputs": [],
      "name": "UserIsSolvent",
      "type": "error"
    }
  ],
  "bytecode": "0x6080604052348015600e575f5ffd5b506126228061001c5f395ff3fe608060405234801561000f575f5ffd5b5060043610610079575f3560e01c8063bd02d84811610058578063bd02d848146100c0578063d1f57894146100f0578063d714fd1914610103578063e4784fa91461012d575f5ffd5b8062a718a91461007d57806335cb1099146100aa578063aef28235146100aa575b5f5ffd5b61009061008b36600461207e565b61015e565b604080519283526020830191909152015b60405180910390f35b6100be6100b8366004612120565b50505050565b005b6100d36100ce366004612178565b6105f6565b6040805193845260208401929092521515908201526060016100a1565b6100be6100fe366004612193565b61061d565b5f54610115906001600160a01b031681565b6040516001600160a01b0390911681526020016100a1565b61014261013b366004612178565b505f908190565b6040805162ffffff9384168152929091166020830152016100a1565b5f805481906001600160a01b03168061018a576040516379c39cf960e01b815260040160405180910390fd5b845f036101aa576040516317ff0e0960e11b815260040160405180910390fd5b806001600160a01b0316639dd413306040518163ffffffff1660e01b81526004015f604051808303815f87803b1580156101e2575f5ffd5b505af11580156101f4573d5f5f3e3d5ffd5b505050505f5f610206838b8b8b61062b565b915091505f5f5f5f5f61022187878f8f8b6101a00151610848565b909b5091945092509050610234816108e5565b8b8911156102555760405163d65db62d60e01b815260040160405180910390fd5b6040518b1515815233907fe24aa47ff635f1a546a55407c1830a99c50045332faba28455dedecb35b07a7e9060200160405180910390a260608601516102a6906001600160a01b031633308c61092a565b6102cc86604001518a88606001516001600160a01b03166109919092919063ffffffff16565b5f8b6102d857306102da565b335b90506102f388604001518f83878c60a001516001610a18565b955061030b88604001518f83868c608001515f610a18565b945050876001600160a01b03166362402b046040518163ffffffff1660e01b81526004015f604051808303815f87803b158015610346575f5ffd5b505af1158015610358573d5f5f3e3d5ffd5b5050505085604001516001600160a01b031663acb708158a8f6040518363ffffffff1660e01b81526004016103a09291909182526001600160a01b0316602082015260400190565b6020604051808303815f875af11580156103bc573d5f5f3e3d5ffd5b505050506040513d601f19601f820116820180604052508101906103e091906121e4565b508a156104e35784156104625786604001516001600160a01b031663a7d6e44b8660016040518363ffffffff1660e01b8152600401610420929190612223565b602060405180830381865afa15801561043b573d5f5f3e3d5ffd5b505050506040513d601f19601f8201168201806040525081019061045f91906121e4565b99505b83156104de5786604001516001600160a01b031663a7d6e44b855f6040518363ffffffff1660e01b815260040161049a929190612223565b602060405180830381865afa1580156104b5573d5f5f3e3d5ffd5b505050506040513d601f19601f820116820180604052508101906104d991906121e4565b8a0199505b6105e4565b84156105635786604001516001600160a01b031663da53766086333060016040518563ffffffff1660e01b81526004016105209493929190612237565b6020604051808303815f875af115801561053c573d5f5f3e3d5ffd5b505050506040513d601f19601f8201168201806040525081019061056091906121e4565b99505b83156105e45786604001516001600160a01b031663da5376608533305f6040518563ffffffff1660e01b815260040161059f9493929190612237565b6020604051808303815f875af11580156105bb573d5f5f3e3d5ffd5b505050506040513d601f19601f820116820180604052508101906105df91906121e4565b8a0199505b50505050505050509550959350505050565b5f805481908190610610906001600160a01b031685610b7d565b9250925092509193909250565b61062683610d64565b505050565b610633611fd2565b61063b611fd2565b6040516394c0527d60e01b81526001600160a01b0384811660048301528716906394c0527d9060240161044060405180830381865afa158015610680573d5f5f3e3d5ffd5b505050506040513d601f19601f820116820180604052508101906106a491906123cb565b604081015191935091506001600160a01b03166106d457604051632f13551560e11b815260040160405180910390fd5b81606001516001600160a01b0316856001600160a01b03161461070a5760405163055692d760e21b815260040160405180910390fd5b80606001516001600160a01b0316846001600160a01b0316146107405760405163129e080d60e21b815260040160405180910390fd5b80604001516001600160a01b031663a6afed956040518163ffffffff1660e01b81526004016020604051808303815f875af1158015610781573d5f5f3e3d5ffd5b505050506040513d601f19601f820116820180604052508101906107a591906121e4565b5080604001516001600160a01b031682604001516001600160a01b03161461083f5781604001516001600160a01b031663a6afed956040518163ffffffff1660e01b81526004016020604051808303815f875af1158015610808573d5f5f3e3d5ffd5b505050506040513d601f19601f8201168201806040525081019061082c91906121e4565b5061083682610dd5565b61083f81610dd5565b94509492505050565b5f5f5f5f5f61085b8a8a8a5f5f5f610e5c565b90505f6108b8826040518060c001604052808e610160015181526020018e606001516001600160a01b031681526020018d606001516001600160a01b031681526020018b81526020018a81526020018e61018001518152506110d9565b604085015191965094509091506108d09082906111ea565b909c909b509399509197509195505050505050565b6001600160e01b031981165f036108f95750565b6040805160048152602481019091526020810180516001600160e01b03166001600160e01b03198416178152815190fd5b6040516001600160a01b0384811660248301528381166044830152606482018390526100b89186918216906323b872dd906084015b604051602081830303815290604052915060e01b6020820180516001600160e01b03838183161783525050505061121d565b604051636eb1769f60e11b81523060048201526001600160a01b0383811660248301525f919085169063dd62ed3e90604401602060405180830381865afa1580156109de573d5f5f3e3d5ffd5b505050506040513d601f19601f82011682018060405250810190610a0291906121e4565b90506100b88484610a138585612414565b611283565b5f835f03610a2757505f610b73565b610afd84886001600160a01b031663b6d821c7856040518263ffffffff1660e01b8152600401610a579190612427565b602060405180830381865afa158015610a72573d5f5f3e3d5ffd5b505050506040513d601f19601f82011682018060405250810190610a9691906121e4565b856001600160a01b03166318160ddd6040518163ffffffff1660e01b8152600401602060405180830381865afa158015610ad2573d5f5f3e3d5ffd5b505050506040513d601f19601f82011682018060405250810190610af691906121e4565b5f86611312565b9050805f03610b0d57505f610b73565b604051633661585b60e21b81526001600160a01b03878116600483015286811660248301526044820183905284169063d985616c906064015f604051808303815f87803b158015610b5c575f5ffd5b505af1158015610b6e573d5f5f3e3d5ffd5b505050505b9695505050505050565b6040516394c0527d60e01b81526001600160a01b0382811660048301525f918291829182918291908816906394c0527d9060240161044060405180830381865afa158015610bcd573d5f5f3e3d5ffd5b505050506040513d601f19601f82011682018060405250810190610bf191906123cb565b604081015191935091506001600160a01b0316610c18575f5f5f9450945094505050610d5d565b5f610c288383895f60015f610e5c565b905080608001515f03610c46575f5f5f955095509550505050610d5d565b5f5f610c5b838660600151866060015161134f565b915091505f83606001518460400151610c749190612414565b9050825f03610c95578084608001515f985098509850505050505050610d5d565b5f610ca083856114a5565b90508661016001518111610cc3575f5f5f99509950995050505050505050610d5d565b610cdf82858760800151868b61018001518c6101a001516114c2565b809a50819b5050505f60028b01905087604001516001600160a01b0316630910a5106040518163ffffffff1660e01b8152600401602060405180830381865afa158015610d2e573d5f5f3e3d5ffd5b505050506040513d601f19601f82011682018060405250810190610d5291906121e4565b109750505050505050505b9250925092565b6001600160a01b038116610d8b576040516379c39cf960e01b815260040160405180910390fd5b5f546001600160a01b031615610db4576040516308db0db560e11b815260040160405180910390fd5b5f80546001600160a01b0319166001600160a01b0392909216919091179055565b8061020001518015610df3575060e08101516001600160a01b031615155b15610e595760e08101516060820151604051637cfd30cd60e11b81526001600160a01b03918216600482015291169063f9fa619a906024015f604051808303815f87803b158015610e42575f5ffd5b505af1158015610e54573d5f5f3e3d5ffd5b505050505b50565b610e9b6040518060a001604052805f6001600160a01b031681526020015f6001600160a01b031681526020015f81526020015f81526020015f81525090565b85606001516001600160a01b031687606001516001600160a01b031614610f05576001846001811115610ed057610ed06121fb565b14610ee4578660e001518660e00151610ef1565b8661010001518661010001515b6001600160a01b0390811660208401521681525b5f5f610f168960800151885f611515565b80935081925050505f5f8a604001516001600160a01b031663ffbaaf7a6040518163ffffffff1660e01b81526004016040805180830381865afa158015610f5f573d5f5f3e3d5ffd5b505050506040513d601f19601f82011682018060405250810190610f839190612441565b91509150610f948382865f5f6115fd565b604086015260a08b0151610fa9908a5f611515565b945092506001876001811115610fc157610fc16121fb565b14610fcc5781610fe8565b610fe88b604001518c61012001518d5f01518e6020015161162c565b9150610ff88383865f60016115fd565b606086015260c08a015161100d908a88611515565b945092505f6001886001811115611026576110266121fb565b146110a0578a604001516001600160a01b031663b6d821c760026040518263ffffffff1660e01b815260040161105c9190612427565b602060405180830381865afa158015611077573d5f5f3e3d5ffd5b505050506040513d601f19601f8201168201806040525081019061109b91906121e4565b6110b3565b6110b38b604001518c6101200151611722565b90506110c4848287600160026115fd565b608087015250939a9950505050505050505050565b5f5f5f5f856040015186606001516110f19190612414565b905085608001515f148061110757506060850151155b1561112257505f92508291506317ff0e0960e11b9050610d5d565b805f03611159575f8660800151866060015111611143578560600151611149565b86608001515b5f60e01b93509350935050610d5d565b5f5f5f61116f8989602001518a60400151611815565b92509250925080885f01511061119957505f9550859450632f13551560e11b9350610d5d92505050565b5f6111ac8286868d60800151878e61186b565b919950975090508715806111be575086155b156111de57505f965086955063676a56f360e11b9450610d5d9350505050565b50505050509250925092565b5f5f835f036111fd57505f905080611216565b82841161120b575f84611210565b828403835b90925090505b9250929050565b5f6112316001600160a01b03841683611945565b905080515f141580156112555750808060200190518101906112539190612463565b155b1561062657604051635274afe760e01b81526001600160a01b03841660048201526024015b60405180910390fd5b604080516001600160a01b038416602482015260448082018490528251808303909101815260649091019091526020810180516001600160e01b031663095ea7b360e01b1790526112d48482611958565b6100b8576040516001600160a01b0384811660248301525f604483015261130891869182169063095ea7b39060640161095f565b6100b8848261121d565b5f5f5f6113208787866119f5565b91509150815f03611335578792505050611346565b61134188838388611a50565b925050505b95945050505050565b5f5f5f856060015186604001516113669190612414565b905080156113f85785516001600160a01b031661138357806113f5565b85516040516313b0be3360e01b8152600481018390526001600160a01b038781166024830152909116906313b0be3390604401602060405180830381865afa1580156113d1573d5f5f3e3d5ffd5b505050506040513d601f19601f820116820180604052508101906113f591906121e4565b92505b60808601511561149c5760208601516001600160a01b031661141e578560800151611499565b602086015160808701516040516313b0be3360e01b815260048101919091526001600160a01b038681166024830152909116906313b0be3390604401602060405180830381865afa158015611475573d5f5f3e3d5ffd5b505050506040513d601f19601f8201168201806040525081019061149991906121e4565b91505b50935093915050565b5f6114bb83670de0b6b3a7640000846001611a50565b9392505050565b5f5f5f5f6114d289888888611a9d565b915091506114e1828b8b611ac3565b935060028411156114f7576002840393506114fb565b5f93505b611506818989611ac3565b92505050965096945050505050565b5f5f825f0361158f5760405163dce5c2db60e01b81526001600160a01b03858116600483015286169063dce5c2db906024016040805180830381865afa158015611561573d5f5f3e3d5ffd5b505050506040513d601f19601f820116820180604052508101906115859190612441565b90925090506115f5565b829150846001600160a01b03166318160ddd6040518163ffffffff1660e01b8152600401602060405180830381865afa1580156115ce573d5f5f3e3d5ffd5b505050506040513d601f19601f820116820180604052508101906115f291906121e4565b90505b935093915050565b5f5f5f61160b8787866119f5565b91509150815f03611620578792505050611346565b61134188828488611a50565b6040516367efe7fd60e11b81526001600160a01b0385811660048301524260248301525f91829186169063cfdfcffa90604401602060405180830381865afa925050508015611698575060408051601f3d908101601f19168201909252611695918101906121e4565b60015b156116a05790505b5f5f876001600160a01b03166339c5c5056040518163ffffffff1660e01b81526004016040805180830381865afa1580156116dd573d5f5f3e3d5ffd5b505050506040513d601f19601f820116820180604052508101906117019190612441565b915091506117128282858989611af9565b50919a9950505050505050505050565b6040516367efe7fd60e11b81526001600160a01b0383811660048301524260248301525f91829184169063cfdfcffa90604401602060405180830381865afa92505050801561178e575060408051601f3d908101601f1916820190925261178b918101906121e4565b60015b156117965790505b60405163b6d821c760e01b815261180c906001600160a01b0386169063b6d821c7906117c790600290600401612427565b602060405180830381865afa1580156117e2573d5f5f3e3d5ffd5b505050506040513d601f19601f8201168201806040525081019061180691906121e4565b82611b5f565b50949350505050565b5f5f5f61182386868661134f565b909350915082158015611834575081155b1561184657505f915081905080611862565b825f0361185557505f19611862565b61185f82846114a5565b90505b93509350939050565b5f5f5f5f5f670de0b6b3a76400008b106118aa5787866060015111611894578560600151611896565b875b93506118a384888a611ac3565b905061190b565b5f6118bf888b8960a001518a60800151611ba7565b90508781036118d357889450879150611909565b5f6118df828b8b611ac3565b9050808860600151116118f65787606001516118f8565b805b9550611905868a8c611ac3565b9250505b505b61191a818a8860800151611cb0565b9150611927828b8b611ac3565b945061193589888484611cf1565b9250505096509650969350505050565b60606114bb83835f611d1b565b92915050565b5f5f5f846001600160a01b031684604051611973919061247e565b5f604051808303815f865af19150503d805f81146119ac576040519150601f19603f3d011682016040523d82523d5f602084013e6119b1565b606091505b50915091508180156119db5750805115806119db5750808060200190518101906119db9190612463565b80156113465750505050506001600160a01b03163b151590565b5f5f835f03611a02575f94505b6002836002811115611a1657611a166121fb565b14611a4157611a276003600a61256f565b611a319085612414565b611a3c866001612414565b611a44565b83855b90969095509350505050565b5f611a7d611a5d83611db1565b8015611a7857505f8480611a7357611a7361257a565b868809115b151590565b611a88868686611ddd565b611a929190612414565b90505b949350505050565b5f5f611aab85878686611ba7565b9050611ab8818785611cb0565b915094509492505050565b5f815f03611ae45760405163658c7bff60e11b815260040160405180910390fd5b81611aef848661258e565b611a9591906125a5565b5f5f5f5f611b078888611b5f565b9093509050858501611b228282670de0b6b3a7640000611e9a565b92505f611b2f84846125b8565b90505f611b3d8c5f196125b8565b905081811015611b4b578091505b818c01965050505095509550955095915050565b5f80831580611b6c575082155b15611b7b57508290505f611216565b611b8e8484670de0b6b3a7640000611e9a565b9050808401915083821015611216575091925f92509050565b5f845f03611bb657505f611a95565b670de0b6b3a76400008210611bcc57505f611a95565b838510611bda575083611a95565b825f03611be8575083611a95565b5f611bf3858561258e565b9050611c07670de0b6b3a76400008761258e565b9550858110611c19575f915050611a95565b670de0b6b3a76400008087049682900392508385028190048501908110611c44578692505050611a95565b80670de0b6b3a7640000038381611c5d57611c5d61257a565b04925086831115611c72578692505050611a95565b670c7d713b49da000087611c8e670de0b6b3a76400008661258e565b611c9891906125a5565b11611ca35782611ca5565b865b979650505050505050565b5f80670de0b6b3a7640000611cc5848761258e565b611ccf91906125a5565b9050611cdb8186612414565b915083821115611ce9578391505b509392505050565b5f8285111580611d015750818411155b15611d0d57505f611a95565b611a92838603838603611ee2565b606081471015611d475760405163cf47918160e01b81524760048201526024810183905260440161127a565b5f5f856001600160a01b03168486604051611d62919061247e565b5f6040518083038185875af1925050503d805f8114611d9c576040519150601f19603f3d011682016040523d82523d5f602084013e611da1565b606091505b5091509150610b73868383611f01565b5f6002826003811115611dc657611dc66121fb565b611dd091906125cb565b60ff166001149050919050565b5f838302815f1985870982811083820303915050805f03611e1157838281611e0757611e0761257a565b04925050506114bb565b808411611e2f57611e2f8415611e28576011611f5d565b6012611f5d565b5f848688095f868103871696879004966002600389028118808a02820302808a02820302808a02820302808a02820302808a02820302808a02909103029181900381900460010186841190950394909402919094039290920491909117919091029150509392505050565b5f835f03611ea957505f6114bb565b5082820282848281611ebd57611ebd61257a565b0414611eca57505f6114bb565b818181611ed957611ed961257a565b04949350505050565b5f611ef5670de0b6b3a76400008361258e565b90506114bb8184611f6e565b606082611f1657611f1182611fa9565b6114bb565b8151158015611f2d57506001600160a01b0384163b155b15611f5657604051639996b31560e01b81526001600160a01b038516600482015260240161127a565b50806114bb565b634e487b715f52806020526024601cfd5b5f815f03611f8057611f806012611f5d565b8215611fa157816001840381611f9857611f9861257a565b046001016114bb565b505f92915050565b805115611fb95780518082602001fd5b60405163d6bda27560e01b815260040160405180910390fd5b60408051610220810182525f80825260208201819052918101829052606081018290526080810182905260a0810182905260c0810182905260e08101829052610100810182905261012081018290526101408101829052610160810182905261018081018290526101a081018290526101c081018290526101e0810182905261020081019190915290565b6001600160a01b0381168114610e59575f5ffd5b8015158114610e59575f5ffd5b5f5f5f5f5f60a08688031215612092575f5ffd5b853561209d8161205d565b945060208601356120ad8161205d565b935060408601356120bd8161205d565b92506060860135915060808601356120d481612071565b809150509295509295909350565b5f5f83601f8401126120f2575f5ffd5b50813567ffffffffffffffff811115612109575f5ffd5b602083019150836020828501011115611216575f5ffd5b5f5f5f5f60608587031215612133575f5ffd5b843561213e8161205d565b935060208501359250604085013567ffffffffffffffff811115612160575f5ffd5b61216c878288016120e2565b95989497509550505050565b5f60208284031215612188575f5ffd5b81356114bb8161205d565b5f5f5f604084860312156121a5575f5ffd5b83356121b08161205d565b9250602084013567ffffffffffffffff8111156121cb575f5ffd5b6121d7868287016120e2565b9497909650939450505050565b5f602082840312156121f4575f5ffd5b5051919050565b634e487b7160e01b5f52602160045260245ffd5b6002811061221f5761221f6121fb565b9052565b828152604081016114bb602083018461220f565b8481526001600160a01b0384811660208301528316604082015260808101611346606083018461220f565b604051610220810167ffffffffffffffff8111828210171561229257634e487b7160e01b5f52604160045260245ffd5b60405290565b80516122a38161205d565b919050565b80516122a381612071565b5f61022082840312156122c4575f5ffd5b6122cc612262565b825181526020808401519082015290506122e860408301612298565b60408201526122f960608301612298565b606082015261230a60808301612298565b608082015261231b60a08301612298565b60a082015261232c60c08301612298565b60c082015261233d60e08301612298565b60e082015261234f6101008301612298565b6101008201526123626101208301612298565b6101208201526101408281015190820152610160808301519082015261018080830151908201526101a080830151908201526101c080830151908201526123ac6101e08301612298565b6101e08201526123bf61020083016122a8565b61020082015292915050565b5f5f61044083850312156123dd575f5ffd5b6123e784846122b3565b91506123f78461022085016122b3565b90509250929050565b634e487b7160e01b5f52601160045260245ffd5b8082018082111561195257611952612400565b602081016003831061243b5761243b6121fb565b91905290565b5f5f60408385031215612452575f5ffd5b505080516020909101519092909150565b5f60208284031215612473575f5ffd5b81516114bb81612071565b5f82518060208501845e5f920191825250919050565b6001815b60018411156115f5578085048111156124b3576124b3612400565b60018416156124c157908102905b60019390931c928002612498565b5f826124dd57506001611952565b816124e957505f611952565b81600181146124ff576002811461250957612525565b6001915050611952565b60ff84111561251a5761251a612400565b50506001821b611952565b5060208310610133831016604e8410600b8410161715612548575081810a611952565b6125545f198484612494565b805f190482111561256757612567612400565b029392505050565b5f6114bb83836124cf565b634e487b7160e01b5f52601260045260245ffd5b808202811582820484141761195257611952612400565b5f826125b3576125b361257a565b500490565b8181038181111561195257611952612400565b5f60ff8316806125dd576125dd61257a565b8060ff8416069150509291505056fea26469706673582212207e57ca0c413a0388d3bd699bce42ce2c5c88c3461f3d3a918009df88e3613fb664736f6c634300081c0033",
  "language": "Solidity",
  "compiler": "0.8.28+commit.7893614a"
}