{
  "address": "0x949b90c93848231A95D018C44B0E884b92b03218",
  "abi": [
    {
      "inputs": [
        {
          "internalType": "address",
          "name": "_owner",
          "type": "address"
        },
        {
          "internalType": "address",
          "name": "_notifier",
          "type": "address"
        },
        {
          "internalType": "address",
          "name": "_shareToken",
          "type": "address"
        }
      ],
      "name": "createGaugeLike",
      "outputs": [
        {
          "internalType": "address",
          "name": "gaugeLike",
          "type": "address"
        }
      ],
      "stateMutability": "nonpayable",
      "type": "function"
    },
    {
      "inputs": [
        {
          "internalType": "address",
          "name": "",
          "type": "address"
        }
      ],
      "name": "createdInFactory",
      "outputs": [
        {
          "internalType": "bool",
          "name": "",
          "type": "bool"
        }
      ],
      "stateMutability": "view",
      "type": "function"
    },
    {
      "anonymous": false,
      "inputs": [
        {
          "indexed": false,
          "internalType": "address",
          "name": "gaugeLike",
          "type": "address"
        }
      ],
      "name": "GaugeLikeCreated",
      "type": "event"
    }
  ],
  "bytecode": "0x6080604052348015600e575f5ffd5b506131688061001c5f395ff3fe608060405234801561000f575f5ffd5b5060043610610034575f3560e01c80637cf6523314610038578063b32d705b14610068575b5f5ffd5b61004b61004636600461016a565b61009a565b6040516001600160a01b0390911681526020015b60405180910390f35b61008a6100763660046101aa565b5f6020819052908152604090205460ff1681565b604051901515815260200161005f565b5f8383836040516100aa90610142565b6001600160a01b03938416815291831660208301529091166040820152606001604051809103905ff0801580156100e3573d5f5f3e3d5ffd5b506001600160a01b0381165f8181526020818152604091829020805460ff1916600117905590519182529192507f8aa00edcaf1234f1d440a7b747ca56960d2d0bbf1e8dc60690d185d6559a5abc910160405180910390a19392505050565b612f68806101cb83390190565b80356001600160a01b0381168114610165575f5ffd5b919050565b5f5f5f6060848603121561017c575f5ffd5b6101858461014f565b92506101936020850161014f565b91506101a16040850161014f565b90509250925092565b5f602082840312156101ba575f5ffd5b6101c38261014f565b939250505056fe60c060405234801561000f575f5ffd5b50604051612f68380380612f6883398101604081905261002e9161013a565b828281818181816001600160a01b03811661006257604051631e4fbdf760e01b81525f600482015260240160405180910390fd5b61006b816100b4565b506001600160a01b03908116608052861694506100a093505050505760405163a5c9497760e01b815260040160405180910390fd5b6001600160a01b031660a0525061017a9050565b600180546001600160a01b03191690556100cd816100d0565b50565b5f80546001600160a01b038381166001600160a01b0319831681178455604051919092169283917f8be0079c531659141344cd1fd0a4f28419497f9722a3daafe3b4186f6b6457e09190a35050565b80516001600160a01b0381168114610135575f5ffd5b919050565b5f5f5f6060848603121561014c575f5ffd5b6101558461011f565b92506101636020850161011f565b91506101716040850161011f565b90509250925092565b60805160a051612d8e6101da5f395f81816101fb0152818161023c0152818161063201528181610d090152818161149a015281816115270152611cf101525f81816103aa015281816105ca01528181610c1a0152611abb0152612d8e5ff3fe608060405234801561000f575f5ffd5b50600436106101f2575f3560e01c8063aaf5eb6811610114578063cfc26237116100a9578063ef5cfb8c11610079578063ef5cfb8c1461055e578063f2fde38b14610571578063f5ba475014610584578063f5cf673b14610597578063fb71aec5146105aa575f5ffd5b8063cfc2623714610493578063d34fb26714610532578063e30c39781461053a578063e7b8b9c41461054b575f5ffd5b8063bec1e022116100e4578063bec1e02214610447578063c1616f691461045a578063cc0801641461046d578063cd72a4bf14610480575f5ffd5b8063aaf5eb68146103ff578063ab8f094514610419578063b5a8906514610421578063bbdc013b14610434575f5ffd5b806379ba50971161018a5780639c868ac01161015a5780639c868ac01461038f5780639f2e6a0c146103a5578063a5eb3f0d146103cc578063a7b800dd146103ec575f5ffd5b806379ba5097146102f157806382794f39146102f95780638ba2c3c81461036c5780638da5cb5b1461037f575f5ffd5b80636f564e7d116101c55780636f564e7d14610296578063711ec9ac146102b6578063715018a6146102be57806374d945ec146102c6575f5ffd5b80631d7e3556146101f65780632ad87c6f1461023a5780632e953c211461026057806358703bed14610275575b5f5ffd5b61021d7f000000000000000000000000000000000000000000000000000000000000000081565b6040516001600160a01b0390911681526020015b60405180910390f35b7f000000000000000000000000000000000000000000000000000000000000000061021d565b61027361026e36600461248b565b6105bf565b005b610288610283366004612503565b6107cf565b604051908152602001610231565b6102a96102a4366004612551565b6108d9565b6040516102319190612596565b61028861090b565b61027361091a565b61021d6102d43660046125a8565b6001600160a01b039081165f908152600660205260409020541690565b61027361092d565b61030c6103073660046125fe565b610976565b60405161023191905f60a0820190508251825260018060a01b0360208401511660208301526001600160681b03604084015116604083015264ffffffffff606084015116606083015264ffffffffff608084015116608083015292915050565b61028861037a36600461263c565b610a54565b5f546001600160a01b031661021d565b60075460ff166040519015158152602001610231565b61021d7f000000000000000000000000000000000000000000000000000000000000000081565b6103df6103da366004612503565b610ac0565b604051610231919061267d565b6102886103fa3660046127a6565b610b16565b610407601281565b60405160ff9091168152602001610231565b610273610b61565b61028861042f36600461263c565b610ba0565b6102736104423660046127d7565b610c0f565b61027361045536600461283f565b610c6d565b61027361046836600461289f565b610e28565b61028861047b36600461263c565b610e89565b61027361048e36600461293c565b610ef1565b6104ed6104a1366004612551565b60046020525f908152604090208054600182015460029092015490916001600160a01b0316906001600160681b0381169064ffffffffff600160681b8204811691600160901b90041685565b604080519586526001600160a01b0390941660208601526001600160681b039092169284019290925264ffffffffff918216606084015216608082015260a001610231565b610273610fd3565b6001546001600160a01b031661021d565b6102886105593660046125fe565b61100f565b6103df61056c3660046125a8565b611077565b61027361057f3660046125a8565b6110bc565b6103df61059236600461298b565b61112c565b6102736105a53660046129e7565b6111ed565b6105b261124b565b6040516102319190612a0f565b336001600160a01b037f0000000000000000000000000000000000000000000000000000000000000000161480159061060257505f546001600160a01b03163314155b156106205760405163d3b03ee160e01b815260040160405180910390fd5b6001600160681b038116156107cb575f7f00000000000000000000000000000000000000000000000000000000000000006001600160a01b03166318160ddd6040518163ffffffff1660e01b8152600401602060405180830381865afa15801561068c573d5f5f3e3d5ffd5b505050506040513d601f19601f820116820180604052508101906106b09190612a72565b90505f6106bc84611308565b5f8181526004602052604090209091506106d68284611383565b506002810180544264ffffffffff818116600160901b90810264ffffffffff60901b1985161790945592820492909216916001600160681b039091169061071f90600190612a9d565b6002840180546001600160901b031916600160681b64ffffffffff93909316929092026001600160681b031916919091176001600160681b0388161790556107678486611383565b50600292909201805469ffffffffffffffffffff60681b1916600160901b64ffffffffff9384160264ffffffffff60681b191617600160681b429390931692909202919091176001600160681b0319166001600160681b0390921691909117905550505b5050565b5f5f5f5f6107dc87611496565b90925090505f5b858110156108ce575f61084c88888481811061080157610801612ab0565b90506020028101906108139190612ac4565b8080601f0160208091040260200160405190810160405280939291908181526020018383808284375f92019190915250610b1692505050565b5f818152600460205260409020600101549091506001600160a01b0390811690861661087a578095506108ac565b806001600160a01b0316866001600160a01b0316146108ac576040516305ff3f2d60e41b815260040160405180910390fd5b6108b88a8387876115ac565b6108c29088612b06565b965050506001016107e3565b505050509392505050565b6060610905826040516020016108f191815260200190565b6040516020818303038152906040526115ee565b92915050565b6109176012600a612bfc565b81565b61092261166c565b61092b5f611698565b565b60015433906001600160a01b0316811461096a5760405163118cdaa760e01b81526001600160a01b03821660048201526024015b60405180910390fd5b61097381611698565b50565b6040805160a0810182525f808252602082018190529181018290526060810182905260808101919091525f6109df84848080601f0160208091040260200160405190810160405280939291908181526020018383808284375f92019190915250610b1692505050565b6040805160a0810182525f838152600460208181528483208054855260018101546001600160a01b031682860152600201546001600160681b0381169585019590955264ffffffffff600160681b860481166060860152959092529052600160901b9091049091166080820152949350505050565b5f5f610a9484848080601f0160208091040260200160405190810160405280939291908181526020018383808284375f92019190915250610b1692505050565b6001600160a01b0386165f90815260056020908152604080832093835292905220549150509392505050565b60606001600160a01b038416610ae957604051638aa3a72f60e01b815260040160405180910390fd5b5f610af484846116b1565b9050610b003382611742565b9150610b0e3333878561182b565b509392505050565b5f81515f03610b38576040516302d7eecb60e61b815260040160405180910390fd5b81604051602001610b499190612c21565b60405160208183030381529060405261090590612c2c565b610b6961166c565b6007805460ff191660011790556040517f1cd942681240393874c94d43d81f6d2be3e0a1f94e200f58cdb151773cbec7ba905f90a1565b5f5f610be084848080601f0160208091040260200160405190810160405280939291908181526020018383808284375f92019190915250610b1692505050565b5f9081526004602090815260408083206001600160a01b03891684526003019091529020549150509392505050565b336001600160a01b037f00000000000000000000000000000000000000000000000000000000000000001614610c575760405162f09cf360e01b815260040160405180910390fd5b610c65868686868686611ab0565b505050505050565b610c7561166c565b428264ffffffffff161015610c9d57604051636e03f20160e11b815260040160405180910390fd5b5f610cdc85858080601f0160208091040260200160405190810160405280939291908181526020018383808284375f92019190915250610b1692505050565b9050610ce9600282611be3565b610d0657604051630a96b47560e01b815260040160405180910390fd5b5f7f00000000000000000000000000000000000000000000000000000000000000006001600160a01b03166318160ddd6040518163ffffffff1660e01b8152600401602060405180830381865afa158015610d63573d5f5f3e3d5ffd5b505050506040513d601f19601f82011682018060405250810190610d879190612a72565b9050610d938282611383565b505f8281526004602052604090819020600201805476ffffffffff0000000000ffffffffffffffffffffffffff1916600160901b64ffffffffff8816026001600160681b031916176001600160681b038616179055517fce209946668ea0ad6199b320ade5271adc93d0c1083851b571b990f3e0260f1290610e189088908890612c77565b60405180910390a1505050505050565b610e3061166c565b80515160201015610e54576040516310b47cc360e01b815260040160405180910390fd5b42816060015164ffffffffff161015610e8057604051636e03f20160e11b815260040160405180910390fd5b61097381611bfd565b5f5f610ec984848080601f0160208091040260200160405190810160405280939291908181526020018383808284375f92019190915250610b1692505050565b90505f5f610ed687611496565b91509150610ee6878484846115ac565b979650505050505050565b610ef961166c565b428164ffffffffff161015610f2157604051636e03f20160e11b815260040160405180910390fd5b5f610f6084848080601f0160208091040260200160405190810160405280939291908181526020018383808284375f92019190915250610b1692505050565b5f8181526004602052604090819020600201805464ffffffffff60901b1916600160901b64ffffffffff871602179055519091507f58e6e5fdc9bafcdde90e850e8776b427a5a0e26e6c86f28a3c9c1f180187611890610fc590869086908690612c8a565b60405180910390a150505050565b610fdb61166c565b6007805460ff191690556040517f2bb961d4f48d79d94b84e7017d12533eff7562d60f9fcbdc7784646269c1ec21905f90a1565b5f5f61104f84848080601f0160208091040260200160405190810160405280939291908181526020018383808284375f92019190915250610b1692505050565b5f90815260046020526040902060020154600160901b900464ffffffffff1691505092915050565b60606001600160a01b0382166110a057604051638aa3a72f60e01b815260040160405180910390fd5b6110a933611db1565b90506110b73333848461182b565b919050565b6110c461166c565b600180546001600160a01b0383166001600160a01b031990911681179091556110f45f546001600160a01b031690565b6001600160a01b03167f38d16b8cac22d99fc7c124b9cd0de2d3fa1faef420bfe791d8c362d765e2270060405160405180910390a350565b6001600160a01b038085165f908152600660205260409020546060913391879116821461116b57604051620bb58b60e51b815260040160405180910390fd5b86866001600160a01b03821661119457604051630702b3d960e41b815260040160405180910390fd5b6001600160a01b0381166111bb57604051638aa3a72f60e01b815260040160405180910390fd5b5f6111c688886116b1565b90506111d28a82611742565b95506111e0338b8b8961182b565b5050505050949350505050565b6111f561166c565b6001600160a01b038281165f8181526006602052604080822080546001600160a01b0319169486169485179055517f4925eafc82d0c4d67889898eeed64b18488ab19811e61620f387026dec126a289190a35050565b60605f6112586002611dc6565b519050806001600160401b03811115611273576112736126e1565b6040519080825280602002602001820160405280156112a657816020015b60608152602001906001900390816112915790505b5091505f5b81811015611303576112de6112c06002611dc6565b82815181106112d1576112d1612ab0565b60200260200101516108d9565b8382815181106112f0576112f0612ab0565b60209081029190910101526001016112ab565b505090565b5f5f61131383611dd2565b905061131e81610b16565b5f81815260046020526040812060020154919350600160681b90910464ffffffffff16900361137d57604080516080810182525f91810182905260608101919091528181526001600160a01b038416602082015261137b81611bfd565b505b50919050565b5f82815260046020526040812080546002909101546001600160681b0381169064ffffffffff600160681b8204811691600160901b900416428290036113cf5783945050505050610905565b5f6113dd858585858b611de8565b905084811461145d575f888152600460205260409020818155600201805464ffffffffff60681b1916600160681b4264ffffffffff16021790557fbcaf32358137afa5170f844d4e02a1b3013677faba70d948cc705ce0a3830584611441896108d9565b82604051611450929190612cb4565b60405180910390a1610ee6565b5f888152600460205260409020600201805464ffffffffff60681b1916600160681b4264ffffffffff1602179055979650505050505050565b5f807f00000000000000000000000000000000000000000000000000000000000000006040516370a0823160e01b81526001600160a01b03858116600483015291909116906370a0823190602401602060405180830381865afa1580156114ff573d5f5f3e3d5ffd5b505050506040513d601f19601f820116820180604052508101906115239190612a72565b91507f00000000000000000000000000000000000000000000000000000000000000006001600160a01b03166318160ddd6040518163ffffffff1660e01b8152600401602060405180830381865afa158015611581573d5f5f3e3d5ffd5b505050506040513d601f19601f820116820180604052508101906115a59190612a72565b9050915091565b6001600160a01b0384165f9081526005602090815260408083208684529091529020546115db84868585611e7e565b6115e59082612b06565b95945050505050565b80516060905f5b8181101561137b5783818151811061160f5761160f612ab0565b01602001516001600160f81b03191615611664578284828151811061163657611636612ab0565b602001015160f81c60f81b604051602001611652929190612cd5565b60405160208183030381529060405292505b6001016115f5565b5f546001600160a01b0316331461092b5760405163118cdaa760e01b8152336004820152602401610961565b600180546001600160a01b031916905561097381611eef565b6060816001600160401b038111156116cb576116cb6126e1565b6040519080825280602002602001820160405280156116f4578160200160208202803683370190505b5090505f5b8281101561173b5761171684848381811061080157610801612ab0565b82828151811061172857611728612ab0565b60209081029190910101526001016116f9565b5092915050565b8051606090806001600160401b0381111561175f5761175f6126e1565b6040519080825280602002602001820160405280156117ba57816020015b6117a760405180606001604052805f81526020015f81526020015f6001600160a01b031681525090565b81526020019060019003908161177d5790505b5091505f5f6117c886611496565b90925090505f5b83811015611821576117fc878783815181106117ed576117ed612ab0565b60200260200101518486611f3e565b85828151811061180e5761180e612ab0565b60209081029190910101526001016117cf565b5050505092915050565b5f5b8151811015611aa9576001600160a01b0384165f9081526005602052604081208351829085908590811061186357611863612ab0565b60200260200101516020015181526020019081526020015f205490508083838151811061189257611892612ab0565b60200260200101515f018181516118a99190612b06565b90525082518390839081106118c0576118c0612ab0565b60200260200101515f01515f14611aa0576118f78383815181106118e6576118e6612ab0565b6020026020010151602001516108d9565b6040516119049190612c21565b604051809103902083838151811061191e5761191e612ab0565b6020026020010151604001516001600160a01b0316866001600160a01b03167f9ac9a44091881640a73610df0bdc77ce7a7c33784685a2902e0140b6b9652f0d86868151811061197057611970612ab0565b60200260200101515f015160405161198a91815260200190565b60405180910390a46119d68383815181106119a7576119a7612ab0565b602002602001015160400151858585815181106119c6576119c6612ab0565b60200260200101515f0151611fb4565b8282815181106119e8576119e8612ab0565b6020026020010151604001516001600160a01b0316846001600160a01b0316866001600160a01b03167f7c791aa670e586419eeb53ce75c06cfaf3c657e90935bd3aae64380872f849fa868681518110611a4457611a44612ab0565b6020026020010151602001518a888881518110611a6357611a63612ab0565b60200260200101515f0151604051611a97939291909283526001600160a01b03919091166020830152604082015260600190565b60405180910390a45b5060010161182d565b5050505050565b336001600160a01b037f00000000000000000000000000000000000000000000000000000000000000001614611af85760405162f09cf360e01b815260040160405180910390fd5b5f611b03600261202a565b9050846001600160a01b0316876001600160a01b03161480611b23575080155b15611b2e5750610c65565b6001600160a01b038716611b46578183039250611b59565b6001600160a01b038516611b5957918101915b6001600160a01b03871615611b6d57948101945b6001600160a01b03851615611b825781840393505b5f5b81811015611bd9575f611b98600283612033565b90506001600160a01b03891615611bb557611bb5818a878b61203e565b6001600160a01b03871615611bd057611bd08188878961203e565b50600101611b84565b5050505050505050565b5f81815260018301602052604081205415155b9392505050565b5f611c0a825f0151610b16565b60208301519091506001600160a01b0316611c385760405163dfde867160e01b815260040160405180910390fd5b611c43600282612122565b611c60576040516383528a7f60e01b815260040160405180910390fd5b6020828101515f83815260049092526040918290206001810180546001600160a01b0319166001600160a01b0390931692909217909155606084015160029091018054928501516001600160681b03166001600160b81b0319909316600160901b64ffffffffff938416026001600160901b0319161792909217600160681b429290921691909102179055611d74817f00000000000000000000000000000000000000000000000000000000000000006001600160a01b03166318160ddd6040518163ffffffff1660e01b8152600401602060405180830381865afa158015611d4b573d5f5f3e3d5ffd5b505050506040513d601f19601f82011682018060405250810190611d6f9190612a72565b611383565b5081516040517f0cf558cc2f9ccbbf831b6392a319e7892856e9324a757e9c3648ee9e5b88cb4f91611da591612596565b60405180910390a15050565b606061090582611dc16002611dc6565b611742565b60605f611bf68361212d565b60606109056001600160a01b0383166014612186565b5f841580611df4575081155b80611dfe57504284145b80611e095750828410155b15611e155750846115e5565b5f834211611e235742611e25565b835b90505f611e328683612a9d565b9050611e406012600a612bfc565b611e4a8289612cf9565b611e549190612cf9565b9250838381611e6557611e65612d10565b049250611e728884612b06565b98975050505050505050565b5f8481526004602081815260408084206001600160a01b0388168552600381018352908420548885529290915280546002909101548391611ee2916001600160681b0381169064ffffffffff600160681b8204811691600160901b90041688611de8565b9050610ee68582846122ff565b5f80546001600160a01b038381166001600160a01b0319831681178455604051919092169283917f8be0079c531659141344cd1fd0a4f28419497f9722a3daafe3b4186f6b6457e09190a35050565b611f6860405180606001604052805f81526020015f81526020015f6001600160a01b031681525090565b5f611f7585878587612327565b6040805160608101825291825260208083018890525f9788526004905295869020600101546001600160a01b0316958101959095525092949350505050565b60405163a9059cbb60e01b81526001600160a01b0383811660048301526024820183905284169063a9059cbb906044016020604051808303815f875af1158015612000573d5f5f3e3d5ffd5b505050506040513d601f19601f820116820180604052508101906120249190612d24565b50505050565b5f610905825490565b5f611bf683836123ed565b5f61204b85858486612327565b90508015611aa9576001600160a01b0384165f908152600560209081526040808320888452909152812054612081908390612b06565b6001600160a01b0386165f9081526005602090815260408083208a8452909152902081905590506120b1866108d9565b6040516120be9190612c21565b604080519182900382205f898152600460209081529290206001015484845290926001600160a01b0391821692918916917f9ac9a44091881640a73610df0bdc77ce7a7c33784685a2902e0140b6b9652f0d910160405180910390a4505050505050565b5f611bf68383612413565b6060815f0180548060200260200160405190810160405280929190818152602001828054801561217a57602002820191905f5260205f20905b815481526020019060010190808311612166575b50505050509050919050565b6060825f612195846002612cf9565b6121a0906002612b06565b6001600160401b038111156121b7576121b76126e1565b6040519080825280601f01601f1916602001820160405280156121e1576020820181803683370190505b509050600360fc1b815f815181106121fb576121fb612ab0565b60200101906001600160f81b03191690815f1a905350600f60fb1b8160018151811061222957612229612ab0565b60200101906001600160f81b03191690815f1a9053505f61224b856002612cf9565b612256906001612b06565b90505b60018111156122cd576f181899199a1a9b1b9c1cb0b131b232b360811b83600f166010811061228a5761228a612ab0565b1a60f81b8282815181106122a0576122a0612ab0565b60200101906001600160f81b03191690815f1a90535060049290921c916122c681612d43565b9050612259565b5081156122f75760405163e22e27eb60e01b81526004810186905260248101859052604401610961565b949350505050565b5f61230a8284612a9d565b6123149085612cf9565b670de0b6b3a76400009004949350505050565b5f8481526004602090815260408083206001600160a01b038716845260030190915281205481806123588886611383565b90508083146123e2578515612375576123728682856122ff565b91505b5f8881526004602090815260408083206001600160a01b038b1680855260039091019092529091208290557f06e13548f41cff17d181fb7a95d6935aaf6175b5a584469e25f3bf999103a5e56123ca8a6108d9565b836040516123d9929190612cb4565b60405180910390a25b509695505050505050565b5f825f01828154811061240257612402612ab0565b905f5260205f200154905092915050565b5f81815260018301602052604081205461245857508154600181810184555f848152602080822090930184905584548482528286019093526040902091909155610905565b505f610905565b80356001600160a01b03811681146110b7575f5ffd5b80356001600160681b03811681146110b7575f5ffd5b5f5f6040838503121561249c575f5ffd5b6124a58361245f565b91506124b360208401612475565b90509250929050565b5f5f83601f8401126124cc575f5ffd5b5081356001600160401b038111156124e2575f5ffd5b6020830191508360208260051b85010111156124fc575f5ffd5b9250929050565b5f5f5f60408486031215612515575f5ffd5b61251e8461245f565b925060208401356001600160401b03811115612538575f5ffd5b612544868287016124bc565b9497909650939450505050565b5f60208284031215612561575f5ffd5b5035919050565b5f81518084528060208401602086015e5f602082860101526020601f19601f83011685010191505092915050565b602081525f611bf66020830184612568565b5f602082840312156125b8575f5ffd5b611bf68261245f565b5f5f83601f8401126125d1575f5ffd5b5081356001600160401b038111156125e7575f5ffd5b6020830191508360208285010111156124fc575f5ffd5b5f5f6020838503121561260f575f5ffd5b82356001600160401b03811115612624575f5ffd5b612630858286016125c1565b90969095509350505050565b5f5f5f6040848603121561264e575f5ffd5b6126578461245f565b925060208401356001600160401b03811115612671575f5ffd5b612544868287016125c1565b602080825282518282018190525f918401906040840190835b818110156126d657835180518452602080820151818601526040918201516001600160a01b03169185019190915290930192606090920191600101612696565b509095945050505050565b634e487b7160e01b5f52604160045260245ffd5b604051608081016001600160401b0381118282101715612717576127176126e1565b60405290565b5f82601f83011261272c575f5ffd5b81356001600160401b03811115612745576127456126e1565b604051601f8201601f19908116603f011681016001600160401b0381118282101715612773576127736126e1565b60405281815283820160200185101561278a575f5ffd5b816020850160208301375f918101602001919091529392505050565b5f602082840312156127b6575f5ffd5b81356001600160401b038111156127cb575f5ffd5b6122f78482850161271d565b5f5f5f5f5f5f60c087890312156127ec575f5ffd5b6127f58761245f565b95506020870135945061280a6040880161245f565b959894975094956060810135955060808101359460a0909101359350915050565b803564ffffffffff811681146110b7575f5ffd5b5f5f5f5f60608587031215612852575f5ffd5b84356001600160401b03811115612867575f5ffd5b612873878288016125c1565b909550935061288690506020860161282b565b915061289460408601612475565b905092959194509250565b5f602082840312156128af575f5ffd5b81356001600160401b038111156128c4575f5ffd5b8201608081850312156128d5575f5ffd5b6128dd6126f5565b81356001600160401b038111156128f2575f5ffd5b6128fe8682850161271d565b82525061290d6020830161245f565b602082015261291e60408301612475565b604082015261292f6060830161282b565b6060820152949350505050565b5f5f5f6040848603121561294e575f5ffd5b83356001600160401b03811115612963575f5ffd5b61296f868287016125c1565b909450925061298290506020850161282b565b90509250925092565b5f5f5f5f6060858703121561299e575f5ffd5b6129a78561245f565b93506129b56020860161245f565b925060408501356001600160401b038111156129cf575f5ffd5b6129db878288016124bc565b95989497509550505050565b5f5f604083850312156129f8575f5ffd5b612a018361245f565b91506124b36020840161245f565b5f602082016020835280845180835260408501915060408160051b8601019250602086015f5b82811015612a6657603f19878603018452612a51858351612568565b94506020938401939190910190600101612a35565b50929695505050505050565b5f60208284031215612a82575f5ffd5b5051919050565b634e487b7160e01b5f52601160045260245ffd5b8181038181111561090557610905612a89565b634e487b7160e01b5f52603260045260245ffd5b5f5f8335601e19843603018112612ad9575f5ffd5b8301803591506001600160401b03821115612af2575f5ffd5b6020019150368190038213156124fc575f5ffd5b8082018082111561090557610905612a89565b6001815b6001841115612b5457808504811115612b3857612b38612a89565b6001841615612b4657908102905b60019390931c928002612b1d565b935093915050565b5f82612b6a57506001610905565b81612b7657505f610905565b8160018114612b8c5760028114612b9657612bb2565b6001915050610905565b60ff841115612ba757612ba7612a89565b50506001821b610905565b5060208310610133831016604e8410600b8410161715612bd5575081810a610905565b612be15f198484612b19565b805f1904821115612bf457612bf4612a89565b029392505050565b5f611bf660ff841683612b5c565b5f81518060208401855e5f93019283525090919050565b5f611bf68284612c0a565b8051602080830151919081101561137d575f1960209190910360031b1b16919050565b81835281816020850137505f828201602090810191909152601f909101601f19169091010190565b602081525f6122f7602083018486612c4f565b604081525f612c9d604083018587612c4f565b905064ffffffffff83166020830152949350505050565b604081525f612cc66040830185612568565b90508260208301529392505050565b5f612ce08285612c0a565b6001600160f81b03199390931683525050600101919050565b808202811582820484141761090557610905612a89565b634e487b7160e01b5f52601260045260245ffd5b5f60208284031215612d34575f5ffd5b81518015158114611bf6575f5ffd5b5f81612d5157612d51612a89565b505f19019056fea2646970667358221220cd31814382b57d7575607047aa4d652f4ccc3d15c7429ae0f54dd6ec8e54752964736f6c634300081c0033a2646970667358221220bac983a8c3ad95483206bba21eec8c15217100a99acf551c4747216a509b1d5564736f6c634300081c0033",
  "language": "Solidity",
  "compiler": "0.8.28+commit.7893614a"
}