{
  "address": "0x6bF5529aFCc07b669f37D9D29C5118d7a5117A0D",
  "abi": [
    {
      "inputs": [],
      "stateMutability": "nonpayable",
      "type": "constructor"
    },
    {
      "inputs": [],
      "name": "ORACLE_IMPLEMENTATION",
      "outputs": [
        {
          "internalType": "address",
          "name": "",
          "type": "address"
        }
      ],
      "stateMutability": "view",
      "type": "function"
    },
    {
      "inputs": [
        {
          "components": [
            {
              "internalType": "contract IERC20Metadata",
              "name": "baseToken",
              "type": "address"
            },
            {
              "internalType": "contract IERC20Metadata",
              "name": "quoteToken",
              "type": "address"
            },
            {
              "internalType": "contract AggregatorV3Interface",
              "name": "primaryAggregator",
              "type": "address"
            },
            {
              "internalType": "uint32",
              "name": "primaryHeartbeat",
              "type": "uint32"
            },
            {
              "internalType": "contract AggregatorV3Interface",
              "name": "secondaryAggregator",
              "type": "address"
            },
            {
              "internalType": "uint32",
              "name": "secondaryHeartbeat",
              "type": "uint32"
            },
            {
              "internalType": "uint256",
              "name": "normalizationDivider",
              "type": "uint256"
            },
            {
              "internalType": "uint256",
              "name": "normalizationMultiplier",
              "type": "uint256"
            },
            {
              "internalType": "bool",
              "name": "invertSecondPrice",
              "type": "bool"
            }
          ],
          "internalType": "struct IChainlinkV3Oracle.ChainlinkV3DeploymentConfig",
          "name": "_config",
          "type": "tuple"
        }
      ],
      "name": "create",
      "outputs": [
        {
          "internalType": "contract ChainlinkV3Oracle",
          "name": "oracle",
          "type": "address"
        }
      ],
      "stateMutability": "nonpayable",
      "type": "function"
    },
    {
      "inputs": [
        {
          "internalType": "bytes32",
          "name": "",
          "type": "bytes32"
        }
      ],
      "name": "getConfigAddress",
      "outputs": [
        {
          "internalType": "address",
          "name": "",
          "type": "address"
        }
      ],
      "stateMutability": "view",
      "type": "function"
    },
    {
      "inputs": [
        {
          "internalType": "address",
          "name": "",
          "type": "address"
        }
      ],
      "name": "getOracleAddress",
      "outputs": [
        {
          "internalType": "address",
          "name": "",
          "type": "address"
        }
      ],
      "stateMutability": "view",
      "type": "function"
    },
    {
      "inputs": [
        {
          "components": [
            {
              "internalType": "contract IERC20Metadata",
              "name": "baseToken",
              "type": "address"
            },
            {
              "internalType": "contract IERC20Metadata",
              "name": "quoteToken",
              "type": "address"
            },
            {
              "internalType": "contract AggregatorV3Interface",
              "name": "primaryAggregator",
              "type": "address"
            },
            {
              "internalType": "uint32",
              "name": "primaryHeartbeat",
              "type": "uint32"
            },
            {
              "internalType": "contract AggregatorV3Interface",
              "name": "secondaryAggregator",
              "type": "address"
            },
            {
              "internalType": "uint32",
              "name": "secondaryHeartbeat",
              "type": "uint32"
            },
            {
              "internalType": "uint256",
              "name": "normalizationDivider",
              "type": "uint256"
            },
            {
              "internalType": "uint256",
              "name": "normalizationMultiplier",
              "type": "uint256"
            },
            {
              "internalType": "bool",
              "name": "invertSecondPrice",
              "type": "bool"
            }
          ],
          "internalType": "struct IChainlinkV3Oracle.ChainlinkV3DeploymentConfig",
          "name": "_config",
          "type": "tuple"
        }
      ],
      "name": "hashConfig",
      "outputs": [
        {
          "internalType": "bytes32",
          "name": "configId",
          "type": "bytes32"
        }
      ],
      "stateMutability": "view",
      "type": "function"
    },
    {
      "inputs": [
        {
          "components": [
            {
              "internalType": "contract IERC20Metadata",
              "name": "baseToken",
              "type": "address"
            },
            {
              "internalType": "contract IERC20Metadata",
              "name": "quoteToken",
              "type": "address"
            },
            {
              "internalType": "contract AggregatorV3Interface",
              "name": "primaryAggregator",
              "type": "address"
            },
            {
              "internalType": "uint32",
              "name": "primaryHeartbeat",
              "type": "uint32"
            },
            {
              "internalType": "contract AggregatorV3Interface",
              "name": "secondaryAggregator",
              "type": "address"
            },
            {
              "internalType": "uint32",
              "name": "secondaryHeartbeat",
              "type": "uint32"
            },
            {
              "internalType": "uint256",
              "name": "normalizationDivider",
              "type": "uint256"
            },
            {
              "internalType": "uint256",
              "name": "normalizationMultiplier",
              "type": "uint256"
            },
            {
              "internalType": "bool",
              "name": "invertSecondPrice",
              "type": "bool"
            }
          ],
          "internalType": "struct IChainlinkV3Oracle.ChainlinkV3DeploymentConfig",
          "name": "_config",
          "type": "tuple"
        }
      ],
      "name": "verifyConfig",
      "outputs": [
        {
          "internalType": "uint256",
          "name": "secondaryPriceDecimals",
          "type": "uint256"
        }
      ],
      "stateMutability": "view",
      "type": "function"
    },
    {
      "inputs": [
        {
          "components": [
            {
              "internalType": "contract IERC20Metadata",
              "name": "baseToken",
              "type": "address"
            },
            {
              "internalType": "contract IERC20Metadata",
              "name": "quoteToken",
              "type": "address"
            },
            {
              "internalType": "contract AggregatorV3Interface",
              "name": "primaryAggregator",
              "type": "address"
            },
            {
              "internalType": "uint32",
              "name": "primaryHeartbeat",
              "type": "uint32"
            },
            {
              "internalType": "contract AggregatorV3Interface",
              "name": "secondaryAggregator",
              "type": "address"
            },
            {
              "internalType": "uint32",
              "name": "secondaryHeartbeat",
              "type": "uint32"
            },
            {
              "internalType": "uint256",
              "name": "normalizationDivider",
              "type": "uint256"
            },
            {
              "internalType": "uint256",
              "name": "normalizationMultiplier",
              "type": "uint256"
            },
            {
              "internalType": "bool",
              "name": "invertSecondPrice",
              "type": "bool"
            }
          ],
          "internalType": "struct IChainlinkV3Oracle.ChainlinkV3DeploymentConfig",
          "name": "_config",
          "type": "tuple"
        }
      ],
      "name": "verifyHeartbeat",
      "outputs": [],
      "stateMutability": "pure",
      "type": "function"
    },
    {
      "anonymous": false,
      "inputs": [
        {
          "indexed": true,
          "internalType": "address",
          "name": "oracle",
          "type": "address"
        }
      ],
      "name": "NewOracle",
      "type": "event"
    },
    {
      "inputs": [],
      "name": "AddressZero",
      "type": "error"
    },
    {
      "inputs": [],
      "name": "AggregatorsAreTheSame",
      "type": "error"
    },
    {
      "inputs": [],
      "name": "FailedDeployment",
      "type": "error"
    },
    {
      "inputs": [],
      "name": "HugeDivider",
      "type": "error"
    },
    {
      "inputs": [],
      "name": "HugeMultiplier",
      "type": "error"
    },
    {
      "inputs": [
        {
          "internalType": "uint256",
          "name": "balance",
          "type": "uint256"
        },
        {
          "internalType": "uint256",
          "name": "needed",
          "type": "uint256"
        }
      ],
      "name": "InsufficientBalance",
      "type": "error"
    },
    {
      "inputs": [],
      "name": "InvalidEthHeartbeat",
      "type": "error"
    },
    {
      "inputs": [],
      "name": "InvalidHeartbeat",
      "type": "error"
    },
    {
      "inputs": [],
      "name": "MultiplierAndDividerZero",
      "type": "error"
    },
    {
      "inputs": [],
      "name": "TokensAreTheSame",
      "type": "error"
    }
  ],
  "bytecode": "0x60a0604052348015600e575f5ffd5b506040516019906089565b604051809103905ff0801580156031573d5f5f3e3d5ffd5b506001600160a01b03811660795760405162461bcd60e51b815260206004820152600b60248201526a5a65726f4164647265737360a81b604482015260640160405180910390fd5b6001600160a01b03166080526096565b610a0280610f3583390190565b608051610e816100b45f395f818160fc01526105070152610e815ff3fe608060405234801561000f575f5ffd5b506004361061007a575f3560e01c8063a8f39f6611610058578063a8f39f66146100f7578063b0b1f5851461011e578063f896503a14610133578063fe58f4b91461015b575f5ffd5b806328e981661461007e57806354482173146100a45780637af14d6e146100e4575b5f5ffd5b61009161008c366004610788565b61016e565b6040519081526020015b60405180910390f35b6100cc6100b2366004610831565b60016020525f90815260409020546001600160a01b031681565b6040516001600160a01b03909116815260200161009b565b6100916100f2366004610788565b61037d565b6100cc7f000000000000000000000000000000000000000000000000000000000000000081565b61013161012c366004610788565b6103ac565b005b6100cc610141366004610853565b5f602081905290815260409020546001600160a01b031681565b6100cc610169366004610788565b610470565b60208101515f906001600160a01b031661019b57604051639fabe1c160e01b815260040160405180910390fd5b81516001600160a01b03166101c357604051639fabe1c160e01b815260040160405180910390fd5b815f01516001600160a01b031682602001516001600160a01b0316036101fc57604051633d4cfcc560e11b815260040160405180910390fd5b60408201516001600160a01b031661022757604051639fabe1c160e01b815260040160405180910390fd5b81608001516001600160a01b031682604001516001600160a01b03160361026157604051630e04002960e11b815260040160405180910390fd5b60808201516001600160a01b0316156102de5781608001516001600160a01b031663313ce5676040518163ffffffff1660e01b8152600401602060405180830381865afa1580156102b4573d5f5f3e3d5ffd5b505050506040513d601f19601f820116820180604052508101906102d8919061086a565b60ff1690505b6ec097ce7bc90715b34b9f10000000008260c00151111561031257604051631fe0fdf560e11b815260040160405180910390fd5b6ec097ce7bc90715b34b9f10000000008260e00151111561034657604051631f604a8560e21b815260040160405180910390fd5b60c082015115801561035a575060e0820151155b156103785760405163d156ee7f60e01b815260040160405180910390fd5b919050565b5f8160405160200161038f919061088a565b604051602081830303815290604052805190602001209050919050565b601e816060015163ffffffff1610806103d157506202a300816060015163ffffffff16115b156103ef57604051638f1825c960e01b815260040160405180910390fd5b60808101516001600160a01b031661042d5760a081015163ffffffff161561042a576040516329c5e8f160e21b815260040160405180910390fd5b50565b601e8160a0015163ffffffff16108061045257506202a3008160a0015163ffffffff16115b1561042a576040516329c5e8f160e21b815260040160405180910390fd5b5f5f61047b8361037d565b5f818152602081905260409020549091506001600160a01b031680156104bc576001600160a01b039081165f90815260016020526040902054169392505050565b6104c58461016e565b506104cf846103ac565b836040516104dc90610704565b6104e6919061088a565b604051809103905ff0801580156104ff573d5f5f3e3d5ffd5b50905061052b7f0000000000000000000000000000000000000000000000000000000000000000610595565b92506105388382846105a6565b60405163189acdbd60e31b81526001600160a01b03828116600483015284169063c4d66de8906024015f604051808303815f87803b158015610578575f5ffd5b505af115801561058a573d5f5f3e3d5ffd5b505050505050919050565b5f6105a0825f610674565b92915050565b5f818152602081905260409020546001600160a01b0316156106045760405162461bcd60e51b815260206004820152601260248201527110dbdb999a59d05b1c9958591e515e1a5cdd60721b60448201526064015b60405180910390fd5b5f8181526020818152604080832080546001600160a01b038088166001600160a01b03199283168117909355918552600190935281842080549188169190931681179092555190917fb3eacd0e351fafdfefdec84e1cd19679b38dbcd63ea7c2c24da17fd2bc3b3c0e91a2505050565b5f8147101561069f5760405163cf47918160e01b8152476004820152602481018390526044016105fb565b6e5af43d82803e903d91602b57fd5bf360205282601152763d602d80600a3d3981f3363d3d373d3d3d363d730000008360881c175f526037600983f090506001600160a01b0381166105a05760405163b06ebf3d60e01b815260040160405180910390fd5b6104fd8061094f83390190565b604051610120810167ffffffffffffffff8111828210171561074157634e487b7160e01b5f52604160045260245ffd5b60405290565b6001600160a01b038116811461042a575f5ffd5b803561037881610747565b803563ffffffff81168114610378575f5ffd5b80358015158114610378575f5ffd5b5f61012082840312801561079a575f5ffd5b506107a3610711565b6107ac8361075b565b81526107ba6020840161075b565b60208201526107cb6040840161075b565b60408201526107dc60608401610766565b60608201526107ed6080840161075b565b60808201526107fe60a08401610766565b60a082015260c0838101359082015260e080840135908201526108246101008401610779565b6101008201529392505050565b5f60208284031215610841575f5ffd5b813561084c81610747565b9392505050565b5f60208284031215610863575f5ffd5b5035919050565b5f6020828403121561087a575f5ffd5b815160ff8116811461084c575f5ffd5b81516001600160a01b031681526020808301516101208301916108b7908401826001600160a01b03169052565b5060408301516108d260408401826001600160a01b03169052565b5060608301516108ea606084018263ffffffff169052565b50608083015161090560808401826001600160a01b03169052565b5060a083015161091d60a084018263ffffffff169052565b5060c083015160c083015260e083015160e083015261010083015161094761010084018215159052565b509291505056fe6101c0604052348015610010575f5ffd5b506040516104fd3803806104fd83398101604081905261002f9161011d565b80516020820151606083015160c08085015160e08087015160a09283529092526001600160a01b0394851690915291831661010090815263ffffffff918216608090815260408601518516610120528501805185166101405292850151909116610160529051909116151561018052015115156101a0526101c6565b60405161012081016001600160401b03811182821017156100da57634e487b7160e01b5f52604160045260245ffd5b60405290565b80516001600160a01b03811681146100f6575f5ffd5b919050565b805163ffffffff811681146100f6575f5ffd5b805180151581146100f6575f5ffd5b5f61012082840312801561012f575f5ffd5b506101386100ab565b610141836100e0565b815261014f602084016100e0565b6020820152610160604084016100e0565b6040820152610171606084016100fb565b6060820152610182608084016100e0565b608082015261019360a084016100fb565b60a082015260c0838101519082015260e080840151908201526101b9610100840161010e565b6101008201529392505050565b60805160a05160c05160e05161010051610120516101405161016051610180516101a0516102cd6102305f395f61019e01525f61017501525f60b401525f606701525f604201525f61014e01525f61012601525f61010001525f60da01525f608f01526102cd5ff3fe608060405234801561000f575f5ffd5b5060043610610029575f3560e01c8063c3f909d41461002d575b5f5ffd5b60408051610140810182526001600160a01b037f0000000000000000000000000000000000000000000000000000000000000000811682527f0000000000000000000000000000000000000000000000000000000000000000811660208301527f0000000000000000000000000000000000000000000000000000000000000000828401527f000000000000000000000000000000000000000000000000000000000000000060608301527f000000000000000000000000000000000000000000000000000000000000000060808301527f000000000000000000000000000000000000000000000000000000000000000060a08301527f0000000000000000000000000000000000000000000000000000000000000000811660c08301527f00000000000000000000000000000000000000000000000000000000000000001660e08201527f000000000000000000000000000000000000000000000000000000000000000015156101008201527f0000000000000000000000000000000000000000000000000000000000000000151561012082015290516101d191906101da565b60405180910390f35b81516001600160a01b031681526101408101602083015161020660208401826001600160a01b03169052565b5060408301516040830152606083015160608301526080830151608083015260a083015160a083015260c083015161024960c08401826001600160a01b03169052565b5060e083015161026460e08401826001600160a01b03169052565b5061010083015161027a61010084018215159052565b5061012083015161029061012084018215159052565b509291505056fea2646970667358221220366e50c3c111297f52ef99b14992a476def50e09f375a143657a8c4f22cf051264736f6c634300081c0033a264697066735822122075ad269b7c364c75d71fb458c246f4b6f41284a3fb2c04a5ec9fc782ec64b29564736f6c634300081c00336080604052348015600e575f5ffd5b5060156019565b60c9565b7ff0c57e16840df040f15088dc2f81fe391c3923bec73e23a9662efc9c229c6a00805468010000000000000000900460ff161560685760405163f92ee8a960e01b815260040160405180910390fd5b80546001600160401b039081161460c65780546001600160401b0319166001600160401b0390811782556040519081527fc7f505b2f371ae2175ee4913f4499e1f2633a7b5936321eed1cdaeb6115181d29060200160405180910390a15b50565b61092c806100d65f395ff3fe608060405234801561000f575f5ffd5b5060043610610060575f3560e01c806313b0be3314610064578063217a4b701461008a578063324b8d6e146100aa578063c4d66de8146100bc578063c71ed1e6146100d1578063f9fa619a146100fb575b5f5ffd5b6100776100723660046106c2565b61010c565b6040519081526020015b60405180910390f35b6100926102dc565b6040516001600160a01b039091168152602001610081565b5f54610092906001600160a01b031681565b6100cf6100ca3660046106f0565b610352565b005b6100e46100df36600461071f565b6104a7565b604080519215158352602083019190915201610081565b6100cf6101093660046106f0565b50565b5f8054604080516330fe427560e21b8152905183926001600160a01b03169163c3f909d4916004808301926101409291908290030181865afa158015610154573d5f5f3e3d5ffd5b505050506040513d601f19601f82011682018060405250810190610178919061078b565b90508060c001516001600160a01b0316836001600160a01b0316146101b05760405163981a2a2b60e01b815260040160405180910390fd5b6fffffffffffffffffffffffffffffffff8411156101e157604051631df5999960e21b815260040160405180910390fd5b5f5f6101f4835f01518460400151610557565b91509150816102155760405162bfc92160e01b815260040160405180910390fd5b82610100015161025d57610233868285608001518660a001516105fb565b9350835f03610255576040516301a7e28b60e61b815260040160405180910390fd5b5050506102d6565b5f5f61027185602001518660600151610557565b915091508161029357604051637c5ab47160e01b815260040160405180910390fd5b6102ae88848388608001518960a001518a6101200151610635565b9550855f036102d0576040516301a7e28b60e61b815260040160405180910390fd5b50505050505b92915050565b5f8054604080516330fe427560e21b8152905183926001600160a01b03169163c3f909d4916004808301926101409291908290030181865afa158015610324573d5f5f3e3d5ffd5b505050506040513d601f19601f82011682018060405250810190610348919061078b565b60e0015192915050565b7ff0c57e16840df040f15088dc2f81fe391c3923bec73e23a9662efc9c229c6a008054600160401b810460ff16159067ffffffffffffffff165f811580156103975750825b90505f8267ffffffffffffffff1660011480156103b35750303b155b9050811580156103c1575080155b156103df5760405163f92ee8a960e01b815260040160405180910390fd5b845467ffffffffffffffff19166001178555831561040957845460ff60401b1916600160401b1785555b5f80546001600160a01b0319166001600160a01b0388169081179091556040519081527f077847d1fadf50041a730385b3d6b2de1cdeb5e078cb933fb091003e7f10e07a9060200160405180910390a1831561049f57845460ff60401b19168555604051600181527fc7f505b2f371ae2175ee4913f4499e1f2633a7b5936321eed1cdaeb6115181d29060200160405180910390a15b505050505050565b5f5f5f5f5f9054906101000a90046001600160a01b03166001600160a01b031663c3f909d46040518163ffffffff1660e01b815260040161014060405180830381865afa1580156104fa573d5f5f3e3d5ffd5b505050506040513d601f19601f8201168201806040525081019061051e919061078b565b90508361053c5761053781602001518260600151610557565b61054d565b61054d815f01518260400151610557565b9250925050915091565b5f5f5f5f856001600160a01b031663feaf968c6040518163ffffffff1660e01b815260040160a060405180830381865afa158015610597573d5f5f3e3d5ffd5b505050506040513d601f19601f820116820180604052508101906105bb9190610852565b509350509250505f85420390505f831380156105d657508082115b156105ea57600183945094505050506105f4565b5f5f945094505050505b9250929050565b5f815f0361061c578284860281610614576106146108a0565b04905061062d565b84840261062983826108b4565b9150505b949350505050565b8585025f83900361067757816106545761064f85826108b4565b61065e565b61065e85826108d7565b905083818161066f5761066f6108a0565b0490506106a4565b61068183826108b4565b9050816106975761069285826108b4565b6106a1565b6106a185826108d7565b90505b9695505050505050565b6001600160a01b0381168114610109575f5ffd5b5f5f604083850312156106d3575f5ffd5b8235915060208301356106e5816106ae565b809150509250929050565b5f60208284031215610700575f5ffd5b813561070b816106ae565b9392505050565b8015158114610109575f5ffd5b5f6020828403121561072f575f5ffd5b813561070b81610712565b604051610140810167ffffffffffffffff8111828210171561076a57634e487b7160e01b5f52604160045260245ffd5b60405290565b805161077b816106ae565b919050565b805161077b81610712565b5f61014082840312801561079d575f5ffd5b506107a661073a565b6107af83610770565b81526107bd60208401610770565b602082015260408381015190820152606080840151908201526080808401519082015260a080840151908201526107f660c08401610770565b60c082015261080760e08401610770565b60e08201526108196101008401610780565b61010082015261082c6101208401610780565b6101208201529392505050565b805169ffffffffffffffffffff8116811461077b575f5ffd5b5f5f5f5f5f60a08688031215610866575f5ffd5b61086f86610839565b6020870151604088015160608901519297509095509350915061089460808701610839565b90509295509295909350565b634e487b7160e01b5f52601260045260245ffd5b80820281158282048414176102d657634e487b7160e01b5f52601160045260245ffd5b5f826108f157634e487b7160e01b5f52601260045260245ffd5b50049056fea2646970667358221220a51bee7ad7a7317c1ebd0e225878e10c9b143156b5e688160b19a5830c3bbd3b64736f6c634300081c0033",
  "language": "Solidity",
  "compiler": "0.8.28+commit.7893614a"
}