{
  "address": "0xEdc9Eb4fae5d712440e24e739Ac6083197b6f62f",
  "abi": [
    {
      "inputs": [
        {
          "internalType": "contract IERC4626",
          "name": "_vault",
          "type": "address"
        }
      ],
      "name": "createERC4626Oracle",
      "outputs": [
        {
          "internalType": "contract ISiloOracle",
          "name": "oracle",
          "type": "address"
        }
      ],
      "stateMutability": "nonpayable",
      "type": "function"
    },
    {
      "inputs": [
        {
          "internalType": "address",
          "name": "",
          "type": "address"
        }
      ],
      "name": "createdInFactory",
      "outputs": [
        {
          "internalType": "bool",
          "name": "",
          "type": "bool"
        }
      ],
      "stateMutability": "view",
      "type": "function"
    },
    {
      "anonymous": false,
      "inputs": [
        {
          "indexed": true,
          "internalType": "contract ISiloOracle",
          "name": "oracle",
          "type": "address"
        }
      ],
      "name": "ERC4626OracleCreated",
      "type": "event"
    }
  ],
  "bytecode": "0x6080604052348015600e575f5ffd5b5061055e8061001c5f395ff3fe608060405234801561000f575f5ffd5b5060043610610034575f3560e01c80638b82e6a514610038578063b32d705b14610068575b5f5ffd5b61004b610046366004610148565b61009a565b6040516001600160a01b0390911681526020015b60405180910390f35b61008a610076366004610148565b5f6020819052908152604090205460ff1681565b604051901515815260200161005f565b5f816040516100a890610124565b6001600160a01b039091168152602001604051809103905ff0801580156100d1573d5f5f3e3d5ffd5b506001600160a01b0381165f81815260208190526040808220805460ff191660011790555192935090917f6d86f9fc5b1bde243720a4aa74177ac89431d9fa2331e29ff3bf8ebe23fcec7f9190a2919050565b6103be8061016b83390190565b6001600160a01b0381168114610145575f5ffd5b50565b5f60208284031215610158575f5ffd5b813561016381610131565b939250505056fe60c060405234801561000f575f5ffd5b506040516103be3803806103be83398101604081905261002e916100c3565b6001600160a01b0381166080819052604080516338d52e0f60e01b815290516338d52e0f916004808201926020929091908290030181865afa158015610076573d5f5f3e3d5ffd5b505050506040513d601f19601f8201168201806040525081019061009a91906100c3565b6001600160a01b031660a052506100e5565b6001600160a01b03811681146100c0575f5ffd5b50565b5f602082840312156100d3575f5ffd5b81516100de816100ac565b9392505050565b60805160a0516102a66101185f395f81816081015260e501525f818160be0152818161011d015261018301526102a65ff3fe608060405234801561000f575f5ffd5b5060043610610055575f3560e01c806313b0be3314610059578063217a4b701461007f578063411557d1146100b9578063c5d664c6146100e0578063f9fa619a14610107575b5f5ffd5b61006c610067366004610216565b61011a565b6040519081526020015b60405180910390f35b7f00000000000000000000000000000000000000000000000000000000000000005b6040516001600160a01b039091168152602001610076565b6100a17f000000000000000000000000000000000000000000000000000000000000000081565b6100a17f000000000000000000000000000000000000000000000000000000000000000081565b610118610115366004610240565b50565b005b5f7f00000000000000000000000000000000000000000000000000000000000000006001600160a01b0316826001600160a01b03161461016d5760405163981a2a2b60e01b815260040160405180910390fd5b6040516303d1689d60e11b8152600481018490527f00000000000000000000000000000000000000000000000000000000000000006001600160a01b0316906307a2d13a90602401602060405180830381865afa1580156101d0573d5f5f3e3d5ffd5b505050506040513d601f19601f820116820180604052508101906101f49190610259565b9392505050565b80356001600160a01b0381168114610211575f5ffd5b919050565b5f5f60408385031215610227575f5ffd5b82359150610237602084016101fb565b90509250929050565b5f60208284031215610250575f5ffd5b6101f4826101fb565b5f60208284031215610269575f5ffd5b505191905056fea26469706673582212209af58437504508fb10b4da7ef54900c0f4bd8100204ffe825bcb3fb8e3b4ea2d64736f6c634300081c0033a26469706673582212205288f0579618c5019742108645be207092e4fe893ae823e4408d47f13727e92664736f6c634300081c0033",
  "language": "Solidity",
  "compiler": "0.8.28+commit.7893614a"
}