{
  "address": "0xfce6c652f5E9cb2E6AEf60F8d8BC4a9894F351A8",
  "abi": [
    {
      "inputs": [],
      "name": "decimals",
      "outputs": [
        {
          "internalType": "uint8",
          "name": "",
          "type": "uint8"
        }
      ],
      "stateMutability": "pure",
      "type": "function"
    },
    {
      "inputs": [],
      "name": "name",
      "outputs": [
        {
          "internalType": "string",
          "name": "",
          "type": "string"
        }
      ],
      "stateMutability": "pure",
      "type": "function"
    },
    {
      "inputs": [],
      "name": "symbol",
      "outputs": [
        {
          "internalType": "string",
          "name": "",
          "type": "string"
        }
      ],
      "stateMutability": "pure",
      "type": "function"
    }
  ],
  "bytecode": "0x6080604052348015600e575f5ffd5b506101158061001c5f395ff3fe6080604052348015600e575f5ffd5b5060043610603a575f3560e01c806306fdde0314603e578063313ce56714607c57806395d89b4114608a575b5f5ffd5b60408051808201909152601281527114da5b1bc8159a5c9d1d585b08105cdcd95d60721b60208201525b6040516073919060aa565b60405180910390f35b604051600881526020016073565b60408051808201909152600581526414d5904e1160da1b60208201526068565b602081525f82518060208401528060208501604085015e5f604082850101526040601f19601f8301168401019150509291505056fea2646970667358221220fd2372e0c355bedd429f0bd89e7e8a41328741cc5894899d83c9db24825a855764736f6c634300081c0033",
  "language": "Solidity",
  "compiler": "0.8.28+commit.7893614a"
}