{
  "address": "0xed25Da94B2D2E1a039233Dc621dC811Bd9DF15bF",
  "abi": [
    {
      "inputs": [],
      "stateMutability": "nonpayable",
      "type": "constructor"
    },
    {
      "inputs": [],
      "name": "acceptOwnership",
      "outputs": [],
      "stateMutability": "nonpayable",
      "type": "function"
    },
    {
      "inputs": [
        {
          "internalType": "address",
          "name": "_silo",
          "type": "address"
        },
        {
          "internalType": "uint256",
          "name": "_action",
          "type": "uint256"
        },
        {
          "internalType": "bytes",
          "name": "_inputAndOutput",
          "type": "bytes"
        }
      ],
      "name": "afterAction",
      "outputs": [],
      "stateMutability": "nonpayable",
      "type": "function"
    },
    {
      "inputs": [
        {
          "internalType": "address",
          "name": "",
          "type": "address"
        },
        {
          "internalType": "uint256",
          "name": "",
          "type": "uint256"
        },
        {
          "internalType": "bytes",
          "name": "",
          "type": "bytes"
        }
      ],
      "name": "beforeAction",
      "outputs": [],
      "stateMutability": "nonpayable",
      "type": "function"
    },
    {
      "inputs": [
        {
          "internalType": "contract IShareToken",
          "name": "",
          "type": "address"
        }
      ],
      "name": "configuredGauges",
      "outputs": [
        {
          "internalType": "contract IGaugeLike",
          "name": "",
          "type": "address"
        }
      ],
      "stateMutability": "view",
      "type": "function"
    },
    {
      "inputs": [],
      "name": "gauge",
      "outputs": [
        {
          "internalType": "contract IGaugeLike",
          "name": "",
          "type": "address"
        }
      ],
      "stateMutability": "view",
      "type": "function"
    },
    {
      "inputs": [
        {
          "internalType": "address",
          "name": "_silo",
          "type": "address"
        }
      ],
      "name": "hookReceiverConfig",
      "outputs": [
        {
          "internalType": "uint24",
          "name": "hooksBefore",
          "type": "uint24"
        },
        {
          "internalType": "uint24",
          "name": "hooksAfter",
          "type": "uint24"
        }
      ],
      "stateMutability": "view",
      "type": "function"
    },
    {
      "inputs": [
        {
          "internalType": "contract ISiloConfig",
          "name": "_siloConfig",
          "type": "address"
        },
        {
          "internalType": "bytes",
          "name": "_data",
          "type": "bytes"
        }
      ],
      "name": "initialize",
      "outputs": [],
      "stateMutability": "nonpayable",
      "type": "function"
    },
    {
      "inputs": [
        {
          "internalType": "address",
          "name": "_collateralAsset",
          "type": "address"
        },
        {
          "internalType": "address",
          "name": "_debtAsset",
          "type": "address"
        },
        {
          "internalType": "address",
          "name": "_borrower",
          "type": "address"
        },
        {
          "internalType": "uint256",
          "name": "_maxDebtToCover",
          "type": "uint256"
        },
        {
          "internalType": "bool",
          "name": "_receiveSToken",
          "type": "bool"
        }
      ],
      "name": "liquidationCall",
      "outputs": [
        {
          "internalType": "uint256",
          "name": "withdrawCollateral",
          "type": "uint256"
        },
        {
          "internalType": "uint256",
          "name": "repayDebtAssets",
          "type": "uint256"
        }
      ],
      "stateMutability": "nonpayable",
      "type": "function"
    },
    {
      "inputs": [
        {
          "internalType": "address",
          "name": "_borrower",
          "type": "address"
        }
      ],
      "name": "maxLiquidation",
      "outputs": [
        {
          "internalType": "uint256",
          "name": "collateralToLiquidate",
          "type": "uint256"
        },
        {
          "internalType": "uint256",
          "name": "debtToRepay",
          "type": "uint256"
        },
        {
          "internalType": "bool",
          "name": "sTokenRequired",
          "type": "bool"
        }
      ],
      "stateMutability": "view",
      "type": "function"
    },
    {
      "inputs": [],
      "name": "owner",
      "outputs": [
        {
          "internalType": "address",
          "name": "",
          "type": "address"
        }
      ],
      "stateMutability": "view",
      "type": "function"
    },
    {
      "inputs": [],
      "name": "pendingOwner",
      "outputs": [
        {
          "internalType": "address",
          "name": "",
          "type": "address"
        }
      ],
      "stateMutability": "view",
      "type": "function"
    },
    {
      "inputs": [
        {
          "internalType": "contract IShareToken",
          "name": "_shareToken",
          "type": "address"
        }
      ],
      "name": "removeGauge",
      "outputs": [],
      "stateMutability": "nonpayable",
      "type": "function"
    },
    {
      "inputs": [],
      "name": "renounceOwnership",
      "outputs": [],
      "stateMutability": "nonpayable",
      "type": "function"
    },
    {
      "inputs": [
        {
          "internalType": "contract IGaugeLike",
          "name": "_gauge",
          "type": "address"
        },
        {
          "internalType": "contract IShareToken",
          "name": "_shareToken",
          "type": "address"
        }
      ],
      "name": "setGauge",
      "outputs": [],
      "stateMutability": "nonpayable",
      "type": "function"
    },
    {
      "inputs": [],
      "name": "shareToken",
      "outputs": [
        {
          "internalType": "contract IShareToken",
          "name": "",
          "type": "address"
        }
      ],
      "stateMutability": "view",
      "type": "function"
    },
    {
      "inputs": [],
      "name": "siloConfig",
      "outputs": [
        {
          "internalType": "contract ISiloConfig",
          "name": "",
          "type": "address"
        }
      ],
      "stateMutability": "view",
      "type": "function"
    },
    {
      "inputs": [
        {
          "internalType": "address",
          "name": "newOwner",
          "type": "address"
        }
      ],
      "name": "transferOwnership",
      "outputs": [],
      "stateMutability": "nonpayable",
      "type": "function"
    },
    {
      "anonymous": false,
      "inputs": [
        {
          "indexed": false,
          "internalType": "address",
          "name": "gauge",
          "type": "address"
        },
        {
          "indexed": false,
          "internalType": "address",
          "name": "shareToken",
          "type": "address"
        }
      ],
      "name": "GaugeConfigured",
      "type": "event"
    },
    {
      "anonymous": false,
      "inputs": [
        {
          "indexed": false,
          "internalType": "address",
          "name": "shareToken",
          "type": "address"
        }
      ],
      "name": "GaugeRemoved",
      "type": "event"
    },
    {
      "anonymous": false,
      "inputs": [
        {
          "indexed": false,
          "internalType": "address",
          "name": "silo",
          "type": "address"
        },
        {
          "indexed": false,
          "internalType": "uint24",
          "name": "hooksBefore",
          "type": "uint24"
        },
        {
          "indexed": false,
          "internalType": "uint24",
          "name": "hooksAfter",
          "type": "uint24"
        }
      ],
      "name": "HookConfigured",
      "type": "event"
    },
    {
      "anonymous": false,
      "inputs": [
        {
          "indexed": false,
          "internalType": "uint64",
          "name": "version",
          "type": "uint64"
        }
      ],
      "name": "Initialized",
      "type": "event"
    },
    {
      "anonymous": false,
      "inputs": [
        {
          "indexed": true,
          "internalType": "address",
          "name": "liquidator",
          "type": "address"
        },
        {
          "indexed": false,
          "internalType": "bool",
          "name": "receiveSToken",
          "type": "bool"
        }
      ],
      "name": "LiquidationCall",
      "type": "event"
    },
    {
      "anonymous": false,
      "inputs": [
        {
          "indexed": true,
          "internalType": "address",
          "name": "previousOwner",
          "type": "address"
        },
        {
          "indexed": true,
          "internalType": "address",
          "name": "newOwner",
          "type": "address"
        }
      ],
      "name": "OwnershipTransferStarted",
      "type": "event"
    },
    {
      "anonymous": false,
      "inputs": [
        {
          "indexed": true,
          "internalType": "address",
          "name": "previousOwner",
          "type": "address"
        },
        {
          "indexed": true,
          "internalType": "address",
          "name": "newOwner",
          "type": "address"
        }
      ],
      "name": "OwnershipTransferred",
      "type": "event"
    },
    {
      "inputs": [
        {
          "internalType": "address",
          "name": "target",
          "type": "address"
        }
      ],
      "name": "AddressEmptyCode",
      "type": "error"
    },
    {
      "inputs": [],
      "name": "AlreadyConfigured",
      "type": "error"
    },
    {
      "inputs": [],
      "name": "CantRemoveActiveGauge",
      "type": "error"
    },
    {
      "inputs": [],
      "name": "EmptyGaugeAddress",
      "type": "error"
    },
    {
      "inputs": [],
      "name": "EmptySiloConfig",
      "type": "error"
    },
    {
      "inputs": [],
      "name": "FailedCall",
      "type": "error"
    },
    {
      "inputs": [],
      "name": "FullLiquidationRequired",
      "type": "error"
    },
    {
      "inputs": [],
      "name": "GaugeAlreadyConfigured",
      "type": "error"
    },
    {
      "inputs": [],
      "name": "GaugeIsNotConfigured",
      "type": "error"
    },
    {
      "inputs": [
        {
          "internalType": "uint256",
          "name": "balance",
          "type": "uint256"
        },
        {
          "internalType": "uint256",
          "name": "needed",
          "type": "uint256"
        }
      ],
      "name": "InsufficientBalance",
      "type": "error"
    },
    {
      "inputs": [],
      "name": "InvalidInitialization",
      "type": "error"
    },
    {
      "inputs": [],
      "name": "InvalidShareToken",
      "type": "error"
    },
    {
      "inputs": [],
      "name": "NoDebtToCover",
      "type": "error"
    },
    {
      "inputs": [],
      "name": "NoRepayAssets",
      "type": "error"
    },
    {
      "inputs": [],
      "name": "NotInitializing",
      "type": "error"
    },
    {
      "inputs": [
        {
          "internalType": "address",
          "name": "owner",
          "type": "address"
        }
      ],
      "name": "OwnableInvalidOwner",
      "type": "error"
    },
    {
      "inputs": [
        {
          "internalType": "address",
          "name": "account",
          "type": "address"
        }
      ],
      "name": "OwnableUnauthorizedAccount",
      "type": "error"
    },
    {
      "inputs": [],
      "name": "OwnerIsZeroAddress",
      "type": "error"
    },
    {
      "inputs": [],
      "name": "RequestNotSupported",
      "type": "error"
    },
    {
      "inputs": [
        {
          "internalType": "address",
          "name": "token",
          "type": "address"
        }
      ],
      "name": "SafeERC20FailedOperation",
      "type": "error"
    },
    {
      "inputs": [],
      "name": "UnexpectedCollateralToken",
      "type": "error"
    },
    {
      "inputs": [],
      "name": "UnexpectedDebtToken",
      "type": "error"
    },
    {
      "inputs": [],
      "name": "UnknownRatio",
      "type": "error"
    },
    {
      "inputs": [],
      "name": "UserIsSolvent",
      "type": "error"
    },
    {
      "inputs": [],
      "name": "WrongGaugeShareToken",
      "type": "error"
    }
  ],
  "bytecode": "0x608060405234801561000f575f5ffd5b50338061003557604051631e4fbdf760e01b81525f600482015260240160405180910390fd5b61003e81610055565b50610047610071565b6100505f610055565b610173565b600380546001600160a01b031916905561006e81610122565b50565b7ff0c57e16840df040f15088dc2f81fe391c3923bec73e23a9662efc9c229c6a00805468010000000000000000900460ff16156100c15760405163f92ee8a960e01b815260040160405180910390fd5b80546001600160401b039081161461006e5780546001600160401b0319166001600160401b0390811782556040519081527fc7f505b2f371ae2175ee4913f4499e1f2633a7b5936321eed1cdaeb6115181d29060200160405180910390a150565b600280546001600160a01b038381166001600160a01b0319831681179093556040519116919082907f8be0079c531659141344cd1fd0a4f28419497f9722a3daafe3b4186f6b6457e0905f90a35050565b613300806101805f395ff3fe608060405234801561000f575f5ffd5b5060043610610105575f3560e01c8063a37d94111161009e578063d1f578941161006e578063d1f578941461023b578063d714fd191461024e578063e30c397814610260578063e4784fa914610271578063f2fde38b146102db575f5ffd5b8063a37d9411146101bd578063a6f19c84146101e5578063aef28235146101f8578063bd02d8481461020b575f5ffd5b80636c9fa59e116100d95780636c9fa59e14610171578063715018a61461019c57806379ba5097146101a45780638da5cb5b146101ac575f5ffd5b8062a718a914610109578063237e6d641461013657806335cb10991461014b5780633a0451451461015e575b5f5ffd5b61011c610117366004612cc0565b6102ee565b604080519283526020830191909152015b60405180910390f35b610149610144366004612d24565b610786565b005b610149610159366004612d99565b610987565b61014961016c366004612df1565b6109a0565b600554610184906001600160a01b031681565b6040516001600160a01b03909116815260200161012d565b610149610b47565b610149610b5a565b6002546001600160a01b0316610184565b6101846101cb366004612df1565b60066020525f90815260409020546001600160a01b031681565b600454610184906001600160a01b031681565b610149610206366004612d99565b610ba3565b61021e610219366004612df1565b610d3f565b60408051938452602084019290925215159082015260600161012d565b610149610249366004612e0c565b610d66565b5f54610184906001600160a01b031681565b6003546001600160a01b0316610184565b6102bf61027f366004612df1565b6001600160a01b03165f9081526001602090815260409182902082518084019093525462ffffff8082168085526301000000909204169290910182905291565b6040805162ffffff93841681529290911660208301520161012d565b6101496102e9366004612df1565b610eb6565b5f805481906001600160a01b03168061031a576040516379c39cf960e01b815260040160405180910390fd5b845f0361033a576040516317ff0e0960e11b815260040160405180910390fd5b806001600160a01b0316639dd413306040518163ffffffff1660e01b81526004015f604051808303815f87803b158015610372575f5ffd5b505af1158015610384573d5f5f3e3d5ffd5b505050505f5f610396838b8b8b610f27565b915091505f5f5f5f5f6103b187878f8f8b6101a00151611144565b909b50919450925090506103c4816111e1565b8b8911156103e55760405163d65db62d60e01b815260040160405180910390fd5b6040518b1515815233907fe24aa47ff635f1a546a55407c1830a99c50045332faba28455dedecb35b07a7e9060200160405180910390a26060860151610436906001600160a01b031633308c611226565b61045c86604001518a88606001516001600160a01b031661128d9092919063ffffffff16565b5f8b610468573061046a565b335b905061048388604001518f83878c60a001516001611314565b955061049b88604001518f83868c608001515f611314565b945050876001600160a01b03166362402b046040518163ffffffff1660e01b81526004015f604051808303815f87803b1580156104d6575f5ffd5b505af11580156104e8573d5f5f3e3d5ffd5b5050505085604001516001600160a01b031663acb708158a8f6040518363ffffffff1660e01b81526004016105309291909182526001600160a01b0316602082015260400190565b6020604051808303815f875af115801561054c573d5f5f3e3d5ffd5b505050506040513d601f19601f820116820180604052508101906105709190612e5d565b508a156106735784156105f25786604001516001600160a01b031663a7d6e44b8660016040518363ffffffff1660e01b81526004016105b0929190612e9c565b602060405180830381865afa1580156105cb573d5f5f3e3d5ffd5b505050506040513d601f19601f820116820180604052508101906105ef9190612e5d565b99505b831561066e5786604001516001600160a01b031663a7d6e44b855f6040518363ffffffff1660e01b815260040161062a929190612e9c565b602060405180830381865afa158015610645573d5f5f3e3d5ffd5b505050506040513d601f19601f820116820180604052508101906106699190612e5d565b8a0199505b610774565b84156106f35786604001516001600160a01b031663da53766086333060016040518563ffffffff1660e01b81526004016106b09493929190612eb0565b6020604051808303815f875af11580156106cc573d5f5f3e3d5ffd5b505050506040513d601f19601f820116820180604052508101906106f09190612e5d565b99505b83156107745786604001516001600160a01b031663da5376608533305f6040518563ffffffff1660e01b815260040161072f9493929190612eb0565b6020604051808303815f875af115801561074b573d5f5f3e3d5ffd5b505050506040513d601f19601f8201168201806040525081019061076f9190612e5d565b8a0199505b50505050505050509550959350505050565b61078e611479565b6001600160a01b0382166107b55760405163d1af83ef60e01b815260040160405180910390fd5b806001600160a01b0316826001600160a01b0316632ad87c6f6040518163ffffffff1660e01b8152600401602060405180830381865afa1580156107fb573d5f5f3e3d5ffd5b505050506040513d601f19601f8201168201806040525081019061081f9190612eeb565b6001600160a01b0316146108465760405163060a0aaf60e41b815260040160405180910390fd5b6001600160a01b038082165f9081526006602052604090205416801561087f5760405163d0c7225560e01b815260040160405180910390fd5b5f826001600160a01b031663eb3beb296040518163ffffffff1660e01b8152600401602060405180830381865afa1580156108bc573d5f5f3e3d5ffd5b505050506040513d601f19601f820116820180604052508101906108e09190612eeb565b90505f6108ed82856114a6565b90505f6108f9836115af565b9050610400821761090982821790565b9150610916845f846115d5565b6001600160a01b038681165f8181526006602090815260409182902080546001600160a01b0319168c86161790556004548251941684528301919091527f213d54ca7d6adb897962b4f78f6c2424aa527ee584f57a6000f961c507e0ec27910160405180910390a150505050505050565b604051632a188cb160e21b815260040160405180910390fd5b6109a8611479565b6001600160a01b038082165f9081526006602052604090205416806109e057604051632e77844760e21b815260040160405180910390fd5b806001600160a01b0316639c868ac06040518163ffffffff1660e01b8152600401602060405180830381865afa158015610a1c573d5f5f3e3d5ffd5b505050506040513d601f19601f82011682018060405250810190610a409190612f11565b610a5d57604051630d0ab16560e01b815260040160405180910390fd5b5f826001600160a01b031663eb3beb296040518163ffffffff1660e01b8152600401602060405180830381865afa158015610a9a573d5f5f3e3d5ffd5b505050506040513d601f19601f82011682018060405250810190610abe9190612eeb565b90505f610acb82856114a6565b90505f610ad7836115af565b8219169050610ae7835f836115d5565b6001600160a01b0385165f8181526006602090815260409182902080546001600160a01b031916905590519182527f94ac12f5301759f065db9de7f23677e50bef009f062b028d4d4612f620f0f5fb910160405180910390a15050505050565b610b4f611479565b610b585f6116b8565b565b60035433906001600160a01b03168114610b975760405163118cdaa760e01b81526001600160a01b03821660048201526024015b60405180910390fd5b610ba0816116b8565b50565b335f908152600660205260409020546001600160a01b031680610bd957604051632e77844760e21b815260040160405180910390fd5b806001600160a01b0316639c868ac06040518163ffffffff1660e01b8152600401602060405180830381865afa158015610c15573d5f5f3e3d5ffd5b505050506040513d601f19601f82011682018060405250810190610c399190612f11565b15610c445750610d39565b610c5784610c51876115af565b81161490565b610c615750610d39565b5f610ca084848080601f0160208091040260200160405190810160405280939291908181526020018383808284375f920191909152506116d192505050565b805160608201516020830151608084015160a0850151604080870151905163bbdc013b60e01b81526001600160a01b039687166004820152602481019590955292851660448501526064840191909152608483015260a482015291925083169063bbdc013b9060c4015f604051808303815f87803b158015610d20575f5ffd5b505af1158015610d32573d5f5f3e3d5ffd5b5050505050505b50505050565b5f805481908190610d59906001600160a01b031685611775565b9250925092509193909250565b7ff0c57e16840df040f15088dc2f81fe391c3923bec73e23a9662efc9c229c6a008054600160401b810460ff16159067ffffffffffffffff165f81158015610dab5750825b90505f8267ffffffffffffffff166001148015610dc75750303b155b905081158015610dd5575080155b15610df35760405163f92ee8a960e01b815260040160405180910390fd5b845467ffffffffffffffff191660011785558315610e1d57845460ff60401b1916600160401b1785555b5f610e2a87890189612df1565b90506001600160a01b038116610e53576040516354a4010f60e01b815260040160405180910390fd5b610e5c8961195c565b610e65816116b8565b508315610eac57845460ff60401b19168555604051600181527fc7f505b2f371ae2175ee4913f4499e1f2633a7b5936321eed1cdaeb6115181d29060200160405180910390a15b5050505050505050565b610ebe611479565b600380546001600160a01b0383166001600160a01b03199091168117909155610eef6002546001600160a01b031690565b6001600160a01b03167f38d16b8cac22d99fc7c124b9cd0de2d3fa1faef420bfe791d8c362d765e2270060405160405180910390a350565b610f2f612c14565b610f37612c14565b6040516394c0527d60e01b81526001600160a01b0384811660048301528716906394c0527d9060240161044060405180830381865afa158015610f7c573d5f5f3e3d5ffd5b505050506040513d601f19601f82011682018060405250810190610fa0919061307a565b604081015191935091506001600160a01b0316610fd057604051632f13551560e11b815260040160405180910390fd5b81606001516001600160a01b0316856001600160a01b0316146110065760405163055692d760e21b815260040160405180910390fd5b80606001516001600160a01b0316846001600160a01b03161461103c5760405163129e080d60e21b815260040160405180910390fd5b80604001516001600160a01b031663a6afed956040518163ffffffff1660e01b81526004016020604051808303815f875af115801561107d573d5f5f3e3d5ffd5b505050506040513d601f19601f820116820180604052508101906110a19190612e5d565b5080604001516001600160a01b031682604001516001600160a01b03161461113b5781604001516001600160a01b031663a6afed956040518163ffffffff1660e01b81526004016020604051808303815f875af1158015611104573d5f5f3e3d5ffd5b505050506040513d601f19601f820116820180604052508101906111289190612e5d565b50611132826119cd565b61113b816119cd565b94509492505050565b5f5f5f5f5f6111578a8a8a5f5f5f611a53565b90505f6111b4826040518060c001604052808e610160015181526020018e606001516001600160a01b031681526020018d606001516001600160a01b031681526020018b81526020018a81526020018e6101800151815250611cd0565b604085015191965094509091506111cc908290611de1565b909c909b509399509197509195505050505050565b6001600160e01b031981165f036111f55750565b6040805160048152602481019091526020810180516001600160e01b03166001600160e01b03198416178152815190fd5b6040516001600160a01b038481166024830152838116604483015260648201839052610d399186918216906323b872dd906084015b604051602081830303815290604052915060e01b6020820180516001600160e01b038381831617835250505050611e14565b604051636eb1769f60e11b81523060048201526001600160a01b0383811660248301525f919085169063dd62ed3e90604401602060405180830381865afa1580156112da573d5f5f3e3d5ffd5b505050506040513d601f19601f820116820180604052508101906112fe9190612e5d565b9050610d39848461130f85856130c3565b611e7a565b5f835f0361132357505f61146f565b6113f984886001600160a01b031663b6d821c7856040518263ffffffff1660e01b815260040161135391906130d6565b602060405180830381865afa15801561136e573d5f5f3e3d5ffd5b505050506040513d601f19601f820116820180604052508101906113929190612e5d565b856001600160a01b03166318160ddd6040518163ffffffff1660e01b8152600401602060405180830381865afa1580156113ce573d5f5f3e3d5ffd5b505050506040513d601f19601f820116820180604052508101906113f29190612e5d565b5f86611f09565b9050805f0361140957505f61146f565b604051633661585b60e21b81526001600160a01b03878116600483015286811660248301526044820183905284169063d985616c906064015f604051808303815f87803b158015611458575f5ffd5b505af115801561146a573d5f5f3e3d5ffd5b505050505b9695505050505050565b6002546001600160a01b03163314610b585760405163118cdaa760e01b8152336004820152602401610b8e565b5f8054604051630483b24f60e41b81526001600160a01b0385811660048301528392839283929091169063483b24f090602401606060405180830381865afa1580156114f4573d5f5f3e3d5ffd5b505050506040513d601f19601f8201168201806040525081019061151891906130f0565b925092509250816001600160a01b0316856001600160a01b0316036115445761080093505050506115a9565b826001600160a01b0316856001600160a01b03160361156a5761100093505050506115a9565b806001600160a01b0316856001600160a01b0316036115905761200093505050506115a9565b60405163d938fa3760e01b815260040160405180910390fd5b92915050565b6001600160a01b03165f908152600160205260409020546301000000900462ffffff1690565b60408051808201825262ffffff84811680835284821660208085018281526001600160a01b038a165f81815260018452889020965187549251871663010000000265ffffffffffff1990931696169590951717909455845192835292820152918201527f1c26a8451bc890d476a0e7bb8310f00750604879bb30d4813a7718a1ee089fa69060600160405180910390a1826001600160a01b031663cad1aacf6040518163ffffffff1660e01b81526004015f604051808303815f87803b15801561169d575f5ffd5b505af11580156116af573d5f5f3e3d5ffd5b50505050505050565b600380546001600160a01b0319169055610ba081611f46565b6117166040518060c001604052805f6001600160a01b031681526020015f6001600160a01b031681526020015f81526020015f81526020015f81526020015f81525090565b506014810151602882015160488301516068840151608885015160a8909501516040805160c0810182526001600160a01b039687168152959094166020860152928401919091526060830152608082019290925260a081019190915290565b6040516394c0527d60e01b81526001600160a01b0382811660048301525f918291829182918291908816906394c0527d9060240161044060405180830381865afa1580156117c5573d5f5f3e3d5ffd5b505050506040513d601f19601f820116820180604052508101906117e9919061307a565b604081015191935091506001600160a01b0316611810575f5f5f9450945094505050611955565b5f6118208383895f60015f611a53565b905080608001515f0361183e575f5f5f955095509550505050611955565b5f5f6118538386606001518660600151611f97565b915091505f8360600151846040015161186c91906130c3565b9050825f0361188d578084608001515f985098509850505050505050611955565b5f61189883856120ed565b905086610160015181116118bb575f5f5f99509950995050505050505050611955565b6118d782858760800151868b61018001518c6101a0015161210a565b809a50819b5050505f60028b01905087604001516001600160a01b0316630910a5106040518163ffffffff1660e01b8152600401602060405180830381865afa158015611926573d5f5f3e3d5ffd5b505050506040513d601f19601f8201168201806040525081019061194a9190612e5d565b109750505050505050505b9250925092565b6001600160a01b038116611983576040516379c39cf960e01b815260040160405180910390fd5b5f546001600160a01b0316156119ac576040516308db0db560e11b815260040160405180910390fd5b5f80546001600160a01b0319166001600160a01b0392909216919091179055565b80610200015180156119eb575060e08101516001600160a01b031615155b15610ba05760e08101516060820151604051637cfd30cd60e11b81526001600160a01b03918216600482015291169063f9fa619a906024015f604051808303815f87803b158015611a3a575f5ffd5b505af1158015611a4c573d5f5f3e3d5ffd5b5050505050565b611a926040518060a001604052805f6001600160a01b031681526020015f6001600160a01b031681526020015f81526020015f81526020015f81525090565b85606001516001600160a01b031687606001516001600160a01b031614611afc576001846001811115611ac757611ac7612e74565b14611adb578660e001518660e00151611ae8565b8661010001518661010001515b6001600160a01b0390811660208401521681525b5f5f611b0d8960800151885f61215d565b80935081925050505f5f8a604001516001600160a01b031663ffbaaf7a6040518163ffffffff1660e01b81526004016040805180830381865afa158015611b56573d5f5f3e3d5ffd5b505050506040513d601f19601f82011682018060405250810190611b7a919061313a565b91509150611b8b8382865f5f612245565b604086015260a08b0151611ba0908a5f61215d565b945092506001876001811115611bb857611bb8612e74565b14611bc35781611bdf565b611bdf8b604001518c61012001518d5f01518e60200151612274565b9150611bef8383865f6001612245565b606086015260c08a0151611c04908a8861215d565b945092505f6001886001811115611c1d57611c1d612e74565b14611c97578a604001516001600160a01b031663b6d821c760026040518263ffffffff1660e01b8152600401611c5391906130d6565b602060405180830381865afa158015611c6e573d5f5f3e3d5ffd5b505050506040513d601f19601f82011682018060405250810190611c929190612e5d565b611caa565b611caa8b604001518c610120015161236a565b9050611cbb84828760016002612245565b608087015250939a9950505050505050505050565b5f5f5f5f85604001518660600151611ce891906130c3565b905085608001515f1480611cfe57506060850151155b15611d1957505f92508291506317ff0e0960e11b9050611955565b805f03611d50575f8660800151866060015111611d3a578560600151611d40565b86608001515b5f60e01b93509350935050611955565b5f5f5f611d668989602001518a6040015161245d565b92509250925080885f015110611d9057505f9550859450632f13551560e11b935061195592505050565b5f611da38286868d60800151878e6124b3565b91995097509050871580611db5575086155b15611dd557505f965086955063676a56f360e11b94506119559350505050565b50505050509250925092565b5f5f835f03611df457505f905080611e0d565b828411611e02575f84611e07565b828403835b90925090505b9250929050565b5f611e286001600160a01b0384168361258d565b905080515f14158015611e4c575080806020019051810190611e4a9190612f11565b155b15611e7557604051635274afe760e01b81526001600160a01b0384166004820152602401610b8e565b505050565b604080516001600160a01b038416602482015260448082018490528251808303909101815260649091019091526020810180516001600160e01b031663095ea7b360e01b179052611ecb848261259a565b610d39576040516001600160a01b0384811660248301525f6044830152611eff91869182169063095ea7b39060640161125b565b610d398482611e14565b5f5f5f611f17878786612637565b91509150815f03611f2c578792505050611f3d565b611f3888838388612692565b925050505b95945050505050565b600280546001600160a01b038381166001600160a01b0319831681179093556040519116919082907f8be0079c531659141344cd1fd0a4f28419497f9722a3daafe3b4186f6b6457e0905f90a35050565b5f5f5f85606001518660400151611fae91906130c3565b905080156120405785516001600160a01b0316611fcb578061203d565b85516040516313b0be3360e01b8152600481018390526001600160a01b038781166024830152909116906313b0be3390604401602060405180830381865afa158015612019573d5f5f3e3d5ffd5b505050506040513d601f19601f8201168201806040525081019061203d9190612e5d565b92505b6080860151156120e45760208601516001600160a01b03166120665785608001516120e1565b602086015160808701516040516313b0be3360e01b815260048101919091526001600160a01b038681166024830152909116906313b0be3390604401602060405180830381865afa1580156120bd573d5f5f3e3d5ffd5b505050506040513d601f19601f820116820180604052508101906120e19190612e5d565b91505b50935093915050565b5f61210383670de0b6b3a7640000846001612692565b9392505050565b5f5f5f5f61211a898888886126df565b91509150612129828b8b612705565b9350600284111561213f57600284039350612143565b5f93505b61214e818989612705565b92505050965096945050505050565b5f5f825f036121d75760405163dce5c2db60e01b81526001600160a01b03858116600483015286169063dce5c2db906024016040805180830381865afa1580156121a9573d5f5f3e3d5ffd5b505050506040513d601f19601f820116820180604052508101906121cd919061313a565b909250905061223d565b829150846001600160a01b03166318160ddd6040518163ffffffff1660e01b8152600401602060405180830381865afa158015612216573d5f5f3e3d5ffd5b505050506040513d601f19601f8201168201806040525081019061223a9190612e5d565b90505b935093915050565b5f5f5f612253878786612637565b91509150815f03612268578792505050611f3d565b611f3888828488612692565b6040516367efe7fd60e11b81526001600160a01b0385811660048301524260248301525f91829186169063cfdfcffa90604401602060405180830381865afa9250505080156122e0575060408051601f3d908101601f191682019092526122dd91810190612e5d565b60015b156122e85790505b5f5f876001600160a01b03166339c5c5056040518163ffffffff1660e01b81526004016040805180830381865afa158015612325573d5f5f3e3d5ffd5b505050506040513d601f19601f82011682018060405250810190612349919061313a565b9150915061235a828285898961273b565b50919a9950505050505050505050565b6040516367efe7fd60e11b81526001600160a01b0383811660048301524260248301525f91829184169063cfdfcffa90604401602060405180830381865afa9250505080156123d6575060408051601f3d908101601f191682019092526123d391810190612e5d565b60015b156123de5790505b60405163b6d821c760e01b8152612454906001600160a01b0386169063b6d821c79061240f906002906004016130d6565b602060405180830381865afa15801561242a573d5f5f3e3d5ffd5b505050506040513d601f19601f8201168201806040525081019061244e9190612e5d565b826127a1565b50949350505050565b5f5f5f61246b868686611f97565b90935091508215801561247c575081155b1561248e57505f9150819050806124aa565b825f0361249d57505f196124aa565b6124a782846120ed565b90505b93509350939050565b5f5f5f5f5f670de0b6b3a76400008b106124f257878660600151116124dc5785606001516124de565b875b93506124eb84888a612705565b9050612553565b5f612507888b8960a001518a608001516127e9565b905087810361251b57889450879150612551565b5f612527828b8b612705565b90508088606001511161253e578760600151612540565b805b955061254d868a8c612705565b9250505b505b612562818a88608001516128f2565b915061256f828b8b612705565b945061257d89888484612933565b9250505096509650969350505050565b606061210383835f61295d565b5f5f5f846001600160a01b0316846040516125b5919061315c565b5f604051808303815f865af19150503d805f81146125ee576040519150601f19603f3d011682016040523d82523d5f602084013e6125f3565b606091505b509150915081801561261d57508051158061261d57508080602001905181019061261d9190612f11565b8015611f3d5750505050506001600160a01b03163b151590565b5f5f835f03612644575f94505b600283600281111561265857612658612e74565b14612683576126696003600a61324d565b61267390856130c3565b61267e8660016130c3565b612686565b83855b90969095509350505050565b5f6126bf61269f836129f3565b80156126ba57505f84806126b5576126b5613258565b868809115b151590565b6126ca868686612a1f565b6126d491906130c3565b90505b949350505050565b5f5f6126ed858786866127e9565b90506126fa8187856128f2565b915094509492505050565b5f815f036127265760405163658c7bff60e11b815260040160405180910390fd5b81612731848661326c565b6126d79190613283565b5f5f5f5f61274988886127a1565b90935090508585016127648282670de0b6b3a7640000612adc565b92505f6127718484613296565b90505f61277f8c5f19613296565b90508181101561278d578091505b818c01965050505095509550955095915050565b5f808315806127ae575082155b156127bd57508290505f611e0d565b6127d08484670de0b6b3a7640000612adc565b9050808401915083821015611e0d575091925f92509050565b5f845f036127f857505f6126d7565b670de0b6b3a7640000821061280e57505f6126d7565b83851061281c5750836126d7565b825f0361282a5750836126d7565b5f612835858561326c565b9050612849670de0b6b3a76400008761326c565b955085811061285b575f9150506126d7565b670de0b6b3a764000080870496829003925083850281900485019081106128865786925050506126d7565b80670de0b6b3a764000003838161289f5761289f613258565b049250868311156128b45786925050506126d7565b670c7d713b49da0000876128d0670de0b6b3a76400008661326c565b6128da9190613283565b116128e557826128e7565b865b979650505050505050565b5f80670de0b6b3a7640000612907848761326c565b6129119190613283565b905061291d81866130c3565b91508382111561292b578391505b509392505050565b5f82851115806129435750818411155b1561294f57505f6126d7565b6126d4838603838603612b24565b6060814710156129895760405163cf47918160e01b815247600482015260248101839052604401610b8e565b5f5f856001600160a01b031684866040516129a4919061315c565b5f6040518083038185875af1925050503d805f81146129de576040519150601f19603f3d011682016040523d82523d5f602084013e6129e3565b606091505b509150915061146f868383612b43565b5f6002826003811115612a0857612a08612e74565b612a1291906132a9565b60ff166001149050919050565b5f838302815f1985870982811083820303915050805f03612a5357838281612a4957612a49613258565b0492505050612103565b808411612a7157612a718415612a6a576011612b9f565b6012612b9f565b5f848688095f868103871696879004966002600389028118808a02820302808a02820302808a02820302808a02820302808a02820302808a02909103029181900381900460010186841190950394909402919094039290920491909117919091029150509392505050565b5f835f03612aeb57505f612103565b5082820282848281612aff57612aff613258565b0414612b0c57505f612103565b818181612b1b57612b1b613258565b04949350505050565b5f612b37670de0b6b3a76400008361326c565b90506121038184612bb0565b606082612b5857612b5382612beb565b612103565b8151158015612b6f57506001600160a01b0384163b155b15612b9857604051639996b31560e01b81526001600160a01b0385166004820152602401610b8e565b5080612103565b634e487b715f52806020526024601cfd5b5f815f03612bc257612bc26012612b9f565b8215612be357816001840381612bda57612bda613258565b04600101612103565b505f92915050565b805115612bfb5780518082602001fd5b60405163d6bda27560e01b815260040160405180910390fd5b60408051610220810182525f80825260208201819052918101829052606081018290526080810182905260a0810182905260c0810182905260e08101829052610100810182905261012081018290526101408101829052610160810182905261018081018290526101a081018290526101c081018290526101e0810182905261020081019190915290565b6001600160a01b0381168114610ba0575f5ffd5b8015158114610ba0575f5ffd5b5f5f5f5f5f60a08688031215612cd4575f5ffd5b8535612cdf81612c9f565b94506020860135612cef81612c9f565b93506040860135612cff81612c9f565b9250606086013591506080860135612d1681612cb3565b809150509295509295909350565b5f5f60408385031215612d35575f5ffd5b8235612d4081612c9f565b91506020830135612d5081612c9f565b809150509250929050565b5f5f83601f840112612d6b575f5ffd5b50813567ffffffffffffffff811115612d82575f5ffd5b602083019150836020828501011115611e0d575f5ffd5b5f5f5f5f60608587031215612dac575f5ffd5b8435612db781612c9f565b935060208501359250604085013567ffffffffffffffff811115612dd9575f5ffd5b612de587828801612d5b565b95989497509550505050565b5f60208284031215612e01575f5ffd5b813561210381612c9f565b5f5f5f60408486031215612e1e575f5ffd5b8335612e2981612c9f565b9250602084013567ffffffffffffffff811115612e44575f5ffd5b612e5086828701612d5b565b9497909650939450505050565b5f60208284031215612e6d575f5ffd5b5051919050565b634e487b7160e01b5f52602160045260245ffd5b60028110612e9857612e98612e74565b9052565b828152604081016121036020830184612e88565b8481526001600160a01b0384811660208301528316604082015260808101611f3d6060830184612e88565b8051612ee681612c9f565b919050565b5f60208284031215612efb575f5ffd5b815161210381612c9f565b8051612ee681612cb3565b5f60208284031215612f21575f5ffd5b815161210381612cb3565b604051610220810167ffffffffffffffff81118282101715612f5c57634e487b7160e01b5f52604160045260245ffd5b60405290565b5f6102208284031215612f73575f5ffd5b612f7b612f2c565b82518152602080840151908201529050612f9760408301612edb565b6040820152612fa860608301612edb565b6060820152612fb960808301612edb565b6080820152612fca60a08301612edb565b60a0820152612fdb60c08301612edb565b60c0820152612fec60e08301612edb565b60e0820152612ffe6101008301612edb565b6101008201526130116101208301612edb565b6101208201526101408281015190820152610160808301519082015261018080830151908201526101a080830151908201526101c0808301519082015261305b6101e08301612edb565b6101e082015261306e6102008301612f06565b61020082015292915050565b5f5f610440838503121561308c575f5ffd5b6130968484612f62565b91506130a6846102208501612f62565b90509250929050565b634e487b7160e01b5f52601160045260245ffd5b808201808211156115a9576115a96130af565b60208101600383106130ea576130ea612e74565b91905290565b5f5f5f60608486031215613102575f5ffd5b835161310d81612c9f565b602085015190935061311e81612c9f565b604085015190925061312f81612c9f565b809150509250925092565b5f5f6040838503121561314b575f5ffd5b505080516020909101519092909150565b5f82518060208501845e5f920191825250919050565b6001815b600184111561223d57808504811115613191576131916130af565b600184161561319f57908102905b60019390931c928002613176565b5f826131bb575060016115a9565b816131c757505f6115a9565b81600181146131dd57600281146131e757613203565b60019150506115a9565b60ff8411156131f8576131f86130af565b50506001821b6115a9565b5060208310610133831016604e8410600b8410161715613226575081810a6115a9565b6132325f198484613172565b805f1904821115613245576132456130af565b029392505050565b5f61210383836131ad565b634e487b7160e01b5f52601260045260245ffd5b80820281158282048414176115a9576115a96130af565b5f8261329157613291613258565b500490565b818103818111156115a9576115a96130af565b5f60ff8316806132bb576132bb613258565b8060ff8416069150509291505056fea2646970667358221220e3234c0c2c06172efa578114ed35081aeaf186913da977fa508b46d623240c9a64736f6c634300081c0033",
  "language": "Solidity",
  "compiler": "0.8.28+commit.7893614a"
}