{
  "address": "0x2003c79f788B884fEC30994ed47a20a3841c9752",
  "abi": [
    {
      "inputs": [
        {
          "internalType": "contract ISilo",
          "name": "_silo",
          "type": "address"
        },
        {
          "internalType": "address",
          "name": "_borrower",
          "type": "address"
        }
      ],
      "name": "collateralBalanceOfUnderlying",
      "outputs": [
        {
          "internalType": "uint256",
          "name": "borrowerCollateral",
          "type": "uint256"
        }
      ],
      "stateMutability": "view",
      "type": "function"
    },
    {
      "inputs": [
        {
          "internalType": "contract ISilo",
          "name": "_silo",
          "type": "address"
        },
        {
          "internalType": "address",
          "name": "",
          "type": "address"
        },
        {
          "internalType": "address",
          "name": "_borrower",
          "type": "address"
        }
      ],
      "name": "collateralBalanceOfUnderlying",
      "outputs": [
        {
          "internalType": "uint256",
          "name": "borrowerCollateral",
          "type": "uint256"
        }
      ],
      "stateMutability": "view",
      "type": "function"
    },
    {
      "inputs": [
        {
          "internalType": "contract ISilo",
          "name": "_silo",
          "type": "address"
        },
        {
          "internalType": "address",
          "name": "",
          "type": "address"
        },
        {
          "internalType": "address",
          "name": "_borrower",
          "type": "address"
        }
      ],
      "name": "debtBalanceOfUnderlying",
      "outputs": [
        {
          "internalType": "uint256",
          "name": "",
          "type": "uint256"
        }
      ],
      "stateMutability": "view",
      "type": "function"
    },
    {
      "inputs": [
        {
          "internalType": "contract ISilo",
          "name": "_silo",
          "type": "address"
        },
        {
          "internalType": "address",
          "name": "_borrower",
          "type": "address"
        }
      ],
      "name": "debtBalanceOfUnderlying",
      "outputs": [
        {
          "internalType": "uint256",
          "name": "borrowerDebt",
          "type": "uint256"
        }
      ],
      "stateMutability": "view",
      "type": "function"
    },
    {
      "inputs": [
        {
          "internalType": "contract ISilo",
          "name": "_silo",
          "type": "address"
        }
      ],
      "name": "getBorrowAPR",
      "outputs": [
        {
          "internalType": "uint256",
          "name": "borrowAPR",
          "type": "uint256"
        }
      ],
      "stateMutability": "view",
      "type": "function"
    },
    {
      "inputs": [
        {
          "internalType": "contract ISilo",
          "name": "_silo",
          "type": "address"
        }
      ],
      "name": "getDepositAPR",
      "outputs": [
        {
          "internalType": "uint256",
          "name": "depositAPR",
          "type": "uint256"
        }
      ],
      "stateMutability": "view",
      "type": "function"
    },
    {
      "inputs": [
        {
          "internalType": "contract ISilo",
          "name": "_silo",
          "type": "address"
        }
      ],
      "name": "getFeesAndFeeReceivers",
      "outputs": [
        {
          "internalType": "address",
          "name": "daoFeeReceiver",
          "type": "address"
        },
        {
          "internalType": "address",
          "name": "deployerFeeReceiver",
          "type": "address"
        },
        {
          "internalType": "uint256",
          "name": "daoFee",
          "type": "uint256"
        },
        {
          "internalType": "uint256",
          "name": "deployerFee",
          "type": "uint256"
        }
      ],
      "stateMutability": "view",
      "type": "function"
    },
    {
      "inputs": [
        {
          "internalType": "contract ISilo",
          "name": "_silo",
          "type": "address"
        }
      ],
      "name": "getInterestRateModel",
      "outputs": [
        {
          "internalType": "address",
          "name": "irm",
          "type": "address"
        }
      ],
      "stateMutability": "view",
      "type": "function"
    },
    {
      "inputs": [
        {
          "internalType": "contract ISilo",
          "name": "_silo",
          "type": "address"
        }
      ],
      "name": "getLt",
      "outputs": [
        {
          "internalType": "uint256",
          "name": "lt",
          "type": "uint256"
        }
      ],
      "stateMutability": "view",
      "type": "function"
    },
    {
      "inputs": [
        {
          "internalType": "contract ISilo",
          "name": "_silo",
          "type": "address"
        },
        {
          "internalType": "address",
          "name": "_borrower",
          "type": "address"
        }
      ],
      "name": "getLtv",
      "outputs": [
        {
          "internalType": "uint256",
          "name": "ltv",
          "type": "uint256"
        }
      ],
      "stateMutability": "view",
      "type": "function"
    },
    {
      "inputs": [
        {
          "internalType": "contract ISilo",
          "name": "_silo",
          "type": "address"
        }
      ],
      "name": "getMaxLtv",
      "outputs": [
        {
          "internalType": "uint256",
          "name": "maxLtv",
          "type": "uint256"
        }
      ],
      "stateMutability": "view",
      "type": "function"
    },
    {
      "inputs": [
        {
          "internalType": "contract ISilo",
          "name": "_silo",
          "type": "address"
        }
      ],
      "name": "getRawLiquidity",
      "outputs": [
        {
          "internalType": "uint256",
          "name": "liquidity",
          "type": "uint256"
        }
      ],
      "stateMutability": "view",
      "type": "function"
    }
  ],
  "bytecode": "0x6080604052348015600e575f5ffd5b50611f748061001c5f395ff3fe608060405234801561000f575f5ffd5b50600436106100b0575f3560e01c80636c15c9ba1161006e5780636c15c9ba1461017c578063af82d2bc1461018f578063b003ec14146101a2578063d9bd0ea2146101b5578063f2a07bc9146101c8578063f5125d3f146101db575f5ffd5b8062e0f7a0146100b4578063249a6496146100da57806337febff4146101185780634f6a57b61461012b57806354a057711461013e578063647e0c2014610169575b5f5ffd5b6100c76100c2366004611a16565b6101ee565b6040519081526020015b60405180910390f35b6100ed6100e8366004611a16565b6101fe565b604080516001600160a01b0395861681529490931660208501529183015260608201526080016100d1565b6100c7610126366004611a16565b61021b565b6100c7610139366004611a16565b610225565b61015161014c366004611a16565b61022f565b6040516001600160a01b0390911681526020016100d1565b6100c7610177366004611a16565b610239565b6100c761018a366004611a31565b610243565b6100c761019d366004611a68565b610255565b6100c76101b0366004611a68565b6102c8565b6100c76101c3366004611a31565b6102d3565b6100c76101d6366004611a16565b61033e565b6100c76101e9366004611a31565b610348565b5f6101f882610353565b92915050565b5f5f5f5f61020b85610473565b5092989197509550909350915050565b5f6101f882610627565b5f6101f8826106fe565b5f6101f8826108f9565b5f6101f8826109d0565b5f61024e8383610aa7565b9392505050565b604051635f30114960e01b81526001600160a01b0382811660048301525f9190851690635f30114990602401602060405180830381865afa15801561029c573d5f5f3e3d5ffd5b505050506040513d601f19601f820116820180604052508101906102c09190611ab0565b949350505050565b5f6102c08483610aa7565b604051635f30114960e01b81526001600160a01b0382811660048301525f9190841690635f30114990602401602060405180830381865afa15801561031a573d5f5f3e3d5ffd5b505050506040513d601f19601f8201168201806040525081019061024e9190611ab0565b5f6101f882610d55565b5f61024e8383610e36565b5f5f826001600160a01b03166379502c556040518163ffffffff1660e01b8152600401602060405180830381865afa158015610391573d5f5f3e3d5ffd5b505050506040513d601f19601f820116820180604052508101906103b59190611ac7565b60405163e48a5f7b60e01b81526001600160a01b038581166004830152919091169063e48a5f7b9060240161022060405180830381865afa1580156103fc573d5f5f3e3d5ffd5b505050506040513d601f19601f820116820180604052508101906104209190611c4f565b61012001516040516364efe17760e01b81526001600160a01b038581166004830152426024830152919250908216906364efe17790604401602060405180830381865afa15801561031a573d5f5f3e3d5ffd5b5f5f5f5f5f856001600160a01b03166379502c556040518163ffffffff1660e01b8152600401602060405180830381865afa1580156104b4573d5f5f3e3d5ffd5b505050506040513d601f19601f820116820180604052508101906104d89190611ac7565b604051630509af0560e51b81526001600160a01b038881166004830152919091169063a135e0a090602401608060405180830381865afa15801561051e573d5f5f3e3d5ffd5b505050506040513d601f19601f820116820180604052508101906105429190611c6a565b9050809350819450829550505050856001600160a01b031663c45a01556040518163ffffffff1660e01b8152600401602060405180830381865afa15801561058c573d5f5f3e3d5ffd5b505050506040513d601f19601f820116820180604052508101906105b09190611ac7565b604051630c0d053960e11b81526001600160a01b038881166004830152919091169063181a0a72906024016040805180830381865afa1580156105f5573d5f5f3e3d5ffd5b505050506040513d601f19601f820116820180604052508101906106199190611caa565b909790965092945090925090565b5f816001600160a01b03166379502c556040518163ffffffff1660e01b8152600401602060405180830381865afa158015610664573d5f5f3e3d5ffd5b505050506040513d601f19601f820116820180604052508101906106889190611ac7565b60405163e48a5f7b60e01b81526001600160a01b038481166004830152919091169063e48a5f7b9060240161022060405180830381865afa1580156106cf573d5f5f3e3d5ffd5b505050506040513d601f19601f820116820180604052508101906106f39190611c4f565b610160015192915050565b5f5f826001600160a01b031663a1ff9bee6040518163ffffffff1660e01b8152600401602060405180830381865afa15801561073c573d5f5f3e3d5ffd5b505050506040513d601f19601f820116820180604052508101906107609190611ab0565b9050805f0361077157505f92915050565b5f836001600160a01b03166379502c556040518163ffffffff1660e01b8152600401602060405180830381865afa1580156107ae573d5f5f3e3d5ffd5b505050506040513d601f19601f820116820180604052508101906107d29190611ac7565b60405163e48a5f7b60e01b81526001600160a01b038681166004830152919091169063e48a5f7b9060240161022060405180830381865afa158015610819573d5f5f3e3d5ffd5b505050506040513d601f19601f8201168201806040525081019061083d9190611c4f565b905081846001600160a01b031663ecd658b46040518163ffffffff1660e01b8152600401602060405180830381865afa15801561087c573d5f5f3e3d5ffd5b505050506040513d601f19601f820116820180604052508101906108a09190611ab0565b6108a986610353565b6108b39190611ceb565b6108bd9190611d16565b60208201518251919450670de0b6b3a7640000916108db9083611d29565b6108e59190611d29565b6108ef9085611ceb565b6102c09190611d16565b5f816001600160a01b03166379502c556040518163ffffffff1660e01b8152600401602060405180830381865afa158015610936573d5f5f3e3d5ffd5b505050506040513d601f19601f8201168201806040525081019061095a9190611ac7565b60405163e48a5f7b60e01b81526001600160a01b038481166004830152919091169063e48a5f7b9060240161022060405180830381865afa1580156109a1573d5f5f3e3d5ffd5b505050506040513d601f19601f820116820180604052508101906109c59190611c4f565b610120015192915050565b5f816001600160a01b03166379502c556040518163ffffffff1660e01b8152600401602060405180830381865afa158015610a0d573d5f5f3e3d5ffd5b505050506040513d601f19601f82011682018060405250810190610a319190611ac7565b60405163e48a5f7b60e01b81526001600160a01b038481166004830152919091169063e48a5f7b9060240161022060405180830381865afa158015610a78573d5f5f3e3d5ffd5b505050506040513d601f19601f82011682018060405250810190610a9c9190611c4f565b610140015192915050565b5f5f5f846001600160a01b03166379502c556040518163ffffffff1660e01b8152600401602060405180830381865afa158015610ae6573d5f5f3e3d5ffd5b505050506040513d601f19601f82011682018060405250810190610b0a9190611ac7565b604051630483b24f60e41b81526001600160a01b038781166004830152919091169063483b24f090602401606060405180830381865afa158015610b50573d5f5f3e3d5ffd5b505050506040513d601f19601f82011682018060405250810190610b749190611d3c565b506040516370a0823160e01b81526001600160a01b0387811660048301529294509092505f918416906370a0823190602401602060405180830381865afa158015610bc1573d5f5f3e3d5ffd5b505050506040513d601f19601f82011682018060405250810190610be59190611ab0565b6040516370a0823160e01b81526001600160a01b0387811660048301529192505f918416906370a0823190602401602060405180830381865afa158015610c2e573d5f5f3e3d5ffd5b505050506040513d601f19601f82011682018060405250810190610c529190611ab0565b90508115610cca5760405163a7d6e44b60e01b81526001600160a01b0388169063a7d6e44b90610c889085905f90600401611d8f565b602060405180830381865afa158015610ca3573d5f5f3e3d5ffd5b505050506040513d601f19601f82011682018060405250810190610cc79190611ab0565b94505b8015610d4b5760405163a7d6e44b60e01b81526001600160a01b0388169063a7d6e44b90610cff908490600190600401611d8f565b602060405180830381865afa158015610d1a573d5f5f3e3d5ffd5b505050506040513d601f19601f82011682018060405250810190610d3e9190611ab0565b610d489086611db3565b94505b5050505092915050565b5f6101f8826001600160a01b031663b6d821c760016040518263ffffffff1660e01b8152600401610d869190611dc6565b602060405180830381865afa158015610da1573d5f5f3e3d5ffd5b505050506040513d601f19601f82011682018060405250810190610dc59190611ab0565b60405163b6d821c760e01b81526001600160a01b0385169063b6d821c790610df290600290600401611dc6565b602060405180830381865afa158015610e0d573d5f5f3e3d5ffd5b505050506040513d601f19601f82011682018060405250810190610e319190611ab0565b610fb3565b5f5f5f846001600160a01b03166379502c556040518163ffffffff1660e01b8152600401602060405180830381865afa158015610e75573d5f5f3e3d5ffd5b505050506040513d601f19601f82011682018060405250810190610e999190611ac7565b6040516394c0527d60e01b81526001600160a01b03868116600483015291909116906394c0527d9060240161044060405180830381865afa158015610ee0573d5f5f3e3d5ffd5b505050506040513d601f19601f82011682018060405250810190610f049190611de0565b604081015191935091506001600160a01b031615610fab57610fa88282865f60018660c001516001600160a01b03166370a082318b6040518263ffffffff1660e01b8152600401610f6491906001600160a01b0391909116815260200190565b602060405180830381865afa158015610f7f573d5f5f3e3d5ffd5b505050506040513d601f19601f82011682018060405250810190610fa39190611ab0565b610fcb565b92505b505092915050565b5f828211610fc35781830361024e565b5f9392505050565b5f815f03610fda57505f611018565b5f610fe9888888888888611022565b905080608001515f03610fff575f915050611018565b611012818960600151896060015161129f565b93505050505b9695505050505050565b6110616040518060a001604052805f6001600160a01b031681526020015f6001600160a01b031681526020015f81526020015f81526020015f81525090565b85606001516001600160a01b031687606001516001600160a01b0316146110cb57600184600181111561109657611096611d7b565b146110aa578660e001518660e001516110b7565b8661010001518661010001515b6001600160a01b0390811660208401521681525b5f5f6110dc8960800151885f6112f5565b80935081925050505f5f8a604001516001600160a01b031663ffbaaf7a6040518163ffffffff1660e01b81526004016040805180830381865afa158015611125573d5f5f3e3d5ffd5b505050506040513d601f19601f820116820180604052508101906111499190611e15565b9150915061115a8382865f5f6113dd565b604086015260a08b015161116f908a5f6112f5565b94509250600187600181111561118757611187611d7b565b1461119257816111ae565b6111ae8b604001518c61012001518d5f01518e6020015161141a565b91506111be8383865f60016113dd565b606086015260c08a01516111d3908a886112f5565b945092505f60018860018111156111ec576111ec611d7b565b14611266578a604001516001600160a01b031663b6d821c760026040518263ffffffff1660e01b81526004016112229190611dc6565b602060405180830381865afa15801561123d573d5f5f3e3d5ffd5b505050506040513d601f19601f820116820180604052508101906112619190611ab0565b611279565b6112798b604001518c6101200151611510565b905061128a848287600160026113dd565b608087015250939a9950505050505050505050565b5f5f5f6112ad868686611603565b9093509150821580156112be575081155b156112d057505f9150819050806112ec565b825f036112df57505f196112ec565b6112e98284611759565b90505b93509350939050565b5f5f825f0361136f5760405163dce5c2db60e01b81526001600160a01b03858116600483015286169063dce5c2db906024016040805180830381865afa158015611341573d5f5f3e3d5ffd5b505050506040513d601f19601f820116820180604052508101906113659190611e15565b90925090506113d5565b829150846001600160a01b03166318160ddd6040518163ffffffff1660e01b8152600401602060405180830381865afa1580156113ae573d5f5f3e3d5ffd5b505050506040513d601f19601f820116820180604052508101906113d29190611ab0565b90505b935093915050565b5f5f5f6113eb87878661176f565b91509150815f03611400578792505050611411565b61140c888284886117ca565b925050505b95945050505050565b6040516367efe7fd60e11b81526001600160a01b0385811660048301524260248301525f91829186169063cfdfcffa90604401602060405180830381865afa925050508015611486575060408051601f3d908101601f1916820190925261148391810190611ab0565b60015b1561148e5790505b5f5f876001600160a01b03166339c5c5056040518163ffffffff1660e01b81526004016040805180830381865afa1580156114cb573d5f5f3e3d5ffd5b505050506040513d601f19601f820116820180604052508101906114ef9190611e15565b91509150611500828285898961180c565b50919a9950505050505050505050565b6040516367efe7fd60e11b81526001600160a01b0383811660048301524260248301525f91829184169063cfdfcffa90604401602060405180830381865afa92505050801561157c575060408051601f3d908101601f1916820190925261157991810190611ab0565b60015b156115845790505b60405163b6d821c760e01b81526115fa906001600160a01b0386169063b6d821c7906115b590600290600401611dc6565b602060405180830381865afa1580156115d0573d5f5f3e3d5ffd5b505050506040513d601f19601f820116820180604052508101906115f49190611ab0565b82611872565b50949350505050565b5f5f5f8560600151866040015161161a9190611db3565b905080156116ac5785516001600160a01b031661163757806116a9565b85516040516313b0be3360e01b8152600481018390526001600160a01b038781166024830152909116906313b0be3390604401602060405180830381865afa158015611685573d5f5f3e3d5ffd5b505050506040513d601f19601f820116820180604052508101906116a99190611ab0565b92505b6080860151156117505760208601516001600160a01b03166116d257856080015161174d565b602086015160808701516040516313b0be3360e01b815260048101919091526001600160a01b038681166024830152909116906313b0be3390604401602060405180830381865afa158015611729573d5f5f3e3d5ffd5b505050506040513d601f19601f8201168201806040525081019061174d9190611ab0565b91505b50935093915050565b5f61024e83670de0b6b3a76400008460016117ca565b5f5f835f0361177c575f94505b600283600281111561179057611790611d7b565b146117bb576117a16003600a611f12565b6117ab9085611db3565b6117b6866001611db3565b6117be565b83855b90969095509350505050565b5f6117f76117d7836118bd565b80156117f257505f84806117ed576117ed611d02565b868809115b151590565b6118028686866118e9565b6114119190611db3565b5f5f5f5f61181a8888611872565b90935090508585016118358282670de0b6b3a76400006119a6565b92505f6118428484611d29565b90505f6118508c5f19611d29565b90508181101561185e578091505b818c01965050505095509550955095915050565b5f8083158061187f575082155b1561188e57508290505f6118b6565b6118a18484670de0b6b3a76400006119a6565b90508084019150838210156118b657508290505f5b9250929050565b5f60028260038111156118d2576118d2611d7b565b6118dc9190611f1d565b60ff166001149050919050565b5f838302815f1985870982811083820303915050805f0361191d5783828161191357611913611d02565b049250505061024e565b80841161193b5761193b84156119345760116119ee565b60126119ee565b5f848688095f868103871696879004966002600389028118808a02820302808a02820302808a02820302808a02820302808a02820302808a02909103029181900381900460010186841190950394909402919094039290920491909117919091029150509392505050565b5f835f036119b557505f61024e565b50828202828482816119c9576119c9611d02565b04146119d657505f61024e565b8181816119e5576119e5611d02565b04949350505050565b634e487b715f52806020526024601cfd5b6001600160a01b0381168114611a13575f5ffd5b50565b5f60208284031215611a26575f5ffd5b813561024e816119ff565b5f5f60408385031215611a42575f5ffd5b8235611a4d816119ff565b91506020830135611a5d816119ff565b809150509250929050565b5f5f5f60608486031215611a7a575f5ffd5b8335611a85816119ff565b92506020840135611a95816119ff565b91506040840135611aa5816119ff565b809150509250925092565b5f60208284031215611ac0575f5ffd5b5051919050565b5f60208284031215611ad7575f5ffd5b815161024e816119ff565b604051610220810167ffffffffffffffff81118282101715611b1257634e487b7160e01b5f52604160045260245ffd5b60405290565b8051611b23816119ff565b919050565b80518015158114611b23575f5ffd5b5f6102208284031215611b48575f5ffd5b611b50611ae2565b82518152602080840151908201529050611b6c60408301611b18565b6040820152611b7d60608301611b18565b6060820152611b8e60808301611b18565b6080820152611b9f60a08301611b18565b60a0820152611bb060c08301611b18565b60c0820152611bc160e08301611b18565b60e0820152611bd36101008301611b18565b610100820152611be66101208301611b18565b6101208201526101408281015190820152610160808301519082015261018080830151908201526101a080830151908201526101c08083015190820152611c306101e08301611b18565b6101e0820152611c436102008301611b28565b61020082015292915050565b5f6102208284031215611c60575f5ffd5b61024e8383611b37565b5f5f5f5f60808587031215611c7d575f5ffd5b84516020860151604087015160608801519296509094509250611c9f816119ff565b939692955090935050565b5f5f60408385031215611cbb575f5ffd5b8251611cc6816119ff565b6020840151909250611a5d816119ff565b634e487b7160e01b5f52601160045260245ffd5b80820281158282048414176101f8576101f8611cd7565b634e487b7160e01b5f52601260045260245ffd5b5f82611d2457611d24611d02565b500490565b818103818111156101f8576101f8611cd7565b5f5f5f60608486031215611d4e575f5ffd5b8351611d59816119ff565b6020850151909350611d6a816119ff565b6040850151909250611aa5816119ff565b634e487b7160e01b5f52602160045260245ffd5b8281526040810160028310611da657611da6611d7b565b8260208301529392505050565b808201808211156101f8576101f8611cd7565b6020810160038310611dda57611dda611d7b565b91905290565b5f5f6104408385031215611df2575f5ffd5b611dfc8484611b37565b9150611e0c846102208501611b37565b90509250929050565b5f5f60408385031215611e26575f5ffd5b505080516020909101519092909150565b6001815b60018411156113d557808504811115611e5657611e56611cd7565b6001841615611e6457908102905b60019390931c928002611e3b565b5f82611e80575060016101f8565b81611e8c57505f6101f8565b8160018114611ea25760028114611eac57611ec8565b60019150506101f8565b60ff841115611ebd57611ebd611cd7565b50506001821b6101f8565b5060208310610133831016604e8410600b8410161715611eeb575081810a6101f8565b611ef75f198484611e37565b805f1904821115611f0a57611f0a611cd7565b029392505050565b5f61024e8383611e72565b5f60ff831680611f2f57611f2f611d02565b8060ff8416069150509291505056fea264697066735822122037c9a3ad3deab9dd7092323848a2276fb6d081fed4037070669556c7d26c147a64736f6c634300081c0033",
  "language": "Solidity",
  "compiler": "0.8.28+commit.7893614a"
}