{
  "address": "0x96C3172087BD6C935132013E2e7958C1CC12EFB9",
  "abi": [
    {
      "inputs": [
        {
          "internalType": "address",
          "name": "_wrappedNativeToken",
          "type": "address"
        }
      ],
      "stateMutability": "nonpayable",
      "type": "constructor"
    },
    {
      "stateMutability": "payable",
      "type": "receive"
    },
    {
      "inputs": [],
      "name": "WRAPPED_NATIVE_TOKEN",
      "outputs": [
        {
          "internalType": "contract IWrappedNativeToken",
          "name": "",
          "type": "address"
        }
      ],
      "stateMutability": "view",
      "type": "function"
    },
    {
      "inputs": [
        {
          "components": [
            {
              "internalType": "enum SiloRouter.ActionType",
              "name": "actionType",
              "type": "uint8"
            },
            {
              "internalType": "contract ISilo",
              "name": "silo",
              "type": "address"
            },
            {
              "internalType": "contract IERC20",
              "name": "asset",
              "type": "address"
            },
            {
              "internalType": "bytes",
              "name": "options",
              "type": "bytes"
            }
          ],
          "internalType": "struct SiloRouter.Action[]",
          "name": "_actions",
          "type": "tuple[]"
        }
      ],
      "name": "execute",
      "outputs": [],
      "stateMutability": "payable",
      "type": "function"
    },
    {
      "inputs": [
        {
          "internalType": "address",
          "name": "target",
          "type": "address"
        }
      ],
      "name": "AddressEmptyCode",
      "type": "error"
    },
    {
      "inputs": [],
      "name": "ApprovalFailed",
      "type": "error"
    },
    {
      "inputs": [],
      "name": "ERC20TransferFailed",
      "type": "error"
    },
    {
      "inputs": [],
      "name": "EthTransferFailed",
      "type": "error"
    },
    {
      "inputs": [],
      "name": "FailedCall",
      "type": "error"
    },
    {
      "inputs": [
        {
          "internalType": "uint256",
          "name": "balance",
          "type": "uint256"
        },
        {
          "internalType": "uint256",
          "name": "needed",
          "type": "uint256"
        }
      ],
      "name": "InsufficientBalance",
      "type": "error"
    },
    {
      "inputs": [],
      "name": "InvalidSilo",
      "type": "error"
    },
    {
      "inputs": [
        {
          "internalType": "address",
          "name": "token",
          "type": "address"
        }
      ],
      "name": "SafeERC20FailedOperation",
      "type": "error"
    },
    {
      "inputs": [],
      "name": "TokenIsNotAContract",
      "type": "error"
    }
  ],
  "bytecode": "0x60a060405234801561000f575f5ffd5b5060405161117638038061117683398101604081905261002e9161016f565b61003781610049565b506001600160a01b03166080526101d2565b6040805160048152602481019091526020810180516001600160e01b0390811663313ce56760e01b179091525f9182918291610088918691906100b916565b915091508161009a57505f9392505050565b808060200190518101906100ae919061019c565b60ff16949350505050565b5f60606001600160a01b0384163b6100e4576040516373d39f9d60e01b815260040160405180910390fd5b5f5f856001600160a01b0316856040516100fe91906101bc565b5f60405180830381855afa9150503d805f8114610136576040519150601f19603f3d011682016040523d82523d5f602084013e61013b565b606091505b509150915081610160575f60405180602001604052805f815250935093505050610168565b600193509150505b9250929050565b5f6020828403121561017f575f5ffd5b81516001600160a01b0381168114610195575f5ffd5b9392505050565b5f602082840312156101ac575f5ffd5b815160ff81168114610195575f5ffd5b5f82518060208501845e5f920191825250919050565b608051610f716102055f395f81816047015281816106bb0152818161070801528181610a3f0152610a7a0152610f715ff3fe60806040526004361061002b575f3560e01c80631b3f8c5e14610036578063c3cd3eda14610085575f5ffd5b3661003257005b5f5ffd5b348015610041575f5ffd5b506100697f000000000000000000000000000000000000000000000000000000000000000081565b6040516001600160a01b03909116815260200160405180910390f35b610098610093366004610cdd565b61009a565b005b805f5b818110156100d9576100d18484838181106100ba576100ba610d4e565b90506020028101906100cc9190610d62565b610222565b60010161009d565b505f5b818110156101a1575f8484838181106100f7576100f7610d4e565b90506020028101906101099190610d62565b61011a906060810190604001610d94565b6040516370a0823160e01b81523060048201529091505f906001600160a01b038316906370a0823190602401602060405180830381865afa158015610161573d5f5f3e3d5ffd5b505050506040513d601f19601f820116820180604052508101906101859190610daf565b905080156101975761019782826106b9565b50506001016100dc565b5034158015906101b057504715155b1561021d576040515f90339047908381818185875af1925050503d805f81146101f4576040519150601f19603f3d011682016040523d82523d5f602084013e6101f9565b606091505b505090508061021b57604051630db2c7f160e31b815260040160405180910390fd5b505b505050565b5f6102306020830183610dda565b600381111561024157610241610dc6565b0361032d575f6102546060830183610df8565b8101906102619190610e42565b905061027d6102766060840160408501610d94565b82516107e5565b6102a76102906060840160408501610d94565b6102a06040850160208601610d94565b8351610878565b6102b76040830160208401610d94565b6001600160a01b031663b7ec8d4b825f01513384602001516040518463ffffffff1660e01b81526004016102ed93929190610ea7565b6020604051808303815f875af1158015610309573d5f5f3e3d5ffd5b505050506040513d601f19601f8201168201806040525081019061021d9190610daf565b600161033c6020830183610dda565b600381111561034d5761034d610dc6565b036104bb575f6103606060830183610df8565b81019061036d9190610e42565b90505f6103806040840160208501610d94565b825160405163b3d7f6b960e01b81526001600160a01b03929092169163b3d7f6b9916103b29160040190815260200190565b602060405180830381865afa1580156103cd573d5f5f3e3d5ffd5b505050506040513d601f19601f820116820180604052508101906103f19190610daf565b905061040c6104066060850160408601610d94565b826107e5565b61043561041f6060850160408601610d94565b61042f6040860160208701610d94565b83610878565b6104456040840160208501610d94565b6001600160a01b031663c061ddc7835f01513385602001516040518463ffffffff1660e01b815260040161047b93929190610ea7565b6020604051808303815f875af1158015610497573d5f5f3e3d5ffd5b505050506040513d601f19601f8201168201806040525081019061021b9190610daf565b60026104ca6020830183610dda565b60038111156104db576104db610dc6565b0361056b575f6104ee6060830183610df8565b8101906104fb9190610e42565b90506105106102766060840160408501610d94565b6105236102906060840160408501610d94565b6105336040830160208401610d94565b815160405163acb7081560e01b815260048101919091523360248201526001600160a01b03919091169063acb70815906044016102ed565b600361057a6020830183610dda565b600381111561058b5761058b610dc6565b036106b6575f61059e6060830183610df8565b8101906105ab9190610e42565b90505f6105be6040840160208501610d94565b825160405163e72bec5760e01b81526001600160a01b03929092169163e72bec57916105f09160040190815260200190565b602060405180830381865afa15801561060b573d5f5f3e3d5ffd5b505050506040513d601f19601f8201168201806040525081019061062f9190610daf565b90506106446104066060850160408601610d94565b61065761041f6060850160408601610d94565b6106676040840160208501610d94565b825160405163e36754eb60e01b815260048101919091523360248201526001600160a01b03919091169063e36754eb906044016020604051808303815f875af1158015610497573d5f5f3e3d5ffd5b50565b7f00000000000000000000000000000000000000000000000000000000000000006001600160a01b0316826001600160a01b0316036107cd57604051632e1a7d4d60e01b8152600481018290527f00000000000000000000000000000000000000000000000000000000000000006001600160a01b031690632e1a7d4d906024015f604051808303815f87803b158015610751575f5ffd5b505af1158015610763573d5f5f3e3d5ffd5b50506040515f925033915083908381818185875af1925050503d805f81146107a6576040519150601f19603f3d011682016040523d82523d5f602084013e6107ab565b606091505b505090508061021d57604051633c9fd93960e21b815260040160405180910390fd5b6107e16001600160a01b03831633836109d4565b5050565b6040516370a0823160e01b81523060048201525f906001600160a01b038416906370a0823190602401602060405180830381865afa158015610829573d5f5f3e3d5ffd5b505050506040513d601f19601f8201168201806040525081019061084d9190610daf565b905081811061085c575f610866565b6108668183610ee7565b9150811561021d5761021d8383610a33565b604051636eb1769f60e11b81523060048201526001600160a01b03838116602483015282919085169063dd62ed3e90604401602060405180830381865afa1580156108c5573d5f5f3e3d5ffd5b505050506040513d601f19601f820116820180604052508101906108e99190610daf565b101561021d576040516001600160a01b0383811660248301525f1960448301525f91829186169060640160408051601f198184030181529181526020820180516001600160e01b031663095ea7b360e01b179052516109489190610f06565b5f604051808303815f865af19150503d805f8114610981576040519150601f19603f3d011682016040523d82523d5f602084013e610986565b606091505b50915091508180156109b05750805115806109b05750808060200190518101906109b09190610f1c565b6109cd576040516340b27c2160e11b815260040160405180910390fd5b5050505050565b6040516001600160a01b0383811660248301526044820183905261021d91859182169063a9059cbb906064015b604051602081830303815290604052915060e01b6020820180516001600160e01b038381831617835250505050610b01565b3415801590610a7357507f00000000000000000000000000000000000000000000000000000000000000006001600160a01b0316826001600160a01b0316145b15610aec577f00000000000000000000000000000000000000000000000000000000000000006001600160a01b031663d0e30db0826040518263ffffffff1660e01b81526004015f604051808303818588803b158015610ad1575f5ffd5b505af1158015610ae3573d5f5f3e3d5ffd5b50505050505050565b6107e16001600160a01b038316333084610b67565b5f610b156001600160a01b03841683610ba0565b905080515f14158015610b39575080806020019051810190610b379190610f1c565b155b1561021d57604051635274afe760e01b81526001600160a01b03841660048201526024015b60405180910390fd5b6040516001600160a01b03848116602483015283811660448301526064820183905261021b9186918216906323b872dd90608401610a01565b6060610bad83835f610bb6565b90505b92915050565b606081471015610be25760405163cf47918160e01b815247600482015260248101839052604401610b5e565b5f5f856001600160a01b03168486604051610bfd9190610f06565b5f6040518083038185875af1925050503d805f8114610c37576040519150601f19603f3d011682016040523d82523d5f602084013e610c3c565b606091505b5091509150610c4c868383610c58565b925050505b9392505050565b606082610c6d57610c6882610cb4565b610c51565b8151158015610c8457506001600160a01b0384163b155b15610cad57604051639996b31560e01b81526001600160a01b0385166004820152602401610b5e565b5080610c51565b805115610cc45780518082602001fd5b60405163d6bda27560e01b815260040160405180910390fd5b5f5f60208385031215610cee575f5ffd5b823567ffffffffffffffff811115610d04575f5ffd5b8301601f81018513610d14575f5ffd5b803567ffffffffffffffff811115610d2a575f5ffd5b8560208260051b8401011115610d3e575f5ffd5b6020919091019590945092505050565b634e487b7160e01b5f52603260045260245ffd5b5f8235607e19833603018112610d76575f5ffd5b9190910192915050565b6001600160a01b03811681146106b6575f5ffd5b5f60208284031215610da4575f5ffd5b8135610c5181610d80565b5f60208284031215610dbf575f5ffd5b5051919050565b634e487b7160e01b5f52602160045260245ffd5b5f60208284031215610dea575f5ffd5b813560048110610c51575f5ffd5b5f5f8335601e19843603018112610e0d575f5ffd5b83018035915067ffffffffffffffff821115610e27575f5ffd5b602001915036819003821315610e3b575f5ffd5b9250929050565b5f6040828403128015610e53575f5ffd5b506040805190810167ffffffffffffffff81118282101715610e8357634e487b7160e01b5f52604160045260245ffd5b60405282358152602083013560028110610e9b575f5ffd5b60208201529392505050565b8381526001600160a01b03831660208201526060810160028310610ed957634e487b7160e01b5f52602160045260245ffd5b826040830152949350505050565b81810381811115610bb057634e487b7160e01b5f52601160045260245ffd5b5f82518060208501845e5f920191825250919050565b5f60208284031215610f2c575f5ffd5b81518015158114610c51575f5ffdfea264697066735822122066d41940239447d01b1f5847daa991c68dd66eca6c442e2b096bbfb1e609d05164736f6c634300081c0033",
  "language": "Solidity",
  "compiler": "0.8.28+commit.7893614a"
}