{
  "address": "0x2736DFDa36766580a053DcaC91b662336C125Edb",
  "abi": [
    {
      "inputs": [],
      "stateMutability": "nonpayable",
      "type": "constructor"
    },
    {
      "inputs": [
        {
          "internalType": "string",
          "name": "_key",
          "type": "string"
        }
      ],
      "name": "coordinates",
      "outputs": [
        {
          "internalType": "address",
          "name": "",
          "type": "address"
        }
      ],
      "stateMutability": "view",
      "type": "function"
    },
    {
      "inputs": [
        {
          "internalType": "string",
          "name": "_key",
          "type": "string"
        }
      ],
      "name": "makeKey",
      "outputs": [
        {
          "internalType": "bytes32",
          "name": "",
          "type": "bytes32"
        }
      ],
      "stateMutability": "pure",
      "type": "function"
    },
    {
      "inputs": [],
      "name": "owner",
      "outputs": [
        {
          "internalType": "address",
          "name": "",
          "type": "address"
        }
      ],
      "stateMutability": "view",
      "type": "function"
    },
    {
      "inputs": [
        {
          "internalType": "bytes32",
          "name": "_key",
          "type": "bytes32"
        }
      ],
      "name": "rawCoordinates",
      "outputs": [
        {
          "internalType": "address",
          "name": "",
          "type": "address"
        }
      ],
      "stateMutability": "view",
      "type": "function"
    },
    {
      "inputs": [
        {
          "internalType": "string",
          "name": "_key",
          "type": "string"
        },
        {
          "internalType": "address",
          "name": "_contract",
          "type": "address"
        }
      ],
      "name": "register",
      "outputs": [],
      "stateMutability": "nonpayable",
      "type": "function"
    },
    {
      "inputs": [],
      "name": "renounceOwnership",
      "outputs": [],
      "stateMutability": "nonpayable",
      "type": "function"
    },
    {
      "inputs": [
        {
          "internalType": "address",
          "name": "newOwner",
          "type": "address"
        }
      ],
      "name": "transferOwnership",
      "outputs": [],
      "stateMutability": "nonpayable",
      "type": "function"
    },
    {
      "inputs": [
        {
          "internalType": "string",
          "name": "_key",
          "type": "string"
        }
      ],
      "name": "unregister",
      "outputs": [],
      "stateMutability": "nonpayable",
      "type": "function"
    },
    {
      "inputs": [
        {
          "internalType": "string",
          "name": "_key",
          "type": "string"
        },
        {
          "internalType": "address",
          "name": "_contract",
          "type": "address"
        }
      ],
      "name": "update",
      "outputs": [],
      "stateMutability": "nonpayable",
      "type": "function"
    },
    {
      "anonymous": false,
      "inputs": [
        {
          "indexed": false,
          "internalType": "string",
          "name": "key",
          "type": "string"
        },
        {
          "indexed": true,
          "internalType": "address",
          "name": "newContract",
          "type": "address"
        }
      ],
      "name": "NewCoordinates",
      "type": "event"
    },
    {
      "anonymous": false,
      "inputs": [
        {
          "indexed": true,
          "internalType": "address",
          "name": "previousOwner",
          "type": "address"
        },
        {
          "indexed": true,
          "internalType": "address",
          "name": "newOwner",
          "type": "address"
        }
      ],
      "name": "OwnershipTransferred",
      "type": "event"
    },
    {
      "anonymous": false,
      "inputs": [
        {
          "indexed": false,
          "internalType": "string",
          "name": "key",
          "type": "string"
        }
      ],
      "name": "RemovedCoordinates",
      "type": "event"
    },
    {
      "anonymous": false,
      "inputs": [
        {
          "indexed": false,
          "internalType": "string",
          "name": "key",
          "type": "string"
        },
        {
          "indexed": true,
          "internalType": "address",
          "name": "newContract",
          "type": "address"
        }
      ],
      "name": "UpdateCoordinates",
      "type": "event"
    },
    {
      "inputs": [],
      "name": "AddressZero",
      "type": "error"
    },
    {
      "inputs": [],
      "name": "EmptyCoordinates",
      "type": "error"
    },
    {
      "inputs": [],
      "name": "KeyIsTaken",
      "type": "error"
    },
    {
      "inputs": [
        {
          "internalType": "address",
          "name": "owner",
          "type": "address"
        }
      ],
      "name": "OwnableInvalidOwner",
      "type": "error"
    },
    {
      "inputs": [
        {
          "internalType": "address",
          "name": "account",
          "type": "address"
        }
      ],
      "name": "OwnableUnauthorizedAccount",
      "type": "error"
    }
  ],
  "bytecode": "0x6080604052348015600e575f5ffd5b503380603357604051631e4fbdf760e01b81525f600482015260240160405180910390fd5b603a81603f565b50608e565b5f80546001600160a01b038381166001600160a01b0319831681178455604051919092169283917f8be0079c531659141344cd1fd0a4f28419497f9722a3daafe3b4186f6b6457e09190a35050565b6106848061009b5f395ff3fe608060405234801561000f575f5ffd5b5060043610610090575f3560e01c806388ecdb2f1161006357806388ecdb2f146100d75780638da5cb5b146100fd578063e94368b314610121578063f2fde38b14610149578063fe2cbfa81461015c575f5ffd5b80631e59c529146100945780632cff89c9146100a95780636598a1ae146100bc578063715018a6146100cf575b5f5ffd5b6100a76100a236600461054b565b61016f565b005b6100a76100b736600461054b565b61024b565b6100a76100ca36600461059b565b610318565b6100a76103bb565b6100ea6100e536600461059b565b6103ce565b6040519081526020015b60405180910390f35b5f546001600160a01b03165b6040516001600160a01b0390911681526020016100f4565b61010961012f3660046105da565b5f908152600160205260409020546001600160a01b031690565b6100a76101573660046105f1565b610400565b61010961016a36600461059b565b610442565b610177610470565b5f61018284846103ce565b5f818152600160205260409020549091506001600160a01b0316156101ba5760405163070ee79760e31b815260040160405180910390fd5b6001600160a01b0382166101e157604051639fabe1c160e01b815260040160405180910390fd5b5f818152600160205260409081902080546001600160a01b0319166001600160a01b03851690811790915590517f5327935b8796b9614e833d16c9e90ccb2b33e41e5181f8af0308fba0373c1caf9061023d9087908790610611565b60405180910390a250505050565b610253610470565b5f61025e84846103ce565b5f818152600160205260409020549091506001600160a01b03166102955760405163513cc0b960e01b815260040160405180910390fd5b6001600160a01b0382166102bc57604051639fabe1c160e01b815260040160405180910390fd5b5f818152600160205260409081902080546001600160a01b0319166001600160a01b03851690811790915590517faa96e0e6f7c38ef3ea5679180dc8034becfee398a6d177ee2c175663f96340e69061023d9087908790610611565b610320610470565b5f61032b83836103ce565b5f818152600160205260409020549091506001600160a01b03166103625760405163513cc0b960e01b815260040160405180910390fd5b5f818152600160205260409081902080546001600160a01b0319169055517efa112e0c05e3b86d5a0cfa46bcc87ad949adcbc84a5d02e510c236f19e2140906103ae9085908590610611565b60405180910390a1505050565b6103c3610470565b6103cc5f61049c565b565b5f82826040516020016103e292919061063f565b60405160208183030381529060405280519060200120905092915050565b610408610470565b6001600160a01b03811661043657604051631e4fbdf760e01b81525f60048201526024015b60405180910390fd5b61043f8161049c565b50565b5f60015f61045085856103ce565b815260208101919091526040015f20546001600160a01b03169392505050565b5f546001600160a01b031633146103cc5760405163118cdaa760e01b815233600482015260240161042d565b5f80546001600160a01b038381166001600160a01b0319831681178455604051919092169283917f8be0079c531659141344cd1fd0a4f28419497f9722a3daafe3b4186f6b6457e09190a35050565b5f5f83601f8401126104fb575f5ffd5b50813567ffffffffffffffff811115610512575f5ffd5b602083019150836020828501011115610529575f5ffd5b9250929050565b80356001600160a01b0381168114610546575f5ffd5b919050565b5f5f5f6040848603121561055d575f5ffd5b833567ffffffffffffffff811115610573575f5ffd5b61057f868287016104eb565b9094509250610592905060208501610530565b90509250925092565b5f5f602083850312156105ac575f5ffd5b823567ffffffffffffffff8111156105c2575f5ffd5b6105ce858286016104eb565b90969095509350505050565b5f602082840312156105ea575f5ffd5b5035919050565b5f60208284031215610601575f5ffd5b61060a82610530565b9392505050565b60208152816020820152818360408301375f818301604090810191909152601f909201601f19160101919050565b818382375f910190815291905056fea26469706673582212201bd3c2e024f4c09567c10868999341683d04bba17e6a75729572066a862b06e564736f6c634300081c0033",
  "language": "Solidity",
  "compiler": "0.8.28+commit.7893614a"
}