{
  "address": "0x1781452eD27BbA7fA8932b2D839F244FaCd23a27",
  "abi": [
    {
      "inputs": [],
      "stateMutability": "nonpayable",
      "type": "constructor"
    },
    {
      "inputs": [],
      "name": "ORACLE_IMPLEMENTATION",
      "outputs": [
        {
          "internalType": "address",
          "name": "",
          "type": "address"
        }
      ],
      "stateMutability": "view",
      "type": "function"
    },
    {
      "inputs": [
        {
          "components": [
            {
              "internalType": "contract IERC20Metadata",
              "name": "baseToken",
              "type": "address"
            },
            {
              "internalType": "contract IERC20Metadata",
              "name": "quoteToken",
              "type": "address"
            },
            {
              "internalType": "contract AggregatorV3Interface",
              "name": "primaryAggregator",
              "type": "address"
            },
            {
              "internalType": "uint32",
              "name": "primaryHeartbeat",
              "type": "uint32"
            },
            {
              "internalType": "contract AggregatorV3Interface",
              "name": "secondaryAggregator",
              "type": "address"
            },
            {
              "internalType": "uint32",
              "name": "secondaryHeartbeat",
              "type": "uint32"
            }
          ],
          "internalType": "struct IChainlinkV3Oracle.ChainlinkV3DeploymentConfig",
          "name": "_config",
          "type": "tuple"
        }
      ],
      "name": "create",
      "outputs": [
        {
          "internalType": "contract ChainlinkV3Oracle",
          "name": "oracle",
          "type": "address"
        }
      ],
      "stateMutability": "nonpayable",
      "type": "function"
    },
    {
      "inputs": [
        {
          "internalType": "bytes32",
          "name": "",
          "type": "bytes32"
        }
      ],
      "name": "getConfigAddress",
      "outputs": [
        {
          "internalType": "address",
          "name": "",
          "type": "address"
        }
      ],
      "stateMutability": "view",
      "type": "function"
    },
    {
      "inputs": [
        {
          "internalType": "address",
          "name": "",
          "type": "address"
        }
      ],
      "name": "getOracleAddress",
      "outputs": [
        {
          "internalType": "address",
          "name": "",
          "type": "address"
        }
      ],
      "stateMutability": "view",
      "type": "function"
    },
    {
      "inputs": [
        {
          "components": [
            {
              "internalType": "contract IERC20Metadata",
              "name": "baseToken",
              "type": "address"
            },
            {
              "internalType": "contract IERC20Metadata",
              "name": "quoteToken",
              "type": "address"
            },
            {
              "internalType": "contract AggregatorV3Interface",
              "name": "primaryAggregator",
              "type": "address"
            },
            {
              "internalType": "uint32",
              "name": "primaryHeartbeat",
              "type": "uint32"
            },
            {
              "internalType": "contract AggregatorV3Interface",
              "name": "secondaryAggregator",
              "type": "address"
            },
            {
              "internalType": "uint32",
              "name": "secondaryHeartbeat",
              "type": "uint32"
            }
          ],
          "internalType": "struct IChainlinkV3Oracle.ChainlinkV3DeploymentConfig",
          "name": "_config",
          "type": "tuple"
        }
      ],
      "name": "hashConfig",
      "outputs": [
        {
          "internalType": "bytes32",
          "name": "configId",
          "type": "bytes32"
        }
      ],
      "stateMutability": "view",
      "type": "function"
    },
    {
      "inputs": [
        {
          "components": [
            {
              "internalType": "contract IERC20Metadata",
              "name": "baseToken",
              "type": "address"
            },
            {
              "internalType": "contract IERC20Metadata",
              "name": "quoteToken",
              "type": "address"
            },
            {
              "internalType": "contract AggregatorV3Interface",
              "name": "primaryAggregator",
              "type": "address"
            },
            {
              "internalType": "uint32",
              "name": "primaryHeartbeat",
              "type": "uint32"
            },
            {
              "internalType": "contract AggregatorV3Interface",
              "name": "secondaryAggregator",
              "type": "address"
            },
            {
              "internalType": "uint32",
              "name": "secondaryHeartbeat",
              "type": "uint32"
            }
          ],
          "internalType": "struct IChainlinkV3Oracle.ChainlinkV3DeploymentConfig",
          "name": "_config",
          "type": "tuple"
        }
      ],
      "name": "verifyConfig",
      "outputs": [
        {
          "internalType": "uint256",
          "name": "secondaryPriceDecimals",
          "type": "uint256"
        }
      ],
      "stateMutability": "view",
      "type": "function"
    },
    {
      "inputs": [
        {
          "components": [
            {
              "internalType": "contract IERC20Metadata",
              "name": "baseToken",
              "type": "address"
            },
            {
              "internalType": "contract IERC20Metadata",
              "name": "quoteToken",
              "type": "address"
            },
            {
              "internalType": "contract AggregatorV3Interface",
              "name": "primaryAggregator",
              "type": "address"
            },
            {
              "internalType": "uint32",
              "name": "primaryHeartbeat",
              "type": "uint32"
            },
            {
              "internalType": "contract AggregatorV3Interface",
              "name": "secondaryAggregator",
              "type": "address"
            },
            {
              "internalType": "uint32",
              "name": "secondaryHeartbeat",
              "type": "uint32"
            }
          ],
          "internalType": "struct IChainlinkV3Oracle.ChainlinkV3DeploymentConfig",
          "name": "_config",
          "type": "tuple"
        }
      ],
      "name": "verifyHeartbeat",
      "outputs": [],
      "stateMutability": "pure",
      "type": "function"
    },
    {
      "anonymous": false,
      "inputs": [
        {
          "indexed": true,
          "internalType": "address",
          "name": "oracle",
          "type": "address"
        }
      ],
      "name": "NewOracle",
      "type": "event"
    },
    {
      "inputs": [],
      "name": "AddressZero",
      "type": "error"
    },
    {
      "inputs": [],
      "name": "AggregatorsAreTheSame",
      "type": "error"
    },
    {
      "inputs": [],
      "name": "FailedDeployment",
      "type": "error"
    },
    {
      "inputs": [
        {
          "internalType": "uint256",
          "name": "balance",
          "type": "uint256"
        },
        {
          "internalType": "uint256",
          "name": "needed",
          "type": "uint256"
        }
      ],
      "name": "InsufficientBalance",
      "type": "error"
    },
    {
      "inputs": [],
      "name": "InvalidEthHeartbeat",
      "type": "error"
    },
    {
      "inputs": [],
      "name": "InvalidHeartbeat",
      "type": "error"
    },
    {
      "inputs": [],
      "name": "Overflow",
      "type": "error"
    },
    {
      "inputs": [],
      "name": "TokenIsNotAContract",
      "type": "error"
    },
    {
      "inputs": [],
      "name": "TokensAreTheSame",
      "type": "error"
    }
  ],
  "bytecode": "0x60a0604052348015600e575f5ffd5b506040516019906089565b604051809103905ff0801580156031573d5f5f3e3d5ffd5b506001600160a01b03811660795760405162461bcd60e51b815260206004820152600b60248201526a5a65726f4164647265737360a81b604482015260640160405180910390fd5b6001600160a01b03166080526096565b61096d806111be83390190565b60805161110a6100b45f395f818160fc01526102b9015261110a5ff3fe608060405234801561000f575f5ffd5b506004361061007a575f3560e01c8063a8f39f6611610058578063a8f39f66146100f7578063b971b8df1461011e578063f16ce9f614610131578063f896503a14610146575f5ffd5b80633c091b391461007e57806354482173146100a4578063a7e1f512146100e4575b5f5ffd5b61009161008c3660046109a5565b61016e565b6040519081526020015b60405180910390f35b6100cc6100b2366004610a50565b60016020525f90815260409020546001600160a01b031681565b6040516001600160a01b03909116815260200161009b565b6100cc6100f23660046109a5565b61019d565b6100cc7f000000000000000000000000000000000000000000000000000000000000000081565b61009161012c3660046109a5565b61034a565b61014461013f3660046109a5565b6104bf565b005b6100cc610154366004610a72565b5f602081905290815260409020546001600160a01b031681565b5f816040516020016101809190610ae1565b604051602081830303815290604052805190602001209050919050565b5f5f6101a88361016e565b5f818152602081905260409020549091506001600160a01b031680156101e9576001600160a01b039081165f90815260016020526040902054169392505050565b5f6101f38561034a565b90506101fe856104bf565b5f5f610279875f0151886020015189604001516001600160a01b031663313ce5676040518163ffffffff1660e01b8152600401602060405180830381865afa15801561024c573d5f5f3e3d5ffd5b505050506040513d601f19601f820116820180604052508101906102709190610aef565b60ff1686610583565b9150915086828260405161028c90610966565b61029893929190610b0f565b604051809103905ff0801580156102b1573d5f5f3e3d5ffd5b5093506102dd7f00000000000000000000000000000000000000000000000000000000000000006106d6565b95506102ea8685876106e7565b60405163189acdbd60e31b81526001600160a01b03858116600483015287169063c4d66de8906024015f604051808303815f87803b15801561032a575f5ffd5b505af115801561033c573d5f5f3e3d5ffd5b505050505050505050919050565b60208101515f906001600160a01b031661037757604051639fabe1c160e01b815260040160405180910390fd5b81516001600160a01b031661039f57604051639fabe1c160e01b815260040160405180910390fd5b815f01516001600160a01b031682602001516001600160a01b0316036103d857604051633d4cfcc560e11b815260040160405180910390fd5b60408201516001600160a01b031661040357604051639fabe1c160e01b815260040160405180910390fd5b81608001516001600160a01b031682604001516001600160a01b03160361043d57604051630e04002960e11b815260040160405180910390fd5b60808201516001600160a01b0316156104ba5781608001516001600160a01b031663313ce5676040518163ffffffff1660e01b8152600401602060405180830381865afa158015610490573d5f5f3e3d5ffd5b505050506040513d601f19601f820116820180604052508101906104b49190610aef565b60ff1690505b919050565b601e816060015163ffffffff1610806104e457506202a300816060015163ffffffff16115b1561050257604051638f1825c960e01b815260040160405180910390fd5b60808101516001600160a01b03166105405760a081015163ffffffff161561053d576040516329c5e8f160e21b815260040160405180910390fd5b50565b601e8160a0015163ffffffff16108061056557506202a3008160a0015163ffffffff16115b1561053d576040516329c5e8f160e21b815260040160405180910390fd5b5f5f5f61058f866107b5565b90506024808211156105b457604051631a93c68960e11b815260040160405180910390fd5b5f6105be896107b5565b90505f6105cb8883610b43565b8411156105e1575080870183039350600161060a565b8282111561060257604051631a93c68960e11b815260040160405180910390fd5b838883010395505b865f0361064b57806106265761062186600a610c39565b610628565b5f5b81610633575f61063e565b61063e86600a610c39565b95509550505050506106cd565b8287111561066c57604051631a93c68960e11b815260040160405180910390fd5b801561067b5793860193610697565b8587111561069157505f94860393506001610697565b86860395505b806106ac576106a786600a610c39565b6106ae565b5f5b816106b9575f6106c4565b6106c486600a610c39565b95509550505050505b94509492505050565b5f6106e1825f610820565b92915050565b5f818152602081905260409020546001600160a01b0316156107455760405162461bcd60e51b815260206004820152601260248201527110dbdb999a59d05b1c9958591e515e1a5cdd60721b60448201526064015b60405180910390fd5b5f8181526020818152604080832080546001600160a01b038088166001600160a01b03199283168117909355918552600190935281842080549188169190931681179092555190917fb3eacd0e351fafdfefdec84e1cd19679b38dbcd63ea7c2c24da17fd2bc3b3c0e91a2505050565b6040805160048152602481019091526020810180516001600160e01b031663313ce56760e01b1790525f90819081906107ef9085906108b0565b915091508161080157505f9392505050565b808060200190518101906108159190610aef565b60ff16949350505050565b5f8147101561084b5760405163cf47918160e01b81524760048201526024810183905260440161073c565b6e5af43d82803e903d91602b57fd5bf360205282601152763d602d80600a3d3981f3363d3d373d3d3d363d730000008360881c175f526037600983f090506001600160a01b0381166106e15760405163b06ebf3d60e01b815260040160405180910390fd5b5f60606001600160a01b0384163b6108db576040516373d39f9d60e01b815260040160405180910390fd5b5f5f856001600160a01b0316856040516108f59190610c44565b5f60405180830381855afa9150503d805f811461092d576040519150601f19603f3d011682016040523d82523d5f602084013e610932565b606091505b509150915081610957575f60405180602001604052805f81525093509350505061095f565b600193509150505b9250929050565b61047a80610c5b83390190565b6001600160a01b038116811461053d575f5ffd5b80356104ba81610973565b803563ffffffff811681146104ba575f5ffd5b5f60c08284031280156109b6575f5ffd5b5060405160c0810167ffffffffffffffff811182821017156109e657634e487b7160e01b5f52604160045260245ffd5b6040526109f283610987565b8152610a0060208401610987565b6020820152610a1160408401610987565b6040820152610a2260608401610992565b6060820152610a3360808401610987565b6080820152610a4460a08401610992565b60a08201529392505050565b5f60208284031215610a60575f5ffd5b8135610a6b81610973565b9392505050565b5f60208284031215610a82575f5ffd5b5035919050565b80516001600160a01b03908116835260208083015182169084015260408083015182169084015260608083015163ffffffff908116918501919091526080808401519092169184019190915260a09182015116910152565b60c081016106e18284610a89565b5f60208284031215610aff575f5ffd5b815160ff81168114610a6b575f5ffd5b6101008101610b1e8286610a89565b60c082019390935260e00152919050565b634e487b7160e01b5f52601160045260245ffd5b808201808211156106e1576106e1610b2f565b6001815b6001841115610b9157808504811115610b7557610b75610b2f565b6001841615610b8357908102905b60019390931c928002610b5a565b935093915050565b5f82610ba7575060016106e1565b81610bb357505f6106e1565b8160018114610bc95760028114610bd357610bef565b60019150506106e1565b60ff841115610be457610be4610b2f565b50506001821b6106e1565b5060208310610133831016604e8410600b8410161715610c12575081810a6106e1565b610c1e5f198484610b56565b805f1904821115610c3157610c31610b2f565b029392505050565b5f610a6b8383610b99565b5f82518060208501845e5f92019182525091905056fe6101a0604052348015610010575f5ffd5b5060405161047a38038061047a83398101604081905261002f916100c1565b82516020840151606085015160a094855260c0939093526001600160a01b0391821660e05281166101005263ffffffff918216608090815260408501518216610120528401805182166101405292909301511661016052511615156101805261018b565b80516001600160a01b03811681146100a9575f5ffd5b919050565b805163ffffffff811681146100a9575f5ffd5b5f5f5f8385036101008112156100d5575f5ffd5b60c08112156100e2575f5ffd5b5060405160c081016001600160401b038111828210171561011157634e487b7160e01b5f52604160045260245ffd5b60405261011d85610093565b815261012b60208601610093565b602082015261013c60408601610093565b604082015261014d606086016100ae565b606082015261015e60808601610093565b608082015261016f60a086016100ae565b60a082015260c085015160e09095015190969495509392505050565b60805160a05160c05160e051610100516101205161014051610160516101805161028f6101eb5f395f61017501525f60b401525f606701525f604201525f61014e01525f61012601525f61010001525f60da01525f608f015261028f5ff3fe608060405234801561000f575f5ffd5b5060043610610029575f3560e01c8063c3f909d41461002d575b5f5ffd5b60408051610120810182526001600160a01b037f0000000000000000000000000000000000000000000000000000000000000000811682527f0000000000000000000000000000000000000000000000000000000000000000811660208301527f0000000000000000000000000000000000000000000000000000000000000000828401527f000000000000000000000000000000000000000000000000000000000000000060608301527f000000000000000000000000000000000000000000000000000000000000000060808301527f000000000000000000000000000000000000000000000000000000000000000060a08301527f0000000000000000000000000000000000000000000000000000000000000000811660c08301527f00000000000000000000000000000000000000000000000000000000000000001660e08201527f0000000000000000000000000000000000000000000000000000000000000000151561010082015290516101a891906101b1565b60405180910390f35b81516001600160a01b031681526020808301516101208301916101de908401826001600160a01b03169052565b5060408301516040830152606083015160608301526080830151608083015260a083015160a083015260c083015161022160c08401826001600160a01b03169052565b5060e083015161023c60e08401826001600160a01b03169052565b5061010083015161025261010084018215159052565b509291505056fea2646970667358221220a42d9cf31f00253dad7212cbe8f3ec819c2ed2f6a2a20967a784c3bc055c48bf64736f6c634300081c0033a26469706673582212200ca3a0797a62d84da41e5495ce5fa17db99c05eac14be6d3f7faf38e91d90b1a64736f6c634300081c00336080604052348015600e575f5ffd5b5060156019565b60c9565b7ff0c57e16840df040f15088dc2f81fe391c3923bec73e23a9662efc9c229c6a00805468010000000000000000900460ff161560685760405163f92ee8a960e01b815260040160405180910390fd5b80546001600160401b039081161460c65780546001600160401b0319166001600160401b0390811782556040519081527fc7f505b2f371ae2175ee4913f4499e1f2633a7b5936321eed1cdaeb6115181d29060200160405180910390a15b50565b610897806100d65f395ff3fe608060405234801561000f575f5ffd5b5060043610610060575f3560e01c806313b0be3314610064578063217a4b701461008a578063324b8d6e146100aa578063c4d66de8146100bc578063c71ed1e6146100d1578063f9fa619a146100fb575b5f5ffd5b61007761007236600461065f565b61010c565b6040519081526020015b60405180910390f35b610092610296565b6040516001600160a01b039091168152602001610081565b5f54610092906001600160a01b031681565b6100cf6100ca36600461068d565b61030c565b005b6100e46100df3660046106bc565b610461565b604080519215158352602083019190915201610081565b6100cf61010936600461068d565b50565b5f8054604080516330fe427560e21b8152905183926001600160a01b03169163c3f909d4916004808301926101209291908290030181865afa158015610154573d5f5f3e3d5ffd5b505050506040513d601f19601f820116820180604052508101906101789190610728565b90508060c001516001600160a01b0316836001600160a01b0316146101b05760405163981a2a2b60e01b815260040160405180910390fd5b6fffffffffffffffffffffffffffffffff8411156101e157604051631df5999960e21b815260040160405180910390fd5b5f5f6101f4835f01518460400151610511565b91509150816102155760405162bfc92160e01b815260040160405180910390fd5b82610100015161023d57610233868285608001518660a001516105b5565b9350505050610290565b5f5f61025185602001518660600151610511565b915091508161027357604051637c5ab47160e01b815260040160405180910390fd5b61028888848388608001518960a001516105ef565b955050505050505b92915050565b5f8054604080516330fe427560e21b8152905183926001600160a01b03169163c3f909d4916004808301926101209291908290030181865afa1580156102de573d5f5f3e3d5ffd5b505050506040513d601f19601f820116820180604052508101906103029190610728565b60e0015192915050565b7ff0c57e16840df040f15088dc2f81fe391c3923bec73e23a9662efc9c229c6a008054600160401b810460ff16159067ffffffffffffffff165f811580156103515750825b90505f8267ffffffffffffffff16600114801561036d5750303b155b90508115801561037b575080155b156103995760405163f92ee8a960e01b815260040160405180910390fd5b845467ffffffffffffffff1916600117855583156103c357845460ff60401b1916600160401b1785555b5f80546001600160a01b0319166001600160a01b0388169081179091556040519081527f077847d1fadf50041a730385b3d6b2de1cdeb5e078cb933fb091003e7f10e07a9060200160405180910390a1831561045957845460ff60401b19168555604051600181527fc7f505b2f371ae2175ee4913f4499e1f2633a7b5936321eed1cdaeb6115181d29060200160405180910390a15b505050505050565b5f5f5f5f5f9054906101000a90046001600160a01b03166001600160a01b031663c3f909d46040518163ffffffff1660e01b815260040161012060405180830381865afa1580156104b4573d5f5f3e3d5ffd5b505050506040513d601f19601f820116820180604052508101906104d89190610728565b9050836104f6576104f181602001518260600151610511565b610507565b610507815f01518260400151610511565b9250925050915091565b5f5f5f5f856001600160a01b031663feaf968c6040518163ffffffff1660e01b815260040160a060405180830381865afa158015610551573d5f5f3e3d5ffd5b505050506040513d601f19601f8201168201806040525081019061057591906107dc565b509350509250505f85420390505f8313801561059057508082115b156105a457600183945094505050506105ae565b5f5f945094505050505b9250929050565b5f815f036105d65782848602816105ce576105ce61082a565b0490506105e7565b8484026105e3838261083e565b9150505b949350505050565b5f815f0361061f578383868802816106095761060961082a565b04816106175761061761082a565b049050610642565b85850261062c838261083e565b905084818161063d5761063d61082a565b049150505b95945050505050565b6001600160a01b0381168114610109575f5ffd5b5f5f60408385031215610670575f5ffd5b8235915060208301356106828161064b565b809150509250929050565b5f6020828403121561069d575f5ffd5b81356106a88161064b565b9392505050565b8015158114610109575f5ffd5b5f602082840312156106cc575f5ffd5b81356106a8816106af565b604051610120810167ffffffffffffffff8111828210171561070757634e487b7160e01b5f52604160045260245ffd5b60405290565b80516107188161064b565b919050565b8051610718816106af565b5f61012082840312801561073a575f5ffd5b506107436106d7565b61074c8361070d565b815261075a6020840161070d565b602082015260408381015190820152606080840151908201526080808401519082015260a0808401519082015261079360c0840161070d565b60c08201526107a460e0840161070d565b60e08201526107b6610100840161071d565b6101008201529392505050565b805169ffffffffffffffffffff81168114610718575f5ffd5b5f5f5f5f5f60a086880312156107f0575f5ffd5b6107f9866107c3565b6020870151604088015160608901519297509095509350915061081e608087016107c3565b90509295509295909350565b634e487b7160e01b5f52601260045260245ffd5b808202811582820484141761029057634e487b7160e01b5f52601160045260245ffdfea2646970667358221220b7762a726a8701d14ad198d198ce2f43fabb619e75b4fca11e5a97c2562d4dba64736f6c634300081c0033",
  "language": "Solidity",
  "compiler": "0.8.28+commit.7893614a"
}