{
  "address": "0x1dd0000a851624f093e82E8Ef08B15AaBF799C25",
  "abi": [
    {
      "inputs": [],
      "stateMutability": "nonpayable",
      "type": "constructor"
    },
    {
      "inputs": [],
      "name": "DIA_DECIMALS",
      "outputs": [
        {
          "internalType": "uint256",
          "name": "",
          "type": "uint256"
        }
      ],
      "stateMutability": "view",
      "type": "function"
    },
    {
      "inputs": [],
      "name": "ORACLE_IMPLEMENTATION",
      "outputs": [
        {
          "internalType": "address",
          "name": "",
          "type": "address"
        }
      ],
      "stateMutability": "view",
      "type": "function"
    },
    {
      "inputs": [
        {
          "components": [
            {
              "internalType": "contract IDIAOracleV2",
              "name": "diaOracle",
              "type": "address"
            },
            {
              "internalType": "contract IERC20Metadata",
              "name": "baseToken",
              "type": "address"
            },
            {
              "internalType": "contract IERC20Metadata",
              "name": "quoteToken",
              "type": "address"
            },
            {
              "internalType": "uint32",
              "name": "heartbeat",
              "type": "uint32"
            },
            {
              "internalType": "string",
              "name": "primaryKey",
              "type": "string"
            },
            {
              "internalType": "string",
              "name": "secondaryKey",
              "type": "string"
            }
          ],
          "internalType": "struct IDIAOracle.DIADeploymentConfig",
          "name": "_config",
          "type": "tuple"
        }
      ],
      "name": "create",
      "outputs": [
        {
          "internalType": "contract DIAOracle",
          "name": "oracle",
          "type": "address"
        }
      ],
      "stateMutability": "nonpayable",
      "type": "function"
    },
    {
      "inputs": [
        {
          "internalType": "bytes32",
          "name": "",
          "type": "bytes32"
        }
      ],
      "name": "getConfigAddress",
      "outputs": [
        {
          "internalType": "address",
          "name": "",
          "type": "address"
        }
      ],
      "stateMutability": "view",
      "type": "function"
    },
    {
      "inputs": [
        {
          "internalType": "address",
          "name": "",
          "type": "address"
        }
      ],
      "name": "getOracleAddress",
      "outputs": [
        {
          "internalType": "address",
          "name": "",
          "type": "address"
        }
      ],
      "stateMutability": "view",
      "type": "function"
    },
    {
      "inputs": [
        {
          "components": [
            {
              "internalType": "contract IDIAOracleV2",
              "name": "diaOracle",
              "type": "address"
            },
            {
              "internalType": "contract IERC20Metadata",
              "name": "baseToken",
              "type": "address"
            },
            {
              "internalType": "contract IERC20Metadata",
              "name": "quoteToken",
              "type": "address"
            },
            {
              "internalType": "uint32",
              "name": "heartbeat",
              "type": "uint32"
            },
            {
              "internalType": "string",
              "name": "primaryKey",
              "type": "string"
            },
            {
              "internalType": "string",
              "name": "secondaryKey",
              "type": "string"
            }
          ],
          "internalType": "struct IDIAOracle.DIADeploymentConfig",
          "name": "_config",
          "type": "tuple"
        }
      ],
      "name": "hashConfig",
      "outputs": [
        {
          "internalType": "bytes32",
          "name": "configId",
          "type": "bytes32"
        }
      ],
      "stateMutability": "view",
      "type": "function"
    },
    {
      "inputs": [
        {
          "components": [
            {
              "internalType": "contract IDIAOracleV2",
              "name": "diaOracle",
              "type": "address"
            },
            {
              "internalType": "contract IERC20Metadata",
              "name": "baseToken",
              "type": "address"
            },
            {
              "internalType": "contract IERC20Metadata",
              "name": "quoteToken",
              "type": "address"
            },
            {
              "internalType": "uint32",
              "name": "heartbeat",
              "type": "uint32"
            },
            {
              "internalType": "string",
              "name": "primaryKey",
              "type": "string"
            },
            {
              "internalType": "string",
              "name": "secondaryKey",
              "type": "string"
            }
          ],
          "internalType": "struct IDIAOracle.DIADeploymentConfig",
          "name": "_config",
          "type": "tuple"
        }
      ],
      "name": "verifyConfig",
      "outputs": [],
      "stateMutability": "view",
      "type": "function"
    },
    {
      "anonymous": false,
      "inputs": [
        {
          "indexed": true,
          "internalType": "address",
          "name": "oracle",
          "type": "address"
        }
      ],
      "name": "NewOracle",
      "type": "event"
    },
    {
      "inputs": [],
      "name": "AddressZero",
      "type": "error"
    },
    {
      "inputs": [],
      "name": "EmptyPrimaryKey",
      "type": "error"
    },
    {
      "inputs": [],
      "name": "FailedDeployment",
      "type": "error"
    },
    {
      "inputs": [
        {
          "internalType": "uint256",
          "name": "balance",
          "type": "uint256"
        },
        {
          "internalType": "uint256",
          "name": "needed",
          "type": "uint256"
        }
      ],
      "name": "InsufficientBalance",
      "type": "error"
    },
    {
      "inputs": [],
      "name": "InvalidHeartbeat",
      "type": "error"
    },
    {
      "inputs": [],
      "name": "Overflow",
      "type": "error"
    },
    {
      "inputs": [],
      "name": "TokenIsNotAContract",
      "type": "error"
    },
    {
      "inputs": [],
      "name": "TokensAreTheSame",
      "type": "error"
    }
  ],
  "bytecode": "0x60a0604052348015600e575f5ffd5b506040516019906089565b604051809103905ff0801580156031573d5f5f3e3d5ffd5b506001600160a01b03811660795760405162461bcd60e51b815260206004820152600b60248201526a5a65726f4164647265737360a81b604482015260640160405180910390fd5b6001600160a01b03166080526096565b610e028061145283390190565b60805161139d6100b55f395f818161011101526103f6015261139d5ff3fe608060405234801561000f575f5ffd5b506004361061007a575f3560e01c80638ed51a75116100585780638ed51a75146100f9578063a8f39f661461010c578063d40c754f14610133578063f896503a1461013b575f5ffd5b80631c2252f41461007e57806354482173146100935780635d6fac53146100d8575b5f5ffd5b61009161008c366004610898565b610163565b005b6100bb6100a13660046108ea565b60016020525f90815260409020546001600160a01b031681565b6040516001600160a01b0390911681526020015b60405180910390f35b6100eb6100e6366004610aa4565b6102e2565b6040519081526020016100cf565b6100bb610107366004610898565b610311565b6100bb7f000000000000000000000000000000000000000000000000000000000000000081565b6100eb600881565b6100bb610149366004610ade565b5f602081905290815260409020546001600160a01b031681565b5f61017160208301836108ea565b6001600160a01b03160361019857604051639fabe1c160e01b815260040160405180910390fd5b5f6101a960608301604084016108ea565b6001600160a01b0316036101d057604051639fabe1c160e01b815260040160405180910390fd5b5f6101e160408301602084016108ea565b6001600160a01b03160361020857604051639fabe1c160e01b815260040160405180910390fd5b61021860408201602083016108ea565b6001600160a01b031661023160608301604084016108ea565b6001600160a01b03160361025857604051633d4cfcc560e11b815260040160405180910390fd5b6102656080820182610af5565b90505f036102865760405163b036333f60e01b815260040160405180910390fd5b603c6102986080830160608401610b38565b63ffffffff1610806102c157506202a3006102b96080830160608401610b38565b63ffffffff16115b156102df57604051638f1825c960e01b815260040160405180910390fd5b50565b5f816040516020016102f49190610b7f565b604051602081830303815290604052805190602001209050919050565b5f8061031f6100e684610c02565b5f818152602081905260409020549091506001600160a01b03168015610360576001600160a01b039081165f90815260016020526040902054169392505050565b61036984610163565b5f61037760a0860186610af5565b151591505f9050806103b66103926040890160208a016108ea565b6103a260608a0160408b016108ea565b6008866103af575f6104a8565b60086104a8565b915091508682826040516103c99061088b565b6103d593929190610c77565b604051809103905ff0801580156103ee573d5f5f3e3d5ffd5b50935061041a7f00000000000000000000000000000000000000000000000000000000000000006105fb565b955061042786858761060c565b6001600160a01b03861663906571478561044460808b018b610af5565b61045160a08d018d610af5565b6040518663ffffffff1660e01b8152600401610471959493929190610d42565b5f604051808303815f87803b158015610488575f5ffd5b505af115801561049a573d5f5f3e3d5ffd5b505050505050505050919050565b5f5f5f6104b4866106da565b90506024808211156104d957604051631a93c68960e11b815260040160405180910390fd5b5f6104e3896106da565b90505f6104f08883610d99565b841115610506575080870183039350600161052f565b8282111561052757604051631a93c68960e11b815260040160405180910390fd5b838883010395505b865f03610570578061054b5761054686600a610e8f565b61054d565b5f5b81610558575f610563565b61056386600a610e8f565b95509550505050506105f2565b8287111561059157604051631a93c68960e11b815260040160405180910390fd5b80156105a057938601936105bc565b858711156105b657505f948603935060016105bc565b86860395505b806105d1576105cc86600a610e8f565b6105d3565b5f5b816105de575f6105e9565b6105e986600a610e8f565b95509550505050505b94509492505050565b5f610606825f610745565b92915050565b5f818152602081905260409020546001600160a01b03161561066a5760405162461bcd60e51b815260206004820152601260248201527110dbdb999a59d05b1c9958591e515e1a5cdd60721b60448201526064015b60405180910390fd5b5f8181526020818152604080832080546001600160a01b038088166001600160a01b03199283168117909355918552600190935281842080549188169190931681179092555190917fb3eacd0e351fafdfefdec84e1cd19679b38dbcd63ea7c2c24da17fd2bc3b3c0e91a2505050565b6040805160048152602481019091526020810180516001600160e01b031663313ce56760e01b1790525f90819081906107149085906107d5565b915091508161072657505f9392505050565b8080602001905181019061073a9190610e9a565b60ff16949350505050565b5f814710156107705760405163cf47918160e01b815247600482015260248101839052604401610661565b6e5af43d82803e903d91602b57fd5bf360205282601152763d602d80600a3d3981f3363d3d373d3d3d363d730000008360881c175f526037600983f090506001600160a01b0381166106065760405163b06ebf3d60e01b815260040160405180910390fd5b5f60606001600160a01b0384163b610800576040516373d39f9d60e01b815260040160405180910390fd5b5f5f856001600160a01b03168560405161081a9190610eba565b5f60405180830381855afa9150503d805f8114610852576040519150601f19603f3d011682016040523d82523d5f602084013e610857565b606091505b50915091508161087c575f60405180602001604052805f815250935093505050610884565b600193509150505b9250929050565b61049780610ed183390190565b5f602082840312156108a8575f5ffd5b813567ffffffffffffffff8111156108be575f5ffd5b820160c081850312156108cf575f5ffd5b9392505050565b6001600160a01b03811681146102df575f5ffd5b5f602082840312156108fa575f5ffd5b81356108cf816108d6565b634e487b7160e01b5f52604160045260245ffd5b60405160c0810167ffffffffffffffff8111828210171561093c5761093c610905565b60405290565b803561094d816108d6565b919050565b803563ffffffff8116811461094d575f5ffd5b5f82601f830112610974575f5ffd5b813567ffffffffffffffff81111561098e5761098e610905565b604051601f8201601f19908116603f0116810167ffffffffffffffff811182821017156109bd576109bd610905565b6040528181528382016020018510156109d4575f5ffd5b816020850160208301375f918101602001919091529392505050565b5f60c08284031215610a00575f5ffd5b610a08610919565b9050610a1382610942565b8152610a2160208301610942565b6020820152610a3260408301610942565b6040820152610a4360608301610952565b6060820152608082013567ffffffffffffffff811115610a61575f5ffd5b610a6d84828501610965565b60808301525060a082013567ffffffffffffffff811115610a8c575f5ffd5b610a9884828501610965565b60a08301525092915050565b5f60208284031215610ab4575f5ffd5b813567ffffffffffffffff811115610aca575f5ffd5b610ad6848285016109f0565b949350505050565b5f60208284031215610aee575f5ffd5b5035919050565b5f5f8335601e19843603018112610b0a575f5ffd5b83018035915067ffffffffffffffff821115610b24575f5ffd5b602001915036819003821315610884575f5ffd5b5f60208284031215610b48575f5ffd5b6108cf82610952565b5f81518084528060208401602086015e5f602082860101526020601f19601f83011685010191505092915050565b602080825282516001600160a01b03908116838301529083015181166040808401919091528301511660608083019190915282015163ffffffff811660808301525f9050608083015160c060a0840152610bdc60e0840182610b51565b905060a0840151601f198483030160c0850152610bf98282610b51565b95945050505050565b5f61060636836109f0565b5f5f8335601e19843603018112610c22575f5ffd5b830160208101925035905067ffffffffffffffff811115610c41575f5ffd5b803603821315610884575f5ffd5b81835281816020850137505f828201602090810191909152601f909101601f19169091010190565b606081525f8435610c87816108d6565b6001600160a01b031660608301526020850135610ca3816108d6565b6001600160a01b03166080830152610cbd60408601610942565b6001600160a01b031660a0830152610cd760608601610952565b63ffffffff1660c0830152610cef6080860186610c0d565b60c060e0850152610d0561012085018284610c4f565b915050610d1560a0870187610c0d565b848303605f1901610100860152610d2d838284610c4f565b60208601979097525050505060400152919050565b6001600160a01b03861681526060602082018190525f90610d669083018688610c4f565b8281036040840152610d79818587610c4f565b98975050505050505050565b634e487b7160e01b5f52601160045260245ffd5b8082018082111561060657610606610d85565b6001815b6001841115610de757808504811115610dcb57610dcb610d85565b6001841615610dd957908102905b60019390931c928002610db0565b935093915050565b5f82610dfd57506001610606565b81610e0957505f610606565b8160018114610e1f5760028114610e2957610e45565b6001915050610606565b60ff841115610e3a57610e3a610d85565b50506001821b610606565b5060208310610133831016604e8410600b8410161715610e68575081810a610606565b610e745f198484610dac565b805f1904821115610e8757610e87610d85565b029392505050565b5f6108cf8383610def565b5f60208284031215610eaa575f5ffd5b815160ff811681146108cf575f5ffd5b5f82518060208501845e5f92019182525091905056fe610160604052348015610010575f5ffd5b5060405161049738038061049783398101604081905261002f91610170565b60208301516040840151606085015160a094855260c0939093526001600160a01b0391821660e05281166101005263ffffffff9091166080528251166101205201515115156101405261025a565b634e487b7160e01b5f52604160045260245ffd5b60405160c081016001600160401b03811182821017156100b3576100b361007d565b60405290565b80516001600160a01b03811681146100cf575f5ffd5b919050565b805163ffffffff811681146100cf575f5ffd5b5f82601f8301126100f6575f5ffd5b81516001600160401b0381111561010f5761010f61007d565b604051601f8201601f19908116603f011681016001600160401b038111828210171561013d5761013d61007d565b604052818152838201602001851015610154575f5ffd5b8160208501602083015e5f918101602001919091529392505050565b5f5f5f60608486031215610182575f5ffd5b83516001600160401b03811115610197575f5ffd5b840160c081870312156101a8575f5ffd5b6101b0610091565b6101b9826100b9565b81526101c7602083016100b9565b60208201526101d8604083016100b9565b60408201526101e9606083016100d4565b606082015260808201516001600160401b03811115610206575f5ffd5b610212888285016100e7565b60808301525060a08201516001600160401b03811115610230575f5ffd5b61023c888285016100e7565b60a08301525060208601516040909601519097959650949350505050565b60805160a05160c05160e0516101005161012051610140516101f16102a65f395f60e301525f604101525f608e01525f606601525f61013101525f61010b01525f60bc01526101f15ff3fe608060405234801561000f575f5ffd5b5060043610610029575f3560e01c8063c3f909d41461002d575b5f5ffd5b6040805160e0810182526001600160a01b037f0000000000000000000000000000000000000000000000000000000000000000811682527f0000000000000000000000000000000000000000000000000000000000000000811660208301527f0000000000000000000000000000000000000000000000000000000000000000169181019190915263ffffffff7f00000000000000000000000000000000000000000000000000000000000000001660608201527f0000000000000000000000000000000000000000000000000000000000000000151560808201527f000000000000000000000000000000000000000000000000000000000000000060a08201527f000000000000000000000000000000000000000000000000000000000000000060c08201526040805182516001600160a01b03908116825260208085015182169083015283830151168183015260608084015163ffffffff169082015260808084015115159082015260a0808401519082015260c09283015192810192909252519081900360e00190f3fea2646970667358221220d37cdc11c27add80f26e5f1fe6647cebebeafe0fc79cfbd73bb5f22dc18c165a64736f6c634300081c0033a26469706673582212205df8422fd6fdc0327d1e3da5981001ee78fc70971c43ed21dfb68f3747d6f13964736f6c634300081c00336080604052348015600e575f5ffd5b5060156019565b60c9565b7ff0c57e16840df040f15088dc2f81fe391c3923bec73e23a9662efc9c229c6a00805468010000000000000000900460ff161560685760405163f92ee8a960e01b815260040160405180910390fd5b80546001600160401b039081161460c65780546001600160401b0319166001600160401b0390811782556040519081527fc7f505b2f371ae2175ee4913f4499e1f2633a7b5936321eed1cdaeb6115181d29060200160405180910390a15b50565b610d2c806100d65f395ff3fe608060405234801561000f575f5ffd5b5060043610610085575f3560e01c80634163f2be116100585780634163f2be1461010157806346898455146101145780639065714714610146578063f9fa619a1461015b575f5ffd5b806313b0be3314610089578063210f70d6146100af578063217a4b70146100cf578063324b8d6e146100ef575b5f5ffd5b61009c610097366004610876565b61016c565b6040519081526020015b60405180910390f35b6100c26100bd3660046108a4565b610458565b6040516100a691906108c6565b6100d76104ef565b6040516001600160a01b0390911681526020016100a6565b5f546100d7906001600160a01b031681565b6100c261010f3660046108a4565b610564565b6101276101223660046109c3565b61057c565b604080516001600160801b0390931683529015156020830152016100a6565b610159610154366004610a19565b610635565b005b6101596101693660046108a4565b50565b5f8054604080516330fe427560e21b815290516001600160a01b03909216918391839163c3f909d49160048082019260e0929091908290030181865afa1580156101b8573d5f5f3e3d5ffd5b505050506040513d601f19601f820116820180604052508101906101dc9190610aa3565b905080602001516001600160a01b0316846001600160a01b0316146102145760405163981a2a2b60e01b815260040160405180910390fd5b6001600160801b0385111561023c57604051631df5999960e21b815260040160405180910390fd5b80516001600160a01b0383165f9081526001602052604081208054919283926102f5929061026990610b39565b80601f016020809104026020016040519081016040528092919081815260200182805461029590610b39565b80156102e05780601f106102b7576101008083540402835291602001916102e0565b820191905f5260205f20905b8154815290600101906020018083116102c357829003601f168201915b5050505050856060015163ffffffff1661057c565b91509150806103175760405163045b830b60e31b815260040160405180910390fd5b82608001516103485761033d87836001600160801b03168560a001518660c001516107cc565b945050505050610452565b82516001600160a01b0385165f908152600260205260408120805491928392610401929061037590610b39565b80601f01602080910402602001604051908101604052809291908181526020018280546103a190610b39565b80156103ec5780601f106103c3576101008083540402835291602001916103ec565b820191905f5260205f20905b8154815290600101906020018083116103cf57829003601f168201915b5050505050876060015163ffffffff1661057c565b91509150806104225760405162b2f49d60e21b815260040160405180910390fd5b61044989856001600160801b0316846001600160801b03168860a001518960c00151610806565b96505050505050505b92915050565b60016020525f90815260409020805461047090610b39565b80601f016020809104026020016040519081016040528092919081815260200182805461049c90610b39565b80156104e75780601f106104be576101008083540402835291602001916104e7565b820191905f5260205f20905b8154815290600101906020018083116104ca57829003601f168201915b505050505081565b5f8054604080516330fe427560e21b8152905183926001600160a01b03169163c3f909d49160048083019260e09291908290030181865afa158015610536573d5f5f3e3d5ffd5b505050506040513d601f19601f8201168201806040525081019061055a9190610aa3565b6040015192915050565b60026020525f90815260409020805461047090610b39565b5f5f5f856001600160a01b031663960384a0866040518263ffffffff1660e01b81526004016105ab91906108c6565b6040805180830381865afa1580156105c5573d5f5f3e3d5ffd5b505050506040513d601f19601f820116820180604052508101906105e99190610b87565b90935090506001600160801b0381165f0361061757604051630eda9c3d60e31b815260040160405180910390fd5b5f844203905080826001600160801b03161192505050935093915050565b7ff0c57e16840df040f15088dc2f81fe391c3923bec73e23a9662efc9c229c6a008054600160401b810460ff16159067ffffffffffffffff165f8115801561067a5750825b90505f8267ffffffffffffffff1660011480156106965750303b155b9050811580156106a4575080155b156106c25760405163f92ee8a960e01b815260040160405180910390fd5b845467ffffffffffffffff1916600117855583156106ec57845460ff60401b1916600160401b1785555b5f80546001600160a01b0319166001600160a01b038a169081178255815260016020526040902061071d8882610c04565b506001600160a01b0388165f90815260026020526040902061073f8782610c04565b506040516001600160a01b03891681527f5a651441bdafde3075a9c7e808d14a04ff56554649472572fa3ce6c349f31e739060200160405180910390a183156107c257845460ff60401b19168555604051600181527fc7f505b2f371ae2175ee4913f4499e1f2633a7b5936321eed1cdaeb6115181d29060200160405180910390a15b5050505050505050565b5f815f036107ed5782848602816107e5576107e5610cbf565b0490506107fe565b8484026107fa8382610cd3565b9150505b949350505050565b5f815f036108365783838688028161082057610820610cbf565b048161082e5761082e610cbf565b049050610859565b8585026108438382610cd3565b905084818161085457610854610cbf565b049150505b95945050505050565b6001600160a01b0381168114610169575f5ffd5b5f5f60408385031215610887575f5ffd5b82359150602083013561089981610862565b809150509250929050565b5f602082840312156108b4575f5ffd5b81356108bf81610862565b9392505050565b602081525f82518060208401528060208501604085015e5f604082850101526040601f19601f83011684010191505092915050565b634e487b7160e01b5f52604160045260245ffd5b60405160e0810167ffffffffffffffff81118282101715610932576109326108fb565b60405290565b5f82601f830112610947575f5ffd5b813567ffffffffffffffff811115610961576109616108fb565b604051601f8201601f19908116603f0116810167ffffffffffffffff81118282101715610990576109906108fb565b6040528181528382016020018510156109a7575f5ffd5b816020850160208301375f918101602001919091529392505050565b5f5f5f606084860312156109d5575f5ffd5b83356109e081610862565b9250602084013567ffffffffffffffff8111156109fb575f5ffd5b610a0786828701610938565b93969395505050506040919091013590565b5f5f5f60608486031215610a2b575f5ffd5b8335610a3681610862565b9250602084013567ffffffffffffffff811115610a51575f5ffd5b610a5d86828701610938565b925050604084013567ffffffffffffffff811115610a79575f5ffd5b610a8586828701610938565b9150509250925092565b80518015158114610a9e575f5ffd5b919050565b5f60e0828403128015610ab4575f5ffd5b50610abd61090f565b8251610ac881610862565b81526020830151610ad881610862565b60208201526040830151610aeb81610862565b6040820152606083015163ffffffff81168114610b06575f5ffd5b6060820152610b1760808401610a8f565b608082015260a0838101519082015260c0928301519281019290925250919050565b600181811c90821680610b4d57607f821691505b602082108103610b6b57634e487b7160e01b5f52602260045260245ffd5b50919050565b80516001600160801b0381168114610a9e575f5ffd5b5f5f60408385031215610b98575f5ffd5b610ba183610b71565b9150610baf60208401610b71565b90509250929050565b601f821115610bff57805f5260205f20601f840160051c81016020851015610bdd5750805b601f840160051c820191505b81811015610bfc575f8155600101610be9565b50505b505050565b815167ffffffffffffffff811115610c1e57610c1e6108fb565b610c3281610c2c8454610b39565b84610bb8565b6020601f821160018114610c64575f8315610c4d5750848201515b5f19600385901b1c1916600184901b178455610bfc565b5f84815260208120601f198516915b82811015610c935787850151825560209485019460019092019101610c73565b5084821015610cb057868401515f19600387901b60f8161c191681555b50505050600190811b01905550565b634e487b7160e01b5f52601260045260245ffd5b808202811582820484141761045257634e487b7160e01b5f52601160045260245ffdfea26469706673582212202926922c1a4775bf7beb17920e673f15d031dd327d289b1608e3ff1fd817506064736f6c634300081c0033",
  "language": "Solidity",
  "compiler": "0.8.28+commit.7893614a"
}