{
  "address": "0xB5ACA3882D223A0F99FF8209E694C72dD121140c",
  "abi": [
    {
      "inputs": [
        {
          "internalType": "contract IUniswapV3Factory",
          "name": "_factory",
          "type": "address"
        }
      ],
      "stateMutability": "nonpayable",
      "type": "constructor"
    },
    {
      "inputs": [],
      "name": "ORACLE_IMPLEMENTATION",
      "outputs": [
        {
          "internalType": "address",
          "name": "",
          "type": "address"
        }
      ],
      "stateMutability": "view",
      "type": "function"
    },
    {
      "inputs": [],
      "name": "UNISWAPV3_FACTORY",
      "outputs": [
        {
          "internalType": "contract IUniswapV3Factory",
          "name": "",
          "type": "address"
        }
      ],
      "stateMutability": "view",
      "type": "function"
    },
    {
      "inputs": [
        {
          "components": [
            {
              "internalType": "contract IUniswapV3Pool",
              "name": "pool",
              "type": "address"
            },
            {
              "internalType": "address",
              "name": "baseToken",
              "type": "address"
            },
            {
              "internalType": "address",
              "name": "quoteToken",
              "type": "address"
            },
            {
              "internalType": "uint32",
              "name": "periodForAvgPrice",
              "type": "uint32"
            },
            {
              "internalType": "uint8",
              "name": "blockTime",
              "type": "uint8"
            }
          ],
          "internalType": "struct IUniswapV3Oracle.UniswapV3DeploymentConfig",
          "name": "_config",
          "type": "tuple"
        }
      ],
      "name": "create",
      "outputs": [
        {
          "internalType": "contract UniswapV3Oracle",
          "name": "oracle",
          "type": "address"
        }
      ],
      "stateMutability": "nonpayable",
      "type": "function"
    },
    {
      "inputs": [
        {
          "internalType": "bytes32",
          "name": "",
          "type": "bytes32"
        }
      ],
      "name": "getConfigAddress",
      "outputs": [
        {
          "internalType": "address",
          "name": "",
          "type": "address"
        }
      ],
      "stateMutability": "view",
      "type": "function"
    },
    {
      "inputs": [
        {
          "internalType": "address",
          "name": "",
          "type": "address"
        }
      ],
      "name": "getOracleAddress",
      "outputs": [
        {
          "internalType": "address",
          "name": "",
          "type": "address"
        }
      ],
      "stateMutability": "view",
      "type": "function"
    },
    {
      "inputs": [
        {
          "components": [
            {
              "internalType": "contract IUniswapV3Pool",
              "name": "pool",
              "type": "address"
            },
            {
              "internalType": "address",
              "name": "baseToken",
              "type": "address"
            },
            {
              "internalType": "address",
              "name": "quoteToken",
              "type": "address"
            },
            {
              "internalType": "uint32",
              "name": "periodForAvgPrice",
              "type": "uint32"
            },
            {
              "internalType": "uint8",
              "name": "blockTime",
              "type": "uint8"
            }
          ],
          "internalType": "struct IUniswapV3Oracle.UniswapV3DeploymentConfig",
          "name": "_config",
          "type": "tuple"
        }
      ],
      "name": "hashConfig",
      "outputs": [
        {
          "internalType": "bytes32",
          "name": "configId",
          "type": "bytes32"
        }
      ],
      "stateMutability": "view",
      "type": "function"
    },
    {
      "inputs": [
        {
          "internalType": "contract IUniswapV3Pool",
          "name": "_pool",
          "type": "address"
        },
        {
          "internalType": "uint16",
          "name": "_requiredCardinality",
          "type": "uint16"
        }
      ],
      "name": "observationsStatus",
      "outputs": [
        {
          "internalType": "bool",
          "name": "bufferFull",
          "type": "bool"
        },
        {
          "internalType": "bool",
          "name": "enoughObservations",
          "type": "bool"
        },
        {
          "internalType": "uint16",
          "name": "currentCardinality",
          "type": "uint16"
        }
      ],
      "stateMutability": "view",
      "type": "function"
    },
    {
      "inputs": [
        {
          "components": [
            {
              "internalType": "contract IUniswapV3Pool",
              "name": "pool",
              "type": "address"
            },
            {
              "internalType": "address",
              "name": "baseToken",
              "type": "address"
            },
            {
              "internalType": "address",
              "name": "quoteToken",
              "type": "address"
            },
            {
              "internalType": "uint32",
              "name": "periodForAvgPrice",
              "type": "uint32"
            },
            {
              "internalType": "uint8",
              "name": "blockTime",
              "type": "uint8"
            }
          ],
          "internalType": "struct IUniswapV3Oracle.UniswapV3DeploymentConfig",
          "name": "_config",
          "type": "tuple"
        }
      ],
      "name": "verifyConfig",
      "outputs": [
        {
          "internalType": "uint16",
          "name": "requiredCardinality",
          "type": "uint16"
        }
      ],
      "stateMutability": "pure",
      "type": "function"
    },
    {
      "inputs": [
        {
          "internalType": "contract IUniswapV3Pool",
          "name": "_pool",
          "type": "address"
        },
        {
          "internalType": "address",
          "name": "_quoteToken",
          "type": "address"
        },
        {
          "internalType": "uint16",
          "name": "_requiredCardinality",
          "type": "uint16"
        }
      ],
      "name": "verifyPool",
      "outputs": [],
      "stateMutability": "view",
      "type": "function"
    },
    {
      "anonymous": false,
      "inputs": [
        {
          "indexed": true,
          "internalType": "address",
          "name": "oracle",
          "type": "address"
        }
      ],
      "name": "NewOracle",
      "type": "event"
    }
  ],
  "bytecode": "0x60c06040523480156200001157600080fd5b5060405162002cc138038062002cc1833981016040819052620000349162000163565b604051620000429062000155565b604051809103906000f0801580156200005f573d6000803e3d6000fd5b506001600160a01b038116620000aa576040805162461bcd60e51b815260206004820152600b60248201526a5a65726f4164647265737360a81b604482015290519081900360640190fd5b60601b6001600160601b0319166080526040516322afcccb60e01b81526001600160a01b038216906322afcccb90620000ea906103e890600401620001b6565b60206040518083038186803b1580156200010357600080fd5b505afa15801562000118573d6000803e3d6000fd5b505050506040513d601f19601f820116820180604052508101906200013e919062000193565b5060601b6001600160601b03191660a052620001c6565b61162d806200169483390190565b60006020828403121562000175578081fd5b81516001600160a01b03811681146200018c578182fd5b9392505050565b600060208284031215620001a5578081fd5b81518060020b81146200018c578182fd5b62ffffff91909116815260200190565b60805160601c60a05160601c61149a620001fa6000398061043f52806108c252508061073b5280610822525061149a6000f3fe60806040523480156200001157600080fd5b5060043610620000a05760003560e01c8063a8f39f66116200006f578063a8f39f661462000139578063b76265fd1462000143578063b9b3a7cb146200016b578063e2d4624d1462000182578063f896503a146200018c57620000a0565b806310d5ad8a14620000a55780635448217314620000d45780635784b41314620000fa57806373e4286c1462000113575b600080fd5b620000bc620000b636600462000c15565b620001a3565b604051620000cb919062001034565b60405180910390f35b620000eb620000e536600462000b29565b620002aa565b604051620000cb919062000ded565b620001116200010b36600462000b87565b620002c5565b005b6200012a6200012436600462000c15565b62000707565b604051620000cb919062000e45565b620000eb62000739565b6200015a6200015436600462000bd8565b6200075d565b604051620000cb9392919062000e29565b620000eb6200017c36600462000c15565b6200077b565b620000eb620008c0565b620000eb6200019d36600462000b6e565b620008e4565b6000816080015160ff1660001415620001d95760405162461bcd60e51b8152600401620001d09062000ed3565b60405180910390fd5b606082015163ffffffff16620002035760405162461bcd60e51b8152600401620001d09062000efd565b6000826080015160ff16836060015163ffffffff16600a02816200022357fe5b04905061ffff8111156200024b5760405162461bcd60e51b8152600401620001d09062000e4e565b82516001600160a01b0316620002755760405162461bcd60e51b8152600401620001d09062000fda565b60408301516001600160a01b0316620002a25760405162461bcd60e51b8152600401620001d09062000e85565b90505b919050565b6001602052600090815260409020546001600160a01b031681565b6000836001600160a01b0316630dfe16816040518163ffffffff1660e01b815260040160206040518083038186803b1580156200030157600080fd5b505afa15801562000316573d6000803e3d6000fd5b505050506040513d601f19601f820116820180604052508101906200033c919062000b4f565b90506000846001600160a01b031663d21220a76040518163ffffffff1660e01b815260040160206040518083038186803b1580156200037a57600080fd5b505afa1580156200038f573d6000803e3d6000fd5b505050506040513d601f19601f82011682018060405250810190620003b5919062000b4f565b9050836001600160a01b0316826001600160a01b031614158015620003ec5750836001600160a01b0316816001600160a01b031614155b156200040c5760405162461bcd60e51b8152600401620001d09062000f7c565b6000826001600160a01b0316856001600160a01b0316146200042f578262000431565b815b9050856001600160a01b03167f00000000000000000000000000000000000000000000000000000000000000006001600160a01b0316631698ee8287848a6001600160a01b031663ddca3f436040518163ffffffff1660e01b815260040160206040518083038186803b158015620004a857600080fd5b505afa158015620004bd573d6000803e3d6000fd5b505050506040513d601f19601f82011682018060405250810190620004e3919062000d69565b6040518463ffffffff1660e01b8152600401620005039392919062000e01565b60206040518083038186803b1580156200051c57600080fd5b505afa15801562000531573d6000803e3d6000fd5b505050506040513d601f19601f8201168201806040525081019062000557919062000b4f565b6001600160a01b031614620005805760405162461bcd60e51b8152600401620001d09062000eae565b6040516370a0823160e01b81526000906001600160a01b038516906370a0823190620005b1908a9060040162000ded565b60206040518083038186803b158015620005ca57600080fd5b505afa158015620005df573d6000803e3d6000fd5b505050506040513d601f19601f8201168201806040525081019062000605919062000d8e565b905080620006275760405162461bcd60e51b8152600401620001d09062000f34565b6040516370a0823160e01b81526001600160a01b038416906370a082319062000655908a9060040162000ded565b60206040518083038186803b1580156200066e57600080fd5b505afa15801562000683573d6000803e3d6000fd5b505050506040513d601f19601f82011682018060405250810190620006a9919062000d8e565b905080620006cb5760405162461bcd60e51b8152600401620001d09062000f58565b6000620006d98887620008ff565b5050905080620006fd5760405162461bcd60e51b8152600401620001d09062000fb3565b5050505050505050565b6000816040516020016200071c919062000ffd565b604051602081830303815290604052805190602001209050919050565b7f000000000000000000000000000000000000000000000000000000000000000081565b60008060006200076e8585620008ff565b9250925092509250925092565b600080620007898362000707565b6000818152602081905260409020549091506001600160a01b03168015620007d0576001600160a01b03908116600090815260016020526040902054169150620002a59050565b6000620007dd85620001a3565b90508481604051620007ef9062000b0e565b620007fc92919062001013565b604051809103906000f08015801562000819573d6000803e3d6000fd5b509150620008477f00000000000000000000000000000000000000000000000000000000000000006200099f565b93506200085684838562000a3d565b60405163189acdbd60e31b81526001600160a01b0385169063c4d66de8906200088490859060040162000ded565b600060405180830381600087803b1580156200089f57600080fd5b505af1158015620008b4573d6000803e3d6000fd5b50505050505050919050565b7f000000000000000000000000000000000000000000000000000000000000000081565b6000602081905290815260409020546001600160a01b031681565b6000806000806000866001600160a01b0316633850c7bd6040518163ffffffff1660e01b815260040160e06040518083038186803b1580156200094157600080fd5b505afa15801562000956573d6000803e3d6000fd5b505050506040513d601f19601f820116820180604052508101906200097c919062000cb7565b505061ffff9a8b168b83168111159d9b90911610159a5098975050505050505050565b6000604051733d602d80600a3d3981f3363d3d373d3d3d363d7360601b81528260601b60148201526e5af43d82803e903d91602b57fd5bf360881b60288201526037816000f09150506001600160a01b038116620002a5576040805162461bcd60e51b8152602060048201526016602482015275115490cc4c4d8dce8818dc99585d194819985a5b195960521b604482015290519081900360640190fd5b6000818152602081905260409020546001600160a01b03161562000a9d576040805162461bcd60e51b815260206004820152601260248201527110dbdb999a59d05b1c9958591e515e1a5cdd60721b604482015290519081900360640190fd5b60008181526020818152604080832080546001600160a01b038088166001600160a01b03199283168117909355918552600190935281842080549188169190931681179092555190917fb3eacd0e351fafdfefdec84e1cd19679b38dbcd63ea7c2c24da17fd2bc3b3c0e91a2505050565b6103e7806200107e83390190565b8035620002a5816200106d565b60006020828403121562000b3b578081fd5b813562000b488162001043565b9392505050565b60006020828403121562000b61578081fd5b815162000b488162001043565b60006020828403121562000b80578081fd5b5035919050565b60008060006060848603121562000b9c578182fd5b833562000ba98162001043565b9250602084013562000bbb8162001043565b9150604084013562000bcd816200105c565b809150509250925092565b6000806040838503121562000beb578182fd5b823562000bf88162001043565b9150602083013562000c0a816200105c565b809150509250929050565b600060a0828403121562000c27578081fd5b60405160a0810181811067ffffffffffffffff8211171562000c4557fe5b604052823562000c558162001043565b8152602083013562000c678162001043565b6020820152604083013562000c7c8162001043565b6040820152606083013563ffffffff8116811462000c98578283fd5b606082015262000cab6080840162000b1c565b60808201529392505050565b600080600080600080600060e0888a03121562000cd2578283fd5b875162000cdf8162001043565b8097505060208801518060020b811462000cf7578384fd5b604089015190965062000d0a816200105c565b606089015190955062000d1d816200105c565b608089015190945062000d30816200105c565b60a089015190935062000d43816200106d565b60c0890151909250801515811462000d59578182fd5b8091505092959891949750929550565b60006020828403121562000d7b578081fd5b815162ffffff8116811462000b48578182fd5b60006020828403121562000da0578081fd5b5051919050565b80516001600160a01b0390811683526020808301518216908401526040808301519091169083015260608082015163ffffffff169083015260809081015160ff16910152565b6001600160a01b0391909116815260200190565b6001600160a01b03938416815291909216602082015262ffffff909116604082015260600190565b9215158352901515602083015261ffff16604082015260600190565b90815260200190565b6020808252601a908201527f496e76616c6964526571756972656443617264696e616c697479000000000000604082015260600190565b6020808252600f908201526e22b6b83a3ca8bab7ba32aa37b5b2b760891b604082015260600190565b6020808252600b908201526a125b9d985b1a59141bdbdb60aa1b604082015260600190565b60208082526010908201526f496e76616c6964426c6f636b54696d6560801b604082015260600190565b60208082526018908201527f496e76616c6964506572696f64466f7241766750726963650000000000000000604082015260600190565b6020808252600a90820152690456d707479506f6f6c360b41b604082015260600190565b6020808252600a9082015269456d707479506f6f6c3160b01b604082015260600190565b60208082526018908201527f496e76616c6964506f6f6c466f7251756f7465546f6b656e0000000000000000604082015260600190565b6020808252600d908201526c109d5999995c939bdd119d5b1b609a1b604082015260600190565b602080825260099082015268115b5c1d1e541bdbdb60ba1b604082015260600190565b60a081016200100d828462000da7565b92915050565b60c0810162001023828562000da7565b61ffff831660a08301529392505050565b61ffff91909116815260200190565b6001600160a01b03811681146200105957600080fd5b50565b61ffff811681146200105957600080fd5b60ff811681146200105957600080fdfe61014060405234801561001157600080fd5b506040516103e73803806103e7833981016040819052610030916100f3565b60f01b6001600160f01b031916610100528051606090811b6001600160601b031990811660809081526020840151831b821660a0526040840151831b90911660c0529082015160e090811b6001600160e01b0319169052015160f81b7fff0000000000000000000000000000000000000000000000000000000000000016610120526101b7565b805161ffff811681146100c957600080fd5b919050565b805163ffffffff811681146100c957600080fd5b805160ff811681146100c957600080fd5b60008082840360c0811215610106578283fd5b60a0811215610113578283fd5b5060405160a081016001600160401b038111828210171561013057fe5b604052835161013e8161019f565b8152602084015161014e8161019f565b602082015260408401516101618161019f565b6040820152610172606085016100ce565b6060820152610183608085016100e2565b6080820152915061019660a084016100b7565b90509250929050565b6001600160a01b03811681146101b457600080fd5b50565b60805160601c60a05160601c60c05160601c60e05160e01c6101005160f01c6101205160f81c6101de610209600039508061010352508060d952508060ad5250806085525080606052506101de6000f3fe608060405234801561001057600080fd5b506004361061002b5760003560e01c8063c3f909d414610030575b600080fd5b61003861004e565b6040516100459190610159565b60405180910390f35b61005661012b565b6001600160a01b037f0000000000000000000000000000000000000000000000000000000000000000811682527f0000000000000000000000000000000000000000000000000000000000000000811660208301527f000000000000000000000000000000000000000000000000000000000000000016604082015263ffffffff7f000000000000000000000000000000000000000000000000000000000000000016606082015261ffff7f000000000000000000000000000000000000000000000000000000000000000016608082015290565b6040805160a08101825260008082526020820181905291810182905260608101829052608081019190915290565b81516001600160a01b0390811682526020808401518216908301526040808401519091169082015260608083015163ffffffff169082015260809182015161ffff169181019190915260a0019056fea26469706673582212206d513e9d1ab6a524eaef6905957cf1eae344da9af0fc9674fd0ae94a289e138364736f6c63430007060033a2646970667358221220fc20ad427d1420ff42ce45ef8e044711b1fa23052a1665511c52df8ba0836da764736f6c63430007060033608060405234801561001057600080fd5b50600080546001600160a01b031916301790556115fb806100326000396000f3fe608060405234801561001057600080fd5b50600436106100935760003560e01c80636a6acf22116100665780636a6acf22146100e85780639af0a55114610108578063c4d66de814610110578063dd3c351714610123578063f9fa619a1461012b57610093565b806313b0be3314610098578063217a4b70146100c1578063324b8d6e146100d657806368a79f9c146100de575b600080fd5b6100ab6100a6366004611333565b61013e565b6040516100b89190611415565b60405180910390f35b6100c961027c565b6040516100b891906113b7565b6100c961030c565b6100e661031b565b005b6100fb6100f63660046111b9565b6104b6565b6040516100b8919061154d565b6100fb6105e4565b6100e661011e3660046110dc565b6106fb565b6100ab61077a565b6100e66101393660046110dc565b6107b9565b60006001600160801b038311156101705760405162461bcd60e51b81526004016101679061141e565b60405180910390fd5b60008060009054906101000a90046001600160a01b03166001600160a01b031663c3f909d46040518163ffffffff1660e01b815260040160a06040518083038186803b1580156101bf57600080fd5b505afa1580156101d3573d6000803e3d6000fd5b505050506040513d601f19601f820116820180604052508101906101f79190611203565b905080604001516001600160a01b0316836001600160a01b0316141561022f5760405162461bcd60e51b815260040161016790611517565b6000610243826000015183606001516107bc565b90506102558186868560400151610850565b9250826102745760405162461bcd60e51b815260040161016790611440565b505092915050565b60008060009054906101000a90046001600160a01b03166001600160a01b031663c3f909d46040518163ffffffff1660e01b815260040160a06040518083038186803b1580156102cb57600080fd5b505afa1580156102df573d6000803e3d6000fd5b505050506040513d601f19601f820116820180604052508101906103039190611203565b60400151905090565b6000546001600160a01b031681565b60008060009054906101000a90046001600160a01b03166001600160a01b031663c3f909d46040518163ffffffff1660e01b815260040160a06040518083038186803b15801561036a57600080fd5b505afa15801561037e573d6000803e3d6000fd5b505050506040513d601f19601f820116820180604052508101906103a29190611203565b9050600081600001516001600160a01b0316633850c7bd6040518163ffffffff1660e01b815260040160e06040518083038186803b1580156103e357600080fd5b505afa1580156103f7573d6000803e3d6000fd5b505050506040513d601f19601f8201168201806040525081019061041b9190611292565b5050945050505050816080015161ffff168161ffff161061044e5760405162461bcd60e51b8152600401610167906114d4565b815160808301516040516332148f6760e01b81526001600160a01b03909216916332148f67916104809160040161153e565b600060405180830381600087803b15801561049a57600080fd5b505af11580156104ae573d6000803e3d6000fd5b505050505050565b600080846001600160a01b031663252c09d78461ffff168660010161ffff16816104dc57fe5b066040518263ffffffff1660e01b81526004016104f9919061153e565b60806040518083038186803b15801561051157600080fd5b505afa158015610525573d6000803e3d6000fd5b505050506040513d601f19601f820116820180604052508101906105499190611362565b9294509192508291506105dc90505760405163252c09d760e01b81526001600160a01b0386169063252c09d79061058590600090600401611415565b60806040518083038186803b15801561059d57600080fd5b505afa1580156105b1573d6000803e3d6000fd5b505050506040513d601f19601f820116820180604052508101906105d59190611362565b5091935050505b509392505050565b60008054604080516330fe427560e21b8152905183926001600160a01b03169163c3f909d49160048083019260a0929190829003018186803b15801561062957600080fd5b505afa15801561063d573d6000803e3d6000fd5b505050506040513d601f19601f820116820180604052508101906106619190611203565b905060008082600001516001600160a01b0316633850c7bd6040518163ffffffff1660e01b815260040160e06040518083038186803b1580156106a357600080fd5b505afa1580156106b7573d6000803e3d6000fd5b505050506040513d601f19601f820116820180604052508101906106db9190611292565b5050509350935050506106f3836000015183836104b6565b935050505090565b6000546001600160a01b0316156107245760405162461bcd60e51b815260040161016790611463565b600080546001600160a01b0319166001600160a01b0383161790556040517fed1366a3ee45e9f12efb7c60c52c940da558f2e33acd595abf783bd741c2efcf9061076f9083906113b7565b60405180910390a150565b604051602401610789906114fa565b60408051601f198184030181529190526020810180516001600160e01b031662461bcd60e51b1781529051902081565b50565b60008060006107cb8585610947565b915091506000816000815181106107de57fe5b6020026020010151826001815181106107f357fe5b60200260200101510390508263ffffffff168160060b8161081057fe5b05935060008160060b12801561083a57508263ffffffff168160060b8161083357fe5b0760060b15155b1561084757600019909301925b50505092915050565b60008061085c86610a31565b90506001600160801b036001600160a01b038216116108cb576001600160a01b03808216800290848116908616106108ab576108a6600160c01b876001600160801b031683610d63565b6108c3565b6108c381876001600160801b0316600160c01b610d63565b92505061093e565b60006108ea6001600160a01b0383168068010000000000000000610d63565b9050836001600160a01b0316856001600160a01b0316106109225761091d600160801b876001600160801b031683610d63565b61093a565b61093a81876001600160801b0316600160801b610d63565b9250505b50949350505050565b80606060006109568584610e13565b90925090508015610a2957600080866001600160a01b0316633850c7bd6040518163ffffffff1660e01b815260040160e06040518083038186803b15801561099d57600080fd5b505afa1580156109b1573d6000803e3d6000fd5b505050506040513d601f19601f820116820180604052508101906109d59190611292565b50505093509350505060006109eb8884846104b6565b90508063ffffffff1642039550610a028887610e13565b90955093508315610a255760405162461bcd60e51b8152600401610167906114b1565b5050505b509250929050565b60008060008360020b12610a48578260020b610a50565b8260020b6000035b9050620d89e8811115610a8e576040805162461bcd60e51b81526020600482015260016024820152601560fa1b604482015290519081900360640190fd5b600060018216610aa257600160801b610ab4565b6ffffcb933bd6fad37aa2d162d1a5940015b70ffffffffffffffffffffffffffffffffff1690506002821615610ae8576ffff97272373d413259a46990580e213a0260801c5b6004821615610b07576ffff2e50f5f656932ef12357cf3c7fdcc0260801c5b6008821615610b26576fffe5caca7e10e4e61c3624eaa0941cd00260801c5b6010821615610b45576fffcb9843d60f6159c9db58835c9266440260801c5b6020821615610b64576fff973b41fa98c081472e6896dfb254c00260801c5b6040821615610b83576fff2ea16466c96a3843ec78b326b528610260801c5b6080821615610ba2576ffe5dee046a99a2a811c461f1969c30530260801c5b610100821615610bc2576ffcbe86c7900a88aedcffc83b479aa3a40260801c5b610200821615610be2576ff987a7253ac413176f2b074cf7815e540260801c5b610400821615610c02576ff3392b0822b70005940c7a398e4b70f30260801c5b610800821615610c22576fe7159475a2c29b7443b29c7fa6e889d90260801c5b611000821615610c42576fd097f3bdfd2022b8845ad8f792aa58250260801c5b612000821615610c62576fa9f746462d870fdf8a65dc1f90e061e50260801c5b614000821615610c82576f70d869a156d2a1b890bb3df62baf32f70260801c5b618000821615610ca2576f31be135f97d08fd981231505542fcfa60260801c5b62010000821615610cc3576f09aa508b5b7a84e1c677de54f3e99bc90260801c5b62020000821615610ce3576e5d6af8dedb81196699c329225ee6040260801c5b62040000821615610d02576d2216e584f5fa1ea926041bedfe980260801c5b62080000821615610d1f576b048a170391f7dc42444e8fa20260801c5b60008460020b1315610d3a578060001981610d3657fe5b0490505b640100000000810615610d4e576001610d51565b60005b60ff16602082901c0192505050919050565b6000808060001985870986860292508281109083900303905080610d995760008411610d8e57600080fd5b508290049050610e0c565b808411610da557600080fd5b6000848688096000868103871696879004966002600389028118808a02820302808a02820302808a02820302808a02820302808a02820302808a02909103029181900381900460010186841190950394909402919094039290920491909117919091029150505b9392505050565b604080516002808252606082810190935260009182918160200160208202803683370190505090508381600081518110610e4957fe5b63ffffffff9092166020928302919091019091015260405163883bdbfd60e01b81526001600160a01b0386169063883bdbfd90610e8a9084906004016113cb565b60006040518083038186803b158015610ea257600080fd5b505afa925050508015610ed757506040513d6000823e601f3d908101601f19168201604052610ed491908101906110f8565b60015b610f8b573d808015610f05576040519150601f19603f3d011682016040523d82523d6000602084013e610f0a565b606091505b50604051602401610f1a906114fa565b60408051601f19818403018152919052602080820180516001600160e01b031662461bcd60e51b178152915190912082519183019190912014610f81576040805180820190915260088152675f6f62736572766560c01b6020820152610f81908290610f98565b6001925050610a29565b5095600095509350505050565b815115610fa757815182602001fd5b8060405162461bcd60e51b81526004018080602001828103825283818151815260200191508051906020019080838360005b83811015610ff1578181015183820152602001610fd9565b50505050905090810190601f16801561101e5780820380516001836020036101000a031916815260200191505b509250505060405180910390fd5b600082601f83011261103c578081fd5b8151602061105161104c83611582565b61155e565b828152818101908583018385028701840188101561106d578586fd5b855b85811015611094578151611082816115a0565b8452928401929084019060010161106f565b5090979650505050505050565b805180151581146110b157600080fd5b919050565b8051600681900b81146110b157600080fd5b805163ffffffff811681146110b157600080fd5b6000602082840312156110ed578081fd5b8135610e0c816115a0565b6000806040838503121561110a578081fd5b825167ffffffffffffffff80821115611121578283fd5b818501915085601f830112611134578283fd5b8151602061114461104c83611582565b82815281810190858301838502870184018b1015611160578788fd5b8796505b8487101561118957611175816110b6565b835260019690960195918301918301611164565b50918801519196509093505050808211156111a2578283fd5b506111af8582860161102c565b9150509250929050565b6000806000606084860312156111cd578081fd5b83356111d8816115a0565b925060208401356111e8816115b5565b915060408401356111f8816115b5565b809150509250925092565b600060a08284031215611214578081fd5b60405160a0810181811067ffffffffffffffff8211171561123157fe5b604052825161123f816115a0565b8152602083015161124f816115a0565b60208201526040830151611262816115a0565b6040820152611273606084016110c8565b60608201526080830151611286816115b5565b60808201529392505050565b600080600080600080600060e0888a0312156112ac578283fd5b87516112b7816115a0565b8097505060208801518060020b81146112ce578384fd5b60408901519096506112df816115b5565b60608901519095506112f0816115b5565b6080890151909450611301816115b5565b60a089015190935060ff81168114611317578283fd5b915061132560c089016110a1565b905092959891949750929550565b60008060408385031215611345578182fd5b823591506020830135611357816115a0565b809150509250929050565b60008060008060808587031215611377578182fd5b611380856110c8565b935061138e602086016110b6565b9250604085015161139e816115a0565b91506113ac606086016110a1565b905092959194509250565b6001600160a01b0391909116815260200190565b6020808252825182820181905260009190848201906040850190845b8181101561140957835163ffffffff16835292840192918401916001016113e7565b50909695505050505050565b90815260200190565b6020808252600890820152674f766572666c6f7760c01b604082015260600190565b6020808252600990820152685a65726f51756f746560b81b604082015260600190565b6020808252602e908201527f496e697469616c697a61626c653a20636f6e747261637420697320616c72656160408201526d191e481a5b9a5d1a585b1a5e995960921b606082015260800190565b60208082526009908201526814d51253130813d31160ba1b604082015260600190565b6020808252600c908201526b4e6f744e656365737361727960a01b604082015260600190565b60208082526003908201526213d31160ea1b604082015260600190565b6020808252600d908201526c155cd950985cd9505b5bdd5b9d609a1b604082015260600190565b61ffff91909116815260200190565b63ffffffff91909116815260200190565b60405181810167ffffffffffffffff8111828210171561157a57fe5b604052919050565b600067ffffffffffffffff82111561159657fe5b5060209081020190565b6001600160a01b03811681146107b957600080fd5b61ffff811681146107b957600080fdfea2646970667358221220827156f5366631c74d8a053de387b1d9705238e4d905adb09eeef208d2313d8464736f6c63430007060033",
  "language": "Solidity",
  "compiler": "0.7.6+commit.7338295f"
}