{
  "address": "0x45adB05683a27a71BF161825de3291aC2F9B6c3F",
  "abi": [
    {
      "inputs": [],
      "stateMutability": "nonpayable",
      "type": "constructor"
    },
    {
      "inputs": [],
      "name": "DP",
      "outputs": [
        {
          "internalType": "uint256",
          "name": "",
          "type": "uint256"
        }
      ],
      "stateMutability": "view",
      "type": "function"
    },
    {
      "inputs": [],
      "name": "IRM",
      "outputs": [
        {
          "internalType": "address",
          "name": "",
          "type": "address"
        }
      ],
      "stateMutability": "view",
      "type": "function"
    },
    {
      "inputs": [
        {
          "components": [
            {
              "internalType": "int256",
              "name": "uopt",
              "type": "int256"
            },
            {
              "internalType": "int256",
              "name": "ucrit",
              "type": "int256"
            },
            {
              "internalType": "int256",
              "name": "ulow",
              "type": "int256"
            },
            {
              "internalType": "int256",
              "name": "ki",
              "type": "int256"
            },
            {
              "internalType": "int256",
              "name": "kcrit",
              "type": "int256"
            },
            {
              "internalType": "int256",
              "name": "klow",
              "type": "int256"
            },
            {
              "internalType": "int256",
              "name": "klin",
              "type": "int256"
            },
            {
              "internalType": "int256",
              "name": "beta",
              "type": "int256"
            },
            {
              "internalType": "int112",
              "name": "ri",
              "type": "int112"
            },
            {
              "internalType": "int112",
              "name": "Tcrit",
              "type": "int112"
            }
          ],
          "internalType": "struct IInterestRateModelV2.Config",
          "name": "_config",
          "type": "tuple"
        }
      ],
      "name": "create",
      "outputs": [
        {
          "internalType": "bytes32",
          "name": "configHash",
          "type": "bytes32"
        },
        {
          "internalType": "contract IInterestRateModelV2",
          "name": "irm",
          "type": "address"
        }
      ],
      "stateMutability": "nonpayable",
      "type": "function"
    },
    {
      "inputs": [
        {
          "components": [
            {
              "internalType": "int256",
              "name": "uopt",
              "type": "int256"
            },
            {
              "internalType": "int256",
              "name": "ucrit",
              "type": "int256"
            },
            {
              "internalType": "int256",
              "name": "ulow",
              "type": "int256"
            },
            {
              "internalType": "int256",
              "name": "ki",
              "type": "int256"
            },
            {
              "internalType": "int256",
              "name": "kcrit",
              "type": "int256"
            },
            {
              "internalType": "int256",
              "name": "klow",
              "type": "int256"
            },
            {
              "internalType": "int256",
              "name": "klin",
              "type": "int256"
            },
            {
              "internalType": "int256",
              "name": "beta",
              "type": "int256"
            },
            {
              "internalType": "int112",
              "name": "ri",
              "type": "int112"
            },
            {
              "internalType": "int112",
              "name": "Tcrit",
              "type": "int112"
            }
          ],
          "internalType": "struct IInterestRateModelV2.Config",
          "name": "_config",
          "type": "tuple"
        }
      ],
      "name": "hashConfig",
      "outputs": [
        {
          "internalType": "bytes32",
          "name": "configId",
          "type": "bytes32"
        }
      ],
      "stateMutability": "pure",
      "type": "function"
    },
    {
      "inputs": [
        {
          "internalType": "bytes32",
          "name": "configHash",
          "type": "bytes32"
        }
      ],
      "name": "irmByConfigHash",
      "outputs": [
        {
          "internalType": "contract IInterestRateModelV2",
          "name": "",
          "type": "address"
        }
      ],
      "stateMutability": "view",
      "type": "function"
    },
    {
      "inputs": [
        {
          "components": [
            {
              "internalType": "int256",
              "name": "uopt",
              "type": "int256"
            },
            {
              "internalType": "int256",
              "name": "ucrit",
              "type": "int256"
            },
            {
              "internalType": "int256",
              "name": "ulow",
              "type": "int256"
            },
            {
              "internalType": "int256",
              "name": "ki",
              "type": "int256"
            },
            {
              "internalType": "int256",
              "name": "kcrit",
              "type": "int256"
            },
            {
              "internalType": "int256",
              "name": "klow",
              "type": "int256"
            },
            {
              "internalType": "int256",
              "name": "klin",
              "type": "int256"
            },
            {
              "internalType": "int256",
              "name": "beta",
              "type": "int256"
            },
            {
              "internalType": "int112",
              "name": "ri",
              "type": "int112"
            },
            {
              "internalType": "int112",
              "name": "Tcrit",
              "type": "int112"
            }
          ],
          "internalType": "struct IInterestRateModelV2.Config",
          "name": "_config",
          "type": "tuple"
        }
      ],
      "name": "verifyConfig",
      "outputs": [],
      "stateMutability": "view",
      "type": "function"
    },
    {
      "anonymous": false,
      "inputs": [
        {
          "indexed": true,
          "internalType": "bytes32",
          "name": "configHash",
          "type": "bytes32"
        },
        {
          "indexed": true,
          "internalType": "contract IInterestRateModelV2",
          "name": "irm",
          "type": "address"
        }
      ],
      "name": "NewInterestRateModelV2",
      "type": "event"
    },
    {
      "inputs": [],
      "name": "FailedDeployment",
      "type": "error"
    },
    {
      "inputs": [
        {
          "internalType": "uint256",
          "name": "balance",
          "type": "uint256"
        },
        {
          "internalType": "uint256",
          "name": "needed",
          "type": "uint256"
        }
      ],
      "name": "InsufficientBalance",
      "type": "error"
    },
    {
      "inputs": [],
      "name": "InvalidBeta",
      "type": "error"
    },
    {
      "inputs": [],
      "name": "InvalidKcrit",
      "type": "error"
    },
    {
      "inputs": [],
      "name": "InvalidKi",
      "type": "error"
    },
    {
      "inputs": [],
      "name": "InvalidKlin",
      "type": "error"
    },
    {
      "inputs": [],
      "name": "InvalidKlow",
      "type": "error"
    },
    {
      "inputs": [],
      "name": "InvalidRi",
      "type": "error"
    },
    {
      "inputs": [],
      "name": "InvalidTcrit",
      "type": "error"
    },
    {
      "inputs": [],
      "name": "InvalidUcrit",
      "type": "error"
    },
    {
      "inputs": [],
      "name": "InvalidUlow",
      "type": "error"
    },
    {
      "inputs": [],
      "name": "InvalidUopt",
      "type": "error"
    }
  ],
  "bytecode": "0x60a0604052348015600e575f5ffd5b506040516019906042565b604051809103905ff0801580156031573d5f5f3e3d5ffd5b506001600160a01b0316608052604f565b6125ee80610c0c83390190565b608051610b986100745f395f81816069015281816101b9015261046b0152610b985ff3fe608060405234801561000f575f5ffd5b5060043610610060575f3560e01c80631e75db16146100645780632864e091146100a85780636bcc8216146100d057806379c682c1146100ed578063d465018a1461011d578063f92d641814610132575b5f5ffd5b61008b7f000000000000000000000000000000000000000000000000000000000000000081565b6040516001600160a01b0390911681526020015b60405180910390f35b61008b6100b63660046105b1565b5f602081905290815260409020546001600160a01b031681565b6100df670de0b6b3a764000081565b60405190815260200161009f565b6101006100fb3660046105c8565b610145565b604080519283526001600160a01b0390911660208301520161009f565b61013061012b3660046105c8565b610290565b005b6100df6101403660046105c8565b6104d0565b5f5f610150836104d0565b5f818152602081905260409020549092506001600160a01b03169050801561017757915091565b61018083610290565b5f8360405161018e906105a4565b61019891906105f8565b604051809103905ff0801580156101b1573d5f5f3e3d5ffd5b5090506101dd7f00000000000000000000000000000000000000000000000000000000000000006104ff565b60405163189acdbd60e31b81526001600160a01b0383811660048301529193509083169063c4d66de8906024015f604051808303815f87803b158015610221575f5ffd5b505af1158015610233573d5f5f3e3d5ffd5b5050505f8481526020819052604080822080546001600160a01b0319166001600160a01b038716908117909155905190925085917f7a56c031e2e076b9c466d347a09b8bc9458baafdcfc59a33dfffb06f37bbc54291a350915091565b670de0b6b3a76400005f82351380156102a95750813581135b6102c6576040516313e9c00360e21b815260040160405180910390fd5b813560208301351380156102dd5750808260200135125b6102fa576040516339bda99160e11b815260040160405180910390fd5b5f8260400135138015610311575081356040830135125b61032e57604051635c65494d60e01b815260040160405180910390fd5b5f826060013512156103535760405163fe06781560e01b815260040160405180910390fd5b5f82608001351215610378576040516320d12cb560e21b815260040160405180910390fd5b5f8260a0013512156103a0576040516001627ddb5960e01b0319815260040160405180910390fd5b5f8260c0013512156103c557604051634e435a2160e01b815260040160405180910390fd5b5f8260e0013512156103ea576040516378a8371160e01b815260040160405180910390fd5b5f6103fd61012084016101008501610689565b600d0b121561041f576040516330eecc6b60e21b815260040160405180910390fd5b5f61043261014084016101208501610689565b600d0b121561045457604051630266493760e31b815260040160405180910390fd5b60405163167c93eb60e31b81526001600160a01b037f0000000000000000000000000000000000000000000000000000000000000000169063b3e49f58906104a09085906004016105f8565b5f6040518083038186803b1580156104b6575f5ffd5b505afa1580156104c8573d5f5f3e3d5ffd5b505050505050565b5f816040516020016104e291906105f8565b604051602081830303815290604052805190602001209050919050565b5f61050a825f610510565b92915050565b5f8147101561053f5760405163cf47918160e01b81524760048201526024810183905260440160405180910390fd5b6e5af43d82803e903d91602b57fd5bf360205282601152763d602d80600a3d3981f3363d3d373d3d3d363d730000008360881c175f526037600983f090506001600160a01b03811661050a5760405163b06ebf3d60e01b815260040160405180910390fd5b6104b9806106aa83390190565b5f602082840312156105c1575f5ffd5b5035919050565b5f6101408284031280156105da575f5ffd5b509092915050565b8035600d81900b81146105f3575f5ffd5b919050565b813581526020808301359082015260408083013590820152606080830135908201526080808301359082015260a0808301359082015260c0808301359082015260e08083013590820152610140810161065461010084016105e2565b610664610100840182600d0b9052565b5061067261012084016105e2565b610682610120840182600d0b9052565b5092915050565b5f60208284031215610699575f5ffd5b6106a2826105e2565b939250505056fe6101c0604052348015610010575f5ffd5b506040516104b93803806104b983398101604081905261002f916100dd565b80516080908152602082015160a0908152604083015160c0908152606084015160e0908152928401516101009081529184015161012090815290840151610140529183015161016052820151600d90810b61018052910151900b6101a05261016f565b60405161014081016001600160401b03811182821017156100c157634e487b7160e01b5f52604160045260245ffd5b60405290565b8051600d81900b81146100d8575f5ffd5b919050565b5f6101408284031280156100ef575f5ffd5b506100f8610092565b825181526020808401519082015260408084015190820152606080840151908201526080808401519082015260a0808401519082015260c0808401519082015260e0808401519082015261014f61010084016100c7565b61010082015261016261012084016100c7565b6101208201529392505050565b60805160a05160c05160e05161010051610120516101405161016051610180516101a0516102de6101db5f395f6101f801525f6101cc01525f6101a601525f61018001525f61015a01525f61013401525f61010e01525f60e801525f60c201525f609f01526102de5ff3fe608060405234801561000f575f5ffd5b5060043610610029575f3560e01c8063c3f909d41461002d575b5f5ffd5b61003561004b565b6040516100429190610222565b60405180910390f35b61009d6040518061014001604052805f81526020015f81526020015f81526020015f81526020015f81526020015f81526020015f81526020015f81526020015f600d0b81526020015f600d0b81525090565b7f000000000000000000000000000000000000000000000000000000000000000081527f000000000000000000000000000000000000000000000000000000000000000060208201527f000000000000000000000000000000000000000000000000000000000000000060408201527f000000000000000000000000000000000000000000000000000000000000000060608201527f000000000000000000000000000000000000000000000000000000000000000060808201527f000000000000000000000000000000000000000000000000000000000000000060a08201527f000000000000000000000000000000000000000000000000000000000000000060c08201527f000000000000000000000000000000000000000000000000000000000000000060e08201527f0000000000000000000000000000000000000000000000000000000000000000600d90810b6101008301527f0000000000000000000000000000000000000000000000000000000000000000900b61012082015290565b5f61014082019050825182526020830151602083015260408301516040830152606083015160608301526080830151608083015260a083015160a083015260c083015160c083015260e083015160e083015261010083015161028a610100840182600d0b9052565b506101208301516102a1610120840182600d0b9052565b509291505056fea2646970667358221220b115e739af79140490d56798607b39258eac5f9c54365bedb6b20f53dfb5988564736f6c634300081c0033a2646970667358221220ceb8a55682ed92de14904915ad9e25d76a6488bc9aa1df5fe9dcf669c73163e864736f6c634300081c00336080604052348015600e575f5ffd5b506125d28061001c5f395ff3fe608060405234801561000f575f5ffd5b50600436106100fb575f3560e01c806384de969a11610093578063c6c721b311610063578063c6c721b314610242578063cfdfcffa146102a1578063e076a551146102b4578063e48a5f7b146102c5575f5ffd5b806384de969a146101e4578063b3e49f58146101f7578063b78fec821461020c578063c4d66de81461022f575f5ffd5b80635c0e02a3116100ce5780635c0e02a31461015f57806364efe1771461018d57806367f37b56146101a057806381b51e0c146101d5575f5ffd5b8063109a006e146100ff578063313ce5671461011a5780634cacae5e146101215780634fa165e614610134575b5f5ffd5b6101076102e5565b6040519081526020015b60405180910390f35b6012610107565b61010761012f366004611ff8565b6102fd565b600154610147906001600160a01b031681565b6040516001600160a01b039091168152602001610111565b61017261016d366004611ff8565b610580565b60408051938452602084019290925290820152606001610111565b61010761019b3660046120d0565b6105a2565b6101b36101ae366004611ff8565b610636565b6040805194855260208501939093529183015215156060820152608001610111565b6101076799e8e8e3d530368181565b6101076101f23660046120f8565b610aab565b61020a610205366004612121565b610bba565b005b61021f61021a3660046120d0565b610e4f565b6040519015158152602001610111565b61020a61023d36600461213b565b610ee6565b61027c61025036600461213b565b5f60208190529081526040902054600d81810b91600160701b810490910b90600160e01b900460ff1683565b60408051600d94850b81529290930b6020830152151591810191909152606001610111565b6101076102af3660046120d0565b610f7f565b610107690de0b6b3a7640000000081565b6102d86102d336600461213b565b611016565b6040516101119190612154565b6102fa690de0b6b3a764000000005f19612202565b81565b5f8183111561031f5760405163d22806e360e01b815260040160405180910390fd5b5f6040518060e001604052805f81526020015f81526020015f81526020015f81526020015f81526020015f81526020015f151581525090506103648787878787610636565b15801560c0860152925061037e915050575f915050610577565b610389848403611143565b81526103a66103a1670de0b6b3a76400008888611178565b611143565b6020808301829052670de0b6b3a76400006040840152880151121561044d578060400151876020015182602001516103de9190612215565b6040830151835160e08b01516103f49190612234565b8a6101200151600d0b856040015161040c9190612263565b6104169190612263565b8a608001516104259190612234565b61042f919061228a565b6104399190612234565b610443919061228a565b606082015261048e565b6104885f82604001518960400151846020015161046a9190612215565b8a60a001516104799190612234565b610483919061228a565b6111dc565b60608201525b806040015181602001518860c001516104a79190612234565b6104b1919061228a565b608082018190526101008801516104ce91600d9190910b906111f5565b60a0820152604081015181518851602084015161052c9392916104f091612215565b8a606001516104ff9190612234565b6105099190612234565b610513919061228a565b8260a001516105229190612263565b82608001516111f5565b60a082018190526060820151610558916105539161054991612263565b83608001516111f5565b611203565b91506105686301e13380836122b6565b915061057382611228565b9150505b95945050505050565b5f5f5f6105908888888888610636565b50919a90995090975095505050505050565b5f5f836001600160a01b0316639ef2fda06040518163ffffffff1660e01b8152600401606060405180830381865afa1580156105e0573d5f5f3e3d5ffd5b505050506040513d601f19601f8201168201806040525081019061060491906122cd565b905061062e61061285611016565b82516020840151604085015167ffffffffffffffff16876102fd565b949350505050565b5f5f5f5f886101000151600d0b9250886101200151600d0b91505f6040518061014001604052805f81526020015f81526020015f81526020015f81526020015f81526020015f81526020015f81526020015f81526020015f81526020015f8152509050858711156106ba5760405163d22806e360e01b815260040160405180910390fd5b6106c5878703611143565b8152670de0b6b3a76400006106de6103a1828c8c611178565b61012083018190528b5182916106f49190612215565b8c606001516107039190612234565b61070d919061228a565b6020808401919091528b015161012083015113156107f757808b6020015183610120015161073b9190612215565b826107468782612263565b8e608001516107559190612234565b61075f919061228a565b6107699190612234565b610773919061228a565b604083015260208b0151610120830151829161078e91612215565b828d60e001518e608001516107a39190612234565b6107ad919061228a565b6107b79190612234565b6107c1919061228a565b82602001516107d09190612263565b6060830152815160e08c01516107e69190612234565b6107f09085612263565b9350610858565b6108205f828d604001518561012001516108119190612215565b8e60a001516104799190612234565b604083015260208201516060830152815160e08c0151610855915f916108469190612234565b6108509087612215565b6111f5565b93505b808261012001518c60c0015161086e9190612234565b610878919061228a565b60a0830181905261088a9086906111f5565b945081604001518561089c9190612263565b6080830152815160608301516108b29190612234565b82608001516108c19190612263565b60c083015260a08201516080830151128015906108e657508160a001518260c0015112155b1561092257815160c083015160808401516002929161090491612263565b61090e9190612234565b610918919061228a565b60e0830152610a2c565b8160a00151826080015112801561094057508160a001518260c00151125b1561095657815160a08301516109189190612234565b8160a0015182608001511215801561097557508160a001518260c00151125b156109d0576002826060015160028460a0015185608001516109979190612215565b6109a19190612474565b6109ab919061228a565b6109b5919061228a565b825160a08401516109c69190612234565b6109189190612215565b6002826060015160028460a001518560c001516109ed9190612215565b6109f79190612474565b610a01919061228a565b610a0b919061228a565b825160a0840151610a1c9190612234565b610a269190612263565b60e08301525b81516020830151610a5491610a4091612234565b610a4a9087612263565b8360a001516111f5565b9450610a658a8a8460e00151611240565b835191975093505f90610a82908890610a7d90611203565b611385565b90975090508380610a905750805b15610a9c575f95505f94505b50505095509550955095915050565b335f8181526020819052604081209091908280610ad3610aca85611016565b89898942610580565b855460ff60e01b1916600160e01b1786559196509250905060016001606f1b038213610b1c5760016001606f1b03198212610b0e5781610b25565b60016001606f1b0319610b25565b60016001606f1b035b83546dffffffffffffffffffffffffffff19166001600160701b039190911617835560016001606f1b038113610b785760016001606f1b03198112610b6a5780610b81565b60016001606f1b0319610b81565b60016001606f1b035b83546001600160701b0391909116600160701b026dffffffffffffffffffffffffffff60701b1990911617909255509195945050505050565b6301e13380635dfc0f00670de0b6b3a76400005f80610bdd8460e0880135612234565b610bef61014088016101208901612482565b600d0b610bfc9190612263565b90505f83610c0e602089013582612215565b85610c198582612263565b610c279060808c0135612234565b610c31919061228a565b610c3b9190612234565b610c45919061228a565b90505f846040890135610c5b60a08b013561249d565b610c659190612234565b610c6f919061228a565b90505f85610c818160c08c0135612234565b610c8b919061228a565b90505f8688610c9b8c3583612215565b610ca99060608e0135612234565b610cb39190612234565b610cbd919061228a565b610cdb610cd26101208d016101008e01612482565b600d0b846111f5565b610ce59190612263565b90505f87898c35610cf960608f013561249d565b610d039190612234565b610d0d9190612234565b610d17919061228a565b9050610d238583612263565b96505f610d308583612263565b90505f610d3d8c8a612234565b905050505050505050505f82865f013584610d589190612215565b610d66906060890135612234565b610d70919061228a565b90505f838735610d8360608a013561249d565b610d8d9190612234565b610d97919061228a565b90505f84610da960208a013582612215565b86610dbc60e08c013560808d0135612234565b610dc6919061228a565b610dd09190612234565b610dda919061228a565b610de49084612263565b9050815f60028089610df9866108508761249d565b610e039190612234565b610e0d9190612474565b610e17919061228a565b600289610e248983612234565b610e2e9190612234565b610e38919061228a565b610e429190612263565b5050505050505050505050565b5f5f836001600160a01b0316639ef2fda06040518163ffffffff1660e01b8152600401606060405180830381865afa158015610e8d573d5f5f3e3d5ffd5b505050506040513d601f19601f82011682018060405250810190610eb191906122cd565b9050610edb610ebf85611016565b82516020840151604085015167ffffffffffffffff1687610636565b979650505050505050565b6001600160a01b038116610f0d57604051639fabe1c160e01b815260040160405180910390fd5b6001546001600160a01b031615610f365760405162dc149f60e41b815260040160405180910390fd5b600180546001600160a01b0319166001600160a01b0383169081179091556040517f908408e307fc569b417f6cbec5d5a06f44a0a505ac0479b47d421a4b2fd6a1e6905f90a250565b5f5f836001600160a01b0316639ef2fda06040518163ffffffff1660e01b8152600401606060405180830381865afa158015610fbd573d5f5f3e3d5ffd5b505050506040513d601f19601f82011682018060405250810190610fe191906122cd565b905061100b610fef85611016565b82516020840151604085015167ffffffffffffffff1687610580565b509095945050505050565b6110686040518061014001604052805f81526020015f81526020015f81526020015f81526020015f81526020015f81526020015f81526020015f81526020015f600d0b81526020015f600d0b81525090565b6001600160a01b038281165f908152602081815260409182902082516060810184529054600d81810b8352600160701b8204900b92820192909252600160e01b90910460ff1615158183015260015482516330fe427560e21b815292519193169163c3f909d4916004808301926101409291908290030181865afa1580156110f2573d5f5f3e3d5ffd5b505050506040513d601f19601f8201168201806040525081019061111691906124c2565b915080604001511561113d578051600d90810b6101008401526020820151900b6101208301525b50919050565b5f6001600160ff1b038211156111745760405163123baf0360e11b8152600481018390526024015b60405180910390fd5b5090565b5f821580611184575081155b8061118d575083155b1561119957505f6111d5565b6111a38383612202565b6111ae855f19612202565b11156111d2576111c08285855f6113b8565b9050838111156111cd5750825b6111d5565b50825b9392505050565b5f8183126111ea57816111ec565b825b90505b92915050565b5f8183136111ea57816111ec565b5f5f82121561117457604051635467221960e11b81526004810183905260240161116b565b5f68056bc75e2d631000008083116111ef57826111d5565b5f5f5f6799e8e8e3d5303681841261126857690de0b6b3a7640000000092506001915061129f565b670de0b6b3a764000061127a856113fa565b6112849190612215565b90505f8113611293575f61129c565b61129c81611203565b92505b5f8587116112ad57856112af565b865b90507612725dd1d243aba0e75fe645cc4873f9e65afe688c928e81106112dd575f600193509350505061137d565b8386025f8190036112f05750505061137d565b86858281611300576113006121da565b0414158061133157507612725dd1d243aba0e75fe645cc4873f9e65afe688c928e829003670de0b6b3a76400008204115b1561137957867612725dd1d243aba0e75fe645cc4873f9e65afe688c928e839003670de0b6b3a76400000281611369576113696121da565b0494506001935061137d92505050565b5050505b935093915050565b5f8080611398846502e24d16b5a86122b6565b90508085116113a857845f6113ac565b8060015b92509250509250929050565b5f6113e56113c583611450565b80156113e057505f84806113db576113db6121da565b868809115b151590565b6113f086868661147c565b6105779190612554565b5f68023f2fa8f6da5b9d311982121561141457505f919050565b6804cf46d8192b672ecc8212611428575f5ffd5b6714057b7ef767814f82026111d5670de0b6b3a76400006706f05b59d3b20000830105611539565b5f600282600381111561146557611465612567565b61146f919061257b565b60ff166001149050919050565b5f838302815f1985870982811083820303915050805f036114b0578382816114a6576114a66121da565b04925050506111d5565b8084116114ce576114ce84156114c75760116115bb565b60126115bb565b5f848688095f868103871696879004966002600389028118808a02820302808a02820302808a02820302808a02820302808a02820302808a02909103029181900381900460010186841190950394909402919094039290920491909117919091029150509392505050565b5f5f82121561158a5768033dd1780914b971141982121561155b57505f919050565b611566825f03611539565b6ec097ce7bc90715b34b9f100000000081611583576115836121da565b0592915050565b6806f05b59d3b2000000821261159e575f5ffd5b670de0b6b3a7640000608083901b046111d5816115cc565b919050565b634e487b715f52806020526024601cfd5b6001607f1b818116156115f05770016a09e667f3bcc908b2fb1366ea957d3e0260801c5b6001607e1b821615611613577001306fe0a31b7152de8d5a46305c85eded0260801c5b6001607d1b821615611636577001172b83c7d517adcdf7c8c50eb14a79200260801c5b6001607c1b8216156116595770010b5586cf9890f6298b92b71842a983640260801c5b6001607b1b82161561167c577001059b0d31585743ae7c548eb68ca417fe0260801c5b6001607a1b82161561169f57700102c9a3e778060ee6f7caca4f7a29bde90260801c5b600160791b8216156116c25770010163da9fb33356d84a66ae336dcdfa400260801c5b600160781b8216156116e557700100b1afa5abcbed6129ab13ec11dc95440260801c5b600160771b8216156117085770010058c86da1c09ea1ff19d294cf2f679c0260801c5b600160761b82161561172b577001002c605e2e8cec506d21bfc89a23a0110260801c5b600160751b82161561174e57700100162f3904051fa128bca9c55c31e5e00260801c5b600160741b821615611771577001000b175effdc76ba38e31671ca9397260260801c5b600160731b82161561179457700100058ba01fb9f96d6cacd4b180917c3e0260801c5b600160721b8216156117b75770010002c5cc37da9491d0985c348c68e7b40260801c5b600160711b8216156117da577001000162e525ee054754457d59952920270260801c5b600160701b8216156117fd5770010000b17255775c040618bf4a4ade83fd0260801c5b6001606f1b821615611820577001000058b91b5bc9ae2eed81e9b7d4cfac0260801c5b6001606e1b82161561184357700100002c5c89d5ec6ca4d7c8acc017b7ca0260801c5b6001606d1b8216156118665770010000162e43f4f831060e02d839a9d16d0260801c5b6001606c1b82161561188957700100000b1721bcfc99d9f890ea069117630260801c5b6001606b1b8216156118ac5770010000058b90cf1e6d97f9ca14dbcc16290260801c5b6001606a1b8216156118cf577001000002c5c863b73f016468f6bac5ca2c0260801c5b600160691b8216156118f257700100000162e430e5a18f6119e3c02282a60260801c5b600160681b821615611915577001000000b1721835514b86e6d96efd1bff0260801c5b600160671b82161561193857700100000058b90c0b48c6be5df846c5b2f00260801c5b600160661b82161561195b5770010000002c5c8601cc6b9e94213c72737b0260801c5b600160651b82161561197e577001000000162e42fff037df38aa2b219f070260801c5b600160641b8216156119a15770010000000b17217fba9c739aa5819f44fa0260801c5b600160631b8216156119c4577001000000058b90bfcdee5acd3c1cedc8240260801c5b600160621b8216156119e757700100000002c5c85fe31f35a6a30da1be510260801c5b600160611b821615611a0a5770010000000162e42ff0999ce3541b9fffd00260801c5b600160601b821615611a2d57700100000000b17217f80f4ef5aadda455540260801c5b6001605f1b821615611a505770010000000058b90bfbf8479bd5a81b51ae0260801c5b6001605e1b821615611a73577001000000002c5c85fdf84bd62ae30a74cd0260801c5b6001605d1b821615611a9657700100000000162e42fefb2fed257559bdaa0260801c5b6001605c1b821615611ab9577001000000000b17217f7d5a7716bba4a9af0260801c5b6001605b1b821615611adc57700100000000058b90bfbe9ddbac5e109ccf0260801c5b6001605a1b821615611aff5770010000000002c5c85fdf4b15de6f17eb0e0260801c5b600160591b821615611b22577001000000000162e42fefa494f1478fde050260801c5b600160581b821615611b455770010000000000b17217f7d20cf927c8e94d0260801c5b600160571b821615611b68577001000000000058b90bfbe8f71cb4e4b33e0260801c5b600160561b821615611b8b57700100000000002c5c85fdf477b662b269460260801c5b600160551b821615611bae5770010000000000162e42fefa3ae53369388d0260801c5b600160541b821615611bd157700100000000000b17217f7d1d351a389d410260801c5b600160531b821615611bf45770010000000000058b90bfbe8e8b2d3d4edf0260801c5b600160521b821615611c17577001000000000002c5c85fdf4741bea6e77f0260801c5b600160511b821615611c3a57700100000000000162e42fefa39fe95583c30260801c5b600160501b821615611c5d577001000000000000b17217f7d1cfb72b45e30260801c5b6980000000000000000000821615611c8657700100000000000058b90bfbe8e7cc35c3f20260801c5b6940000000000000000000821615611caf5770010000000000002c5c85fdf473e242ea390260801c5b6920000000000000000000821615611cd8577001000000000000162e42fefa39f02b772c0260801c5b6910000000000000000000821615611d015770010000000000000b17217f7d1cf7d83c1a0260801c5b6908000000000000000000821615611d2a577001000000000000058b90bfbe8e7bdcbe2e0260801c5b6904000000000000000000821615611d5357700100000000000002c5c85fdf473dea871f0260801c5b6902000000000000000000821615611d7c5770010000000000000162e42fefa39ef44d920260801c5b6901000000000000000000821615611da557700100000000000000b17217f7d1cf79e9490260801c5b68800000000000000000821615611dcd5770010000000000000058b90bfbe8e7bce5450260801c5b68400000000000000000821615611df5577001000000000000002c5c85fdf473de6eca0260801c5b68200000000000000000821615611e1d57700100000000000000162e42fefa39ef366f0260801c5b68100000000000000000821615611e45577001000000000000000b17217f7d1cf79afa0260801c5b68080000000000000000821615611e6d57700100000000000000058b90bfbe8e7bcd6e0260801c5b68040000000000000000821615611e955770010000000000000002c5c85fdf473de6b30260801c5b68020000000000000000821615611ebd577001000000000000000162e42fefa39ef3590260801c5b68010000000000000000821615611ee55770010000000000000000b17217f7d1cf79ac0260801c5b6001608083901c011b6111ef81670de0b6b3a7640000600160801b5f80805f19858709858702925082811083820303915050805f03611f34575f8411611f29575f5ffd5b5082900490506111d5565b808411611f3f575f5ffd5b5f8486880960026001871981018816978890046003810283188082028403028082028403028082028403028082028403028082028403029081029092039091025f889003889004909101858311909403939093029303949094049190911702949350505050565b604051610140810167ffffffffffffffff81118282101715611fd657634e487b7160e01b5f52604160045260245ffd5b60405290565b80600d0b8114611fea575f5ffd5b50565b80356115b681611fdc565b5f5f5f5f5f8587036101c081121561200e575f5ffd5b61014081121561201c575f5ffd5b50612025611fa6565b863581526020808801359082015260408088013590820152606080880135908201526080808801359082015260a0808801359082015260c0808801359082015260e0808801359082015261207c6101008801611fed565b61010082015261208f6101208801611fed565b6101208201529761014087013597506101608701359661018081013596506101a00135945092505050565b80356001600160a01b03811681146115b6575f5ffd5b5f5f604083850312156120e1575f5ffd5b6120ea836120ba565b946020939093013593505050565b5f5f5f6060848603121561210a575f5ffd5b505081359360208301359350604090920135919050565b5f610140828403128015612133575f5ffd5b509092915050565b5f6020828403121561214b575f5ffd5b6111ec826120ba565b5f61014082019050825182526020830151602083015260408301516040830152606083015160608301526080830151608083015260a083015160a083015260c083015160c083015260e083015160e08301526101008301516121bc610100840182600d0b9052565b506101208301516121d3610120840182600d0b9052565b5092915050565b634e487b7160e01b5f52601260045260245ffd5b634e487b7160e01b5f52601160045260245ffd5b5f82612210576122106121da565b500490565b8181035f8312801583831316838312821617156121d3576121d36121ee565b8082025f8212600160ff1b8414161561224f5761224f6121ee565b81810583148215176111ef576111ef6121ee565b8082018281125f831280158216821582161715612282576122826121ee565b505092915050565b5f82612298576122986121da565b600160ff1b82145f19841416156122b1576122b16121ee565b500590565b80820281158282048414176111ef576111ef6121ee565b5f60608284031280156122de575f5ffd5b506040516060810167ffffffffffffffff8111828210171561230e57634e487b7160e01b5f52604160045260245ffd5b6040908152835182526020808501519083015283015167ffffffffffffffff81168114612339575f5ffd5b60408201529392505050565b80825b600185111561237f57808604811115612363576123636121ee565b600185161561237157908102905b60019490941c938002612348565b94509492505050565b5f82801561239d57600181146123a7576123b0565b60019150506111ef565b829150506111ef565b50816123bd57505f6111ef565b5060015f82138082146123d55780156123f45761240e565b6001600160ff1b038390048311156123ef576123ef6121ee565b61240e565b6001600160ff1b0383900583121561240e5761240e6121ee565b508083161561241a5750805b6124336001600160ff1b03600185901c84800284612345565b5f82136001600160ff1b0382900483111615612451576124516121ee565b5f8212600160ff1b8290058312161561246c5761246c6121ee565b029392505050565b5f6111ec60ff841683612388565b5f60208284031215612492575f5ffd5b81356111d581611fdc565b5f600160ff1b82016124b1576124b16121ee565b505f0390565b80516115b681611fdc565b5f6101408284031280156124d4575f5ffd5b506124dd611fa6565b825181526020808401519082015260408084015190820152606080840151908201526080808401519082015260a0808401519082015260c0808401519082015260e0808401519082015261253461010084016124b7565b61010082015261254761012084016124b7565b6101208201529392505050565b808201808211156111ef576111ef6121ee565b634e487b7160e01b5f52602160045260245ffd5b5f60ff83168061258d5761258d6121da565b8060ff8416069150509291505056fea2646970667358221220d7b6b02fc4ba1b9ecf6e028607ba403b8c84a73f45b53e3019b16034818d561164736f6c634300081c0033",
  "language": "Solidity",
  "compiler": "0.8.28+commit.7893614a"
}