{
  "address": "0xf363C6d369888F5367e9f1aD7b6a7dAe133e8740",
  "abi": [
    {
      "inputs": [
        {
          "internalType": "address",
          "name": "_nativeToken",
          "type": "address"
        },
        {
          "internalType": "address",
          "name": "_exchangeProxy",
          "type": "address"
        },
        {
          "internalType": "address payable",
          "name": "_tokensReceiver",
          "type": "address"
        }
      ],
      "stateMutability": "nonpayable",
      "type": "constructor"
    },
    {
      "stateMutability": "payable",
      "type": "receive"
    },
    {
      "inputs": [],
      "name": "EXCHANGE_PROXY",
      "outputs": [
        {
          "internalType": "address",
          "name": "",
          "type": "address"
        }
      ],
      "stateMutability": "view",
      "type": "function"
    },
    {
      "inputs": [],
      "name": "NATIVE_TOKEN",
      "outputs": [
        {
          "internalType": "address",
          "name": "",
          "type": "address"
        }
      ],
      "stateMutability": "view",
      "type": "function"
    },
    {
      "inputs": [],
      "name": "TOKENS_RECEIVER",
      "outputs": [
        {
          "internalType": "address payable",
          "name": "",
          "type": "address"
        }
      ],
      "stateMutability": "view",
      "type": "function"
    },
    {
      "inputs": [
        {
          "internalType": "contract ISilo",
          "name": "_flashLoanFrom",
          "type": "address"
        },
        {
          "internalType": "address",
          "name": "_debtAsset",
          "type": "address"
        },
        {
          "internalType": "uint256",
          "name": "_maxDebtToCover",
          "type": "uint256"
        },
        {
          "components": [
            {
              "internalType": "contract IPartialLiquidation",
              "name": "hook",
              "type": "address"
            },
            {
              "internalType": "address",
              "name": "collateralAsset",
              "type": "address"
            },
            {
              "internalType": "address",
              "name": "user",
              "type": "address"
            }
          ],
          "internalType": "struct ILiquidationHelper.LiquidationData",
          "name": "_liquidation",
          "type": "tuple"
        },
        {
          "components": [
            {
              "internalType": "address",
              "name": "sellToken",
              "type": "address"
            },
            {
              "internalType": "address",
              "name": "allowanceTarget",
              "type": "address"
            },
            {
              "internalType": "bytes",
              "name": "swapCallData",
              "type": "bytes"
            }
          ],
          "internalType": "struct ILiquidationHelper.DexSwapInput[]",
          "name": "_swapsInputs0x",
          "type": "tuple[]"
        }
      ],
      "name": "executeLiquidation",
      "outputs": [
        {
          "internalType": "uint256",
          "name": "withdrawCollateral",
          "type": "uint256"
        },
        {
          "internalType": "uint256",
          "name": "repayDebtAssets",
          "type": "uint256"
        }
      ],
      "stateMutability": "nonpayable",
      "type": "function"
    },
    {
      "inputs": [
        {
          "internalType": "address",
          "name": "_sellToken",
          "type": "address"
        },
        {
          "internalType": "address",
          "name": "_spender",
          "type": "address"
        },
        {
          "internalType": "bytes",
          "name": "_swapCallData",
          "type": "bytes"
        }
      ],
      "name": "fillQuote",
      "outputs": [],
      "stateMutability": "nonpayable",
      "type": "function"
    },
    {
      "inputs": [
        {
          "internalType": "address",
          "name": "",
          "type": "address"
        },
        {
          "internalType": "address",
          "name": "_debtAsset",
          "type": "address"
        },
        {
          "internalType": "uint256",
          "name": "_maxDebtToCover",
          "type": "uint256"
        },
        {
          "internalType": "uint256",
          "name": "_fee",
          "type": "uint256"
        },
        {
          "internalType": "bytes",
          "name": "_data",
          "type": "bytes"
        }
      ],
      "name": "onFlashLoan",
      "outputs": [
        {
          "internalType": "bytes32",
          "name": "",
          "type": "bytes32"
        }
      ],
      "stateMutability": "nonpayable",
      "type": "function"
    },
    {
      "inputs": [],
      "name": "AddressZero",
      "type": "error"
    },
    {
      "inputs": [],
      "name": "FailedCall",
      "type": "error"
    },
    {
      "inputs": [
        {
          "internalType": "uint256",
          "name": "balance",
          "type": "uint256"
        },
        {
          "internalType": "uint256",
          "name": "needed",
          "type": "uint256"
        }
      ],
      "name": "InsufficientBalance",
      "type": "error"
    },
    {
      "inputs": [],
      "name": "NoDebtToCover",
      "type": "error"
    },
    {
      "inputs": [],
      "name": "STokenNotSupported",
      "type": "error"
    }
  ],
  "bytecode": "0x60e060405234801561000f575f5ffd5b506040516112c83803806112c883398101604081905261002e9161008b565b816001600160a01b03811661005657604051639fabe1c160e01b815260040160405180910390fd5b506001600160a01b0392831660c0529082166080521660a0526100d5565b6001600160a01b0381168114610088575f5ffd5b50565b5f5f5f6060848603121561009d575f5ffd5b83516100a881610074565b60208501519093506100b981610074565b60408501519092506100ca81610074565b809150509250925092565b60805160a05160c0516111a86101205f395f818160a5015281816107f1015261098601525f81816101780152818161084c01526109f201525f818160f001526106bd01526111a85ff3fe608060405260043610610057575f3560e01c806323e30c8b1461006257806331f7d964146100945780636fca4f8f146100df5780637b364c5d146101125780638cf1626114610146578063b34cbaf714610167575f5ffd5b3661005e57005b5f5ffd5b34801561006d575f5ffd5b5061008161007c366004610acb565b61019a565b6040519081526020015b60405180910390f35b34801561009f575f5ffd5b506100c77f000000000000000000000000000000000000000000000000000000000000000081565b6040516001600160a01b03909116815260200161008b565b3480156100ea575f5ffd5b506100c77f000000000000000000000000000000000000000000000000000000000000000081565b34801561011d575f5ffd5b5061013161012c366004610b6e565b61050e565b6040805192835260208301919091520161008b565b348015610151575f5ffd5b50610165610160366004610ce8565b610648565b005b348015610172575f5ffd5b506100c77f000000000000000000000000000000000000000000000000000000000000000081565b5f80806101a984860186610d45565b815160405163095ea7b360e01b81526001600160a01b039182166004820152602481018b905292945090925089169063095ea7b3906044016020604051808303815f875af11580156101fd573d5f5f3e3d5ffd5b505050506040513d601f19601f820116820180604052508101906102219190610ec0565b5081516020830151604080850151905162a718a960e01b81526001600160a01b0392831660048201528b831660248201529082166044820152606481018a90525f608482015291169062a718a99060a40160408051808303815f875af115801561028d573d5f5f3e3d5ffd5b505050506040513d601f19601f820116820180604052508101906102b19190610ee6565b5f808260015d5082905d5050815160405163095ea7b360e01b81526001600160a01b0391821660048201525f60248201529089169063095ea7b3906044016020604051808303815f875af115801561030b573d5f5f3e3d5ffd5b505050506040513d601f19601f8201168201806040525081019061032f9190610ec0565b505f61033b8789610f1c565b9050886001600160a01b031683602001516001600160a01b0316036103e75760208301516040516370a0823160e01b81523060048201525f916001600160a01b0316906370a0823190602401602060405180830381865afa1580156103a2573d5f5f3e3d5ffd5b505050506040513d601f19601f820116820180604052508101906103c69190610f35565b90506103e1846020015183836103dc9190610f4c565b6107e4565b50610470565b6103f0826108ca565b6040516370a0823160e01b81523060048201525f906001600160a01b038b16906370a0823190602401602060405180830381865afa158015610434573d5f5f3e3d5ffd5b505050506040513d601f19601f820116820180604052508101906104589190610f35565b90508082101561046e5761046e8a8383036107e4565b505b60405163095ea7b360e01b8152336004820152602481018290526001600160a01b038a169063095ea7b3906044016020604051808303815f875af11580156104ba573d5f5f3e3d5ffd5b505050506040513d601f19601f820116820180604052508101906104de9190610ec0565b507f439148f0bbc682ca079e46d6e2c2f0c1e3b820f1a291b069d8882abf8cf18dd99a9950505050505050505050565b5f5f855f03610530576040516317ff0e0960e11b815260040160405180910390fd5b876001600160a01b0316635cffe9de30898989898960405160200161055793929190610f87565b6040516020818303038152906040526040518563ffffffff1660e01b815260040161058594939291906110fa565b6020604051808303815f875af11580156105a1573d5f5f3e3d5ffd5b505050506040513d601f19601f820116820180604052508101906105c59190610ec0565b5060405163095ea7b360e01b81526001600160a01b0389811660048301525f602483015288169063095ea7b3906044016020604051808303815f875af1158015610611573d5f5f3e3d5ffd5b505050506040513d601f19601f820116820180604052508101906106359190610ec0565b50505f5c9760015c975095505050505050565b60405163095ea7b360e01b81526001600160a01b0383811660048301525f19602483015284169063095ea7b3906044016020604051808303815f875af1158015610694573d5f5f3e3d5ffd5b505050506040513d601f19601f820116820180604052508101906106b89190610ec0565b505f5f7f00000000000000000000000000000000000000000000000000000000000000006001600160a01b0316836040516106f39190611136565b5f604051808303815f865af19150503d805f811461072c576040519150601f19603f3d011682016040523d82523d5f602084013e610731565b606091505b50915091508161076d5760408051808201909152601081526f14d5d05417d0d0531317d1905253115160821b602082015261076d90829061093e565b60405163095ea7b360e01b81526001600160a01b0385811660048301525f602483015286169063095ea7b3906044016020604051808303815f875af11580156107b8573d5f5f3e3d5ffd5b505050506040513d601f19601f820116820180604052508101906107dc9190610ec0565b505050505050565b805f036107ef575050565b7f00000000000000000000000000000000000000000000000000000000000000006001600160a01b0316826001600160a01b0316036108355761083181610970565b5050565b60405163a9059cbb60e01b81526001600160a01b037f0000000000000000000000000000000000000000000000000000000000000000811660048301526024820183905283169063a9059cbb906044016020604051808303815f875af11580156108a1573d5f5f3e3d5ffd5b505050506040513d601f19601f820116820180604052508101906108c59190610ec0565b505050565b5f5b8151811015610831576109368282815181106108ea576108ea61114c565b60200260200101515f01518383815181106109075761090761114c565b6020026020010151602001518484815181106109255761092561114c565b602002602001015160400151610648565b6001016108cc565b81511561094d57815182602001fd5b8060405162461bcd60e51b81526004016109679190611160565b60405180910390fd5b604051632e1a7d4d60e01b8152600481018290527f00000000000000000000000000000000000000000000000000000000000000006001600160a01b031690632e1a7d4d906024015f604051808303815f87803b1580156109cf575f5ffd5b505af11580156109e1573d5f5f3e3d5ffd5b50610a1a9250506001600160a01b037f000000000000000000000000000000000000000000000000000000000000000016905082610a1d565b50565b80471015610a475760405163cf47918160e01b815247600482015260248101829052604401610967565b5f826001600160a01b0316826040515f6040518083038185875af1925050503d805f8114610a90576040519150601f19603f3d011682016040523d82523d5f602084013e610a95565b606091505b50509050806108c55760405163d6bda27560e01b815260040160405180910390fd5b6001600160a01b0381168114610a1a575f5ffd5b5f5f5f5f5f5f60a08789031215610ae0575f5ffd5b8635610aeb81610ab7565b95506020870135610afb81610ab7565b9450604087013593506060870135925060808701356001600160401b03811115610b23575f5ffd5b8701601f81018913610b33575f5ffd5b80356001600160401b03811115610b48575f5ffd5b896020828401011115610b59575f5ffd5b60208201935080925050509295509295509295565b5f5f5f5f5f5f86880360e0811215610b84575f5ffd5b8735610b8f81610ab7565b96506020880135610b9f81610ab7565b9550604088013594506060605f1982011215610bb9575f5ffd5b5060608701925060c08701356001600160401b03811115610bd8575f5ffd5b8701601f81018913610be8575f5ffd5b80356001600160401b03811115610bfd575f5ffd5b8960208260051b8401011115610b59575f5ffd5b634e487b7160e01b5f52604160045260245ffd5b604051606081016001600160401b0381118282101715610c4757610c47610c11565b60405290565b604051601f8201601f191681016001600160401b0381118282101715610c7557610c75610c11565b604052919050565b5f82601f830112610c8c575f5ffd5b81356001600160401b03811115610ca557610ca5610c11565b610cb8601f8201601f1916602001610c4d565b818152846020838601011115610ccc575f5ffd5b816020850160208301375f918101602001919091529392505050565b5f5f5f60608486031215610cfa575f5ffd5b8335610d0581610ab7565b92506020840135610d1581610ab7565b915060408401356001600160401b03811115610d2f575f5ffd5b610d3b86828701610c7d565b9150509250925092565b5f5f8284036080811215610d57575f5ffd5b6060811215610d64575f5ffd5b50610d6d610c25565b8335610d7881610ab7565b81526020840135610d8881610ab7565b60208201526040840135610d9b81610ab7565b6040820152915060608301356001600160401b03811115610dba575f5ffd5b8301601f81018513610dca575f5ffd5b80356001600160401b03811115610de357610de3610c11565b8060051b610df360208201610c4d565b91825260208184018101929081019088841115610e0e575f5ffd5b6020850192505b83831015610eb15782356001600160401b03811115610e32575f5ffd5b85016060818b03601f19011215610e47575f5ffd5b610e4f610c25565b6020820135610e5d81610ab7565b81526040820135610e6d81610ab7565b602082015260608201356001600160401b03811115610e8a575f5ffd5b610e998c602083860101610c7d565b60408301525083525060209283019290910190610e15565b80955050505050509250929050565b5f60208284031215610ed0575f5ffd5b81518015158114610edf575f5ffd5b9392505050565b5f5f60408385031215610ef7575f5ffd5b505080516020909101519092909150565b634e487b7160e01b5f52601160045260245ffd5b80820180821115610f2f57610f2f610f08565b92915050565b5f60208284031215610f45575f5ffd5b5051919050565b81810381811115610f2f57610f2f610f08565b81835281816020850137505f828201602090810191909152601f909101601f19169091010190565b5f608082018535610f9781610ab7565b6001600160a01b031683526020860135610fb081610ab7565b6001600160a01b031660208401526040860135610fcc81610ab7565b6001600160a01b031660408401526080606084015283905260a0600584901b83018101908301855f605e1936839003015b878210156110be57868503609f19018452823581811261101b575f5ffd5b8901803561102881610ab7565b6001600160a01b03168652602081013561104181610ab7565b6001600160a01b03166020870152604081013536829003601e19018112611066575f5ffd5b016020810190356001600160401b03811115611080575f5ffd5b80360382131561108e575f5ffd5b606060408801526110a3606088018284610f5f565b96505050602083019250602084019350600182019150610ffd565b509298975050505050505050565b5f81518084528060208401602086015e5f602082860101526020601f19601f83011685010191505092915050565b6001600160a01b03858116825284166020820152604081018390526080606082018190525f9061112c908301846110cc565b9695505050505050565b5f82518060208501845e5f920191825250919050565b634e487b7160e01b5f52603260045260245ffd5b602081525f610edf60208301846110cc56fea2646970667358221220a7dcd3acd452ff005b906eb8a2c2c2bb30ac6cd124370f4d470e3bc3189ace8564736f6c634300081c0033",
  "language": "Solidity",
  "compiler": "0.8.28+commit.7893614a"
}