{
  "address": "0xE05966aee69CeCD677a30f469812Ced650cE3b5E",
  "abi": [
    {
      "inputs": [
        {
          "internalType": "contract ISilo",
          "name": "_silo",
          "type": "address"
        },
        {
          "internalType": "address",
          "name": "_borrower",
          "type": "address"
        }
      ],
      "name": "collateralBalanceOfUnderlying",
      "outputs": [
        {
          "internalType": "uint256",
          "name": "borrowerCollateral",
          "type": "uint256"
        }
      ],
      "stateMutability": "view",
      "type": "function"
    },
    {
      "inputs": [
        {
          "internalType": "contract ISilo",
          "name": "_silo",
          "type": "address"
        },
        {
          "internalType": "address",
          "name": "",
          "type": "address"
        },
        {
          "internalType": "address",
          "name": "_borrower",
          "type": "address"
        }
      ],
      "name": "collateralBalanceOfUnderlying",
      "outputs": [
        {
          "internalType": "uint256",
          "name": "borrowerCollateral",
          "type": "uint256"
        }
      ],
      "stateMutability": "view",
      "type": "function"
    },
    {
      "inputs": [
        {
          "internalType": "contract ISilo",
          "name": "_silo",
          "type": "address"
        },
        {
          "internalType": "address",
          "name": "",
          "type": "address"
        },
        {
          "internalType": "address",
          "name": "_borrower",
          "type": "address"
        }
      ],
      "name": "debtBalanceOfUnderlying",
      "outputs": [
        {
          "internalType": "uint256",
          "name": "",
          "type": "uint256"
        }
      ],
      "stateMutability": "view",
      "type": "function"
    },
    {
      "inputs": [
        {
          "internalType": "contract ISilo",
          "name": "_silo",
          "type": "address"
        },
        {
          "internalType": "address",
          "name": "_borrower",
          "type": "address"
        }
      ],
      "name": "debtBalanceOfUnderlying",
      "outputs": [
        {
          "internalType": "uint256",
          "name": "borrowerDebt",
          "type": "uint256"
        }
      ],
      "stateMutability": "view",
      "type": "function"
    },
    {
      "inputs": [
        {
          "internalType": "contract ISilo",
          "name": "_silo",
          "type": "address"
        }
      ],
      "name": "getBorrowAPR",
      "outputs": [
        {
          "internalType": "uint256",
          "name": "borrowAPR",
          "type": "uint256"
        }
      ],
      "stateMutability": "view",
      "type": "function"
    },
    {
      "inputs": [
        {
          "internalType": "contract ISilo",
          "name": "_silo",
          "type": "address"
        }
      ],
      "name": "getDepositAPR",
      "outputs": [
        {
          "internalType": "uint256",
          "name": "depositAPR",
          "type": "uint256"
        }
      ],
      "stateMutability": "view",
      "type": "function"
    },
    {
      "inputs": [
        {
          "internalType": "contract ISilo",
          "name": "_silo",
          "type": "address"
        }
      ],
      "name": "getFeesAndFeeReceivers",
      "outputs": [
        {
          "internalType": "address",
          "name": "daoFeeReceiver",
          "type": "address"
        },
        {
          "internalType": "address",
          "name": "deployerFeeReceiver",
          "type": "address"
        },
        {
          "internalType": "uint256",
          "name": "daoFee",
          "type": "uint256"
        },
        {
          "internalType": "uint256",
          "name": "deployerFee",
          "type": "uint256"
        }
      ],
      "stateMutability": "view",
      "type": "function"
    },
    {
      "inputs": [
        {
          "internalType": "contract ISilo",
          "name": "_silo",
          "type": "address"
        }
      ],
      "name": "getInterestRateModel",
      "outputs": [
        {
          "internalType": "address",
          "name": "irm",
          "type": "address"
        }
      ],
      "stateMutability": "view",
      "type": "function"
    },
    {
      "inputs": [
        {
          "internalType": "contract ISilo",
          "name": "_silo",
          "type": "address"
        }
      ],
      "name": "getLt",
      "outputs": [
        {
          "internalType": "uint256",
          "name": "lt",
          "type": "uint256"
        }
      ],
      "stateMutability": "view",
      "type": "function"
    },
    {
      "inputs": [
        {
          "internalType": "contract ISilo",
          "name": "_silo",
          "type": "address"
        },
        {
          "internalType": "address",
          "name": "_borrower",
          "type": "address"
        }
      ],
      "name": "getLtv",
      "outputs": [
        {
          "internalType": "uint256",
          "name": "ltv",
          "type": "uint256"
        }
      ],
      "stateMutability": "view",
      "type": "function"
    },
    {
      "inputs": [
        {
          "internalType": "contract ISilo",
          "name": "_silo",
          "type": "address"
        }
      ],
      "name": "getMaxLtv",
      "outputs": [
        {
          "internalType": "uint256",
          "name": "maxLtv",
          "type": "uint256"
        }
      ],
      "stateMutability": "view",
      "type": "function"
    },
    {
      "inputs": [
        {
          "internalType": "contract ISilo",
          "name": "_silo",
          "type": "address"
        }
      ],
      "name": "getRawLiquidity",
      "outputs": [
        {
          "internalType": "uint256",
          "name": "liquidity",
          "type": "uint256"
        }
      ],
      "stateMutability": "view",
      "type": "function"
    },
    {
      "inputs": [
        {
          "internalType": "contract ISilo",
          "name": "_silo",
          "type": "address"
        },
        {
          "internalType": "contract IPartialLiquidation",
          "name": "_hook",
          "type": "address"
        },
        {
          "internalType": "address",
          "name": "_borrower",
          "type": "address"
        }
      ],
      "name": "maxLiquidation",
      "outputs": [
        {
          "internalType": "uint256",
          "name": "collateralToLiquidate",
          "type": "uint256"
        },
        {
          "internalType": "uint256",
          "name": "debtToRepay",
          "type": "uint256"
        },
        {
          "internalType": "bool",
          "name": "sTokenRequired",
          "type": "bool"
        },
        {
          "internalType": "bool",
          "name": "fullLiquidation",
          "type": "bool"
        }
      ],
      "stateMutability": "view",
      "type": "function"
    }
  ],
  "bytecode": "0x6080604052348015600e575f5ffd5b506120ef8061001c5f395ff3fe608060405234801561000f575f5ffd5b50600436106100ca575f3560e01c80636c15c9ba11610088578063b003ec1411610063578063b003ec14146101f7578063d9bd0ea21461020a578063f2a07bc91461021d578063f5125d3f14610230575f5ffd5b80636c15c9ba14610196578063aab2353a146101a9578063af82d2bc146101e4575f5ffd5b8062e0f7a0146100ce578063249a6496146100f457806337febff4146101325780634f6a57b61461014557806354a0577114610158578063647e0c2014610183575b5f5ffd5b6100e16100dc366004611b5e565b610243565b6040519081526020015b60405180910390f35b610107610102366004611b5e565b610253565b604080516001600160a01b0395861681529490931660208501529183015260608201526080016100eb565b6100e1610140366004611b5e565b610270565b6100e1610153366004611b5e565b61027a565b61016b610166366004611b5e565b610284565b6040516001600160a01b0390911681526020016100eb565b6100e1610191366004611b5e565b61028e565b6100e16101a4366004611b79565b610298565b6101bc6101b7366004611bb0565b6102aa565b60408051948552602085019390935290151591830191909152151560608201526080016100eb565b6100e16101f2366004611bb0565b61039d565b6100e1610205366004611bb0565b610410565b6100e1610218366004611b79565b61041b565b6100e161022b366004611b5e565b610486565b6100e161023e366004611b79565b610490565b5f61024d8261049b565b92915050565b5f5f5f5f610260856105bb565b5092989197509550909350915050565b5f61024d8261076f565b5f61024d82610846565b5f61024d82610a41565b5f61024d82610b18565b5f6102a38383610bef565b9392505050565b6040516317a05b0960e31b81526001600160a01b0382811660048301525f9182918291829187169063bd02d84890602401606060405180830381865afa1580156102f6573d5f5f3e3d5ffd5b505050506040513d601f19601f8201168201806040525081019061031a9190611c0c565b604051635f30114960e01b81526001600160a01b03898116600483015293975091955093505f91891690635f30114990602401602060405180830381865afa158015610368573d5f5f3e3d5ffd5b505050506040513d601f19601f8201168201806040525081019061038c9190611c3f565b905083811491505093509350935093565b604051635f30114960e01b81526001600160a01b0382811660048301525f9190851690635f30114990602401602060405180830381865afa1580156103e4573d5f5f3e3d5ffd5b505050506040513d601f19601f820116820180604052508101906104089190611c3f565b949350505050565b5f6104088483610bef565b604051635f30114960e01b81526001600160a01b0382811660048301525f9190841690635f30114990602401602060405180830381865afa158015610462573d5f5f3e3d5ffd5b505050506040513d601f19601f820116820180604052508101906102a39190611c3f565b5f61024d82610e9d565b5f6102a38383610f7e565b5f5f826001600160a01b03166379502c556040518163ffffffff1660e01b8152600401602060405180830381865afa1580156104d9573d5f5f3e3d5ffd5b505050506040513d601f19601f820116820180604052508101906104fd9190611c56565b60405163e48a5f7b60e01b81526001600160a01b038581166004830152919091169063e48a5f7b9060240161022060405180830381865afa158015610544573d5f5f3e3d5ffd5b505050506040513d601f19601f820116820180604052508101906105689190611dca565b61012001516040516364efe17760e01b81526001600160a01b038581166004830152426024830152919250908216906364efe17790604401602060405180830381865afa158015610462573d5f5f3e3d5ffd5b5f5f5f5f5f856001600160a01b03166379502c556040518163ffffffff1660e01b8152600401602060405180830381865afa1580156105fc573d5f5f3e3d5ffd5b505050506040513d601f19601f820116820180604052508101906106209190611c56565b604051630509af0560e51b81526001600160a01b038881166004830152919091169063a135e0a090602401608060405180830381865afa158015610666573d5f5f3e3d5ffd5b505050506040513d601f19601f8201168201806040525081019061068a9190611de5565b9050809350819450829550505050856001600160a01b031663c45a01556040518163ffffffff1660e01b8152600401602060405180830381865afa1580156106d4573d5f5f3e3d5ffd5b505050506040513d601f19601f820116820180604052508101906106f89190611c56565b604051630c0d053960e11b81526001600160a01b038881166004830152919091169063181a0a72906024016040805180830381865afa15801561073d573d5f5f3e3d5ffd5b505050506040513d601f19601f820116820180604052508101906107619190611e25565b909790965092945090925090565b5f816001600160a01b03166379502c556040518163ffffffff1660e01b8152600401602060405180830381865afa1580156107ac573d5f5f3e3d5ffd5b505050506040513d601f19601f820116820180604052508101906107d09190611c56565b60405163e48a5f7b60e01b81526001600160a01b038481166004830152919091169063e48a5f7b9060240161022060405180830381865afa158015610817573d5f5f3e3d5ffd5b505050506040513d601f19601f8201168201806040525081019061083b9190611dca565b610160015192915050565b5f5f826001600160a01b031663a1ff9bee6040518163ffffffff1660e01b8152600401602060405180830381865afa158015610884573d5f5f3e3d5ffd5b505050506040513d601f19601f820116820180604052508101906108a89190611c3f565b9050805f036108b957505f92915050565b5f836001600160a01b03166379502c556040518163ffffffff1660e01b8152600401602060405180830381865afa1580156108f6573d5f5f3e3d5ffd5b505050506040513d601f19601f8201168201806040525081019061091a9190611c56565b60405163e48a5f7b60e01b81526001600160a01b038681166004830152919091169063e48a5f7b9060240161022060405180830381865afa158015610961573d5f5f3e3d5ffd5b505050506040513d601f19601f820116820180604052508101906109859190611dca565b905081846001600160a01b031663ecd658b46040518163ffffffff1660e01b8152600401602060405180830381865afa1580156109c4573d5f5f3e3d5ffd5b505050506040513d601f19601f820116820180604052508101906109e89190611c3f565b6109f18661049b565b6109fb9190611e66565b610a059190611e91565b60208201518251919450670de0b6b3a764000091610a239083611ea4565b610a2d9190611ea4565b610a379085611e66565b6104089190611e91565b5f816001600160a01b03166379502c556040518163ffffffff1660e01b8152600401602060405180830381865afa158015610a7e573d5f5f3e3d5ffd5b505050506040513d601f19601f82011682018060405250810190610aa29190611c56565b60405163e48a5f7b60e01b81526001600160a01b038481166004830152919091169063e48a5f7b9060240161022060405180830381865afa158015610ae9573d5f5f3e3d5ffd5b505050506040513d601f19601f82011682018060405250810190610b0d9190611dca565b610120015192915050565b5f816001600160a01b03166379502c556040518163ffffffff1660e01b8152600401602060405180830381865afa158015610b55573d5f5f3e3d5ffd5b505050506040513d601f19601f82011682018060405250810190610b799190611c56565b60405163e48a5f7b60e01b81526001600160a01b038481166004830152919091169063e48a5f7b9060240161022060405180830381865afa158015610bc0573d5f5f3e3d5ffd5b505050506040513d601f19601f82011682018060405250810190610be49190611dca565b610140015192915050565b5f5f5f846001600160a01b03166379502c556040518163ffffffff1660e01b8152600401602060405180830381865afa158015610c2e573d5f5f3e3d5ffd5b505050506040513d601f19601f82011682018060405250810190610c529190611c56565b604051630483b24f60e41b81526001600160a01b038781166004830152919091169063483b24f090602401606060405180830381865afa158015610c98573d5f5f3e3d5ffd5b505050506040513d601f19601f82011682018060405250810190610cbc9190611eb7565b506040516370a0823160e01b81526001600160a01b0387811660048301529294509092505f918416906370a0823190602401602060405180830381865afa158015610d09573d5f5f3e3d5ffd5b505050506040513d601f19601f82011682018060405250810190610d2d9190611c3f565b6040516370a0823160e01b81526001600160a01b0387811660048301529192505f918416906370a0823190602401602060405180830381865afa158015610d76573d5f5f3e3d5ffd5b505050506040513d601f19601f82011682018060405250810190610d9a9190611c3f565b90508115610e125760405163a7d6e44b60e01b81526001600160a01b0388169063a7d6e44b90610dd09085905f90600401611f0a565b602060405180830381865afa158015610deb573d5f5f3e3d5ffd5b505050506040513d601f19601f82011682018060405250810190610e0f9190611c3f565b94505b8015610e935760405163a7d6e44b60e01b81526001600160a01b0388169063a7d6e44b90610e47908490600190600401611f0a565b602060405180830381865afa158015610e62573d5f5f3e3d5ffd5b505050506040513d601f19601f82011682018060405250810190610e869190611c3f565b610e909086611f2e565b94505b5050505092915050565b5f61024d826001600160a01b031663b6d821c760016040518263ffffffff1660e01b8152600401610ece9190611f41565b602060405180830381865afa158015610ee9573d5f5f3e3d5ffd5b505050506040513d601f19601f82011682018060405250810190610f0d9190611c3f565b60405163b6d821c760e01b81526001600160a01b0385169063b6d821c790610f3a90600290600401611f41565b602060405180830381865afa158015610f55573d5f5f3e3d5ffd5b505050506040513d601f19601f82011682018060405250810190610f799190611c3f565b6110fb565b5f5f5f846001600160a01b03166379502c556040518163ffffffff1660e01b8152600401602060405180830381865afa158015610fbd573d5f5f3e3d5ffd5b505050506040513d601f19601f82011682018060405250810190610fe19190611c56565b6040516394c0527d60e01b81526001600160a01b03868116600483015291909116906394c0527d9060240161044060405180830381865afa158015611028573d5f5f3e3d5ffd5b505050506040513d601f19601f8201168201806040525081019061104c9190611f5b565b604081015191935091506001600160a01b0316156110f3576110f08282865f60018660c001516001600160a01b03166370a082318b6040518263ffffffff1660e01b81526004016110ac91906001600160a01b0391909116815260200190565b602060405180830381865afa1580156110c7573d5f5f3e3d5ffd5b505050506040513d601f19601f820116820180604052508101906110eb9190611c3f565b611113565b92505b505092915050565b5f82821161110b578183036102a3565b5f9392505050565b5f815f0361112257505f611160565b5f61113188888888888861116a565b905080608001515f03611147575f915050611160565b61115a81896060015189606001516113e7565b93505050505b9695505050505050565b6111a96040518060a001604052805f6001600160a01b031681526020015f6001600160a01b031681526020015f81526020015f81526020015f81525090565b85606001516001600160a01b031687606001516001600160a01b0316146112135760018460018111156111de576111de611ef6565b146111f2578660e001518660e001516111ff565b8661010001518661010001515b6001600160a01b0390811660208401521681525b5f5f6112248960800151885f61143d565b80935081925050505f5f8a604001516001600160a01b031663ffbaaf7a6040518163ffffffff1660e01b81526004016040805180830381865afa15801561126d573d5f5f3e3d5ffd5b505050506040513d601f19601f820116820180604052508101906112919190611f90565b915091506112a28382865f5f611525565b604086015260a08b01516112b7908a5f61143d565b9450925060018760018111156112cf576112cf611ef6565b146112da57816112f6565b6112f68b604001518c61012001518d5f01518e60200151611562565b91506113068383865f6001611525565b606086015260c08a015161131b908a8861143d565b945092505f600188600181111561133457611334611ef6565b146113ae578a604001516001600160a01b031663b6d821c760026040518263ffffffff1660e01b815260040161136a9190611f41565b602060405180830381865afa158015611385573d5f5f3e3d5ffd5b505050506040513d601f19601f820116820180604052508101906113a99190611c3f565b6113c1565b6113c18b604001518c6101200151611658565b90506113d284828760016002611525565b608087015250939a9950505050505050505050565b5f5f5f6113f586868661174b565b909350915082158015611406575081155b1561141857505f915081905080611434565b825f0361142757505f19611434565b61143182846118a1565b90505b93509350939050565b5f5f825f036114b75760405163dce5c2db60e01b81526001600160a01b03858116600483015286169063dce5c2db906024016040805180830381865afa158015611489573d5f5f3e3d5ffd5b505050506040513d601f19601f820116820180604052508101906114ad9190611f90565b909250905061151d565b829150846001600160a01b03166318160ddd6040518163ffffffff1660e01b8152600401602060405180830381865afa1580156114f6573d5f5f3e3d5ffd5b505050506040513d601f19601f8201168201806040525081019061151a9190611c3f565b90505b935093915050565b5f5f5f6115338787866118b7565b91509150815f03611548578792505050611559565b61155488828488611912565b925050505b95945050505050565b6040516367efe7fd60e11b81526001600160a01b0385811660048301524260248301525f91829186169063cfdfcffa90604401602060405180830381865afa9250505080156115ce575060408051601f3d908101601f191682019092526115cb91810190611c3f565b60015b156115d65790505b5f5f876001600160a01b03166339c5c5056040518163ffffffff1660e01b81526004016040805180830381865afa158015611613573d5f5f3e3d5ffd5b505050506040513d601f19601f820116820180604052508101906116379190611f90565b915091506116488282858989611954565b50919a9950505050505050505050565b6040516367efe7fd60e11b81526001600160a01b0383811660048301524260248301525f91829184169063cfdfcffa90604401602060405180830381865afa9250505080156116c4575060408051601f3d908101601f191682019092526116c191810190611c3f565b60015b156116cc5790505b60405163b6d821c760e01b8152611742906001600160a01b0386169063b6d821c7906116fd90600290600401611f41565b602060405180830381865afa158015611718573d5f5f3e3d5ffd5b505050506040513d601f19601f8201168201806040525081019061173c9190611c3f565b826119ba565b50949350505050565b5f5f5f856060015186604001516117629190611f2e565b905080156117f45785516001600160a01b031661177f57806117f1565b85516040516313b0be3360e01b8152600481018390526001600160a01b038781166024830152909116906313b0be3390604401602060405180830381865afa1580156117cd573d5f5f3e3d5ffd5b505050506040513d601f19601f820116820180604052508101906117f19190611c3f565b92505b6080860151156118985760208601516001600160a01b031661181a578560800151611895565b602086015160808701516040516313b0be3360e01b815260048101919091526001600160a01b038681166024830152909116906313b0be3390604401602060405180830381865afa158015611871573d5f5f3e3d5ffd5b505050506040513d601f19601f820116820180604052508101906118959190611c3f565b91505b50935093915050565b5f6102a383670de0b6b3a7640000846001611912565b5f5f835f036118c4575f94505b60028360028111156118d8576118d8611ef6565b14611903576118e96003600a61208d565b6118f39085611f2e565b6118fe866001611f2e565b611906565b83855b90969095509350505050565b5f61193f61191f83611a05565b801561193a57505f848061193557611935611e7d565b868809115b151590565b61194a868686611a31565b6115599190611f2e565b5f5f5f5f61196288886119ba565b909350905085850161197d8282670de0b6b3a7640000611aee565b92505f61198a8484611ea4565b90505f6119988c5f19611ea4565b9050818110156119a6578091505b818c01965050505095509550955095915050565b5f808315806119c7575082155b156119d657508290505f6119fe565b6119e98484670de0b6b3a7640000611aee565b90508084019150838210156119fe57508290505f5b9250929050565b5f6002826003811115611a1a57611a1a611ef6565b611a249190612098565b60ff166001149050919050565b5f838302815f1985870982811083820303915050805f03611a6557838281611a5b57611a5b611e7d565b04925050506102a3565b808411611a8357611a838415611a7c576011611b36565b6012611b36565b5f848688095f868103871696879004966002600389028118808a02820302808a02820302808a02820302808a02820302808a02820302808a02909103029181900381900460010186841190950394909402919094039290920491909117919091029150509392505050565b5f835f03611afd57505f6102a3565b5082820282848281611b1157611b11611e7d565b0414611b1e57505f6102a3565b818181611b2d57611b2d611e7d565b04949350505050565b634e487b715f52806020526024601cfd5b6001600160a01b0381168114611b5b575f5ffd5b50565b5f60208284031215611b6e575f5ffd5b81356102a381611b47565b5f5f60408385031215611b8a575f5ffd5b8235611b9581611b47565b91506020830135611ba581611b47565b809150509250929050565b5f5f5f60608486031215611bc2575f5ffd5b8335611bcd81611b47565b92506020840135611bdd81611b47565b91506040840135611bed81611b47565b809150509250925092565b80518015158114611c07575f5ffd5b919050565b5f5f5f60608486031215611c1e575f5ffd5b835160208501519093509150611c3660408501611bf8565b90509250925092565b5f60208284031215611c4f575f5ffd5b5051919050565b5f60208284031215611c66575f5ffd5b81516102a381611b47565b604051610220810167ffffffffffffffff81118282101715611ca157634e487b7160e01b5f52604160045260245ffd5b60405290565b8051611c0781611b47565b5f6102208284031215611cc3575f5ffd5b611ccb611c71565b82518152602080840151908201529050611ce760408301611ca7565b6040820152611cf860608301611ca7565b6060820152611d0960808301611ca7565b6080820152611d1a60a08301611ca7565b60a0820152611d2b60c08301611ca7565b60c0820152611d3c60e08301611ca7565b60e0820152611d4e6101008301611ca7565b610100820152611d616101208301611ca7565b6101208201526101408281015190820152610160808301519082015261018080830151908201526101a080830151908201526101c08083015190820152611dab6101e08301611ca7565b6101e0820152611dbe6102008301611bf8565b61020082015292915050565b5f6102208284031215611ddb575f5ffd5b6102a38383611cb2565b5f5f5f5f60808587031215611df8575f5ffd5b84516020860151604087015160608801519296509094509250611e1a81611b47565b939692955090935050565b5f5f60408385031215611e36575f5ffd5b8251611e4181611b47565b6020840151909250611ba581611b47565b634e487b7160e01b5f52601160045260245ffd5b808202811582820484141761024d5761024d611e52565b634e487b7160e01b5f52601260045260245ffd5b5f82611e9f57611e9f611e7d565b500490565b8181038181111561024d5761024d611e52565b5f5f5f60608486031215611ec9575f5ffd5b8351611ed481611b47565b6020850151909350611ee581611b47565b6040850151909250611bed81611b47565b634e487b7160e01b5f52602160045260245ffd5b8281526040810160028310611f2157611f21611ef6565b8260208301529392505050565b8082018082111561024d5761024d611e52565b6020810160038310611f5557611f55611ef6565b91905290565b5f5f6104408385031215611f6d575f5ffd5b611f778484611cb2565b9150611f87846102208501611cb2565b90509250929050565b5f5f60408385031215611fa1575f5ffd5b505080516020909101519092909150565b6001815b600184111561151d57808504811115611fd157611fd1611e52565b6001841615611fdf57908102905b60019390931c928002611fb6565b5f82611ffb5750600161024d565b8161200757505f61024d565b816001811461201d576002811461202757612043565b600191505061024d565b60ff84111561203857612038611e52565b50506001821b61024d565b5060208310610133831016604e8410600b8410161715612066575081810a61024d565b6120725f198484611fb2565b805f190482111561208557612085611e52565b029392505050565b5f6102a38383611fed565b5f60ff8316806120aa576120aa611e7d565b8060ff8416069150509291505056fea2646970667358221220d3d9fb6c32193fe05b190bd0ba21b2a7341bb6434e1875191b8b260a2fddec8364736f6c634300081c0033",
  "language": "Solidity",
  "compiler": "0.8.28+commit.7893614a"
}